:020000040800F2
:10000000203F002061020008D5270008AF24000827
:10001000E926000855070008712E000800000000BE
:100020000000000000000000000000009501000832
:10003000E308000800000000D9010008D9290008E1
:100040007B0200087B0200087B0200087B0200089C
:100050007B0200087B0200087B0200087B0200088C
:100060007B0200087B0200087B0200087B0200087C
:100070007B0200087B0200087B0200087B0200086C
:10008000A1080008AD0800087B020008592E0008EE
:10009000652E0008D90700087B0200087B020008D3
:1000A0007B0200087B0200087B0200087B0200083C
:1000B000552A00087B020008612A00087B0200081C
:1000C0007B0200087B0200087B0200087B0200081C
:1000D0007B0200087B0200084D2E00087B0200080E
:1000E0007B0200087B0200087B02000800F002F897
:1000F00000F041F80AA090E8000C82448344AAF181
:100100000107DA4501D100F036F8AFF2090EBAE87E
:100110000F0013F0010F18BFFB1A43F0010318473B
:100120003054000050540000103A24BF78C878C101
:10013000FAD8520724BF30C830C144BF04680C60ED
:10014000704700000023002400250026103A28BF35
:1001500078C1FBD8520728BF30C148BF0B60704739
:10016000642900F0EB80002070471FB500F037F9DC
:100170001FBD10B510BD00F0B7FA1146FFF7F5FF2F
:1001800002F088FE00F0D5FA03B4FFF7F2FF03BCDB
:1001900000F0DAFA224B19680868B0E8F00F80F333
:1001A0000988BFF36F8F4FF0000080F311884EF085
:1001B0000D0E70470000000006480068006880F3DC
:1001C000088862B661B6BFF34F8FBFF36F8F00DF51
:1001D00000BF00BF08ED00E0EFF30980BFF36F8FB1
:1001E0000F4B1A6820E9F00F106008B54FF050006F
:1001F00080F31188BFF34F8FBFF36F8F03F04AFD79
:100200004FF0000080F31188BDE8084019680868C5
:10021000B0E8F00F80F30988BFF36F8F704700BF1D
:1002200048000020EFF30580704700000B49D1F82B
:1002300000C04A685CF8043B1068184442F8040B9C
:100240008C4528BFA1F1DC0C8A4228BFA1F1DC0259
:10025000C1F800C04A6020F000407047B438002068
:100260000948804709480047FEE7FEE7FEE7FEE74A
:10027000FEE7FEE7FEE7FEE7FEE7FEE70448054986
:10028000054A064B70470000512A0008ED0000089F
:1002900020390020203F0020203B0020203B002070
:1002A0000FB41CB50C0007AA009001D02044401EDA
:1002B000074B7B4469460190069800F098F9002CA2
:1002C00003D06946002000F0A5F91CBC5DF814FBC2
:1002D000690300002DE9F0410E460446002020622B
:1002E0002046E168884730B3252805D0D4E90121AC
:1002F0009047206A401CF2E7E168204600278847C3
:10030000050018D0A5F14100192802D820354FF476
:1003100000673246294620462760FFF721FF40B19B
:10032000012804D0F61D26F007060836D8E7361D4A
:10033000D6E72846DAE7206ABDE8F0812DE9F041EA
:100340000646002410687529314616A510D0AFF373
:100350000080002802DA404213A507E031688A07CE
:1003600001D512A502E0490704D511A5012401E039
:10037000AFF3008000210A2206F1240709E0B0FB58
:10038000F2FCB0FBF2F302FB1C003030785418464C
:10039000491C0028F3D123462A463046BDE8F041E7
:1003A00000F0C7B8000000002D0000002B00000086
:1003B000200000000B4910B5A1F17C020A4CC2E9F3
:1003C0003712372106E000EB104342F82130074B8B
:1003D00000FB03400B1EA1F10101F4DC10BD012064
:1003E000E8E7000054380020E119D666CD0D010081
:1003F00010B5431C02E010F8011B71B18107FAD15E
:100400004FF0013202C88C1A8C4314EAC211F9D0A1
:10041000C01A0A0603D0C01E10BDC01A10BD0A04BF
:1004200001D0801E10BD0902FCD0401E10BD032A61
:1004300040F2308010F0030C00F0158011F8013B01
:10044000BCF1020F624498BF11F801CB00F8013BE8
:1004500038BF11F8013BA2F1040298BF00F801CBAC
:1004600038BF00F8013B11F0030300F0E080083AC8
:10047000C0F0088051F8043B083A51F804CBA0E8DA
:100480000810F5E7121D5CBF51F8043B40F8043B2F
:10049000AFF30080D20724BF11F8013B11F801CB64
:1004A00048BF11F8012B24BF00F8013B00F801CB35
:1004B00048BF00F8012B704702F0FF0343EA032214
:1004C00042EA024200F0E7B84FF0000200B51346DE
:1004D00094469646203922BFA0E80C50A0E80C5064
:1004E000B1F12001BFF4F7AF090728BFA0E80C5015
:1004F00048BF0CC05DF804EB890028BF40F8042B0E
:1005000008BF704748BF20F8022B11F0804F18BF7A
:1005100000F8012B704770477047704710B500F026
:10052000DBF8006810BD10B5044600F0D5F8046093
:1005300010BD2DE9F0470D4699469246044600F15C
:1005400024080168880604D5E06921F010012160C3
:1005500000E00120A84201DD471B00E00027A1695F
:100560007A1902EB0900081AA0612078C00602D4AB
:100570002046AFF30080002608E0D4E901211AF8F4
:1005800006009047206A401C761C20624E45F4DB32
:100590002078C0060AD52046AFF3008006E0D4E9F3
:1005A000012130209047206A401C2062381EA7F1AC
:1005B0000107F4DC07E0D4E9012118F805009047B1
:1005C000206A401C2062281EA5F10105F3DC2046AC
:1005D000AFF300802078000602D50220BDE8F08746
:1005E0000120FBE701694A1C02610878704700B5E9
:1005F0008FB0CDE901310021059105497944CDE95C
:10060000031011466846FFF765FE0FB000BD0000FD
:10061000E5FFFFFF0A6802F8010B0A607047D1E9A5
:1006200000239A4202D2531C0B601070704710B521
:10063000203AC0F00B80B1E81850203AA0E81850DA
:10064000B1E81850A0E81850BFF4F5AF5FEA027C9B
:1006500024BFB1E81850A0E8185044BF18C918C00A
:10066000BDE810405FEA827C24BF51F8043B40F8AB
:10067000043B08BF7047D20728BF31F8023B48BF90
:1006800011F8012B28BF20F8023B48BF00F8012BCE
:1006900070474FF000020429C0F0128010F0030CE4
:1006A0003FF414AFCCF1040CBCF1020F18BF00F8FA
:1006B000012BA8BF20F8022BA1EB0C01FFF706BF0E
:1006C0005FEAC17C24BF00F8012B00F8012B48BF72
:1006D00000F8012B7047000000487047BC3800202C
:1006E00000487047BC3800207546FFF7F9FFAE465A
:1006F00005006946534620F00700854618B020B52E
:10070000FFF7BCFDBDE820404FF000064FF00007AA
:100710004FF000084FF0000B21F00701AC46ACE8A9
:10072000C009ACE8C009ACE8C009ACE8C0098D4616
:10073000704710B50446AFF300802046BDE8104076
:10074000FFF722BD7047000001491820ABBEFEE74D
:1007500026000200FEE70000DFF870901C4D1D4CE3
:100760004FF080584FF4FA6B4FF07D0A4FF47A76D1
:100770000821284600F0E0FE012801D0206819E099
:1007800000F0ECFE074605E0C9F80080BFF34F8F8C
:10079000BFF36F8F0821284600F0CEFE0128F3D06A
:1007A00000F0DCFEC01B5845206801D37D3000E01E
:1007B0007D382060B04202DDC4F800A002E07D2850
:1007C00000DA2660322003F069F9D1E704ED00E099
:1007D000000C014004000020014800F003BA0000B2
:1007E0007C01002000F00EF8054D4FF4FA646878A3
:1007F00008B100F02FF8204603F050F9F7E70000A9
:100800000800002000B58BB0002005904FF4804117
:10081000CDE900104FF6FF71CDE90210049006906B
:1008200001200E21CDE9080107906946084800F033
:10083000D5F80321064800F057F8054800F0BCFB46
:10084000034800F0BDF90A2003F028F90BB000BD01
:100850007C0100200F484FF4007104220160082140
:100860000161002141608160C1600B480121A0F15C
:1008700008030170427081700521C1700922027164
:100880000222427106228271C17102460149034867
:1008900000F03CB848010020180000207C01002036
:1008A000014800F049BC000034020020014800F07B
:1008B00043BC00007802002030B590F8405001247D
:1008C000AC40C56B6C60046863604368102B0368C0
:1008D00003D099600068C26030BD9A600068C16052
:1008E00030BD704772B6FEE790F82020012A07D08D
:1008F000022A05D0416A41F48021416201207047FB
:10090000006842690A43426100207047F0B590F8E0
:1009100020500468A468012D05D0022D03D0416A3F
:1009200041F4802157E014F0406F01D1E5004FD52C
:10093000C4F301640125A5401D608D684FF4C073A8
:100940009DB1CE6835434E6845EAC605066803EB9F
:100950000417F5514FF4C275076805EB04150E69CD
:100960007E51097D012905D009E00E88CD6845EA50
:100970004655EBE701684E5946F480764E511179A1
:10098000D579567941EA056195792D0445EA062520
:1009900029434FF4C676056806EB0416A951117871
:1009A000D57841EA0561957852782D0445EA02220E
:1009B00011434FF4C475026805EB041551510068EA
:1009C00003EB0411425842F0010242500020F0BDF6
:1009D000416A41F4001141620120F0BD10B590F868
:1009E00020300268012B07D0022B05D0416A41F468
:1009F00080214162012010BDD2F8000240F00100C8
:100A0000C2F80002087D00F01F0301209840D2F8D0
:100A10001C328343C2F81C32CB69B3B9D2F80C3212
:100A20008343C2F80C328C894B6864F31F434C69D2
:100A300002EBC404C4F840320C890B6864F31F4312
:100A40004C6902EBC404C4F84432CB69012B16D1C3
:100A5000D2F80C320343C2F80C320C884B6864F3B2
:100A60001F434C6902EBC404C4F840320C89CB68C4
:100A700064F31F434C6902EBC404C4F844328B692D
:100A8000002BD2F804320FD053EA0003C2F804322C
:100A90000B69002BD2F8143208D00343C2F8143289
:100AA000096A012904D008E08343EFE78343F5E7AF
:100AB000D2F81C120143C2F81C12D2F8000220F036
:100AC0000100C2F80002002010BD704770B590F818
:100AD0002040012C05D0022C03D0416A41F4802132
:100AE00028E0046809B32469A40720D04FF4D8741F
:100AF000056804EB01142D5915F00405956005688F
:100B00002D591AD0ED08556005682C5904F00204DF
:100B1000D4604FF4DA74056804EB01142E5906F022
:100B20000F06082E0CD308250DE0E468DCE7416AC7
:100B300041F400114162012070BD6D0D1560E3E7C5
:100B40002D5905F00F05156105682D59C5F30725C9
:100B5000956105682C59240C54614FF4DC720468CB
:100B600002EB0112A4581C700468A458240A5C709B
:100B70000468A458240C9C700468A258120EDA7001
:100B80004FF4DE72046802EB0112A4581C71046871
:100B9000A458240A5C710468A458240C9C7104684D
:100BA000A258120EDA71006829B1016941F02001E2
:100BB0000161002070BDC16841F02001C160F8E70B
:100BC000014690F82000012801D0022804D10968CC
:100BD0004A68920701D50420704709688907FBD548
:100BE000032070472DE9F05F054600680024466940
:100BF000D0F804908768D0F80CB0D0F810A0D0F8E6
:100C00001880F10748D0F90714D001218160B80796
:100C100003D5284600F0FEF90CE0780702D54FF422
:100C2000006407E0380702D54FF4805402E02846FC
:100C300000F0EEF9F80516D529684FF48070886049
:100C4000B80503D5284600F0F1F90CE0780502D587
:100C500044F4005407E0380502D544F4804402E02F
:100C6000284600F0E1F9F80316D529684FF48030E2
:100C70008860B80303D5284600F0E4F90CE0780357
:100C800002D544F4004407E0380302D544F480342C
:100C900002E0284600F0D4F9300707D55FEACB60C0
:100CA00004D52968102044F40074C86070074FF020
:100CB000080707D55FEA0B7004D52868C760284687
:100CC00000F06AF9B00706D52868C068800702D02E
:100CD000284600F063F9700607D55FEACA6004D5BC
:100CE0002968102044F480640861B00607D55FEAE3
:100CF0000A7004D528680761284600F059F9F00603
:100D000006D528680069800702D0284600F051F90E
:100D1000B00308D55FEAC96005D52968102048608E
:100D2000284600F047F9F00307D55FEA097004D5BB
:100D300028684760284600F08FF9300446D55FEAFE
:100D4000497040D5F00504D55FEAC87001D044F081
:100D50000104B00504D55FEA887001D544F00204AF
:100D6000700504D55FEA487001D544F004043005ED
:100D700029D518F0700F26D008F07000402815D043
:100D800006DC102809D020280AD0302816D10AE025
:100D900050280ED0602811D10EE044F008040DE078
:100DA00044F010040AE044F0200407E044F040045A
:100DB00004E044F0800401E044F480742868816910
:100DC00021F070018161296804204860002C05D061
:100DD000686A204368622846FFF777FEBDE8F09F07
:100DE00070B5040003D094F8200010B104E0012095
:100DF00070BD204600F082F82068016841F00101D2
:100E0000016000F0ABFB0546052604E000F0A6FB00
:100E1000401B0A2811D820684068C007F6D0206817
:100E2000016821F00201016000F098FB05460BE02B
:100E300000F094FB401B0A2806D9606A40F4003099
:100E4000606284F82060D2E7206840688007EFD4B1
:100E5000207E0128206801683DD021F080010160DA
:100E6000607E01282068016838D021F040010160CF
:100E7000A07E01282068016833D021F020010160A4
:100E8000E07E0128206801682ED041F01001016049
:100E9000207F01282068016829D021F00801016025
:100EA000607F01282068016824D021F004010160DE
:100EB000D4E902010843D4E90412114308436168EC
:100EC000491E08432168C86100206062012084F83F
:100ED0002000002070BD41F08001C0E741F04001DA
:100EE000C5E741F02001CAE721F01001CFE741F04A
:100EF0000801D4E741F00401D9E7000010B586B03D
:100F00000021009101910291039100681F498842DC
:100F10003AD11F48C16941F00071C161C16901F056
:100F200000710491816941F0040181618069194C6B
:100F300000F0040004904FF40060009069462046E1
:100F400000F00AFAA0140090022001900320039000
:100F50006946204600F000FA00220521132000F027
:100F60009BFB132000F08AFB00220521142000F0D7
:100F700093FB142000F082FB00220521152000F0D5
:100F80008BFB152000F07AFB06B010BD006400401A
:100F9000001002400008014070470000024B034A65
:100FA0000021FFF793BD0000300000206001002009
:100FB000704770477047000070B5044690F82000F5
:100FC000012804D0606A40F40020606218E002202A
:100FD00084F820002068016821F00101016000F020
:100FE000BDFA05460EE000BF00F0B8FA401B0A2823
:100FF00008D9606A40F400306062052084F820005F
:10100000012070BD20684068C007EDD1606270BDEE
:1010100070470000642308220149024801F0ADB97D
:1010200018000020EC010020704700006423082213
:101030000149024801F0A1B918000020EC0100208C
:1010400070470000642308220149024801F095B965
:1010500018000020EC010020704710B590F8211016
:101060000022022905D00421816380F8202001207C
:1010700010BD01680B6823F00E030B6001680B685C
:1010800023F001030B6090F84030C46B012101FA9A
:1010900003F3636080F8211080F82020104610BD13
:1010A00010B590F821100024022903D00421816397
:1010B00001243DE001680A6822F00E020A6001681E
:1010C0000A6822F001020A601A4A0168914201D1BD
:1010D000012121E0174A1432914201D110211BE075
:1010E000144A2832914201D1891515E0114A3C3247
:1010F000914201D189140FE00E4A5032914202D13F
:101100004FF4803108E00B4A6432914202D14FF42F
:10111000801101E04FF08071064A083A51600121C8
:1011200080F82110002180F82010416B01B1884720
:10113000204610BD080002402DE9F05FC16B0C682D
:1011400001680B68D0F840C0042202FA0CF2494D45
:10115000DFF824A1494E4A4FDFF828B1DFF828E133
:1011600022422CD05A072AD50A68920603D40A686C
:1011700022F004020A600168A94201D1042219E0A8
:10118000514501D1402215E0B14202D14FF48062B5
:1011900010E0B94202D14FF480420BE0594502D130
:1011A0004FF4802206E0714502D14FF4800201E045
:1011B0004FF080622F4908394A60C16A3BE04FF026
:1011C000020808FA0CF818EA040F4FF000094FF073
:1011D000010235D05FEA837832D50B689B0605D4CF
:1011E0000B6823F00A030B6080F821200168A942F4
:1011F00001D1022219E0514501D1202215E0B1426E
:1012000002D14FF4007210E0B94202D14FF4005203
:101210000BE0594502D14FF4003206E0714502D18E
:101220004FF4001201E04FF00072124908394A6091
:1012300080F82090816A00291AD0BDE8F05F084745
:10124000082505FA0CF5254212D01B0710D50B68AE
:1012500023F00E030B6090F84010C36B02FA01F10B
:101260005960826380F8212080F82090016BE2E7CA
:10127000BDE8F09F080002401C0002403000024020
:1012800044000240580002406C00024030B528B3D0
:1012900008C8134914221944B1FBF2F18900C16353
:1012A00010498163022141771A6843F6F0718A433D
:1012B000D0E900142143D0E902452C4321430469BD
:1012C000214344692143846921431143196000216A
:1012D0004163012242770177084630BD012030BDCD
:1012E000F8FFFDBF0000024070B5044690F82000F2
:1012F000002501280CD0012084F8200094F82160FA
:101300000020012E06D084F820000225284670BD5A
:10131000022070BD022684F82160A0632068066860
:1013200026F0010606602046FFF7C6FAE06A0028AC
:101330002068016802D041F00E0106E021F00401AE
:1013400001602068016841F00A01016020680168BD
:1013500041F001010160D9E72DE9F84FDFF8B891BC
:101360000024A9F1040B23460F2709F1040AABF16D
:10137000040EC9E00125A5402A40AA427DD1674E4E
:10138000D1F804C0ACEB0608B44532D014DCBCF193
:10139000030F3AD009DCBCF1000F2AD0BCF1010FD9
:1013A0001CD0BCF1020F31D11DE0BCF1110F17D0E0
:1013B000BCF1120F2AD119E0B8F5881F19D006DC4C
:1013C000B8F5803F15D0B8F5801F1FD111E0B8F5F2
:1013D000001F0ED0B8F5041F18D10AE0CB6815E045
:1013E000CB681B1D12E0CB6808330FE0CB680C33D1
:1013F0000CE08B682BB1012B4FF0080303D0456143
:1014000004E0042302E0056100E00023FF2A01D884
:10141000064601E000F104064FEA840501D9A5F172
:101420002005D6F8008007FA05FC28EA0C0803FA24
:1014300005F548EA0508C6F800804D68ED0062D55C
:10144000374DAE6946F00106AE61AD6924F0030682
:1014500005F001050095334D06EB050CDCF808504E
:10146000A607360F07FA06F825EA0805DFF8B88060
:10147000404503D14FF0000817E044E0DFF8AC80AE
:10148000404502D14FF001080FE0DFF8A48040454D
:1014900002D14FF0020808E0DFF89880404502D101
:1014A0004FF0030801E04FF0040808FA06F848EA94
:1014B0000508CCF808804D68D9F80060ED024D466B
:1014C00001D5164300E096432E604D68DAF80060BF
:1014D000AD02554601D5164300E096432E604D6897
:1014E000DBF80060AD035D4601D5164300E096438E
:1014F0002E604D68DEF80060ED03754601D5164399
:1015000000E096432E60641C0D682A46E5407FF497
:1015100031AFBDE8F88F0000080401400000111051
:10152000001002400000014000080140000C014092
:1015300000100140001401408068084000D00120E4
:101540007047C26821EA02030A4043EA024101618E
:1015500070470AB1016170470904FBE701488068E0
:10156000704700003800002002488168027811446A
:101570008160704738000020074810B5016841F0CD
:1015800010010160032000F0A7F80F2000F006F81A
:1015900000F050F8002010BD0020024030B5054694
:1015A0001F4887B0C16941F00401C161C06906A943
:1015B00000F00400009001A800F036F90498B0B1E2
:1015C00000F052F940001749174AB0FBF1F11748F3
:1015D000491E0260416040F2E7320021C0E9032168
:1015E0008160816100F04CFB040003D015E000F045
:1015F0003BF9E8E70D4800F08DFB04000DD11E20FB
:1016000000F03CF8102D07D2002229461E2000F0E1
:1016100043F80748056000E0012407B0204630BDCC
:101620000010024040420F0000080040BC020020B1
:101630003C0000200F4808B5816941F0010181613B
:10164000816901F001010091C16941F08051C161DE
:10165000C069002200F0805000900F21901E00F021
:101660001BF80548416821F0E06141F000714160DC
:1016700008BD00000010024000000140002809DB06
:1016800000F01F02012191404009800000F1E0209C
:10169000C0F8001170470000F0B40E4B1B680C46F8
:1016A000C3F30223C3F10705042D00D90425191D36
:1016B000072901D2002300E0DB1E012606FA05F10E
:1016C000491E214099409E40761E16403143F0BC91
:1016D00001F0CFBB0CED00E0064900F007020868FE
:1016E0004FF6FF03184040EA0220034A1043086007
:1016F000704700000CED00E00000FA052DE9F0470E
:101700000F46050061D0434E306800F00700B84234
:1017100009D2306820F0070038433060306800F0AC
:101720000700B84251D128683B4C810712D54007C9
:1017300003D5606840F4E06060602878000703D556
:10174000606840F4605060606068A96820F0F00054
:10175000084360602878C00728D06868012810D046
:101760002168022810D0890700292EDA616821F04B
:10177000030101436160FFF7F1FE804641F28839C1
:101780000DE021688903EFE78901EDE7FFF7E6FE49
:10179000A0EB0801494502D90320BDE8F087606845
:1017A000696800F00C00B0EB810FEFD1306800F0F9
:1017B0000700B8420BD9306820F00700384330608A
:1017C000306800F00700B84201D00120E5E7287832
:1017D000400705D56068E96820F4E0600843606070
:1017E0002878000706D56068296920F4605040EA2F
:1017F000C100606000F058F86168084AC1F3031145
:10180000515CC8400649086006480068FFF7C6FEFC
:101810000020C2E7002002400010024038550008B6
:10182000440000203C0000200F2202600C4A536854
:1018300003F003034360536803F0F00383605368CD
:1018400003F4E063C36052684FF4E06303EAD2023A
:1018500002610448006800F007000860704700005B
:101860000010024000200240044805490068496811
:10187000044AC1F30221515CC84070474400002073
:1018800000100240485500080448054900684968AE
:10189000044AC1F3C221515CC84070474400002093
:1018A00000100240485500080E4A51680E4801F0E9
:1018B0000C03042B11D0082B0FD10C48C1F3834328
:1018C000C903C05C0AD55168084AC1F34041921E61
:1018D000515C054A5043B0FBF1F07047044948435E
:1018E000704700000010024000127A0028550008DE
:1018F00000093D002DE9F84F040070D02078C04D5C
:10190000C00749D06868C0F38100012807D0686823
:10191000C0F38100022809D16868C00306D5286891
:10192000800339D560680028E7D035E06068B0F5FD
:10193000803F0BD010B1B0F5A02F11D0286820F453
:1019400080302860286820F4802002E0286840F475
:1019500080302860606890B1FFF700FE06460AE01C
:10196000286840F480202860F0E700BFFFF7F6FD0C
:10197000801B642873D828688003F7D50CE0FFF734
:10198000EDFD064605E000BFFFF7E8FD801B64287B
:10199000F0D828688003F7D420789A4E80074FF05B
:1019A00001094FF0000839D5686810F00C0F07D016
:1019B0006868C0F38100022809D16868C00306D4B2
:1019C0002868800714D52069012808D110E0206913
:1019D000B0B1C6F80090FFF7C1FD074605E00AE187
:1019E000FFF7BCFDC01B0228C4D828688007F7D5C4
:1019F0002868616920F0F80040EAC10028600DE025
:101A0000C6F80080FFF7AAFD074604E0FFF7A6FD31
:101A1000C01B022823D828688007F7D42078000745
:101A20002CD57948A169D9B1C0F80090FFF796FD8F
:101A3000074604E0FFF792FDC01B02280FD8686A32
:101A40008007F7D571484FF4FA510068B0FBF1F008
:101A5000009000BF0098411E0091FAD20EE080E095
:101A6000C0F80080FFF77AFD074604E0FFF776FD37
:101A7000C01B022875D8686A8007F7D42078400711
:101A800060D5E8690027C00008D4E86940F08050BC
:101A9000E861E869012700F0805000905C48016827
:101AA000C90513D40168834641F480710160FFF7D2
:101AB00055FD824606E000BFFFF750FDA0EB0A008F
:101AC00064284ED8DBF80000C005F5D5E068012891
:101AD0000AD008B1052813D0286A20F00100286236
:101AE000286A20F0040002E0286A40F00100286221
:101AF000E06841F2883B98B1FFF730FD82460BE089
:101B0000286A40F004002862EEE700BFFFF726FDD8
:101B1000A0EB0A0159455AD8286A8007F6D50CE08F
:101B2000FFF71CFD824605E0FFF718FDA0EB0A0158
:101B300059454CD8286A8007F6D41FB1E86920F0CF
:101B40008050E861E06988B36968C1F381010229C6
:101B500044D00228C6F8608004D0FFF7FFFC04469A
:101B600038E034E0FFF7FAFC074604E0FFF7F6FC44
:101B7000C01B02282BD828688001F7D4206AB0F552
:101B8000803F05D16868A16820F400300843686090
:101B9000D4E908010843696821F4741108436860B6
:101BA000C6F86090FFF7DAFC044606E025E000BFC7
:101BB000FFF7D4FC001B022809D828688001F7D55C
:101BC0001BE000BFFFF7CAFC001B022802D903205C
:101BD000BDE8F88F28688001F4D40EE00128F7D022
:101BE0006868226A00F48031914204D1616A00F48D
:101BF0007010884201D00120EAE70020E8E70000E9
:101C00000010024000004242800442424400002092
:101C1000007000407047704770B590F83C20012A72
:101C200026D0012480F83C40022280F83D20036841
:101C30005A689D6822F070060A6832435A600D4B5C
:101C400002689A4208D0B2F1804F05D00A4B9A42FE
:101C500002D00A4B9A4204D1496825F08003194307
:101C6000916080F83D40002180F83C10084670BD2E
:101C7000022070BD002C014000040040000800401C
:101C800010B5040003D094F83D0010B107E0012026
:101C900010BD002084F83C00204600F01FF8022010
:101CA00084F83D00211D206800F0E0FE012084F84A
:101CB000460084F83E0084F83F0084F8400084F831
:101CC000410084F8420084F8430084F8440084F81A
:101CD000450084F83D00002010BD000008B50068F4
:101CE000B0F1804F12D10A48C16941F00101C161D0
:101CF000C069002200F00100009005211C20FFF7C0
:101D0000CBFCBDE808401C20FFF7B8BC08BD0000B4
:101D10000010024090F83D10012901D001207047C9
:101D2000022180F83D100168CA6842F00102CA60D1
:101D300000680B49884208D0B0F1804F05D00949AE
:101D4000884202D00849884204D1816801F0070125
:101D5000062903D0016841F00101016000207047AD
:101D6000002C0140000400400008004070B504460B
:101D700090F83C000025012817D0012684F83C602B
:101D8000022084F83D002068826822F0770222F465
:101D90007F4282600868502838D00DDC20284FD060
:101DA00005DC90B3102811D14AE0022070BD302824
:101DB00046D040280AD13BE060282FD070280DD0B3
:101DC000B0F5805F03D0B0F5005F12D0012584F834
:101DD0003D60002084F83C00284670BDCB68D1E906
:101DE0000121206800F07EFE2068816841F07701C3
:101DF00009E0CB68D1E90121206800F073FE20687A
:101E0000816841F480418160E1E719E0CA6849686E
:101E1000206800F079FE5021206806E0CA68496811
:101E2000206800F082FE6021206800F065FECEE7A9
:101E3000CA684968206800F067FE40212068F4E71E
:101E4000226801461046F0E770472DE9F04104464C
:101E50000068C66805694FF00007A90713D5B107E8
:101E600011D5F91E01610120207720688069800763
:101E7000204602D0FFF7E8FF04E000F07EF820469D
:101E800000F07CF82777680716D5700714D521680D
:101E90006FF004000861022020772068806910F448
:101EA000407F204602D0FFF7CFFF04E000F065F846
:101EB000204600F063F82777280715D5300713D59B
:101EC00021686FF008000861042020772068C0694D
:101ED0008007204602D0FFF7B7FF04E000F04DF87E
:101EE000204600F04BF82777E80616D5F00614D503
:101EF00021686FF010000861082020772068C06911
:101F000010F4407F204602D0FFF79EFF04E000F06F
:101F100034F8204600F032F82777E80708D0F007B9
:101F200006D021686FF001000861204600F028F813
:101F3000280608D5300606D521686FF080000861B4
:101F40002046FFF767FE680608D5700606D52168AB
:101F50006FF040000861204600F036F8A8060AD568
:101F6000B00608D521686FF0200008612046BDE862
:101F7000F041FFF750BEBDE8F081704770470000A8
:101F800010B504460C4884420CD10C490868401C2A
:101F900008604A68904205D3002008604021084844
:101FA000FFF7CFFA07492068884203D1BDE8104007
:101FB000FFF7DABA10BD0000A401002000000020E5
:101FC000000801400008004070477047704700005B
:101FD000F8B5016804460868CA684B6910F00F0F2D
:101FE0004FF0000559D003F0010602F49077374313
:101FF00065D0C10705D0D10503D5616C41F0010161
:102000006164410705D5D90703D0616C41F0020135
:102010006164810705D5D90703D0616C41F00401E3
:102020006164010707D502F02001314303D0616CE0
:1020300041F008016164616C00293AD0800604D542
:10204000900602D5204600F00AFE20684069616CC7
:10205000C0F38010090700D460B3204600F0CAFD29
:1020600020684069400621D52068143050E8001FE0
:1020700021F0400140E80012002AF5D1E06BA8B140
:102080006D494163E06BFFF70BF8002811D0E06B5E
:10209000416B01B0BDE8F040084783060FD59306B9
:1020A0000DD52046BDE8F84000F0D9BD2046FFF729
:1020B0008DFFF8BD2046FFF789FF6564F8BD266BEC
:1020C0002023012E7CD1C6067AD5D60678D508689D
:1020D0004868009048694FF00206400640D5E16B21
:1020E000086840680004000CE8D0A28D8242E5D95F
:1020F000E085886920282DD020680C3050E8001F2A
:1021000021F4807140E80012002AF5D120681430D3
:1021100050E8001F21F0010140E80012002AF5D12B
:102120002068143050E8001F21F0400140E8001200
:10213000002AF5D184F84230256320680C3050E83D
:10214000001F21F0100140E80012002AF5D1E06BD9
:10215000FEF783FF6663A08DE18D401A81B22AE00D
:10216000A08DE18D401A81B2E08D0028A6D0002913
:10217000A4D022680C3252E8000F20F4907042E89C
:102180000007002FF5D12068143050E8002F22F00E
:10219000010240E80027002FF5D184F84230256382
:1021A00020680C3050E8002F22F0100240E8002395
:1021B000002BF5D166632046FFF707FFF8BDFFE768
:1021C00005062BD5150629D594F841002128F5D10F
:1021D000A068B0F5805F01D12069B0B1206A411CD0
:1021E0002162216800784860E08C401E0004000CE9
:1021F000E084E3D12068C16821F08001C1602068DB
:10220000C16841F04001C160D8E7206A0088C0F38E
:1022100008004860206A801C2062E5E74006CDD5B2
:102220005006CBD5CA68204622F04002CA6084F826
:10223000413000F02FF9C1E74F2B000870B50400C2
:1022400004D094F84100002510B106E0012070BDD3
:1022500084F84050204600F023F8242084F8410000
:102260002068C16821F40051C160204600F058FD8B
:102270002068016921F4904101612068416921F0E1
:102280002A0141612068C16841F40051C160656460
:10229000202084F8410084F842006563002070BD6E
:1022A000F0B585B00024064600940194029403948E
:1022B00000682C49884253D12B48C16941F4003150
:1022C000C161C16901F400310491816941F00401E7
:1022D00081618069254D00F0040004900420009085
:1022E000022001900320039069462846FFF734F846
:1022F0000820CDE90004694628460294FFF72CF82F
:102300001C4D1B488027C5E90004C5E902472C6124
:102310006C61AC612846EC61FEF7B8FF08B1FEF7CE
:10232000E1FAF5636E62134D11484435143001C56E
:10233000102091C50F4845F8104944306C61AC61DC
:10234000EC61FEF7A3FF08B1FEF7CCFAB5630022FB
:10235000052126206E62FFF79FF92620FFF78EF9F0
:1023600005B0F0BD004400400010024000080140EC
:102370006C0002403402002070472DE9F843044607
:1023800090F84100984616460D46202802D00220BB
:10239000BDE8F88385B17EB100206064212084F817
:1023A0004100FFF7DBF8A6848146E684A068202779
:1023B000B0F5805F02D003E00120E9E7206910B1A9
:1023C0002E4600250EE000260CE08021204600F07D
:1023D00003FDA8B9C6B116F8010B21684860E08C6E
:1023E000401EE084E08C4B464FF00002CDF80080A8
:1023F0000028EAD14FF04001204600F0EDFC40B14A
:1024000084F841700320C3E735F8020BC0F30800DD
:10241000E3E784F841700020BAE7000070B5044695
:1024200090F84100202801D0022070BD49B342B38A
:102430002162A284E28400206064212384F8413078
:10244000A56B114BAB62A56B104BEB62A56B104BF0
:102450002B63A36B5863256813462A1DA06BFEF7F8
:1024600043FF21686FF0400008602068143050E896
:10247000001F41F0800140E80012002AF5D1002041
:1024800070BD012070BD0000A92B0008EB2B0008D7
:102490005F2B00080349884202D1034901200870DC
:1024A00070470000EC010020080000207047FEE7A4
:1024B0000F4810B50D490160022141604907816054
:1024C00000214FF44032C0E903121201426101764B
:1024D00041768176C17601774177FEF781FC00284D
:1024E00003D0BDE81040FEF7FDB910BD0064004008
:1024F0007C0100200D4808B5416941F001014161AE
:102500004069002200F00100009005211020FFF733
:10251000C3F81020FFF7B2F8002205211120FFF7C1
:10252000BBF8BDE808401120FFF7A8B80010024032
:102530007CB5012001F04AFC134900241825C8602D
:10254000CDE900542346802210A1134801F084FFF6
:10255000CDE9005400234FF4807210A1124801F01D
:102560007BFFCDE900540023802210A1114801F027
:1025700073FF1920CDE9000400232A010EA11148A0
:1025800001F06AFF7CBD00000800002042757474F1
:102590006F6E5461736B0000590700084D6F746FC4
:1025A000725461736B000000ED26000843414E54E5
:1025B00061736B00E50700084E6F697379546173AE
:1025C0006B000000D927000870B586B000251C48B4
:1025D0000095019502950395816941F02001816183
:1025E000816901F020010491816941F00401816158
:1025F000816901F004010491816941F00801816160
:102600008069104E00F008000490002240213046FE
:10261000FEF79FFF4020009001200224CDE9010435
:10262000694630460394FEF797FE4FF49470CDE967
:102630000005694602940448FEF78EFE06B070BDA0
:102640000010024000080140000C014010B586B0A7
:1026500000241648009401940294039404944FF0CB
:102660008041059401604721C0E9011440F2E7313F
:10267000C0E903148461FFF703FB08B1FEF732F9E8
:102680004FF48050009069460848FFF76FFB08B18F
:10269000FEF728F9049404A904480594FFF7BCFA4E
:1026A000002801D0FEF71EF906B010BDA4010020DD
:1026B0000C4810B50A4901604FF4E1314160002136
:1026C00081600C22C160C0E904128161C161FFF721
:1026D000B5FD002803D0BDE81040FEF703B910BDDA
:1026E00000440040EC010020FEE700002F4C304D7C
:1026F000304F4FF0805620212046FEF71DFF012865
:102700004FD1142001F0CAF920212046FEF714FF12
:10271000012846D104E02E60BFF34F8FBFF36F8FC7
:1027200020212046FEF708FF0128F4D07888A0F584
:10273000E060D6381AD0A0F5A060DE3803D0B0F53E
:102740001D6F0BD102E041F2847301E040F2D673B9
:102750007B8019A280211D48FDF7A2FD4FF0FF31BB
:10276000F86801F083FD012808D01AE040F6B45360
:10277000EEE72E60BFF34F8FBFF36F8F38780028DE
:10278000F7D0002038701148FDF732FE82B20F49B1
:102790000F48FFF743FE00231A461946F86801F078
:1027A000B9FB322001F07AF9A5E70000000C0140E6
:1027B00004ED00E008000020E5BD93E5898DE7B158
:1027C000BBE59E8B3A25640D0A000000C80000207E
:1027D000EC010020FEE700006E4E86B06E4FDFF881
:1027E000BC91B046FEF7BAFEFDF7E4FDDFF8B0A1FC
:1027F0004FF4807B6B4D5C4659462846FEF79CFEA5
:10280000012825D1142001F049F921462846FEF778
:1028100093FE012806D01BE02C60BFF34F8FBFF35F
:102820006F8F03E0A346604D4FF0805459465D48DA
:10283000FEF782FE0128EFD0DAF804105046002996
:102840007ED000214160417800297AD0002141707A
:10285000DAF804005446002874D0FDF7E7FC02F0D3
:102860008BFA012202F017FE504A514B02F02CF96C
:102870000022504B02F0EEFC4F4A504B02F068F839
:1028800005460091D4E9060100F0AEFF2A46009B00
:1028900002F05EF8CDE90001D4E906010022484BC0
:1028A00002F056F80022474BC4E9060102F0B6FBDD
:1028B00002D20020C4E90600D4E908014FF06632D4
:1028C000414BA24602F0ACFA04460D46DDE9000198
:1028D0004FF033323D4B02F0A3FA22462B4602F072
:1028E00037F805460C4632463B46CAE9080102F075
:1028F00095FB01D22E46274642464B4628462146A6
:1029000002F052FA01D2A846A14642464B46304652
:10291000394602F09FFCCDE900012846214601F02E
:10292000E5FF0290DDE9000101F0E0FF0390284897
:102930004FF0FF31544600680490DAF80C0002E0D2
:1029400006E007E021E001F091FC01280AD01CE03C
:10295000012177E701217AE70160BFF34F8FBFF3D1
:102960006F8F02E010484FF080512278002AF3D098
:10297000002020700C2202A91648FFF74FFD00230B
:102980001A461946E06801F0C5FA4FF4FA7001F0F2
:1029900085F82FE700C84E676DC1ABC36DC1AB436F
:1029A00008000020000C014004ED00E00000C0FF22
:1029B000FFFFDF410000F03F9A9999999999B93F3B
:1029C0000000E03F000024406666E63F3333D33F1B
:1029D00022550008EC01002010B54FF0E0200069FE
:1029E00001F092FD012803D0BDE8104001F0D8B9F4
:1029F00010BD30B58FB028216846FDF765FD142164
:102A00000AA8FDF761FD01210804CDE900100024AA
:102A1000029402250491CDE907504FF4E01009908B
:102A20006846FEF767FF08B172B6FEE70F20CDE9F2
:102A30000A054FF4A060CDE90C4002210AA80E94CB
:102A4000FEF75CFE002801D072B6FEE70FB030BD85
:102A5000704700000148FFF7F8B90000A40100200A
:102A60000148FFF7F2B90000BC020020F0B502688F
:102A7000194B1A4C1A4D4FF08047984205D0B84276
:102A800003D0A04201D0A84203D122F070064A68C8
:102A90003243984205D0B84203D0A04201D0A842A8
:102AA00003D122F44074CA6822434C6922F08002A8
:102AB000224302608A68C2620A688262984201D137
:102AC00009690163012141610169C90703D00169F5
:102AD00021F001010161F0BD002C01400004004023
:102AE0000008004010B5846842EA032224F47F44C1
:102AF0000A432243826010BD826822F070020A43BA
:102B000042F007018160704710B5036A046A24F03F
:102B100001040462846924F0F00444EA021423F0FE
:102B20000A020A438461026210BD10B5036A046A96
:102B300024F010040462846923F0A00324F4704498
:102B400044EA023243EA01118261016210BD10B50C
:102B5000406A0021C185C184FFF738FA10BD70B505
:102B6000446A2068406994F84110C0F3C010002501
:102B7000212904D118B1E584204600F062F82068CC
:102B8000406994F84210C0F38010222904D118B192
:102B9000E585204600F02EF8606C40F0100060647F
:102BA0002046FFF713FA70BD10B50146406A096868
:102BB0000968890616D40021C1840168143151E8DE
:102BC000002F22F0800241E80023002BF5D101689C
:102BD0000C3151E8002F42F0400241E80023002B65
:102BE000F5D110BDFFF756FC10BD10B5406AFFF7D8
:102BF0005DFC10BD01680C3151E8002F22F4907289
:102C000041E80023002BF5D10168143151E8002F71
:102C100022F0010241E80023002BF5D1016B0129CC
:102C200009D101680C3151E8002F22F0100241E86F
:102C30000023002BF5D1202180F8421000210163F0
:102C4000704701680C3151E8002F22F0C00241E8C2
:102C50000023002BF5D1202180F84110704708B5E2
:102C600090F84210222901D0022008BD82684FF45A
:102C700080539A4201D1016921B1816A9A421BD0E5
:102C80004AB10AE00268816A5268C2F308020A8007
:102C9000816A891C08E0026972B10268526802F018
:102CA0007F020A70816A491C8162C18D491E090434
:102CB000090CC18503D01BE002685268F1E7016886
:102CC000CA6822F02002CA600168CA6822F48072D1
:102CD000CA6001684A6922F001024A61202180F835
:102CE000421000214163026B012A03D0FFF744FB2D
:102CF000002008BD016301680C3151E8002F22F06B
:102D0000100241E80023002BF5D101680A68D206C1
:102D100002D50A6849680091818DFFF756F9E7E707
:102D200070B5044600680169E26821F4405111431E
:102D300001612169A0680843616908432168CA6884
:102D400041F20C639A430243CA6020684169A26958
:102D500021F44071114341611E492068884202D12B
:102D6000FEF792FD01E0FEF77FFD00EBC00101EBF5
:102D70000012606864218000B2FBF0F3B3FBF1F352
:102D80006FF018067343B2FBF0F5B2FBF0F605EBFB
:102D90008305322303EB0515B5FBF1F5B6FBF1F620
:102DA00005F0F00505EB0615B2FBF0F6B2FBF0F00E
:102DB000B0FBF1F06FF01802504306EB800003EB1C
:102DC0000010B0FBF1F0216800F00F00284488608B
:102DD00070BD0000003801402DE9F84398461746C1
:102DE0000D460446089E24E0701C22D0FEF7B6FB78
:102DF000A0EB0800B0421AD8CEB12068C1684907DC
:102E000017D5802D15D0402D13D00168C94309076F
:102E10000FD401680025406800902046FFF7EAFEC5
:102E20000820606484F840500120BDE8F883032046
:102E3000FBE72068006835EA000004D00020B842B3
:102E4000D2D00020F1E70120F9E700000148FFF7A8
:102E5000BFB80000EC0100200148FDF7C3BE000030
:102E60007C0100200148FDF7BDBE00007C01002070
:102E7000FEE70907090E002804DB00F1E02080F8D6
:102E80000014704700F00F0000F1E02080F8141DDE
:102E900070470000FEF770FBFFF7ABFDFFF794FBF8
:102EA000FFF728FBFFF704FBFFF7D0FBFFF700FC61
:102EB0000448FEF72FFF00F007F8FFF739FB00F09A
:102EC00015F8FEE7A4010020EFF3058010B16FF0C4
:102ED000050070470448016811B14FF0FF3070479A
:102EE00001210160002070479800002010B5EFF329
:102EF000058010B16FF0050010BD08480168012978
:102F000002D04FF0FF3010BD054A002182F8141D99
:102F10000221016000F072FE002010BD9800002028
:102F20000BE000E02DE9F041134C0F460546E66842
:102F30002068001D00F07EFC681C07D137B12168B5
:102F4000BDE8F0410D48091D00F0C4BC20683544BF
:102F5000B5424560216805D2A06BBDE8F041091D6E
:102F600000F0A0BC606B091D00F09CFCA06A8542CB
:102F700000D2A562BDE8F08148000020F4070020DF
:102F80002DE9F041054600F0B1FC2D4CA068401C35
:102F9000A06020682B4F10B1606930B32BE0256032
:102FA000A068012827D1002606EB860007EB8000E9
:102FB00000F06AFC761C382EF6D3234800F064FC3F
:102FC0002148143000F060FC1F48283000F05CFC01
:102FD0001D483C3000F058FC1B48503000F054FCB9
:102FE000194860631430A06305E02068E96AC06A8C
:102FF000884200D82560606A401C60626864E86AA4
:103000002169884200D9206100EB800007EB800035
:10301000291D00F05FFC00F089FC606900280CD0DD
:103020002068E96AC06A884207D208494FF0805098
:103030000860BFF34F8FBFF36F8FBDE8F0810000D2
:103040004800002044030020A407002004ED00E015
:1030500038B500F04BFC104C2068C8B90F4800F0A0
:1030600013FC0E48143000F00FFC0C48E0601430E4
:1030700020610A4B0020F03B009003F15002102128
:103080000A2000F0CFFE206010B105A100F0D0FCB6
:10309000BDE8384000F04ABC84000020F808002059
:1030A000546D72510000000030B4026C0B46002ACF
:1030B0000BD0C1681144C1608468A14201D301688A
:1030C000C16030BC1846FDF7B2B930BC70472DE97D
:1030D000F041856B174604460026026C82B1C7B1E9
:1030E000E068FDF7A4F9E168206C091AE160226844
:1030F000914202D2A168081AE060022F16D017E0B0
:103100002068A8B9A06801F077FA06460020A06000
:103110000EE06068FDF78BF9216C60680844606020
:10312000A168884204D32068606001E005B16D1E8B
:103130006D1CA5633046BDE8F08110B5044690F8DB
:10314000590058B101280CD002280FD0502080F32C
:103150001188BFF34F8FBFF36F8FFEE7206B00F036
:10316000F9FB2046BDE8104000F0F4BB10BD0000A4
:1031700010484FF42051420706D0C01D0D4920F0E1
:103180000700411AC1F520510B4A00230144C2E94E
:1031900000030839183A21F0070111604B600B60F9
:1031A0000B1AC0E9001393604FF000405360506168
:1031B00070470000D80F0020B4000020144E154CBA
:1031C000A6F29C474FF08058DFF84C9012E000BF09
:1031D00000F08CFBF068C568281D00F02BFBA06890
:1031E000401EA0606068401E606000F09FFB2846A3
:1031F000FFF7A3FF60680028EAD138680128F9D9F1
:10320000C9F80080BFF34F8FBFF36F8FF2E7000064
:10321000E00700204800002004ED00E0002807D06F
:103220000021816001600B460A46C16000F072BE59
:103230007047000070B51D46049C51B1C4F80020D1
:10324000C4E90F010121204600F020FE84F84C5013
:1032500070BD2460F4E700002DE9F05F8846DDE9E9
:103260000B941546834691009A460A9EA522206B30
:10327000FDF722F96FF00301206B01EB8501084493
:1032800020F00707780707D0502080F31188BFF39C
:103290004F8FBFF36F8FFEE70025B8F1000F0FD0FF
:1032A0005FF00000221818F8001082F8341018F8A7
:1032B000001011B1401C1028F4D384F8435001E0F1
:1032C00084F83450382E00D33726E662C4E91365FB
:1032D000201D00F0E4FA04F1180000F0E0FA246187
:1032E000C6F138006462A061656584F858505246A2
:1032F0005946384600F066FA2060B9F1000F01D057
:10330000C9F80040BDE8F09F30B5114900E0114612
:103310000A688242FBD34B685C18844203D1406840
:1033200018444860084643681C18944209D1084C68
:10333000183C2468A24209D052681A4442600A68C4
:1033400012680260814200D0086030BD0460F9E775
:10335000B400002070B5002441600B4D0061914223
:1033600006D8D11A8269914206D2011D286907E068
:103370009A4203D2994201D3012403E0011DE86877
:1033800000F090FA204670BD8400002010B504467D
:1033900000F0ACFAA06B28B15FF0000400F0C6FAB0
:1033A000204610BD0124F9E730B589B03C4D6EE0F0
:1033B0000498002806DADDE90601059A904704988A
:1033C000002864DB069C606910B1201D00F032FA11
:1033D00003A800F0D7F8024604980A2857D2DFE87D
:1033E00000F00505052D334A05052D3394F8280016
:1033F00040F0010084F828000599A069059B01446C
:103400002046FFF7A7FF68B3216A2046884794F853
:10341000280040073BD5002000900598A1690023B3
:1034200042181946204601F02DFAD8B9502080F3F1
:103430001188BFF34F8FBFF36F8FFEE714F8280F8B
:1034400020F00100207022E094F8280040F00100F4
:1034500084F828000598A06128B1811813462046F9
:10346000FFF778FF13E0502080F31188BFF34F8FF0
:10347000BFF36F8FFEE794F82800810703D420463E
:1034800000F068FA03E020F0010084F82800002230
:1034900004A9286800F04EFE002889D109B030BD8B
:1034A000840000202DE9FC410F46054600F0EAFBB0
:1034B00001A800F067F80446019818B101F050F92E
:1034C000BDE8FC81254EAFB130690068D0B300275C
:1034D000291B3A46306800F0BFFA01F041F9002894
:1034E000EED11F494FF080500860BFF34F8FBFF3FC
:1034F0006F8FE5E7A542EBD801F032F9F068274677
:10350000C068C468201D00F095F994F828004107B0
:1035100019D5A0692B4641193A462046FFF71AFFF4
:10352000A8B100200346014600902A46204601F03B
:10353000A9F960B9502080F31188BFF34F8FBFF312
:103540006F8FFEE707E020F0010084F82800216A71
:1035500020468847B4E70127BAE70000840000202E
:1035600004ED00E00648416B096829B1416BC96868
:10357000C9684968816270474FF0FF31FAE700007F
:103580004800002070B5054600F0CCFF064E04460A
:10359000B068844203D200F009F8012000E0002066
:1035A00028602046B46070BD84000020F8B5194D35
:1035B00020E0C068C4680668201D00F03BF9216A5D
:1035C0002046884794F82800400713D5A069304466
:1035D000B04206D924616060211DE86800F062F9FC
:1035E00008E000200346014600903246204601F0E4
:1035F00049F938B1E86801680029DAD12969C5E9D3
:103600000310F8BD502080F31188BFF34F8FBFF334
:103610006F8FFEE78400002008484068401C4FF090
:10362000500080F3118804D0BFF34F8FBFF36F8F2A
:10363000FEE7BFF34F8FBFF36F8FFEE7BC000020A4
:10364000074CE068016841B1C0680021D0F8000073
:10365000FFF728FFFFF7A8FEF3E701210020F7E7B7
:10366000840000202DE9F041044600F03FF994F970
:10367000455004F1240609E0606A48B1304601F083
:1036800037F808B100F038FA6D1E6DB2002DF3DC8A
:103690004FF0FF3684F8456000F048F900F026F955
:1036A00094F9445004F1100709E0206948B1384604
:1036B00001F01EF808B100F01FFA6D1E6DB2002D6A
:1036C000F3DC84F84460BDE8F04100F02FB900005D
:1036D0002DE9F0410546002700F0D4FA324E30685B
:1036E00008B9FFF745FD706905424ED1C5B30835ED
:1036F00068070ED005F00700C0F108000544680710
:1037000007D0502080F31188BFF34F8FBFF36F8F26
:10371000FEE72DB37068854237D82348183001463C
:103720000C6801E020460C466168A94202D221687B
:103730000029F7D131688C4227D0076821680160E1
:1037400060680837411B10290FD96019420708D05B
:10375000502080F31188BFF34F8FBFF36F8FFEE7C8
:1037600013E041606560FFF7CFFD61687068401A43
:103770007060B268904200D2B0607069014300206E
:10378000C4E90001F068401CF06000F0E9FF780730
:1037900007D0502080F31188BFF34F8FBFF36F8F96
:1037A000FEE73846BDE8F0819C0000200449086827
:1037B00018B10868026D521C026508687047000065
:1037C0004800002010B5031F4FF080741C601B1FC1
:1037D00021F001011960191F024B0B6014394038A8
:1037E0000A6010BD193600082DE9F04106460F4663
:1037F00001F04AFC041E0D4618BF0120284320F0AA
:103800000040C0F17F6000F1E040C00F0ED0301CDE
:1038100018BF0120384320F00040C0F17F6000F164
:10382000E040C00F04BF0120FCF77DFE2046294682
:10383000BDE8F081D0E9013201699A60D0E9012345
:103840005A604A68824201D182684A60002202615D
:103850000868401E0860086870470000034B03605A
:1038600003F15C0008608020106070472009002090
:10387000044B036003F15C0008604FF4807010603B
:10388000704700007C0B002000F108014FF0FF3270
:10389000C0E90112C160016100210160704700218F
:1038A0000161704730B50B685A1C02D000F1080264
:1038B00002E0026904E02246546825689D42FAD974
:1038C00053684B6099608A60516008610168491CC7
:1038D000016030BD42684A6093688B6093685960AC
:1038E000916008610168491C01607047502080F3B5
:1038F0001188BFF34F8FBFF36F8F0A494868401C90
:10390000486001280CD10848006810F0FF0F07D06C
:10391000502080F31188BFF34F8FBFF36F8FFEE706
:1039200070470000BC00002004ED00E00849486832
:1039300028B1401E486001D180F3118870475020A3
:1039400080F31188BFF34F8FBFF36F8FFEE7000046
:10395000BC00002070B500282AD0164DA0F1080444
:1039600060686969084207D1502080F31188BFF36D
:103970004F8FBFF36F8FFEE722683AB1502080F37C
:103980001188BFF34F8FBFF36F8FFEE788436060EE
:1039900000F078F960686968084468602046FFF7BD
:1039A000B3FC2869401C2861BDE8704000F0D8BE17
:1039B00070BD00009C0000204FF0E020002101615C
:1039C000816105494FF47A720968B1FBF2F1491E31
:1039D00041610721016170474400002010B5FCF7E8
:1039E00021FC114910280ED300F1E02090F8F003DB
:1039F0000A78904207D2502080F31188BFF34F8F8E
:103A0000BFF36F8FFEE709480068896800F4E06043
:103A1000884207D9502080F31188BFF34F8FBFF33E
:103A20006F8FFEE710BD0000BC0000200CED00E031
:103A300010B5084B002200BF53F832401CB1521C95
:103A4000082AF9D310BD43F8321003EBC2014860D5
:103A500010BD00000403002070B515460E46044654
:103A6000FFF744FF94F944100020491C01D184F869
:103A7000440094F94510491C01D184F84500FFF732
:103A800055FFA06B28B92A46314604F1240000F006
:103A900051F82046BDE87040FFF7E4BD10B50200C4
:103AA00014D00F48006B38B1502080F31188BFF359
:103AB0004F8FBFF36F8FFEE700F0E4F80021104650
:103AC000FFF730FA00F04CFE002807D105494FF00F
:103AD00080500860BFF34F8FBFF36F8F10BD0000A1
:103AE0004800002004ED00E002490A6A0260C9684B
:103AF000416070474800002001490120C8617047BB
:103B00004800002010B50C4650B109490968183129
:103B1000FFF7C8FE2046BDE810400121FFF702BABA
:103B2000502080F31188BFF34F8FBFF36F8FFEE7F4
:103B30004800002070B514460D4668B10A4909686E
:103B40001831FFF7C7FE0CB14FF0FF35214628466C
:103B5000BDE87040FFF7E6B9502080F31188BFF34D
:103B60004F8FBFF36F8FFEE74800002070B5040051
:103B70003ED0226DA2B1E06C884200D30146E06ADB
:103B8000884235D0012A33D11A4D2A6894420FD188
:103B9000502080F31188BFF34F8FBFF36F8FFEE784
:103BA000502080F31188BFF34F8FBFF36F8FFEE774
:103BB000E162A269002A02DBC1F13801A1610E4E67
:103BC00000EB8000616906EB8000814210D1201D6E
:103BD000FFF730FEE06A2969884200D9286100EBCE
:103BE000800006EB8000211DBDE87040FFF772BE2B
:103BF00070BD0000480000204403002030B587B0AD
:103C00000024039405AA04A903A80494FFF726FE40
:103C1000DDE903010094CDE90110002315A1174847
:103C2000059A00F046FC164D0028E8621FD000F00F
:103C3000F9FD012809D0401C19D1502080F31188CA
:103C4000BFF34F8FBFF36F8FFEE7502080F31188D3
:103C5000BFF34F8FBFF36F8F4FF0FF30A86201208B
:103C60006861EC6007B0BDE8304000F045B807B0CF
:103C700030BD000049444C4500000000BD31000843
:103C8000480000200248016B491C01637047000096
:103C900048000020164810B5016B11B10121C16127
:103CA00010BD0021C1610169124A01E0B9B1491E8C
:103CB00001EB810352F82330002BF7D001EB810395
:103CC00002EB830202F1080453685B685360A3426D
:103CD00001D15B685360DA680260016110BD502059
:103CE00080F31188BFF34F8FBFF36F8FFEE70000A3
:103CF00048000020440300201CB5264908780190A4
:103D0000FF20087008788DF800009DF800009DF8ED
:103D1000002000F0F000904207D0502080F311887E
:103D2000BFF34F8FBFF36F8FFEE79DF800001A4C73
:103D300000F0500020700720A06005E09DF80020F2
:103D400052008DF80020401E9DF800201206F5D488
:103D5000A060032807D0502080F31188BFF34F8F55
:103D6000BFF36F8FFEE74FF44070A06001980870BA
:103D70000A48016841F470010160016841F0704136
:103D80000160FFF719FE00206060FCF715FA0020C3
:103D90001CBD000000E400E0BC00002020ED00E0BD
:103DA00010B5502080F31188BFF34F8FBFF36F8F92
:103DB00000F0BEFB18B104494FF0805008600020AD
:103DC00080F3118810BD000004ED00E010B502463C
:103DD0000021012000F005F80446FFF71FFA2046F5
:103DE00010BDF8B517460E46050013D005FB06F0CA
:103DF0005030FFF76DFC04000AD0002084F8460024
:103E000004F150023B46314628460094FFF712FA6F
:103E10002046F8BD502080F31188BFF34F8FBFF3C9
:103E20006F8FFEE738B5049D18B153B1CAB181B1A7
:103E300020E0502080F31188BFF34F8FBFF36F8FC6
:103E4000FEE7502080F31188BFF34F8FBFF36F8FD1
:103E5000FEE7502080F31188BFF34F8FBFF36F8FC1
:103E6000FEE739B1502080F31188BFF34F8FBFF3C5
:103E70006F8FFEE750241C46012384F846302B4602
:103E80000094FFF7D7F9204638BD000070B50D4605
:103E9000040025D0FFF72AFDD4E90F20216802FB9A
:103EA0000011A1600021A163216861600A46D4E984
:103EB0000F01401E00FB0121E16021464FF0FF3061
:103EC00001F8440F487004F110008DB1FFF7DCFCDD
:103ED00004F12400FFF7D8FCFFF728FD012070BD96
:103EE000502080F31188BFF34F8FBFF36F8FFEE731
:103EF00021690029F0D000F0FBFB0028ECD0044938
:103F00004FF080500860BFF34F8FBFF36F8FE3E730
:103F100004ED00E02DE9FF4782B01D468A464FF0D0
:103F20000008040003D0BAF1000F08D011E05020BF
:103F300080F31188BFF34F8FBFF36F8FFEE7206CC4
:103F400038B1502080F31188BFF34F8FBFF36F8FCC
:103F5000FEE7022D0AD1E06B012807D0502080F344
:103F60001188BFF34F8FBFF36F8FFEE700F0CCFADD
:103F70003F4F4FF000094FF0805648B9049838B1D0
:103F8000502080F31188BFF34F8FBFF36F8FFEE790
:103F9000FFF7ACFCA06BE16B884207D3022D05D084
:103FA0000498D0B1B8F1000F1AD01EE02A4651464D
:103FB0002046FFF78CF8616A19B104F1240000F083
:103FC00097FB20B13E60BFF34F8FBFF36F8FFFF7BA
:103FD000ADFC012006B0BDE8F087FFF7A7FC22E0AA
:103FE0006846FFF781FD4FF00108FFF79FFCFFF7E0
:103FF00049FEFFF77BFC94F94400401C01D184F892
:10400000449094F94500401C01D184F84590FFF795
:104010008DFC04A9684600F0E5F930B12046FFF7B1
:1040200021FB00F09DFB0020D4E7FFF75FFCA06BB5
:10403000E16B884213D1FFF779FC04F11000049979
:10404000FFF760FD2046FFF70DFB00F089FB00281D
:104050009ED13E60BFF34F8FBFF36F8F98E7FFF79E
:1040600065FC2046FFF7FEFA00F07AFB90E70000BF
:1040700004ED00E02DE9F0471F4690468946040014
:1040800003D0B9F1000F08D011E0502080F311885F
:10409000BFF34F8FBFF36F8FFEE7206C38B1502016
:1040A00080F31188BFF34F8FBFF36F8FFEE7022FAE
:1040B0000AD1E06B012807D0502080F31188BFF3AC
:1040C0004F8FBFF36F8FFEE7FFF788FC5020EFF3B1
:1040D000118680F31188BFF34F8FBFF36F8FA06BF2
:1040E000E16B884206D3022F04D0002086F31188AA
:1040F000BDE8F08794F94550A06B3A464946204602
:10410000FEF7E5FF681C04D06D1C84F845500120C3
:10411000ECE7606A0028FAD004F1240000F0E8FA25
:104120000028F4D0B8F1000FF1D00121C8F8001038
:10413000EDE700002DE9F747002683B08A4604002A
:1041400003D0BAF1000F08D011E0502080F311889D
:10415000BFF34F8FBFF36F8FFEE7206C38B1502055
:1041600080F31188BFF34F8FBFF36F8FFEE700F02E
:10417000CBF9DFF8F4804FF000094FF0805748B9D1
:10418000059838B1502080F31188BFF34F8FBFF3EB
:104190006F8FFEE7FFF7AAFBA56BC5B1514620461E
:1041A000FEF782FF6D1EA563206950B104F1100077
:1041B00000F09EFA28B1C8F80070BFF34F8FBFF32C
:1041C0006F8FFFF7B3FB012006B0BDE8F0870598BD
:1041D00008B11EB106E0FFF7A9FB27E06846FFF72C
:1041E00083FC0126FFF7A2FBFFF74CFDFFF77EFBE8
:1041F00094F94400401C01D184F8449094F945009E
:10420000401C01D184F84590FFF790FB05A9684652
:1042100000F0E8F8002820460AD0FFF723FA00F063
:104220009FFA2046FFF7B2F80028B3D00020CBE772
:10423000FFF7ACF890B104F124000599FFF762FC98
:104240002046FFF70FFA00F08BFA0028A2D1C8F839
:104250000070BFF34F8FBFF36F8F9BE72046FFF7D0
:1042600001FA00F07DFA95E704ED00E02DE9F34353
:10427000002683B00400354609D0206C78B1502068
:1042800080F31188BFF34F8FBFF36F8FFEE750208D
:1042900080F31188BFF34F8FBFF36F8FFEE700F0FD
:1042A00033F9DFF83C814FF000094FF0805748B9EF
:1042B000049838B1502080F31188BFF34F8FBFF3BB
:1042C0006F8FFEE7FFF712FBA06BC8B1401EA06323
:1042D000206810B9FFF76AFAA060206950B104F1B4
:1042E000100000F005FA28B1C8F80070BFF34F8F36
:1042F000BFF36F8FFFF71AFB012005B0BDE8F08315
:10430000049808B166B10FE03DB1502080F31188E8
:10431000BFF34F8FBFF36F8FFEE7FFF707FB5DE043
:104320006846FFF7E1FB0126FFF700FBFFF7AAFC59
:10433000FFF7DCFA94F94400401C01D184F8449062
:1043400094F94500401C01D184F84590FFF7EEFA3E
:1043500004A9684600F046F80028204612D0FFF76E
:1043600081F900F0FDF92046FFF710F80028A9D0E8
:104370009DB3FFF7BBFA606A50B3206B0068C0F1D1
:10438000380126E0FFF702F8E0B1206838B9FFF7FE
:10439000ADFAA06800F070F90546FFF7C7FA04F11E
:1043A00024000499FFF7AEFB2046FFF75BF900F00D
:1043B000D7F9002886D1C8F80070BFF34F8FBFF33C
:1043C0006F8F7FE72046FFF74DF900F0C9F979E7D5
:1043D0000021A068FFF7CAFB9FE7FFE700208CE7FA
:1043E00004ED00E02DE9F0410C46050011D0C4B108
:1043F000FFF77CFA174BDA686E682068911B471C40
:1044000017D02F681B6A9F4219D0964217D80124F3
:1044100010E0502080F31188BFF34F8FBFF36F8FF0
:10442000FEE7502080F31188BFF34F8FBFF36F8FEB
:10443000FEE70024FFF77AFA2046BDE8F0818842C3
:1044400005D9401A20602846FFF74EFBF1E700200F
:104450002060DCE7480000202DE9FF5F8346DDE9AE
:104460000E87994616468A469000FFF731F90500F7
:104470001CD05C20FFF72CF9040014D00020256329
:1044800084F85900CDE90240CDE900874B46324619
:1044900051465846FEF7E0FE2046FEF771FD01202A
:1044A00004B0BDE8F09F2846FFF754FA4FF0FF3004
:1044B000F6E7F0B585B0DDE90B640A9DA6B1DCB185
:1044C0005C2700972663022684F85960002604AF13
:1044D000CDE90246CDE90057FEF7BEFE2046FEF7C5
:1044E0004FFD049805B0F0BD502080F31188BFF354
:1044F0004F8FBFF36F8FFEE7502080F31188BFF31B
:104500004F8FBFF36F8FFEE70548416919B1006B0C
:1045100018B100207047012070470220704700004A
:10452000480000200148C068704700004800002093
:104530002DE9F0412E4C0027206B28B1A069401CCA
:10454000A0613846BDE8F081E668761CE66013D1CC
:10455000606B006838B1502080F31188BFF34F8F33
:10456000BFF36F8FFEE7606BA16B6163A063206A8E
:10457000401C2062FEF7F6FFA06ADFF878808642D2
:1045800009D3606B0068A0B1606BC068C5686868DB
:10459000864211D2A0622068C06A00EB800158F800
:1045A0002100012800D90127E0690028C9D001278E
:1045B000C7E74FF0FF30EDE7281DFFF73BF9A86A8A
:1045C00018B105F11800FFF735F9E86A216988424A
:1045D00000D9206100EB800108EB8100291DFFF765
:1045E00079F9E86A2168C96A8842CAD30127C8E70D
:1045F000480000204403002070B504004FF0000183
:1046000033D01B4D2868844207D0502080F3118896
:10461000BFF34F8FBFF36F8FFEE7206D38B1401EA1
:104620002065E36CE26A9A421FD040B11DE0502041
:1046300080F31188BFF34F8FBFF36F8FFEE7201D0C
:10464000FFF7F8F8E06CE062C0F13800A061E06AC2
:104650002969884200D92861064900EB800001EBF6
:104660008000211DFFF736F90121084670BD0000CA
:10467000480000204403002070B504004FF0000003
:104680002BD0194DE16A2A68D26A914226D2A069DC
:10469000002804DB2868C06AC0F13800A061134E0E
:1046A00001EB8101606906EB8101884211D1201D77
:1046B000FFF7C0F82868C06AE0622969884200D91B
:1046C000286100EB800006EB8000211DFFF702F956
:1046D00002E02868C06AE062012070BDE16C2A68CF
:1046E000D26A9142F8D370BD4800002044030020F4
:1046F00070B5C068C46854B104F118000646FFF7ED
:1047000099F8144D286B50B13146134815E05020EC
:1047100080F31188BFF34F8FBFF36F8FFEE7201D2B
:10472000FFF788F8E06A2969884200D928610B49B7
:1047300000EB800001EB8000211DFFF7CBF8E06A61
:104740002968C96A884202D90120E86170BD002049
:1047500070BD000048000020CC070020440300206A
:104760002DE9F0472C4D00242746286B38B1FFF780
:10477000BDF8286B401E2863286B40B146E05020EE
:1047800080F31188BFF34F8FBFF36F8FFEE7A968E7
:10479000224E0120D1B3A6F5916980463068E0B180
:1047A000F068C46804F11800FFF744F8201DFFF713
:1047B00041F8E06A2969884200D9286100EB80014C
:1047C00009EB8100211DFFF785F8E06A2968C96AB5
:1047D0008842E3D3C5F81C80E0E70CB1FEF7C2FEC7
:1047E000AC694CB14FEA0806FFF7A2FE00B1EE61DA
:1047F000641EF9D10020A861E86938B10849012791
:1048000038070860BFF34F8FBFF36F8FFFF78EF845
:104810003846BDE8F087000048000020CC070020A3
:1048200004ED00E010B586B0FEF712FC114C2068D4
:10483000B8B100200390049005AA04A903A8FFF7CB
:1048400017F8DDE9032102208DE8070000230AA103
:104850000B48059AFFF72DFE606010B106B00120ED
:1048600010BD502080F31188BFF34F8FBFF36F8FBF
:10487000FEE7000084000020546D72205376630030
:10488000413600082DE9FF411E46134602000A9DED
:104890004FF0000016D0144C2768002F0FD0CDE940
:1048A00000130292062917DAFFF72EFE02284FF0B6
:1048B00000030FD0002269462068FFF72BFB04B0ED
:1048C000BDE8F081502080F31188BFF34F8FBFF314
:1048D0006F8FFEE72A46EEE70023324669463846E8
:1048E000FFF7C8FBEBE700008400002021F0004246
:1048F000A2F16052B2F5801F01F0004328BFD2F14F
:104900007F6C0BD95FEA001C43EAC20242EB507095
:1049100018BF704728BF20F001007047B2F5801F14
:10492000BCBF184670474FEA410C1CF5001F02D26D
:10493000084600F079BD70B500F01CFB000000894E
:10494000FFF7F6BF4FF00040A0F580007047000071
:1049500010B591EA030F48BF83F0004300F1828451
:10496000841A71EB030C05D2121943EB0C03001BE4
:1049700061EB0C01DFF824E14FEA1154A4EB135C66
:104980001EEA430F18BF9EEA445F73D023EA0E036A
:10499000DCF1200E21EA045143F4801332D322FAD1
:1049A0000CFE10EB0E0023FA0CFE41EB0E01CCF1D5
:1049B000200E03FA0EFE10EB0E0051F10001B1F5CE
:1049C000801FCCF1200E32D201EB045112FA0EF20C
:1049D000BDE8104058BF7047401C38BF5FEA420234
:1049E00018BF7047002814BF20F0010041F10001FA
:1049F0004FEA410313F5001F38BF7047A1F1C041D2
:104A000000F006BB012A43EB0302ACF1200CDCF101
:104A10001F0E32BF4FF0000E23FA0CF310EB030011
:104A200041EB0451B4EB115FD0D0A1EB045101F57F
:104A3000801149085FEA300001EB04510ED350F1B8
:104A4000000038BF12FA0EFE08D1BDE81040C9E7D9
:104A5000401C38BF5FEA4202CAD1C3E7BDE810403C
:104A60004FEA410313F5001F38BF7047A1F1C04161
:104A700000F0CEBA9EEA445F08D011EA5E0FBDE8AE
:104A8000104004BF01F0004100207047BDE8104015
:104A900070B500F06FFA00BF64FBBE3E0000E0FF9F
:104AA00002494FF0000000F0C4BC00BF0000F87FD6
:104AB000491058BFC1F140415B1058BFC3F140439A
:104AC0008B42EFF3008070472DE9C04130B4DFF82E
:104AD000A0C23CEA111418BF3CEA131400F0EC80A9
:104AE00081EA03051CEA111444EAD57418BF1CEAD4
:104AF000131500F0C780A4EB05044FF0004545EA0C
:104B0000C12145EAC32341EA505143EA525304F11B
:104B10007F74994204F500344FEAC0204FEAC22264
:104B200008BF904200F09C804FEA13650FF24016D8
:104B3000765D4FEA134506FB05F7C7F1807706FB64
:104B400007F74FEAD737A7FB03687642C8F58038E6
:104B5000A7FB06CE38BFA8F1010807FB08E64FF017
:104B6000000EA6FB028CE6FB03CEDCF1000CCEF1BE
:104B7000004E38BFAEF1010EA6FB0C584FF00007F7
:104B80004FF00005E6FB0E87A1FB08C6A0FB07CE91
:104B900016EB0E0645F10005E1FB076515F1E04E49
:104BA0007EBFA4F580345FEA46066D4116F18007AA
:104BB00045F100054FEA17274FEA066647EA056701
:104BC000A6F1DE46B6F1805F4FEA15251FD93846BB
:104BD00024F0010C05EBC471BCF1FE6F01EB0C116C
:104BE00002D8F0BCBDE8008124425CBF01F5801E04
:104BF0009EEAC47F02D4F0BCBDE80081244238D4D0
:104C0000F0BCA1F1C041BDE8004100F001BA4FEA9B
:104C1000D22242EA43524FEAD323A7FB02864FEA4D
:104C2000D02040EA415007FB03661EEA0E0F4FEA10
:104C3000D12105FB026658BFA6EB0056B6EB005625
:104C40004FEA520E4EEAC37E18EB0E0E56EB530E91
:104C5000BDD518EB02085E417F1C55F10005B6E793
:104C60004FF480154FF000074FF000064FF000089A
:104C7000ADE7F0BC4FF0000001F1C04101F0004190
:104C8000BDE8008111EA0C1F0CEA131500D00CE0FE
:104C900013EA0C1F00F025804FF00000F0BC81EA01
:104CA000030101F00041BDE80081F0BCBDE8004116
:104CB00081EA030100F0ACB9F0BCBDE8004170B579
:104CC00000F058F9097EFC3E00F007B881EA0301C4
:104CD0004FF0000001F00041704781EA030100F04D
:104CE00097B9F0BCBDE800414FF000002149704782
:104CF000FFFDFBF9F7F5F4F2F0EEEDEBE9E8E6E4A1
:104D0000E3E1E0DEDDDBDAD8D7D5D4D3D1D0CFCD27
:104D1000CCCBCAC8C7C6C5C4C2C1C0BFBEBDBCBB60
:104D2000BAB9B8B7B6B5B4B3B2B1B0AFAEADACAB5B
:104D3000AAA9A8A8A7A6A5A4A3A3A2A1A09F9F9E35
:104D40009D9C9C9B9A9999989797969595949393E7
:104D5000929191908F8F8E8E8D8C8C8B8B8A89897E
:104D60008888878786858584848383828281818001
:104D70000000FF070000F87F10F0004248BF4042EB
:104D8000B0FA80F310FA03F10AD0C3F11D0303F562
:104D900080634FEA415002EB035202EBD12170478E
:104DA0004FF000007047000051EA030C17D41CF5C7
:104DB000801F58BFBCF5801F00F10680994218BFC4
:104DC000704708BF9042704707D711F5801F58BF42
:104DD00013F5801F19D499427047894270471CF51A
:104DE000801F08D5BCF5801FF7D58B4218BF7047D0
:104DF00008BF824270474FF4001C1CEB410F38BFC4
:104E00001CEB430F01D28B42704770B500F0B2F833
:104E1000922449004FF000514FF08053FFF748BEF5
:104E2000DFF848C170B51CEA111E1EBF1CEA13153D
:104E30009EEA0C0F95EA0C0F00F06F8081EA0304E4
:104E400023EA4C134EEAD47E21EA4C1141F480113E
:104E500043F48013AE44A1FB024CA0FB0365AEF10A
:104E60007F7E361955EB0C05A1FB034C4CF100037A
:104E7000A0FB021C16EB0C06654153F1000309422E
:104E800018BF46F0010613F4007F0BD14FEA03313F
:104E90004FEA0530340341EA155140EA16506FF0ED
:104EA00003020AE04FEAC3214FEAC520F40241EAB7
:104EB000555140EA56506FF0020202EB2E4201EBD0
:104EC000025585EACE710AD05FEA440C18BF24F07F
:104ED000004450F1000041F1000120EAD47040F29A
:104EE000FE7C624500D270BDA84214BF4FF08044E2
:104EF0004FF04044002E08BF0024BEF1806FA8BFD1
:104F0000A1F1C041BDE8704080F282804FF0000006
:104F100001F1C04101F0004170479EEA0C0F0CEA1C
:104F2000131518BF95EA0C0F06D04FF0000081EA68
:104F3000030E0EF0004170BD00F01CF88900013E28
:104F400000F007B800F009B84FEA430C5FEA5C5C78
:104F500008D081EA030100F05BB84FEA410C5FEA38
:104F60005C5CF6D14FF00000014970470000FF077C
:104F70000000F87F0EF1020E2EF0030E5EF8046BB7
:104F8000364205D4012A43EB030515F5001F12D85C
:104F9000012841EB010C1CF5001F0CD80ED14FEA83
:104FA000D17C15F5001F0CEB4C0C0CF1020C08BF6A
:104FB0004CEBD37C04E04FF0080C01E04FEAD37CCB
:104FC0000CEB4C0526FA05F606F00706B6F1040CC4
:104FD00006D20EEB860CBDE870404CF0010C604729
:104FE000DFE80CF0090B02024FF000414FF0000027
:104FF000A1F5002170BD19461046012851EB0104AE
:1050000018BFD4F5001484BF002001F0004170BD2A
:105010000808A0F500114FEA3101704753EA010C6E
:1050200017D41CF5801F58BFBCF5801F00F1068007
:105030008B4218BF704708BF8242704707D713F5ED
:10504000801F58BF11F5801F19D48B4270479B42B7
:1050500070471CF5801F08D5BCF5801FF7D5994215
:1050600018BF704708BF904270474FF4001C1CEBFC
:10507000430F38BF1CEB410F01D2994270470FB468
:105080000CBC03BCFFF7C1BE2DE9F04101F5801C4B
:10509000BCF5001FC0F2C3804FEA115C21EA0C513D
:1050A0000CF1FD0C41F480115FEA5C0C0CF5C07C46
:1050B00001D3400049413DA4890241EA9051870251
:1050C0008E0E0A0CA45D04FB04F602FB06F6C6F184
:1050D0004046A4FB0662F60D46EA422606FB06F4AD
:1050E000A4FB01235242C3F1404338BF5B1EA6FB21
:1050F00002420024E6FB0324D20B42EA4446A6FB0C
:105100000623A1FB02E2A3FB07E4A4184FF0000270
:1051100052F10002E3FB01426442C2F1404E38BF4B
:10512000AEF1010EA6FB04234FF00002E6FB0E32A7
:10513000A2FB03464FF00004B61954F10004E2FB51
:105140000264A1FB06E6A4FB07E816EB08064FF095
:10515000000858F10008E4FB01687642C8F14058A5
:1051600038BFA8F10108A2FB06E4A3FB08E52D194E
:105170004FF0000454F10004E2FB0854A1FB05E6E3
:10518000A7FB04E818EB06084FF0000656F10006EE
:10519000E1FB048618F1200556F10006A809A8F1E4
:1051A0001B08B10908F03F08B8F10A0F40EA866011
:1051B0001CD901EB0C51BDE8F08100BFFCF5EEE815
:1051C000E2DDD8D3CFCBC7C3C0BDB9B6B4B1AEACA6
:1051D000A9A7A5A3A19F9D9B9A9896959392908F1E
:1051E0008D8C8B898887868584838281A0FB00686B
:1051F00000FB01F208EB4208B8EB872807D534180A
:1052000058EB0104D5D5401C51F10001D1E7341A07
:1052100078EB0104CDD4401E71F10001C9E75FEACB
:105220004C0C5FEA9C5C0DD105D34FF0000001F0FF
:105230000041BDE8F081BDE8F04170B5FFF79AFE8E
:105240006DDBFFBEBDE8F0414FF000000049704744
:105250000000F87F10B591EA030F48BF83F00043C8
:105260003FF57EAB841A71EB030C07D212198CF058
:10527000004C43EB0C03001B61EB0C01DFF8A4E1D5
:105280004FEA1154A4EB135C1EEA430F18BF9EEAC9
:10529000445F00F0B08023EA6E03524221EA0451D9
:1052A000C3EB6E0338BF5B1EDCF1200E25D322FA60
:1052B0000CFE10EB0E0043FA0CFE41EB0E01CCF19C
:1052C000200E03FA0EFE10EB0E0051F10001CCF19E
:1052D000200E29D412FA0EF201EB0451BDE8104061
:1052E00058BF7047401C1CBFB2F1004F70470028E8
:1052F0000CBF491C20F00100704712EB020E43EB7B
:10530000030218BF4FF0010E4EEA4202ACF1200C2E
:10531000DCF11E0E54D943FA0CFE10EB0E0051F1D5
:10532000FF31CCF11E0ED5D50EF1010E12FA0EFE94
:10533000404141EB010101EB445C5FEA5C5C10D948
:1053400010EBDE7001EB045138BFBEF1004FBDE839
:10535000104018BF704700280CBF491C20F0010006
:10536000704730D24FEAD42C11F5001124F40064B8
:105370001BD0B1FA81F20B3AA41AA41ED2F1200379
:10538000914030FA03F31943904001EBCC71002CAB
:1053900001EB0451BDE81040A8BF704701F1C041C6
:1053A0004FF0000001F000417047B0FA80F310FAAE
:1053B00003F100D110BDE41A173C4805C90AE4E71F
:1053C00001EB045110BD491001EB0451BDE8104040
:1053D0004FEA300002E04FF0000170474A0008BF7A
:1053E0000042F8D0B2F5001F28BF704701F000411D
:1053F0004FF0000070479EEA445F07D011EA5E0F4D
:10540000BDE8104004BF002100207047BDE81040F7
:1054100070B5FFF7AFFD00BF40DFF63E83F00041FF
:10542000104670470000E0FFFF2141EAD050C00560
:1054300070470CF00F03092B08BF082000F05980BB
:105440000A2B0BD0082B18BF704708BF1CF0400F69
:105450000AD04FF000004FF0000170471CF0400FE1
:1054600018BF4FF0004070471CF0100F08D020F01C
:10547000704300F07F4242EAD3014FEA4370704725
:1054800000F0604021F07F4242EA000201F07F40DC
:1054900040EA727070474FF0FF0C4CF4E06C1CEA6D
:1054A00011531CBF9CEA030C9445C2BFDA4201EBC6
:1054B00002517047002B0DD0BCF1000F0FD0002A15
:1054C00001F00041A4BF41F0E04141F07F614FF0A5
:1054D0000000704701F000414FF00000704750EAB3
:1054E00001334FF09B0C18BF4CF0806C7FF4D8AAAE
:1054F00070471CF4801F11D01CF4E02F03D06FEA1A
:10550000CC31490070474FF04050EFF3008222F059
:10551000704242EA000282F3008870474FF00000B8
:1055200070470000807F0102020304050607080996
:105530000A0B0C0D0E0F1010000000000000000000
:105540000102030406070809000000000102030429
:105550007055000800000020C80000002801000865
:1055600038560008C8000020583E000044010008DA
:1055700000000000E80300000101B40D000000007D
:10558000000000000000000000000000000000001B
:10559000000000000000000000000000000000000B
:1055A00000000000000000000100000010000000EA
:1055B0000000000000127A0000000000000000005F
:1055C00000000000000000000000000000000000DB
:1055D00000000000000000000000000000000000CB
:1055E00000000000000000000000000000000000BB
:1055F00000000000000000000000000000000000AB
:10560000000000000000000000000000000000009A
:10561000000000000000000000000000000000008A
:10562000000000000000000000000000000000007A
:08563000AAAAAAAA00000000CA
:04000005080000ED02
:00000001FF
