:020000040800F2
:100000007021002029020008BD2A00084F2900089D
:10001000B92A000887060008FD300008000000002B
:100020000000000000000000000000009101000836
:100030005108000800000000D5010008F32A00085C
:10004000430200084302000843020008430200087C
:10005000430200084302000843020008430200086C
:10006000430200084302000843020008430200085C
:10007000430200084302000843020008430200084C
:10008000050800081508000843020008DD300008D4
:10009000ED3000088D060008430200084302000806
:1000A000430200084302000843020008430200081C
:1000B0004302000843020008712B000843020008B5
:1000C00043020008430200084302000843020008FC
:1000D0004302000843020008CD3000084302000834
:1000E00043020008430200084302000800F002F83F
:1000F00000F03FF80AA090E8000C82448344AAF183
:100100000107DA4501D100F034F8AFF2090EBAE880
:100110000F0013F0010F18BFFB1A43F0010318473B
:100120000050000020500000103A24BF78C878C169
:10013000FAD8520724BF30C830C144BF04680C60ED
:10014000704700000023002400250026103A28BF35
:1001500078C1FBD8520728BF30C148BF0B60704739
:10016000642900F0D180002070471FB51FBD10B575
:1001700010BD00F04EFA1146FFF7F7FF02F0DFFF67
:1001800000F06CFA03B4FFF7F2FF03BC00F074FA5E
:10019000224B19680868B0E8F00F80F30988BFF3B4
:1001A0006F8F4FF0000080F311884EF00D0E7047F6
:1001B0000000000006480068006880F3088862B606
:1001C00061B6BFF34F8FBFF36F8F00DF00BF00BF7B
:1001D00008ED00E0EFF30980BFF36F8F0F4B1A6853
:1001E00020E9F00F106008B54FF0500080F311883F
:1001F000BFF34F8FBFF36F8F04F098F84FF00000FC
:1002000080F31188BDE8084019680868B0E8F00F6D
:1002100080F30988BFF36F8F704700BF4400002050
:10022000EFF3058070470000094880470948004700
:10023000FEE7FEE7FEE7FEE7FEE7FEE7FEE7FEE796
:10024000FEE7FEE704480549054A064B70470000F3
:100250006F2B0008ED000008701B002070210020AB
:10026000701D0020701D00200FB47CB50C0009AA81
:10027000009001D02044401E084B7B446946019009
:10028000089800F052F905461CB10020694600F0BC
:100290005FF928467CBC5DF814FB0000DD0200001D
:1002A0002DE9F0410E460446002020622046E16818
:1002B000884730B3252805D0D4E901219047206A2A
:1002C000401CF2E7E168204600278847050018D067
:1002D000A5F14100192802D820354FF400673246B5
:1002E000294620462760FFF73BFF40B1012804D094
:1002F000F61D26F007060836D8E7361DD6E728464D
:10030000DAE7206ABDE8F0812DE9F04106460024D5
:1003100010687529314616A510D0AFF3008000286B
:1003200002DA404213A507E031688A0701D512A519
:1003300002E0490704D511A5012401E0AFF30080D4
:1003400000210A2206F1240709E0B0FBF2FCB0FB11
:10035000F2F302FB1C00303078541846491C002888
:10036000F3D123462A463046BDE8F04100F07FB87D
:10037000000000002D0000002B0000002000000005
:10038000032A40F2308010F0030C00F0158011F8C1
:10039000013BBCF1020F624498BF11F801CB00F899
:1003A000013B38BF11F8013BA2F1040298BF00F8ED
:1003B00001CB38BF00F8013B11F0030300F0D580FA
:1003C000083AC0F0088051F8043B083A51F804CBD1
:1003D000A0E80810F5E7121D5CBF51F8043B40F897
:1003E000043BAFF30080D20724BF11F8013B11F8A2
:1003F00001CB48BF11F8012B24BF00F8013B00F8E6
:1004000001CB48BF00F8012B704702F0FF0343EA1D
:10041000032242EA024200F0DCB84FF0000200B5CD
:10042000134694469646203922BFA0E80C50A0E817
:100430000C50B1F12001BFF4F7AF090728BFA0E8C5
:100440000C5048BF0CC05DF804EB890028BF40F891
:10045000042B08BF704748BF20F8022B11F0804FD3
:1004600018BF00F8012B70477047704770472DE99F
:10047000F0470D4699469246044600F1240801686B
:10048000880604D5E06921F01001216000E0012018
:10049000A84201DD471B00E00027A1697A1902EBA1
:1004A0000900081AA0612078C00602D42046AFF3E4
:1004B0000080002608E0D4E901211AF806009047E0
:1004C000206A401C761C20624E45F4DB2078C00672
:1004D0000AD52046AFF3008006E0D4E901213020A0
:1004E0009047206A401C2062381EA7F10107F4DC07
:1004F00007E0D4E9012118F805009047206A401C64
:100500002062281EA5F10105F3DC2046AFF3008030
:100510002078000602D50220BDE8F0870120FBE725
:1005200001694A1C02610878704700B58FB0CDE9B7
:1005300001310021059105497944CDE903101146A7
:100540006846FFF7ADFE0FB000BD0000E5FFFFFFFE
:100550000A6802F8010B0A607047D1E900239A4249
:1005600002D2531C0B601070704710B5203AC0F0D7
:100570000B80B1E81850203AA0E81850B1E81850A4
:10058000A0E81850BFF4F5AF5FEA027C24BFB1E8E1
:100590001850A0E8185044BF18C918C0BDE8104052
:1005A0005FEA827C24BF51F8043B40F8043B08BF5B
:1005B0007047D20728BF31F8023B48BF11F8012B22
:1005C00028BF20F8023B48BF00F8012B70474FF0CE
:1005D00000020429C0F0128010F0030C3FF41FAF9A
:1005E000CCF1040CBCF1020F18BF00F8012BA8BF1E
:1005F00020F8022BA1EB0C01FFF711BF5FEAC17CD1
:1006000024BF00F8012B00F8012B48BF00F8012B94
:100610007047754600F02CF8AE4605006946534613
:1006200020F00700854618B020B5FFF70BFEBDE8A7
:1006300020404FF000064FF000074FF000084FF049
:10064000000B21F00701AC46ACE8C009ACE8C009DA
:10065000ACE8C009ACE8C0098D46704710B5044647
:10066000AFF300802046BDE81040FFF78BBD0000CF
:10067000004870470C1B002001491820ABBEFEE764
:1006800026000200704700BFFEE7000010B50248D8
:1006900000F001FB10BD0000F800002000F008F899
:1006A00000BF00F02FF84FF4FA6003F05FFDF8E7A9
:1006B00010B58AB000200590049044F260000090CC
:1006C00000200190029003900690012007900E20D8
:1006D0000990012008906946094800F077F9032441
:1006E0002146074800F0B8F8054800F038FD0448F6
:1006F00000F0BCFA0A2003F039FD0AB010BD00007A
:10070000F800002010B53948006801281DD140F2DA
:10071000012037490860082008610020486088608F
:10072000C860112033490870332048700020887059
:10073000C870AA200871BB204871CC2088710020A5
:10074000C87102202949086043E02848006802284F
:100750001ED140F2022026490860082008610020CE
:1007600048608860C8602220224908704420487090
:10077000002088701120C870AA200871BB20487121
:10078000DD2088710020C87103201849086020E02E
:100790001648006803281CD140F203201449086061
:1007A00008200861002048608860C8601220114954
:1007B00008702320487000208870C870CF2008710E
:1007C000A1204871EA2088710020C87101200749E2
:1007D0000860094B074A0649084800F052F820B162
:1007E00007480068401C0649086010BD140000203E
:1007F000C40000200000002010000020F8000020AD
:100800002C00002010B5024800F062FD10BD000071
:100810006801002010B5024800F05AFD10BD00002C
:10082000AC01002030B590F840500124AC40C56BBD
:100830006C60046863604468102C04D10468A26092
:100840000468E16003E00468A1600468E26030BD10
:10085000704772B600BFFEE710B5024692F820302E
:10086000012B01D0022B06D110684069084314689F
:100870006061002010BD506A40F480205062012069
:10088000F8E7F0B504460D461E4694F8207020683F
:100890008368A86800B900E000BF012F01D0022FD3
:1008A0007DD103F0806030B903F0006018B903F027
:1008B000805000287ED0C3F3016101208840306061
:1008C000A86860B9B5F800C0E86840EA4C5C2068E8
:1008D00000F5C07000EB0110C0F800C00FE0D5E9D2
:1008E00001C040EACC00D5F80CC040EA0C00D4F8B6
:1008F00000C00CF5C07C0CEB011CCCF80000D5F856
:1009000010C0206800F5C07000EB0110C0F804C0F2
:10091000287D01280ED1206800F5C07000EB011081
:10092000406840F4807C206800F5C07000EB011046
:10093000C0F804C0D079000692F806C040EA0C4026
:1009400092F805C040EA0C2092F804C040EA0C007E
:10095000D4F800C00CF5C07C0CEB011CCCF80C00EA
:10096000D078000692F802C040EA0C4092F801C02C
:1009700040EA0C2092F800C040EA0C00D4F800C015
:100980000CF5C07C0CEB011CCCF80800206800F5CD
:10099000C07000EB0110006840F0010C01E00FE0B6
:1009A00008E0206800F5C07000EB0110C0F800C03E
:1009B0000020F0BD606A40F4001060620120F8E79A
:1009C000606A40F4802060620120F2E7F0B50446DE
:1009D0000A46216894F82050012D01D0022D74D1CF
:1009E000D1F8000240F00100C1F80002107D00F0D3
:1009F0001F06012000FA06F3D1F81C029843C1F843
:100A00001C02D069C8B9D1F80C029843C1F80C0295
:100A1000908880B2968940EA064601F510705769C1
:100A200040F83760108880B2168940EA064601F522
:100A30001070576900EBC7004660D069012819D1D2
:100A4000D1F80C021843C1F80C02908880B21688C5
:100A500040EA064601F51070576940F83760908902
:100A600080B2168940EA064601F51070576900EB1E
:100A7000C7004660906928B9D1F804029843C1F8CC
:100A8000040204E0D1F804021843C1F8040210691A
:100A900028B9D1F814029843C1F8140204E0D1F83F
:100AA00014021843C1F81402106A012804D1D1F8C5
:100AB0001C021843C1F81C02D1F8000220F001000A
:100AC000C1F800020020F0BDFFE7606A40F480201A
:100AD00060620120F7E7704770B5044694F8205033
:100AE000012D01D0022D7DD151B92068C06800F0E0
:100AF000030080B9606A40F400106062012070BD9C
:100B00002068006900F0030028B9606A40F4001012
:100B100060620120F3E7206800F5D87000EB011057
:100B2000006800F004009060906840B9206800F50B
:100B3000D87000EB01100068400D106007E02068DD
:100B400000F5D87000EB01100068C0085060206804
:100B500000F5D87000EB0110006800F00200D060D2
:100B6000206800F5D87000EB0110406800F00F001D
:100B7000082802D30820106108E0206800F5D8702A
:100B800000EB0110406800F00F001061206800F5D4
:100B9000D87000EB0110406800F47F40000A9061BB
:100BA000206800F5D87000EB01104068000C50611F
:100BB000206800F5D87000EB01108068187020687C
:100BC00000F5D87000EB0110806800F47F40000A47
:100BD0005870206800F5D87000EB0110806800F4B0
:100BE0007F0000E03CE0000C9870206800F5D870B1
:100BF00000EB01108068000ED870206800F5D870F6
:100C000000EB0110C0681871206800F5D87000EB87
:100C10000110C06800F47F40000A5871206800F598
:100C2000D87000EB0110C06800F47F00000C9871D0
:100C3000206800F5D87000EB0110C068000ED87174
:100C400031B92068C06840F020002668F06005E0F7
:100C50002068006940F020002668306100204EE7DF
:100C6000606A40F480206062012048E7014691F804
:100C70002000012801D002280CD10A68526802F035
:100C800002020AB1042005E00A68126802F00202BA
:100C900002B1032070472DE9F05F0446002520686B
:100CA00046692068D0F80490206887682068D0F8EA
:100CB0000CA02068D0F810B02068D0F8188006F09A
:100CC0000100002855D007F00100C0B101202168C3
:100CD000886007F0020018B1204600F070FA0EE0BC
:100CE00007F0040010B145F4006508E007F00800C3
:100CF00010B145F4805502E0204600F05FFA07F499
:100D00008070C8B14FF480702168886007F400706B
:100D100018B1204600F055FA0EE007F4806010B1DB
:100D200045F4005508E007F4006010B145F4804533
:100D300002E0204600F044FA07F48030C8B14FF4D6
:100D400080302168886007F4003018B1204600F038
:100D50003AFA0EE007F4802010B145F4004508E0AF
:100D600007F4002010B145F4803502E0204600F081
:100D700029FA06F0080038B10AF0100020B145F455
:100D8000007510202168C86006F0040040B10AF028
:100D9000080028B108202168C860204600F0B8F992
:100DA00006F0020038B12068C06800F0030010B1FE
:100DB000204600F0AFF906F0400038B10BF010000B
:100DC00020B145F4806510202168086106F02000FC
:100DD00040B10BF0080028B10820216808612046C6
:100DE00000F0BAF906F0100038B12068006900F090
:100DF000030010B1204600F0B0F906F4003040B115
:100E000009F0100028B1102021684860204600F049
:100E1000A5F906F4803040B109F0080028B1082097
:100E200021684860204600F0CFF906F4004088B3FE
:100E300009F0040078B306F4807020B108F00100D6
:100E400008B145F0010506F4007020B108F0020079
:100E500008B145F0020506F4806020B108F00400F6
:100E600008B145F0040506F40060A0B108F0700078
:100E700088B108F07000402817D006DC10280BD08D
:100E800020280CD0302819D10CE0502810D0602830
:100E900014D110E01DE019E045F008050FE045F021
:100EA00010050CE045F0200509E045F0400506E09E
:100EB00045F0800503E045F4807500E000BF00BF09
:100EC0002068806920F07000216888610420216812
:100ED00048602DB1606A284360622046FFF7FBFD41
:100EE000BDE8F09F70B504460CB9012070BD94F8C0
:100EF000200010B9204600F0AFF82068006840F0EC
:100F000001002168086000F0C3FC05460DE000F018
:100F1000BFFC401B0A2808D9606A40F400306062B8
:100F2000052084F820000120E0E72068406800F0F8
:100F300001000028EBD02068006820F00200216842
:100F4000086000F0A5FC05460DE000F0A1FC401B88
:100F50000A2808D9606A40F400306062052084F8ED
:100F600020000120C2E72068406800F0020000284D
:100F7000EBD1207E012806D12068006840F0800077
:100F80002168086005E02068006820F08000216882
:100F90000860607E012806D12068006840F04000AB
:100FA0002168086005E02068006820F040002168A2
:100FB0000860A07E012806D12068006840F020006B
:100FC0002168086005E02068006820F020002168A2
:100FD0000860E07E012806D12068006820F010003B
:100FE0002168086005E02068006840F01000216872
:100FF0000860207F012806D12068006840F00800C2
:101000002168086005E02068006820F00800216879
:101010000860607F012806D12068006840F0040065
:101020002168086005E02068006820F0040021685D
:101030000860D4E902010843216908436169084353
:101040006168491E08432168C86100206062012070
:1010500084F82000002049E710B586B0044600203F
:10106000029003900490059026492068884246D15A
:1010700000BF2548C06940F000702349C861084698
:10108000C06900F00070019000BF00BF00BF0846BB
:10109000806940F0040088610846806900F004001F
:1010A000019000BF00BFC81402900020039004907C
:1010B00002A9164800F05CFA4FF48050029002201A
:1010C00003900320059002A9104800F051FA002275
:1010D0000521132000F09CFC132000F089FC002265
:1010E0000521142000F094FC142000F081FC002263
:1010F0000521152000F08CFC152000F079FC06B0CD
:1011000010BD0000006400400010024000080140D3
:101110007047000070B5054600BF5021EFF3118005
:1011200081F31188BFF34F8FBFF36F8F00BF044669
:10113000064B074A00212846FFF7CEFC012005494F
:101140000860204680F3118800BF70BD08000020B1
:10115000DC0000201800002070477047704770B511
:10116000044694F82000012822D1022084F82000AF
:101170002068006820F001002168086000F088FB0A
:1011800005460DE000F084FB401B0A2808D9606A80
:1011900040F400306062052084F82000012070BD1A
:1011A0002068406800F001000028EBD16062F6E79B
:1011B000606A40F4002060620120F0E770477047E9
:1011C000704770477047704770470146002291F89A
:1011D0002100022808D00420886300BF002081F885
:1011E000200000BF012070470868006820F00E0052
:1011F0000B6818600868006820F001000B68186030
:1012000091F8403001209840CB6B5860012081F864
:10121000210000BF002081F8200000BF1046E2E757
:1012200070B50446002594F82100022803D004205C
:10123000A063012548E02068006820F00E002168C6
:1012400008602068006820F00100216808601F49DC
:101250002068884201D1012026E01C491431206811
:10126000884201D110201FE01849283120688842A7
:1012700001D1801518E015493C312068884201D120
:10128000801411E0114950312068884202D14FF496
:10129000803009E00D4964312068884202D14FF462
:1012A000801001E04FF08070084908394860012043
:1012B00084F8210000BF002084F8200000BF606B8C
:1012C00010B12046616B8847284670BD0800024077
:1012D00070B50446E06B05682068066894F8401015
:1012E000042088402840002846D006F0040000284A
:1012F00042D02068006800F0200028B9206800680B
:1013000020F004002168086057492068884201D114
:10131000042027E0544914312068884201D140203C
:1013200020E0514928312068884201D1001519E098
:101330004D493C312068884202D14FF4804011E091
:10134000494950312068884202D14FF4802009E099
:10135000454964312068884202D14FF4800001E0A1
:101360004FF08060404908394860E06A00287AD030
:101370002046E16A884776E094F8401002208840D1
:101380002840A0B306F0020088B32068006800F08F
:10139000200040B92068006820F00A002168086039
:1013A000012084F8210030492068884201D10220C0
:1013B00028E02D4914312068884201D1202021E005
:1013C000294928312068884201D140151AE0264970
:1013D0003C312068884202D14FF4005012E022498B
:1013E00050312068884203D14FF400300AE017E002
:1013F0001D4964312068884202D14FF4001001E099
:101400004FF0007018490839486000BF002084F888
:10141000200000BFA06A30B32046A16A884722E0BE
:1014200094F84010082088402840E0B106F00800F9
:10143000C8B12068006820F00E002168086094F8A8
:10144000401001208840E16B48600120A06384F8CF
:10145000210000BF002084F8200000BF206B10B1E5
:101460002046216B884770BD0800024001460022DB
:1014700009B901207047164B0868C01A1423B0FB45
:10148000F3F08000086412480838C863022081F82D
:1014900021000868026843F6F0708243D1E9010335
:1014A0001843CB6818430B6918434B6918438B6981
:1014B0001843CB6918430243086802600020886320
:1014C000012081F82100002081F8200000BFD1E731
:1014D000080002402DE9F04104460D4616461F461D
:1014E0004FF0000800BF94F82000012802D102202C
:1014F000BDE8F081012084F8200000BF94F82100AD
:1015000001282CD1022084F821000020A06320684B
:10151000006820F00100216808603B4632462946F9
:101520002046FFF77FF9E06A30B12068006840F09C
:101530000E00216808600BE02068006820F00400BD
:10154000216808602068006840F00A00216808608F
:101550002068006840F001002168086006E000BFD4
:10156000002084F8200000BF4FF002084046BFE78B
:101570002DE9F8470346002294466EE14FF001083A
:1015800008FA02F4D1F8008008EA0400A0427DD1F4
:10159000DFF8DCA2D1F80480A8EB0A09D0453AD0E4
:1015A00014DCB8F1030F50D009DCB8F1000F31D0D2
:1015B000B8F1010F1CD0B8F1020F49D120E0B8F109
:1015C000110F18D0B8F1120F42D11EE0B9F5881FE3
:1015D00025D006DCB9F5803F20D0B9F5801F37D182
:1015E0001AE0B9F5001F18D0B9F5041F30D117E083
:1015F000D1F80CC02DE0D1F80C8008F1040C28E0E3
:10160000D1F80C8008F1080C23E0D1F80C8008F127
:101610000C0C1EE000BF00BF00BF00BF00BF00BF3A
:10162000D1F80880B8F1000F02D14FF0040C0BE0A4
:10163000D1F80880B8F1010F03D14FF0080C1C61FC
:1016400002E04FF0080C5C6103E04FF0000C00E09A
:1016500000BF00BFFF2801D8984601E003F104084D
:101660004646FF2802D84FEA820803E0A2F10808A4
:101670004FEA88084746D6F800804FF00F0909FA6C
:1016800007F928EA09080CFA07F900E088E048EAB7
:101690000908C6F80080D1F8048008F08058B8F135
:1016A000805F7DD100BFDFF8CC81D8F8188048F08A
:1016B0000108DFF8C091C9F81880C846D8F818802A
:1016C00008F00108CDF8008000BF00BF4FEAB9382C
:1016D0004FEA920958F829504FEA82784FEA187970
:1016E0004FF00F0808FA09F825EA0805DFF88881A5
:1016F000434502D14FF0000816E0DFF880814345F2
:1017000002D14FF001080FE0DFF87481434502D1A8
:101710004FF0020808E0DFF86C81434502D14FF03A
:10172000030801E04FF004084FEA82794FEA197983
:1017300008FA09F848EA0505DFF84C814FEA9209F2
:1017400048F82950D1F8048008F48018B8F5801FB3
:101750000AD1DFF83881D8F8008048EA0008DFF8BD
:101760002C91C9F8008009E0DFF82081D8F80080CA
:1017700028EA0008DFF81491C9F80080D1F8048045
:1017800008F40018B8F5001F10D1DFF8008108F147
:101790000408D8F8008048EA0008DFF8F09000E07C
:1017A0005AE009F10409C9F800800DE0DFF8DC8097
:1017B00008F10408D8F8008028EA0008DFF8CC9087
:1017C00009F10409C9F80080D1F8048008F4003850
:1017D000B8F5003F0ED1DFF8B480A8F10408D8F8BE
:1017E000008048EA0008DFF8A490A9F10409C9F8CC
:1017F00000800DE0DFF89480A8F10408D8F800809C
:1018000028EA0008DFF88490A9F10409C9F80080EB
:10181000D1F8048008F48038B8F5803F0ED1DFF8A5
:101820006C80A8F10808D8F8008048EA0008DFF8C2
:101830005C90A9F10809C9F800800DE0DFF84C8040
:10184000A8F10808D8F8008028EA0008DFF83C90E2
:10185000A9F10809C9F80080521CD1F8008028FAC3
:1018600002F8B8F1000F7FF489AEBDE8F8870000F8
:10187000000011100010024000080140000C01405F
:10188000001001400014014008000140080401401C
:1018900001480068704700003400002003480068D9
:1018A0000349097808440149086070473400002062
:1018B0003C00002010B50848006840F010000649C0
:1018C0000860032000F0E2F80F2000F007F800F0B5
:1018D0005FF8002010BD0000002002402DE9F0411B
:1018E00088B004460027B846002600BF2348C069D8
:1018F00040F004002149C8610846C06900F00400B6
:10190000019000BF00BF02A903A800F099F9069F4B
:101910001FB900F0BDF9054602E000F0B9F9450035
:101920001748B5FBF0F0A0F1010816481649086009
:1019300040F2E7311448C160C0F804800021016121
:101940008160816100F030FC064696B90E4800F0D7
:101950005FFC06466EB91E2000F04AF8102C07D234
:10196000002221461E2000F053F80848046000E0E1
:101970000126304608B0BDE8F081000000100240AA
:1019800040420F0000080040F00100203800002015
:1019900008B500BF1448806940F001001249886111
:1019A0000846806900F00100009000BF00BF00BF42
:1019B0000846C06940F08050C8610846C06900F020
:1019C0008050009000BF00BF00220F21901E00F049
:1019D0001FF800BF0549486820F0E06040F0007043
:1019E000486000BF08BD0000001002400000014038
:1019F00001460846002809DB00F01F0301229A4037
:101A000043099B0003F1E023C3F8002100BF7047A6
:101A10002DE9F05F80460D461646002701F070FB69
:101A2000074639462A46334601F00700C0F1070A47
:101A3000BAF1040F02D94FF0040A01E0C0F1070A1D
:101A4000D14600F1040ABAF1070F02D24FF0000AA2
:101A500001E0A0F1030AD4464FF0010A0AFA09FA9C
:101A6000AAF1010A0AEA020A0AFA0CFA4FF0010B7B
:101A70000BFA0CFBABF1010B0BEA030B4AEA0B046C
:101A80002146404601F044FBBDE8F09F00BF00F056
:101A90000702064B19684FF6FF031940044B0B432E
:101AA00043EA0221014B196000BF70470CED00E0D2
:101AB0000000FA0570B504460D460CB9012070BD52
:101AC0005A48006800F00700A8420ED25748006844
:101AD00020F007002843554908600846006800F0D8
:101AE0000700A84201D00120E9E7207800F00200B9
:101AF00002281DD1207800F00400042805D14C48AC
:101B0000406840F4E0604A494860207800F00800EE
:101B1000082805D14648406840F460504449486070
:101B20004348406820F0F000A168084340494860FD
:101B3000207800F0010078B36068012806D13C48A5
:101B4000006800F4003090B90120B8E7606802280E
:101B500006D13748006800F0007040B90120AEE7B8
:101B60003348006800F0020008B90120A7E73048B8
:101B7000406820F00300616808432D494860FFF782
:101B800087FE064609E0FFF783FE801B41F288319D
:101B9000884202D9032092E707E02548406800F018
:101BA0000C006168B0EB810FEDD12048006800F0B7
:101BB0000700A8420ED91D48006820F007002843FE
:101BC0001A4908600846006800F00700A84201D0E2
:101BD000012074E7207800F00400042807D114489D
:101BE000406820F4E060E1680843114948602078CB
:101BF00000F00800082808D10D48406820F4605023
:101C0000216940EAC1000A49486000F061F80849CA
:101C10004968C1F30311074A515CC840064908608E
:101C200006480068FFF75AFE002048E700200240FF
:101C300000100240FA500008400000203800002048
:101C40000F2202600D4A526802F0030242600B4A02
:101C5000526802F0F0028260084A526802F4E062C0
:101C6000C260064A526802F46052D2080261044A15
:101C7000126802F007020A6070470000001002407C
:101C8000002002400148006870470000400000202A
:101C900000B5FFF7F7FF04494968C1F30221034A81
:101CA000515CC84000BD0000001002400A5100080D
:101CB00000B5FFF7E7FF04494968C1F3C221034AB1
:101CC000515CC84000BD0000001002400A510008ED
:101CD00070B500210022002400230020134D696804
:101CE00001F00C05F5B1042D02D0082D19D101E049
:101CF0000F4819E00F4DC1F38346AB5D01F4803509
:101D000055B10A4D6D68C5F340450B4E725D084DE7
:101D10005D43B5FBF2F402E0084D03FB05F42046F9
:101D200002E000BF024800BF00BF70BD00100240CB
:101D300000127A00E8500008F850000800093D0041
:101D4000F8B504460CB90120F8BD207800F0010078
:101D5000002878D0F848406800F00C0004280CD027
:101D6000F548406800F00C00082811D1F24840689E
:101D700000F48030B0F5803F0AD1EF48006800F4ED
:101D8000003000285FD0606800285CD10120DBE7CC
:101D900000BF6068B0F5803F06D1E748006840F4B6
:101DA0008030E549086028E0606858B9E24800687A
:101DB00020F48030E04908600846006820F4802064
:101DC00008601AE06068B0F5A02F0BD1DA4800680F
:101DD00040F48020D84908600846006840F480300C
:101DE00008600AE0D448006820F48030D2490860D6
:101DF0000846006820F48020086000BF606888B151
:101E0000FFF746FD054606E0FFF742FD401B64284C
:101E100001D9032098E7C848006800F40030002882
:101E2000F2D010E0FFF734FD054606E0FFF730FD85
:101E3000401B642801D9032086E7BF48006800F4EE
:101E400000300028F2D1207800F00200022857D19B
:101E5000B948406800F00C0050B1B748406800F045
:101E60000C00082818D1B448406800F4803098B9B4
:101E7000B148006800F0020020B12069012801D0BB
:101E8000012061E7AC48006820F0F800616940EA91
:101E9000C100A949086033E02069E8B10120A749E1
:101EA0000860FFF7F5FC054606E0FFF7F1FC401B74
:101EB000022801D9032047E79F48006800F002008C
:101EC0000028F2D09C48006820F0F800616940EAE0
:101ED000C1009949086013E0002098490860FFF7A5
:101EE000D7FC054606E0FFF7D3FC401B022801D9CA
:101EF000032029E79048006800F002000028F2D192
:101F0000207800F0080008282DD1A069B8B1012080
:101F10008B490860FFF7BCFC054606E0FFF7B8FCFC
:101F2000401B022801D903200EE78348406A00F0D5
:101F300002000028F2D0012000F0C2FD13E00020D2
:101F40007F490860FFF7A4FC054606E0FFF7A0FC08
:101F5000401B022801D90320F6E67748406A00F0CA
:101F600002000028F2D1207800F00400042873D188
:101F700000277148C06900F0805070B900BF6E48FA
:101F8000C06940F080506C49C8610846C06900F0E3
:101F90008050009000BF00BF01276A48006800F42D
:101FA0008070B0B96748006840F480706549086087
:101FB000FFF76EFC054606E0FFF76AFC401B64284D
:101FC00001D90320C0E65F48006800F48070002853
:101FD000F2D000BFE068012806D15748006A40F0FF
:101FE00001005549086227E0E06858B95248006A84
:101FF00020F00100504908620846006A20F0040001
:10200000086219E0E06805280BD14B48006A40F0EF
:102010000400494908620846006A40F0010008626D
:102020000AE04548006A20F001004349086208467A
:10203000006A20F00400086200BFE068A0B1FFF76A
:1020400027FC054609E0FFF723FC401B41F28831DD
:10205000884202D9032077E622E03748006A00F080
:1020600002000028EFD012E0FFF712FC054608E05E
:10207000FFF70EFC401B41F28831884201D9032052
:1020800062E62D48006A00F002000028F0D1012F1E
:1020900005D12948C06920F080502749C86100BF98
:1020A000E069C8B32448406800F00C00082860D0FC
:1020B000E069022848D1002020490866FFF7E8FBC4
:1020C000054606E0FFF7E4FB401B022801D9032088
:1020D0003AE61948006800F000700028F2D1206A42
:1020E000B0F5803F07D11448406820F40030A16863
:1020F000084311494860D4E9080108430E4949687A
:1021000021F4741108430C49486001200B4908660A
:10211000FFF7BEFB054607E03DE0FFF7B9FB401BBC
:10212000022801D903200FE60348006800F0007080
:102130000028F2D02FE000000010024000004242D0
:102140008004424200700040002014490866FFF7F6
:102150009FFB054606E0FFF79BFB401B022801D9C9
:102160000320F1E50E48006800F000700028F2D16D
:1021700011E0E069012800D1E6E50948466806F467
:102180008031206A814204D106F47011606A814274
:1021900001D00120D8E50020D6E500000000424231
:1021A000001002407047704710B504460CB901207A
:1021B00010BD94F83D0028B9002084F83C0020466A
:1021C00000F025F8022084F83D00211D206800F071
:1021D000D7FC012084F8460000BF84F83E000121AE
:1021E0003F200155402001554120015500BF00BF4F
:1021F000012084F842004320015544200155452028
:10220000015500BF012084F83D000020D0E7704751
:10221000014691F83D00012801D0012070470220BD
:1022200081F83D000868C06840F001000B68D86084
:10223000124B086898420BD00868B0F1804F07D065
:102240000F4B0868984203D00E4B086898420CD197
:102250000868806800F00702062A0CD00868006849
:1022600040F001000B68186005E00868006840F065
:1022700001000B6818600020D0E70000002C01402E
:102280000004004000080040704770B50446206814
:10229000C5682068066906F00200022819D105F019
:1022A0000200022815D1401F216808610120207713
:1022B0002068806900F0030018B12046FFF7E4FFB2
:1022C00005E0204600F097F8204600F095F8002041
:1022D000207706F00400042819D105F00400042832
:1022E00015D1C043216808610220207720688069E9
:1022F00000F4407018B12046FFF7C6FF05E0204605
:1023000000F079F8204600F077F80020207706F0FA
:102310000800082819D105F00800082815D1C04385
:1023200021680861042020772068C06900F003005C
:1023300018B12046FFF7A8FF05E0204600F05BF843
:10234000204600F059F80020207706F010001028F1
:1023500019D105F01000102815D1C043216808617B
:10236000082020772068C06900F4407018B120462A
:10237000FFF78AFF05E0204600F03DF8204600F018
:102380003BF80020207706F0010048B105F001007D
:1023900030B16FF0010021680861204600F02EF88E
:1023A00006F08000802809D105F08000802805D142
:1023B000C043216808612046FFF7F4FE06F04000A4
:1023C000402809D105F04000402805D1C0432168CC
:1023D0000861204600F01EF806F02000202809D1F0
:1023E00005F02000202805D1C0432168086120465F
:1023F000FFF7D9FE70BD70477047000010B5044666
:1024000003492068884201D1FFF748FA10BD000057
:102410000008004070477047704700002DE9F84FF2
:102420000446206805682068C668206847694FF040
:102430000009CA4605F00F09B9F1000F0AD105F0ED
:10244000200038B106F0200020B1204600F012FD37
:10245000BDE8F88FB9F1000F7BD007F0010018B983
:1024600006F49070002874D005F0010030B106F435
:10247000807018B1606C40F00100606405F00400E9
:1024800030B107F0010018B1606C40F002006064E8
:1024900005F0020030B107F0010018B1606C40F0A7
:1024A0000400606405F0080048B106F0200010B98F
:1024B00007F0010018B1606C40F008006064606CC7
:1024C000002845D005F0200028B106F0200010B10A
:1024D000204600F0CFFC20684069C0F3801A606C91
:1024E00000F0080010B9BAF1000F2CD0204600F01F
:1024F00068FC2068406900F0400000B300BF00BFE6
:102500002168143151E8001F21F040002168143186
:1025100041E80002002AF3D100BFE06B50B17748D8
:10252000E16B4863E06BFEF77BFE88B1E06B416BCB
:1025300088470DE02046FFF76FFF09E009E02046DD
:10254000FFF76AFF04E02046FFF766FF00206064A3
:102550007EE7206B012877D105F01000002873D0AA
:1025600006F010000028FAD000BF0020009020687C
:102570000068009020684068009000BF00BF20689D
:10258000406900F0400000285FD0E06B00684068C0
:102590001FFA80F8B8F1000F55D0A08D404552DDEC
:1025A000A4F82E80E06B8069202843D000BF00BFD4
:1025B00021680C3151E8001F21F4807021680C3132
:1025C00041E80002002AF3D100BF00BF00BF21682C
:1025D000143151E8001F21F001002168143141E855
:1025E0000002002AF3D100BF00BF00BF21681431F0
:1025F00051E8001F21F040002168143141E8000239
:10260000002AF3D100BF202084F84200002020637C
:1026100000BF00BF21680C3151E8001F21F01000FD
:1026200021680C3141E80002002AF3D100BFE06BC1
:10263000FEF7CBFD02206063A08DE28D801A81B28F
:102640002046FFF7E8FE03E742E0A08DE18D401A47
:102650001FFA80F8E08DD0B3B8F1000F37D000BF7B
:1026600000BF21680C3151E8001F21F490702168EF
:102670000C3141E80002002AF3D100BF00BF00BFC7
:102680002168143151E8001F21F001002168143144
:1026900041E80002002AF3D100BF202084F8420064
:1026A0000020206300BF00BF21680C3151E8001FEB
:1026B00021F0100021680C3141E80002002AF3D11A
:1026C00000BF0220606341462046FFF7A4FEBFE63C
:1026D00005F0800030B106F0800018B1204600F00F
:1026E000C5FCB5E605F0400030B106F0400018B179
:1026F000204600F09CFBABE600BFA9E6F92C0008E1
:1027000010B504460CB9012010BDA06900B100E06D
:1027100000BF94F8410028B9002084F8400020460A
:1027200000F02AF8242084F841002068C06820F4D2
:1027300000502168C860204600F01AFC206800693B
:1027400020F49040216808612068406920F02A0048
:10275000216848612068C06840F400502168C86062
:1027600000206064202084F8410084F842000020AA
:10277000606300BFC8E7000010B586B004460020C3
:10278000029003900490059037492068884268D1F0
:1027900000BF3648C06940F400303449C86108467B
:1027A000C06900F40030019000BF00BF00BF0846C0
:1027B000806940F0040088610846806900F00400E8
:1027C000019000BF00BF042002900220039003206C
:1027D000059002A92648FEF7CBFE082002900020B3
:1027E0000390049002A92248FEF7C2FE2148224924
:1027F00008600020486000211F4881608021C1607E
:102800000021016141618161C161FEF72FFE08B1C4
:10281000FEF71FF800BF1848E063446200BF154888
:102820001430164908601020486000211348816068
:102830008021C1600021016141618161C161FEF7B8
:1028400015FE08B1FEF705F800BF0C48A06344620E
:1028500000BF002205212620FFF7DAF82620FFF727
:10286000C7F806B010BD0000004400400010024050
:10287000000801406C00024068010020AC0100200B
:1028800070470000F7B50446154694F8410020282B
:1028900036D1019800B10DB90120FEBD019820622A
:1028A000A584E58400206064212084F84100154857
:1028B000A16B88621448A16BC8621448A16B0863BD
:1028C0000020A16B486301AE23681A1D31682B46B6
:1028D000A06BFEF7FFFD6FF040002168086000BFAD
:1028E00000BF2168143151E8001F41F080002168C9
:1028F000143141E80002002AF3D100BF0020CCE7E8
:102900000220CAE75D2D0008B52D00080D2D000836
:1029100010B50C49884213D100BF5023EFF3118248
:1029200083F31188BFF34F8FBFF36F8F00BF114642
:102930000122054B1A600A4682F3118800BF00BFCE
:1029400010BD00002001002028000020704700BFBB
:10295000FEE7000010B50E480E49086004204860EC
:1029600001070C4881600021C1604FF440310161D2
:10297000090141610021017641768176C1760177B6
:102980004177FEF7AFFA08B1FDF763FF10BD000015
:1029900000640040F800002008B500BF0E48406900
:1029A00040F001000C4948610846406900F0010010
:1029B000009000BF00BF002205211020FFF728F87B
:1029C0001020FFF715F8002205211120FFF720F84D
:1029D0001120FFF70DF808BD001002401CB50E4A8B
:1029E00000210E4800F014FC0D4908600020182159
:1029F00003468022CDE900100AA10C4802F07CF8C1
:102A00000020182103468022CDE9001008A10B48C0
:102A100002F072F81CBD0000C4500008E92A00084A
:102A20003000002043414E5461736B009D06000846
:102A30005472616E735461736B000000052C0008C2
:102A400008B500BF0D48806940F020000B4988613F
:102A50000846806900F02000009000BF00BF00BF62
:102A60000846806940F0040088610846806900F0EB
:102A70000400009000BF00BF08BD0000001002402D
:102A800010B50B480B4908604FF4E1304860002155
:102A900008488160C16001610C21416100218161B0
:102AA000C161FFF72DFE08B1FDF7D3FE10BD000098
:102AB000004400402001002000BFFEE700BFFEE709
:102AC00008B508490968C9084FF47A72B1FBF2F1F8
:102AD0004143009100BF00BF00994A1E00920029A7
:102AE000F9D108BD4000002000BF012000F03BFBF1
:102AF000FBE710B54FF0E020006902F08DF80128E7
:102B000001D001F0D7FC10BD00B58FB0282105A879
:102B1000FDF783FC14216846FDF77FFC012005903A
:102B200000040690002007900120099002200C90DC
:102B3000C1030D914FF4E0110E9105A8FFF700F9C4
:102B400008B1FDF786FE0F200090022001900020C2
:102B500002904FF4806003900020049002216846A8
:102B6000FEF7A8FF08B1FDF774FE0FB000BD704777
:102B700010B50248FFF789FB10BD0000F0010020EE
:102B800010B502681C4B984208D0B0F1804F05D0B8
:102B90001A4B984202D01A4B984203D122F070028D
:102BA0004B681A43144B984208D0B0F1804F05D0BF
:102BB000124B984202D0124B984203D122F4407239
:102BC000CB681A4322F080034C6943EA0402026096
:102BD0008B68C3620B688362074B984201D10B6913
:102BE000036301234361036903F001031BB103691C
:102BF00023F00103036110BD002C014000040040DC
:102C000000080040A4B00024002500260027A046AC
:102C100000BF2A48006840F20121884209D02748B5
:102C20000068491C884204D024480068491C884236
:102C300040D101F075F922480068012837D1002001
:102C40001F4908601F48007804441E484078241A31
:102C50001C48807806441B48C078361A1948007909
:102C60000544184840792D1A1648877901F082F9F1
:102C7000234615A2802104A8CDE901570096FDF74F
:102C8000F3FA804601F04CF91948006801280BD18D
:102C900000201749086001F06DF91FFA88F204A9B5
:102CA0001448FFF7EFFDB4E701F064F9B1E701F074
:102CB00061F9AEE7322001F059FAAAE7DC00002002
:102CC0001800002008000020416E676C653D2564F7
:102CD0000A53706565643D25640A43757272656EBA
:102CE000743D25640A54656D703D25640A0000003A
:102CF000280000202001002070B505466C6A0020E5
:102D0000E085E0842046FFF787FB70BD70B506467E
:102D10000025746A20684069C0F3C01594F841002A
:102D2000212805D125B10020E084204600F08FF84D
:102D300020684069C0F3801594F84200222805D12C
:102D400025B10020E085204600F03BF8606C40F0A3
:102D5000100060642046FFF75FFB70BD70B505464C
:102D60006C6A2868006800F02000F8B90020E08450
:102D700000BF00BF2168143151E8001F21F080001E
:102D80002168143141E80002002AF3D100BF00BFDE
:102D900000BF21680C3151E8001F41F0400021685C
:102DA0000C3141E80002002AF3D102E02046FFF78F
:102DB000AFFD70BD70B50446656A2846FFF7C6FDD5
:102DC00070BD00BF00BF02680C3252E8002F22F431
:102DD000907102680C3242E80013002BF3D100BF5F
:102DE00000BF00BF0268143252E8002F22F0010138
:102DF0000268143242E80013002BF3D100BF016BCC
:102E000001290ED100BF00BF02680C3252E8002F2A
:102E100022F0100102680C3242E80013002BF3D1BB
:102E200000BF202180F8421000210163704710B5D7
:102E300004462068C06820F040002168C860202057
:102E400084F841002046FFF763FD002010BD00BF5D
:102E500000BF02680C3252E8002F22F0C001026865
:102E60000C3242E80013002BF3D100BF202180F880
:102E700041107047F8B5044694F84200222875D1F5
:102E8000A068B0F5805F0CD1206950B90025A66A12
:102E900020684068C0F308003080A06A801CA062EF
:102EA00015E0A56A0026A068B0F5805F03D0A06891
:102EB00028B9206918B920684068287004E02068A3
:102EC000406800F07F002870A06A401CA062E08D7E
:102ED000401E80B2E085002846D12068C06820F0FE
:102EE00020002168C8602068C06820F480702168D4
:102EF000C8602068406920F00100216848612020F6
:102F000084F8420000206063206B012826D1002055
:102F1000206300BF00BF21680C3151E8001F21F081
:102F2000100021680C3141E80002002AF3D100BFF3
:102F30002068006800F0100010280AD100BF0020AF
:102F4000009020680068009020684068009000BFF2
:102F500000BFA18D2046FFF75EFA02E02046FFF792
:102F60008FFC0020F8BD01E00020FBE70220F9E71C
:102F700070B504462168096921F44051E2681143A3
:102F8000226811612269A1681143626941EA020560
:102F90002168C96841F20C62914329432268D160DB
:102FA0002168496921F44071A26911432268516185
:102FB0002D4A2168914202D1FEF77AFE01E0FEF728
:102FC00067FE00EBC00101EB001162689200B1FBEB
:102FD000F2F100EBC00202EB001263689B00B2FB4F
:102FE000F3F26423B2FBF3F202EBC20303EB02122F
:102FF000A1EB8201322202EB01116422B1FBF2F15A
:1030000001F0F00100EBC00202EB001263689B00CC
:10301000B2FBF3F26423B2FBF3F201EB021200EB1A
:10302000C00101EB001163689B00B1FBF3F100EB01
:10303000C00303EB00136668B600B3FBF6F3642627
:10304000B3FBF6F303EBC30606EB0313A1EB83011B
:10305000322303EB01116423B1FBF3F101F00F0103
:1030600011442268916070BD00380140014691F81A
:103070004100212828D18868B0F5805F0BD108690C
:1030800048B90A6A1088C0F308000B685860086ADB
:10309000801C086205E00B6A581C086218780B68EF
:1030A0005860C88C401E80B2C88458B90868C0688F
:1030B00020F080000B68D8600868C06840F04000CD
:1030C0000B68D860002070470220FCE710B502486A
:1030D000FFF7A4F910BD00002001002010B5024840
:1030E000FDF7D9FD10BD0000F800002010B5024822
:1030F000FDF7D1FD10BD0000F800002000BFFEE785
:1031000002480068C0F30220704700000CED00E0A8
:1031100010B5002804DB0A07130E054A135406E015
:103120000A07140E034A00F00F031B1FD45410BDEE
:1031300000E400E018ED00E0EFF305807047FEF7D3
:10314000B9FBFFF7E1FCFFF77BFCFFF725FCFFF77E
:1031500001FCFFF795FC00F015F8FFF73FFC00F0CD
:1031600027F800BFFEE770B50546FFF7E5FF10B191
:103170006FF0050404E0002415B1284600F0F6FFC6
:10318000204670BD10B5FFF7D7FF10B16FF00504F2
:1031900009E00648006820B90120044908600024BD
:1031A00001E04FF0FF34204610BD000094000020E5
:1031B00070B5FFF7C1FF10B16FF005041FE01148B3
:1031C0000068012819D100BF801F0021002804DBFE
:1031D0000A07130E0C4A135406E00A07150E0B4A91
:1031E00000F00F031B1FD55400BF00BF022005498C
:1031F000086001F037F8002401E04FF0FF3420466A
:1032000070BD00009400002000E400E018ED00E034
:103210002DE9FF4780468946144600200390FFF7BA
:103220008BFF00284ED1B8F1000F4BD08026182517
:103230008246471E44B3206808B1D4F800A0A069B4
:1032400000B1A5692DB1382D03D8207900F0010017
:1032500018B1002004B0BDE8F087606908B160696A
:103260008608A06840B1E0685C2805D3206918B1E1
:10327000606908B1012708E0A06830B9E06820B9AA
:10328000206910B9002700E00027012F0CD1216927
:10329000A0684B463246CDE9005102905146404667
:1032A00001F05CFC03900DE067B903A8B2B24B4695
:1032B0005146CDE90050404601F01EFC012801D0E6
:1032C000002003900398C5E72DE9F04105460E461E
:1032D0001648076816480068001D00F0BFFD681C0E
:1032E00038B936B112480168091D124800F00CFEC9
:1032F0001AE07C190E4800684460BC4207D20C48B2
:103300000168091D0C48006800F0E4FD0CE0084865
:103310000168091D0948006800F0DCFD08480068E4
:10332000844201D206480460BDE8F08158000020C4
:1033300044000020280700204C0000204800002006
:103340007400002010B5044600F0EAFD244800682F
:10335000401C234908602348006840B921480460A4
:103360000846006801280DD100F0FCF90AE01E486B
:10337000006838B91B480068C06AE16A884201D811
:103380001848046019480068401C1849086008463D
:10339000006860641649E06A0968884202D91449E5
:1033A000E06A0860E16A01EB8101124A02EB8100E8
:1033B000211D00F0A9FD00F0DDFD0B48006868B19B
:1033C00008480068C06AE16A884207D24FF080501E
:1033D00009490860BFF34F8FBFF36F8F10BD000026
:1033E00054000020440000206000002070000020F5
:1033F0005C0000207802002004ED00E008B500F039
:103400008FFD12480068E8B9114800F053FD1148DB
:1034100000F050FD0E48104908600E480F49086042
:1034200000200F4B0F4A102100900A2001F05CF899
:10343000064908600846006820B10BA103480068EF
:1034400000F058FE00F096FD08BD00008800002046
:103450003C0700205007002080000020840000204E
:1034600064070020B4070020546D72510000000072
:1034700010B516E000F054FD0C48C068C468201D6B
:1034800000F0ECFC0A480068401E09490860094841
:103490000068401E0749086000F06CFD204600F0FF
:1034A0005FF8044800680028E4D110BD140700202C
:1034B000540000205000002070B504460D46206CDA
:1034C00070B1216CE0680144E160D4E902108842E7
:1034D00001D32168E1602846226CE168FCF750FFC7
:1034E00070BD2DE9F04104460F4615464FF0000827
:1034F000A66B206C48B9206800282CD1A06801F088
:1035000043FC80460020A06025E07DB93946226C4E
:103510006068FCF735FF216C606808446060D4E99E
:103520000101884217D32068606014E03946226C9C
:10353000E068FCF725FF216CE068411AE160216832
:10354000E068884203D2216CA068411AE160022D34
:1035500001D106B1761E701CA0634046BDE8F08123
:1035600010B5044694F8590030B9206B00F020FDE6
:10357000204600F01DFD1AE094F85900012803D1FF
:10358000204600F015FD12E094F85900022801D100
:10359000012000E0002050B900BF502080F31188C6
:1035A000BFF34F8FBFF36F8F00BF00BFFEE710BDAB
:1035B0000146084A126812680AB9012200E0002296
:1035C0000A600A6822B9034A1268D268106800E0EB
:1035D000002070478000002030B54FF4406317484A
:1035E00000F007042CB1C01D20F00700134C041B91
:1035F0001B1B0246124C22600024114D6C60D01837
:10360000083820F007000F4C206000240D4D2D6875
:103610006C600C4D2D682C601146441A4C60094CAE
:1036200024680C60084D4C682C60084D4C682C6078
:103630004FF00044064D2C6030BD00000C0F002000
:1036400098000020A0000020A8000020A400002076
:10365000B400002000BFFFF70BFF064800680128F8
:10366000F9D94FF0805004490860BFF34F8FBFF382
:103670006F8FF0E77802002004ED00E02DE9F041C3
:1036800006460D4617469846069C0DB9246000E094
:103690002760E66325640121204600F095FF84F849
:1036A0004C80BDE8F0812DE9F05F82460E469046E1
:1036B0009B460A9F0C9C4FEA8801A522206BFCF7D1
:1036C000A4FEA8F10100216B01EB800929F0070994
:1036D00009F0070008B9012000E0002050B900BF40
:1036E000502080F31188BFF34F8FBFF36F8F00BF5F
:1036F00000BFFEE786B1002507E0715D04F13400EC
:103700004155705D00B902E06D1C102DF5D300BF6E
:1037100000214320015502E0002084F83400382FB6
:1037200000D33727E762E76400202065201D00F002
:10373000CEFB04F1180000F0CAFB2461C7F1380089
:10374000A06164620020606584F858005A465146C2
:10375000484600F071FB20600B9808B10B9804609C
:10376000BDE8F09F10B5002407E004EB84010F4A88
:1037700002EB810000F09EFB641C382CF5D30C4852
:1037800000F098FB0B4800F095FB0B4800F092FB13
:103790000A4800F08FFB0A4800F08CFB04480949F6
:1037A000086004480849086010BD00007802002045
:1037B000D8060020EC060020000700201407002097
:1037C00028070020480000204C00002010B50146CA
:1037D000164800E0006803688B42FBD3024643684A
:1037E00013448B4204D143684C6823444360014630
:1037F0000A464B6813440468A34211D10C4C036879
:103800002468A34208D04B680468646823444B6072
:1038100003681B680B6005E0054B1B680B6001E04B
:1038200003680B60884200D0016010BD9800002042
:10383000A00000202DE9F04104460D4616461F4623
:103840004FF0000865602461B5420CD8F01BA169F7
:10385000884202D34FF0010811E0211D0948006899
:1038600000F038FB0BE0BE4204D2BD4202D34FF061
:10387000010804E0211D0448006800F02BFB4046CD
:10388000BDE8F081840000208000002070B505466E
:1038900000F046FBA86B08B9012400E0002400F00A
:1038A00069FB204670BD70B5054600F039FBA86B7A
:1038B000E96B884201D1012400E0002400F05AFBAA
:1038C000204670BDF8B505460F461A480068C06826
:1038D000C468201D00F0C2FA94F8280000F004002B
:1038E000E8B1A06941192B463A462046FFF7A2FFEE
:1038F000D8B1002003462A4601460090204601F038
:103900009FFB064656B900BF502080F31188BFF3D5
:103910004F8FBFF36F8F00BF00BFFEE705E094F845
:10392000280020F0010084F828002046216A8847FA
:10393000F8BD000080000020F0B587B0A0E003983B
:10394000002811DA04AE56B900BF502080F3118868
:10395000BFF34F8FBFF36F8F00BF00BFFEE7D6E905
:103960000020B168904700BF03980028E6DB059C63
:10397000606908B9012000E0002010B9201D00F0A6
:103980006DFA02A800F0DEF8054603980A2875D201
:10399000DFE800F009050739416306083A4200BF35
:1039A00000BF00BF00BF94F8280040F0010084F879
:1039B00028000498A269811803462A462046FFF78A
:1039C00039FFF8B12046216A884794F8280000F0B2
:1039D0000400B8B1002000900498A16942180023A7
:1039E0001946204601F02CFB074657B900BF50206E
:1039F00080F31188BFF34F8FBFF36F8F00BF00BFFD
:103A0000FEE700BF3BE000BF94F8280020F0010073
:103A100084F8280033E000BF94F8280040F001004B
:103A200084F828000498A061A06908B1012000E092
:103A3000002050B900BF502080F31188BFF34F8F92
:103A4000BFF36F8F00BF00BFFEE7A06941192B468F
:103A50002A462046FFF7EEFE11E094F8280000F019
:103A6000020018B9204600F0A3FA05E094F82800F7
:103A700020F0010084F8280001E0FFE700BF00BF4C
:103A8000002203A90448006800F03CFF00287FF4EE
:103A900056AF07B0F0BD000088000020F8B505461D
:103AA0000C4600F03BFC684600F04CF806460098D7
:103AB00020BB44B9B54206D801F004FA3146284685
:103AC000FFF700FF1CE03CB10E480068006808B931
:103AD000012000E000200446A91B22460A48006895
:103AE00000F01EFB01F0EEF950B94FF0805007498D
:103AF0000860BFF34F8FBFF36F8F01E001F0E2F971
:103B0000F8BD0000840000208800002004ED00E0E3
:103B10000A490968096809B9012100E0002121B1B9
:103B20004FF0FF31064A116006E004490968C96890
:103B3000C868034A416811607047000048000020CF
:103B40007400002070B5044601F076F80546074879
:103B50000068854204D200F00BF80120206001E0EB
:103B60000020206001480560284670BD90000020BC
:103B70002DE9F84334E025480068C068056823480B
:103B80000068C068C468201D00F068F92046216AFA
:103B9000884794F8280000F0040008B3A06946198B
:103BA000AE4207D966602461211D1848006800F004
:103BB00091F915E0002003462A4601460090204670
:103BC00001F03EFA074657B900BF502080F3118834
:103BD000BFF34F8FBFF36F8F00BF00BFFEE700BF83
:103BE0000A480068006808B9012000E000200028A9
:103BF000C1D00648D0F80080054800680349086035
:103C00000348C0F80080BDE8F88300008000002071
:103C1000840000200E480068401C08B9012000E024
:103C2000002050B900BF502080F31188BFF34F8FA0
:103C3000BFF36F8F00BF00BFFEE700BF502080F3CF
:103C40001188BFF34F8FBFF36F8F00BF00BFFEE738
:103C5000B800002008B500BF6846FFF7A9FC04467D
:103C600020460099FFF71AFFFFF766FEF4E770B5EC
:103C7000044600F055F994F9455010E0606A08B91F
:103C8000012000E0002038B904F1240001F0CEF852
:103C900018B100F0A5FA00E003E0681E45B2002D5F
:103CA000ECDC00BFFF2084F8450000F063F900F071
:103CB00037F994F9445010E0206908B9012000E078
:103CC000002048B904F1100001F0B0F808B100F08C
:103CD00087FA681E45B200E001E0002DECDC00BF71
:103CE000FF2084F8440000F045F970BD2DE9F04153
:103CF00004464FF0000800F011FB4948006808B97D
:103D0000FFF76AFC474800682040002870D1D4B112
:103D1000083404F00700B0B104F00700C0F1080057
:103D2000044404F0070008B9012000E0002050B965
:103D300000BF502080F31188BFF34F8FBFF36F8F08
:103D400000BF00BFFEE7002C52D037480068844215
:103D50004ED8364E3046056801E02E462D6868681C
:103D6000A04202D228680028F7D12D480068854279
:103D70003ED0306800F10808286830606868001B91
:103D8000102819D92F1907F0070008B9012000E001
:103D9000002050B900BF502080F31188BFF34F8F2F
:103DA000BFF36F8F00BF00BFFEE76868001B78603D
:103DB0006C603846FFF70AFD1B4968680968081AF5
:103DC000194908600846006819490968884203D201
:103DD0001548006816490860124968680968084370
:103DE00068600020286013480068401C1149086082
:103DF00001F068F808F0070008B9012000E0002091
:103E000050B900BF502080F31188BFF34F8FBFF32C
:103E10006F8F00BF00BFFEE74046BDE8F0810000A5
:103E2000A0000020B4000020A40000209800002082
:103E3000A8000020AC000020001F4FF0807303603A
:103E4000001F21F001030360001F034B03601438BF
:103E50000260203870470000153C000801460A69DE
:103E6000D1E901309860D1E9010358605068884277
:103E700001D188685060002008611068401E106001
:103E800010687047034B0360034B0B608023136083
:103E90007047000054080020B0080020034B036066
:103EA000034B0B604FF4807313607047B00A00201F
:103EB0000C0B002000F1080141604FF0FF318160E0
:103EC00000F10801C160016100210160704700211B
:103ED0000161704710B502460B685C1C0CB9106993
:103EE00007E002F1080000E04068446824689C4252
:103EF000FAD944684C604C68A160886041600A61EE
:103F00001468641C146010BD42684A6093688B603A
:103F1000936859609160086103685B1C0360704797
:103F200000BF502080F31188BFF34F8FBFF36F8F16
:103F300000BF0E480068401C0C4908600846006835
:103F4000012812D10A480068C0B208B9012000E077
:103F5000002050B900BF502080F31188BFF34F8F6D
:103F6000BFF36F8F00BF00BFFEE77047B8000020AF
:103F700004ED00E00D48006850B900BF502080F308
:103F80001188BFF34F8FBFF36F8F00BF00BFFEE7F5
:103F900006480068401E054908600846006820B9C8
:103FA000002080F3118800BF00BF7047B8000020D8
:103FB00070B506463546002E44D0083D2C462249B1
:103FC00060680968084008B1012000E0002050B98D
:103FD00000BF502080F31188BFF34F8FBFF36F8F66
:103FE00000BF00BFFEE7206808B9012000E0002004
:103FF00050B900BF502080F31188BFF34F8FBFF33B
:104000006F8F00BF00BFFEE70F4960680968084076
:10401000C0B12068B0B90C49606809688843606025
:1040200000F07CF90949606809680844074908609C
:104030002046FFF7CBFB06480068401C0449086097
:1040400000F040FF70BD0000B4000020A40000207C
:10405000B000002000204FF0E02108618861064890
:1040600000684FF47A71B0FBF1F0401E4FF0E02190
:1040700048610720086170474000002070B5FCF7D8
:10408000CFF80446102C16D304F1E02090F8F0533A
:1040900015480078854201DB012000E0002050B97E
:1040A00000BF502080F31188BFF34F8FBFF36F8F95
:1040B00000BF00BFFEE70D48006800F4E0600C4957
:1040C0000968884201D8012000E0002050B900BFF3
:1040D000502080F31188BFF34F8FBFF36F8F00BF65
:1040E00000BFFEE770BD0000BC0000200CED00E04A
:1040F000C0000020024600200BE0084B53F830308F
:1041000033B9064B43F8301003EBC0035A6002E0AA
:10411000401C0828F1D300BF70470000380200207F
:104120002DE9F04105460E4617462C46FFF7F8FEEE
:1041300094F94400401C10B9002084F8440094F91C
:104140004500401C10B9002084F84500FFF712FF1D
:10415000A06B28B93A46314604F1240000F062F819
:104160002046FFF784FDBDE8F081000070B50446ED
:104170000025D4B11248006808B9012000E00020F1
:1041800050B900BF502080F31188BFF34F8FBFF3A9
:104190006F8F00BF00BFFEE700F0C0F8002120468F
:1041A000FFF792F800F08EFE05463DB94FF08050C3
:1041B00004490860BFF34F8FBFF36F8F70BD0000DD
:1041C0007C00002004ED00E0034909680160034918
:1041D00009684160704700006C0000205800002012
:1041E00001200149086070476800002070B504464E
:1041F0000D4654B900BF502080F31188BFF34F8F94
:10420000BFF36F8F00BF00BFFEE70548016818319C
:104210002046FFF75FFE01212846FFF755F870BDE5
:104220004400002070B505460E46144655B900BF3F
:10423000502080F31188BFF34F8FBFF36F8F00BF03
:1042400000BFFEE70648016818312846FFF75CFE0C
:104250000CB14FF0FF3621463046FFF735F870BD00
:104260004400002010B586B000200590049003AAF9
:1042700004A905A8FFF706FE0022DDE90410134695
:10428000CDE9002102901EA11F48039A00F066FCB0
:104290001E4908600846006808B1012400E00024B7
:1042A000012C02D100F090FE0446012C15D100BF74
:1042B000502080F31188BFF34F8FBFF36F8F00BF83
:1042C0004FF0FF30124908600120124908600020B9
:1042D0001149086000F072F810E0601C08B101207C
:1042E00000E0002050B900BF502080F31188BFF3D8
:1042F0004F8FBFF36F8F00BF00BFFEE706B010BD4A
:1043000049444C4500000000553600087800002064
:10431000740000206000002058000020024800685F
:10432000401C0149086070477C0000201E4800685E
:1043300018B101201D49086034E000201B490860C5
:104340001B4801680CE051B900BF502080F3118870
:10435000BFF34F8FBFF36F8F00BF00BFFEE7491E53
:1043600001EB8100134A52F8200008B9012000E057
:1043700000200028E7D101EB81020E4B03EB820005
:1043800042685268426000F108024368934202D1D9
:104390004268526842604268D268074B1A6004481B
:1043A000016000BF704700007C0000206800002012
:1043B0005C00002078020020440000201CB5384931
:1043C000084600780190FF200A46107008460078E1
:1043D00000909DF8000000F0F0009DF80020904251
:1043E00001D1012000E0002050B900BF502080F32F
:1043F0001188BFF34F8FBFF36F8F00BF00BFFEE781
:104400009DF8000000F05000264A10700720264A50
:10441000106009E024480068401E234A10609DF89F
:1044200000004006000E00909DF8000000F08000A3
:104430008028EFD01C480068C0F10700042801D193
:10444000012000E0002050B900BF502080F3118807
:10445000BFF34F8FBFF36F8F00BF00BFFEE712485F
:1044600000680002104A10601046008800F4E06006
:1044700010600B4A019810700C48006840F47000FE
:104480000A4908600846006840F070400860FFF77D
:10449000E1FD002006490860FBF78CFE00201CBDF2
:1044A00000E400E0BC000020C000002020ED00E09F
:1044B000B800002010B500BF502080F31188BFF372
:1044C0004F8FBFF36F8F00BF00F0BCFB18B14FF0F0
:1044D00080500449086000BF002080F3118800BFAD
:1044E00010BD000004ED00E02DE9F84380460E46C3
:1044F00017461D46DDF82090B8F1000F01D00120CD
:1045000000E0002050B900BF502080F31188BFF3B5
:104510004F8FBFF36F8F00BF00BFFEE70DB10120CB
:1045200000E0002050B900BF502080F31188BFF395
:104530004F8FBFF36F8F00BF00BFFEE707B10EB113
:10454000012000E0002050B900BF502080F3118806
:10455000BFF34F8FBFF36F8F00BF00BFFEE707B9F8
:104560000EB9012000E0002050B900BF502080F3B8
:104570001188BFF34F8FBFF36F8F00BF00BFFEE7FF
:10458000502000900098502801D1012000E0002028
:1045900050B900BF502080F31188BFF34F8FBFF395
:1045A0006F8F00BF00BFFEE700BF2C464CB101205B
:1045B00084F846004B463A46314640460094FFF7A1
:1045C0005DF82046BDE8F88370B505460E462C46DA
:1045D00054B900BF502080F31188BFF34F8FBFF351
:1045E0006F8F00BF00BFFEE7FFF79AFCD4E90F1200
:1045F000206801FB0200A0600020A06320686060CA
:10460000E06B401E226C216800FB0211E160FF207C
:1046100084F8440084F845009EB9206908B9012057
:1046200000E00020A8B904F1100000F0FFFB80B109
:104630004FF0805009490860BFF34F8FBFF36F8F71
:1046400007E004F11000FFF735FC04F12400FFF748
:1046500031FCFFF78FFC012070BD000004ED00E08D
:104660002DE9FF4383B0064688461D464FF00009FA
:10467000344654B900BF502080F31188BFF34F8FE8
:10468000BFF36F8F00BF00BFFEE7B8F1000F01D18D
:10469000206C08B9012000E0002050B900BF502074
:1046A00080F31188BFF34F8FBFF36F8F00BF00BF40
:1046B000FEE7022D02D1E06B012801D1012000E0CC
:1046C000002050B900BF502080F31188BFF34F8FF6
:1046D000BFF36F8F00BF00BFFEE700F09DFA08B97F
:1046E000059808B9012000E0002050B900BF502013
:1046F00080F31188BFF34F8FBFF36F8F00BF00BFF0
:10470000FEE700BFFFF70CFCA06BE16B884201D312
:10471000022D28D12A4641462046FEF7E2FE0746F2
:10472000606A08B9012000E0002068B904F12400A3
:1047300000F07CFB88B14FF0805032490860BFF335
:104740004F8FBFF36F8F08E03FB14FF080502D497E
:104750000860BFF34F8FBFF36F8FFFF70BFC012093
:1047600007B0BDE8F083059818B9FFF703FC0020F7
:10477000F6E7B9F1000F04D101A8FFF725FD4FF0CE
:104780000109FFF7F7FBFFF7C9FDFFF7C9FB94F934
:104790004400401C10B9002084F8440094F94500FE
:1047A000401C10B9002084F84500FFF7E3FB05A981
:1047B00001A800F05BF9F0B92046FFF774F8A0B14A
:1047C00004F110000599FFF711FD2046FFF74FFA9D
:1047D00000F078FB002895D14FF08050094908601F
:1047E000BFF34F8FBFF36F8F8CE72046FFF73FFA81
:1047F00000F068FB86E72046FFF739FA00F062FB1D
:104800000020ADE704ED00E02DE9F84F07468A46A9
:1048100090461E463C4654B900BF502080F3118894
:10482000BFF34F8FBFF36F8F00BF00BFFEE7BAF13A
:10483000000F01D1206C08B9012000E0002050B920
:1048400000BF502080F31188BFF34F8FBFF36F8FED
:1048500000BF00BFFEE7022E02D1E06B012801D1AC
:10486000012000E0002050B900BF502080F31188E3
:10487000BFF34F8FBFF36F8F00BF00BFFEE7FFF79F
:10488000FDFB00BF5021EFF3118081F31188BFF3CE
:104890004F8FBFF36F8F00BF0546A06BE16B88425F
:1048A00001D3022E25D194F945B0A06B0090324679
:1048B00051462046FEF715FE0BF1010088B9606AEB
:1048C00008B9012000E0002050B904F1240000F0F4
:1048D000ADFA28B1B8F1000F02D00120C8F80000ED
:1048E00004E00BF1010040B284F845004FF00109EB
:1048F00001E04FF0000900BF85F3118800BF484672
:10490000BDE8F88F2DE9F74183B005460E464FF01C
:1049100000082C4654B900BF502080F31188BFF323
:104920004F8FBFF36F8F00BF00BFFEE70EB9206C43
:1049300008B9012000E0002050B900BF502080F3EA
:104940001188BFF34F8FBFF36F8F00BF00BFFEE72B
:1049500000F062F908B9059808B9012000E00020CC
:1049600050B900BF502080F31188BFF34F8FBFF3C1
:104970006F8F00BF00BFFEE700BFFFF7D1FAA76B44
:10498000F7B131462046FEF797FD781EA0632069F7
:1049900008B9012000E0002060B904F1100000F027
:1049A00045FA38B14FF080502F490860BFF34F8F60
:1049B000BFF36F8FFFF7DEFA012006B0BDE8F0818C
:1049C000059818B9FFF7D6FA0020F6E7B8F1000FFE
:1049D00004D101A8FFF7F8FB4FF00108FFF7CAFA6E
:1049E000FFF79CFCFFF79CFA94F94400401C10B9B7
:1049F000002084F8440094F94500401C10B90020C0
:104A000084F84500FFF7B6FA05A901A800F02EF8D2
:104A1000F0B92046FEF73AFFA0B104F12400059951
:104A2000FFF7E4FB2046FFF722F900F04BFA0028DD
:104A3000A3D14FF080500C490860BFF34F8FBFF3F4
:104A40006F8F9AE72046FFF712F900F03BFA94E7E0
:104A50002046FFF70CF900F035FA2046FEF716FF66
:104A600000288AD00020A8E704ED00E070B50546D4
:104A70000C4655B900BF502080F31188BFF34F8F0B
:104A8000BFF36F8F00BF00BFFEE754B900BF5020D7
:104A900080F31188BFF34F8FBFF36F8F00BF00BF4C
:104AA000FEE7FFF73DFA124802686868131A2068AB
:104AB000401C08B9002617E00E492868096888429A
:104AC00004D06868904201D801260DE02068984221
:104AD00007D92068C01A20602846FFF775FB00261A
:104AE00002E0002020600126FFF744FA304670BD46
:104AF000580000206C0000202DE9FF4F85B0804653
:104B000089461746DDE912ABB800FFF7EFF8064615
:104B100056B15C20FFF7EAF804460CB1266304E0C6
:104B20003046FFF745FA00E000248CB1002084F8FD
:104B30005900CDE900ABCDE902403A46494640462E
:104B4000089BFEF7B0FD2046FEF7FCFB012501E0C7
:104B50004FF0FF35284609B0BDE8F08F2DE9F04F42
:104B600085B00746884691469A46DDE90EB6109C08
:104B70000EB1012000E0002050B900BF502080F3AA
:104B80001188BFF34F8FBFF36F8F00BF00BFFEE7E9
:104B90000CB1012000E0002050B900BF502080F38C
:104BA0001188BFF34F8FBFF36F8F00BF00BFFEE7C9
:104BB0005C20039003985C2801D1012000E00020D4
:104BC00050B900BF502080F31188BFF34F8FBFF35F
:104BD0006F8F00BF00BFFEE700BFB4B1AEB1254686
:104BE0002C462E63022085F85900002004A9534664
:104BF0004A46CDE900B1CDE9025041463846FEF7BC
:104C000052FD2846FEF79EFB01E000200490049828
:104C100005B0BDE8F08F00000549096809B9012019
:104C200005E00449096809B9022000E00020704746
:104C3000600000207C0000200149086870470000E7
:104C4000580000202DE9F0414FF00008434800686B
:104C500000287BD142480068451C4148056015BBCF
:104C600040480068006808B9012000E0002050B901
:104C700000BF502080F31188BFF34F8FBFF36F8FB9
:104C800000BF00BFFEE7374807683748006835496E
:104C900008603548076035480068401C33490860A3
:104CA000FEF736FF00BF3248006885423BD300BFA5
:104CB0002C480068006808B9012000E0002020B1FD
:104CC0004FF0FF302A4908602CE026480068C06891
:104CD000C4686668B54202D22548066022E0201DFD
:104CE000FFF7BCF8A06A18B104F11800FFF7B6F896
:104CF0002049E06A0968884202D91E49E06A0860D2
:104D0000E16A01EB81011C4A02EB8100211DFFF7E2
:104D1000FBF81A49E06A0968C96A8842C8D34FF0AB
:104D20000108C5E700BF15480068C06A00EB8000B5
:104D3000114951F82000012801D94FF0010810480D
:104D4000006808B14FF0010805E0FFE70D48006872
:104D5000401C0C4908604046BDE8F0817C00002002
:104D600058000020480000204C0000206C0000206B
:104D7000740000205C000020780200204400002025
:104D8000680000206400002070B505462C4600260F
:104D9000002D43D022480068844201D1012000E068
:104DA000002050B900BF502080F31188BFF34F8F0F
:104DB000BFF36F8F00BF00BFFEE7206D50B900BF8B
:104DC000502080F31188BFF34F8FBFF36F8F00BF68
:104DD00000BFFEE7206D401E2065E16CE06A88425E
:104DE0001CD0206DD0B9201DFFF738F8E06CE062D0
:104DF000E06AC0F13800A0610A49E06A09688842A7
:104E000002D90849E06A0860E16A01EB8101064ABB
:104E100002EB8100211DFFF777F80126304670BDB7
:104E2000440000205C0000207802002070B5064697
:104E3000F068C46854B900BF502080F31188BFF3F4
:104E40004F8FBFF36F8F00BF00BFFEE704F1180064
:104E5000FFF704F815480068A0B9201DFEF7FEFF13
:104E60001349E06A0968884202D91149E06A08607A
:104E7000E16A01EB81010F4A02EB8100211DFFF77E
:104E800043F804E004F118010B48FFF73DF80B4923
:104E9000E06A0968C96A884204D9012501200849E5
:104EA000086000E00025284670BD00007C0000205E
:104EB0005C00002078020020000700204400002051
:104EC0006800002070B5002400263648006850B9FC
:104ED00000BF502080F31188BFF34F8FBFF36F8F57
:104EE00000BF00BFFEE7FFF71BF82E480068401E1A
:104EF0002C4908600846006800284ED12A480068FE
:104F000000284AD023E02948C068C46804F118008A
:104F1000FEF7A4FF201DFEF7A1FF2549E06A0968FE
:104F2000884202D92249E06A0860E16A01EB810106
:104F3000204A02EB8100211DFEF7E6FF1E49E06AD0
:104F40000968C96A884202D301201C4908601748D1
:104F5000006808B9012000E000200028D3D00CB17F
:104F6000FEF7D6FD1648056865B100BFFFF76AFE7B
:104F700010B10120114908606D1E002DF6D10020EE
:104F80000F4908600D48006838B1012630070D4907
:104F90000860BFF34F8FBFF36F8FFEF7EBFF304614
:104FA00070BD00007C00002054000020000700209D
:104FB0005C000020780200204400002068000020EF
:104FC0006400002004ED00E010B586B00024FEF778
:104FD00015FA16480068D0B100200590049003AA85
:104FE00004A905A8FEF75AFF0222DDE904100023F8
:104FF000CDE9002102900EA10F48039AFFF7AEFD04
:105000000E4908600846006800B1012400BF54B989
:1050100000BF502080F31188BFF34F8FBFF36F8F15
:1050200000BF00BFFEE7204606B010BD880000208C
:10503000546D722053766300553C00088C000020AC
:105040002DE9FF4704460D4616461F46DDF8308021
:105050004FF0000954B900BF502080F31188BFF30E
:105060004F8FBFF36F8F00BF00BFFEE7144800688B
:1050700010B3009501960294062D15DAFFF7CCFDCA
:10508000022808D10023424669460D480068FFF710
:10509000E7FA814610E000231A466946084800688E
:1050A000FFF7DEFA814607E000233A4669460448E6
:1050B0000068FFF7A9FB8146484604B0BDE8F087C9
:1050C00088000020145100080000000000000000CB
:1050D00000000000000000000002000018000000B6
:1050E0000000000000000000020304050607080994
:1050F0000A0B0C0D0E0F1010010200000000000042
:105100000000010203040607080900000000010274
:105110000304000064656661756C745461736B0010
:105120004051000800000020C400000028010008D1
:1051300004520008C4000020AC2000004401000814
:10514000000000000000000000000000000000005F
:10515000000000000100000000000000000000004E
:10516000000000000000000001000000000000003E
:10517000000000000000000010000000010000001E
:1051800000127A0000000000000000000000000093
:10519000000000000000000000000000000000000F
:1051A00000000000000000000000000000000000FF
:1051B00000000000000000000000000000000000EF
:1051C00000000000000000000000000000000000DF
:1051D00000000000000000000000000000000000CF
:1051E00000000000000000000000000000000000BF
:1051F0000000000000000000AAAAAAAA0000000007
:0452000000000000AA
:04000005080000ED02
:00000001FF
