:020000040800F2
:10000000B81800205102000831260008B124000869
:100010002D2600086B0400083D27000800000000A2
:10002000000000000000000000000000372600086B
:10003000B104000800000000352600083926000839
:100040006B0200086B0200086B0200086B020008DC
:100050006B0200086B0200086B0200086B020008CC
:100060006B0200086B0200086B0200086B020008BC
:100070006B0200086B0200086B0200086B020008AC
:1000800091040008A10400086B0200086B0200083C
:1000900071040008810400086B0200086B0200086C
:1000A0006B0200086B0200086B0200086B0200087C
:1000B0006B0200086B0200086B0200086B0200086C
:1000C0006B0200086B0200086B0200086B0200085C
:1000D0006B0200086B0200082D2700086B02000865
:1000E0006B0200086B0200086B0200086B0200083C
:1000F0006B0200086B0200086B0200086B0200082C
:100100006B0200086B0200086B0200086B0200081B
:100110006B0200086B0200086B0200086B0200080B
:100120006B0200086B0200086B0200086B020008FB
:100130006B0200086B0200086B0200086B020008EB
:100140006B0200086B0200086B0200086B020008DB
:100150006B0200086B0200086B0200086B020008CB
:100160006B0200086B0200086B0200086B020008BB
:100170006B0200086B0200086B0200080000000020
:100180006B0200086B0200086B0200086B0200089B
:100190006B0200086B0200086B0200086B0200088B
:1001A00000000000000000006B02000800F002F8F0
:1001B00000F03EF80AA090E8000C82448344AAF1C3
:1001C0000107DA4501D100F033F8AFF2090EBAE8C1
:1001D0000F0013F0010F18BFFB1A43F0010318477B
:1001E0001435000034350000103A24BF78C878C1B7
:1001F000FAD8520724BF30C830C144BF04680C602D
:10020000704700000023002400250026103A28BF74
:1002100078C1FBD8520728BF30C148BF0B60704778
:100220001FB503F051FA00F0D5F81FBD10B510BD91
:1002300000F0E6F81146FFF7F3FF03F0C1F900F014
:1002400004F903B4FFF7F2FF03BC00F007F9000064
:100250000948804709480047FEE7FEE7FEE7FEE75A
:10026000FEE7FEE7FEE7FEE7FEE7FEE70448054996
:10027000054A064B7047000041260008AD01000802
:10028000B8120020B8180020B8140020B8140020BC
:1002900053EA020C00F069802DE9F04B4FF00006A4
:1002A000002B1FBFB3FA83F503FA05F424FA05F611
:1002B0005E4012BF1643B2FA82F502FA05F4C5F1A8
:1002C00020051EBF22FA05FC44EA0C04203556EA3C
:1002D000044C4FEA144418BF641C4FF000084FF060
:1002E0000009904271EB030C39D3002919BFB1FA10
:1002F00081F701FA07F6B0FA80F700FA07F6C7F1BE
:1003000020071EBF20FA07FC46EA0C062037B6FB82
:10031000F4FCA7EB0507103F07F01F0BCBF12006FD
:100320000CFA0BFB2CFA06F644BFB3460026202F2E
:10033000A4BF5E464FF0000B5BEA060C08BF4FF00F
:10034000010B19EB0B09ABFB027C48EB0608C01B49
:1003500006FB02CC0BFB03CC71EB0C01C1E70B4697
:10036000024641464846BDE8F08B13B54FF0000009
:100370004FF00001AFF30080BDE81C4070474FF024
:10038000000200B5134694469646203922BFA0E8E5
:100390000C50A0E80C50B1F12001BFF4F7AF0907F1
:1003A00028BFA0E80C5048BF0CC05DF804EB8900E2
:1003B00028BF40F8042B08BF704748BF20F8022B25
:1003C00011F0804F18BF00F8012B7047704770473D
:1003D0007047000070B5064C7C44064D7D4403E038
:1003E000206820448047241DAC42F9D170BD000034
:1003F000383300003833000000487047581200209E
:100400007546FFF7F9FFAE4605006946534620F0F2
:100410000700854618B020B5FFF728FFBDE820404B
:100420004FF000064FF000074FF000084FF0000BB0
:1004300021F00701AC46ACE8C009ACE8C009ACE863
:10044000C009ACE8C0098D46704710B50446AFF34B
:1004500000802046BDE81040FFF7F3BE0149182098
:10046000ABBEFEE726000200704700BFFEE70000BB
:1004700010B5024800F07BF910BD000070000020AC
:1004800010B5024800F073F910BD000070000020A4
:1004900010B5024800F09EFC10BD0000E0000020F6
:1004A00010B5024800F096FC10BD0000400100208D
:1004B000704772B600BFFEE7F0B504460A4694F8EE
:1004C0002050012D01D0022D7ED1424901F500714D
:1004D000086840F001000860086820F47C5008605B
:1004E0000868566A40EA06200860107D00F01F0682
:1004F000012000FA06F3C8699843C861A1F50071AC
:10050000D069C8B9D1F80C029843C1F80C029088A0
:1005100080B2968940EA064601F51070576940F8A6
:100520003760108880B2168940EA064601F51070DF
:10053000576900EBC7004660D069012819D1D1F88E
:100540000C021843C1F80C02908880B2168840EA69
:10055000064601F51070576940F83760908980B2FF
:10056000168940EA064601F51070576900EBC7008E
:100570004660906928B9D1F804029843C1F8040292
:1005800004E0D1F804021843C1F80402106928B944
:10059000D1F814029843C1F8140204E0D1F814020F
:1005A0001843C1F81402106A012804D1D1F81C02C2
:1005B0001843C1F81C02D1F8000220F00100C1F874
:1005C00000020020F0BDFFE7606A40F48020606216
:1005D0000120F7E700640040704770B5044694F8C6
:1005E0002050012D01D0022D7DD151B92068C06865
:1005F00000F0030080B9606A40F4001060620120DE
:1006000070BD2068006900F0030028B9606A40F4FA
:10061000001060620120F3E7206800F5D87000EB5D
:100620000110006800F004009060906840B92068F4
:1006300000F5D87000EB01100068400D106007E075
:10064000206800F5D87000EB01100068C008506009
:10065000206800F5D87000EB0110006800F002007F
:10066000D060206800F5D87000EB0110406800F001
:100670000F00082802D30820106108E0206800F568
:10068000D87000EB0110406800F00F001061206886
:1006900000F5D87000EB0110406800F47F40000ABC
:1006A0009061206800F5D87000EB01104068000CE4
:1006B0005061206800F5D87000EB01108068187058
:1006C000206800F5D87000EB0110806800F47F40CE
:1006D000000A5870206800F5D87000EB011080689F
:1006E00000F47F0000E03CE0000C9870206800F50A
:1006F000D87000EB01108068000ED870206800F5FB
:10070000D87000EB0110C0681871206800F5D8702F
:1007100000EB0110C06800F47F40000A58712068A7
:1007200000F5D87000EB0110C06800F47F00000CE9
:100730009871206800F5D87000EB0110C068000EB9
:10074000D87131B92068C06840F020002668F06098
:1007500005E02068006940F0200026683061002034
:100760004EE7606A40F480206062012048E72DE98E
:10077000F05F04460025206846692068D0F80490A0
:10078000206887682068D0F80CA02068D0F810B0E6
:100790002068D0F8188006F00100002855D007F036
:1007A0000100C0B101202168886007F0020018B183
:1007B000204600F09EFA0EE007F0040010B145F468
:1007C000006508E007F0080010B145F4805502E02C
:1007D000204600F08DFA07F48070C8B14FF48070A5
:1007E0002168886007F4007018B1204600F083FA91
:1007F0000EE007F4806010B145F4005508E007F4FE
:10080000006010B145F4804502E0204600F072FA25
:1008100007F48030C8B14FF480302168886007F455
:10082000003018B1204600F068FA0EE007F480208E
:1008300010B145F4004508E007F4002010B145F47C
:10084000803502E0204600F057FA06F0080038B183
:100850000AF0100020B145F4007510202168C8602E
:1008600006F0040040B10AF0080028B10820216811
:10087000C860204600F0B0F906F0020038B12068E8
:10088000C06800F0030010B1204600F0A7F906F0A0
:10089000400038B10BF0100020B145F48065102005
:1008A0002168086106F0200040B10BF0080028B173
:1008B000082021680861204600F0BCF906F010000D
:1008C00038B12068006900F0030010B1204600F044
:1008D000B3F906F4003040B109F0100028B110203F
:1008E00021684860204600F0D3F906F4803040B11A
:1008F00009F0080028B1082021684860204600F06F
:10090000FDF906F4004088B309F0040078B306F45A
:10091000807020B108F0010008B145F0010506F42F
:10092000007020B108F0020008B145F0020506F49D
:10093000806020B108F0040008B145F0040506F419
:100940000060A0B108F0700088B108F07000402885
:1009500017D006DC10280BD020280CD0302819D155
:100960000CE0502810D0602814D110E01DE019E0F0
:1009700045F008050FE045F010050CE045F02005B6
:1009800009E045F0400506E045F0800503E045F448
:10099000807500E000BF00BF2068806920F0700013
:1009A000216888610420216848602DB1606A28436D
:1009B00060622046FFF710FEBDE8F09F70B5044668
:1009C0000CB9012070BD94F8200010B9204600F049
:1009D000AFF82068006840F001002168086000F06E
:1009E000FBFC05460DE000F0F7FC401B0A2808D987
:1009F000606A40F400306062052084F82000012025
:100A0000E0E72068406800F001000028EBD0206893
:100A1000006820F002002168086000F0DDFC054657
:100A20000DE000F0D9FC401B0A2808D9606A40F4A8
:100A300000306062052084F820000120C2E72068B1
:100A4000406800F002000028EBD1207E012806D18A
:100A50002068006840F080002168086005E0206898
:100A6000006820F0800021680860607E012806D1BF
:100A70002068006840F040002168086005E02068B8
:100A8000006820F0400021680860A07E012806D19F
:100A90002068006840F020002168086005E02068B8
:100AA000006820F0200021680860E07E012806D15F
:100AB0002068006820F010002168086005E02068C8
:100AC000006840F0100021680860207F012806D1EE
:100AD0002068006840F008002168086005E0206890
:100AE000006820F0080021680860607F012806D1B6
:100AF0002068006840F004002168086005E0206874
:100B0000006820F0040021680860D4E9020108436D
:100B100021690843616908436168491E08432168E7
:100B2000C86100206062012084F82000002049E7AD
:100B300010B586B00446142101A8FFF720FC234914
:100B40002068884240D100BF002000902048006803
:100B500040F000701E4908600846006800F0007010
:100B6000009000BF00BF00BF002000901848103860
:100B7000006840F002001649103908600846006815
:100B800000F00200009000BF00BF4FF440700190E1
:100B90000220029000200390032004900920059079
:100BA00001A90C4800F00AFB00221146142000F0B5
:100BB000A1FC142000F08AFC00221146152000F050
:100BC00099FC152000F082FC06B010BD00640040C6
:100BD00040380240000402407047000010B504464F
:100BE0001049206888420CD10F4BA3F11C02002150
:100BF0002046FFF7F2FC0C482038816A001D884728
:100C00000FE00A49206888420BD1094BA3F11C026E
:100C100000212046FFF7E1FC05482038816A001DCD
:100C2000884710BD0064004020120020006800408A
:100C30004C1200207047000010B50446104920688F
:100C400088420CD10F4BA3F11C0201212046FFF773
:100C5000C4FC0C482038816A001D88470FE00A490F
:100C6000206888420BD1094BA3F11C0201212046C8
:100C7000FFF7B3FC05482038816A001D884710BD86
:100C80000064004020120020006800404C12002048
:100C9000704770B5044694F82000012822D1022044
:100CA00084F820002068006820F0010021680860B6
:100CB00000F092FB05460DE000F08EFB401B0A2879
:100CC00008D9606A40F400306062052084F8200092
:100CD000012070BD2068406800F001000028EBD1C1
:100CE0006062F6E7606A40F4002060620120F0E78D
:100CF000704770477047704770477047704770B5CE
:100D00000446A56D00F068FB064694F835000228FD
:100D100008D08020606500BF002084F8340000BF48
:100D2000012070BD2068006820F01600216808606E
:100D30002068406920F0800021684861206C08B973
:100D4000A06C28B12068006820F0080021680860C5
:100D50002068006820F001002168086010E000F0C1
:100D60003BFB801B05280BD920206065032084F8FD
:100D7000350000BF002084F8340000BF0320D0E716
:100D80002068006800F001000028E8D194F85C10A9
:100D90003F208840A860012084F8350000BF002073
:100DA00084F8340000BF00BFBBE7014691F835006E
:100DB000022803D08020486501207047052081F873
:100DC00035000868006820F001000A681060002003
:100DD000F3E70000F8B50446002000908C48006856
:100DE0004FF41651B0FBF1F7A56D2E6894F85C1026
:100DF00008208840304098B12068006800F0040066
:100E000070B12068006820F004002168086094F840
:100E10005C1008208840A860606D40F001006065AB
:100E200094F85C1001208840304068B12068406927
:100E300000F0800040B194F85C1001208840A86068
:100E4000606D40F00200606594F85C1004208840FA
:100E5000304068B12068006800F0020040B194F8AA
:100E60005C1004208840A860606D40F0040060655C
:100E700094F85C1010208840304078B320680068F7
:100E800000F0080050B394F85C1010208840A8606F
:100E90002068006800F4802080B12068006800F4B9
:100EA000002028B9206CC8B12046216C884715E085
:100EB000A06C98B12046A16C88470FE020680068BC
:100EC00000F4807028B92068006820F008002168CC
:100ED0000860206C10B12046216C884794F85C10A3
:100EE000202088403040002865D02068006800F04D
:100EF000100000285FD094F85C1020208840A86083
:100F000094F83500052828D12068006820F01600E4
:100F1000216808602068406920F0800021684861ED
:100F2000206C08B9A06C28B12068006820F0080087
:100F30002168086094F85C103F208840A860012078
:100F400084F8350000BF002084F8340000BF206D15
:100F500010B12046216D8847F8BD2068006800F474
:100F6000802080B12068006800F4002028B9606CFF
:100F700010B12046616C88471DE0E06BD8B1204677
:100F8000E16B884717E02068006800F4807068B95A
:100F90002068006820F0100021680860012084F8B3
:100FA000350000BF002084F8340000BFE06B10B1B2
:100FB0002046E16B8847606D38B3606D00F001003A
:100FC000F0B1052084F835002068006820F00100A9
:100FD0002168086000BF0098401C0090B84200D90A
:100FE00005E02068006800F001000028F3D100BF90
:100FF000012084F8350000BF002084F8340000BFD1
:10100000E06C10B12046E16C884700BFA4E7000007
:10101000240000202DE9F0410446002500F0DCF911
:10102000074614B90120BDE8F081606A00B100BF35
:10103000022084F8350000BF002084F8340000BF8F
:101040002068006820F00100216808600AE000F0D4
:10105000C3F9C01B052805D920206065032084F84A
:101060003500E0E72068006800F001000028EED1BC
:101070002068056821480540D4E901010843E1687A
:1010800008432169084361690843A1690843E1698C
:101090000843216A08430543606A042803D1D4E960
:1010A0000B0108430543206805602068456925F069
:1010B0000705606A0543606A04280DD1A06A0543EC
:1010C000E06A48B1204601F0F2FE28B14020606598
:1010D000012084F83500A6E720684561204601F02C
:1010E0003BFF064694F85C103F208840B06000202B
:1010F0006065012084F83500002094E73F8010F0FF
:101100002DE9F04704460D4616461F464FF00008ED
:10111000D4F8589000BF94F83400012802D102207E
:10112000BDE8F087012084F8340000BF94F8350052
:10113000012825D1022084F83500002060653B4657
:1011400032462946204601F09CFE94F85C103F2070
:101150008840C9F808002068006840F0160021683F
:101160000860206C28B12068006840F00800216801
:1011700008602068006840F001002168086006E00F
:1011800000BF002084F8340000BF4FF00208404642
:10119000C6E7000070B5044600F01EF90646254675
:1011A000681C10B104480078054400BF00F014F931
:1011B000801BA842FAD370BD20000020F8B502467B
:1011C0000B460025002400200021E0E0012606FA5D
:1011D00001F51E6806EA0504AC4274D11E7906F0DA
:1011E0000306012E04D01E7906F00306022E13D149
:1011F00090684F000326BE40B0434F00DE68BE40FB
:1012000030439060506801268E40B0431E79C6F38B
:1012100000168E40304350601E7906F00306032E00
:1012200009D0D0684F000326BE40B0434F009E68EF
:10123000BE403043D0601E7906F00306022E13D163
:10124000CF0802F1200656F827004E07F70E0F26AA
:10125000BE40B0434F07FF0E1E69BE403043CF086B
:1012600002F1200646F8270010684F000326BE4012
:10127000B0431E7906F003064F00BE4030431060B5
:101280005E6806F44036002E1DD000BF0026009692
:10129000414E366846F480463F4F3E603E463668D3
:1012A00006F48046009600BF00BF3C4E8F0856F8FB
:1012B00027008E07370F0F26BE40B043384EB2428C
:1012C00002D100262EE061E0364EB24201D1012665
:1012D00028E0354EB24201D1022623E0334EB2421D
:1012E00001D103261EE0324EB24201D1042619E09C
:1012F000304EB24201D1052614E02F4EB24201D148
:1013000006260FE02D4EB24201D107260AE02C4EF0
:10131000B24201D1082605E02A4EB24201D1092687
:1013200000E00A268F073F0FBE4030431B4E8F0858
:1013300046F82700244E3068A0435E6806F4801605
:1013400006B12043204E3060361D3068A0435E68F1
:1013500006F4001606B120431B4E361D30601A4EAF
:10136000361F3068A0435E6806F4003606B120439D
:10137000154E361F3060361F3068A0435E6806F495
:10138000803606B12043104E083E3060491C1029BB
:10139000FFF41CAFF8BD000044380240083801409B
:1013A000000002400004024000080240000C02401D
:1013B000001002400014024000180240001C0240CD
:1013C0000020024000240240083C01400AB1816133
:1013D00001E00B048361704701480068704700001A
:1013E00018000020034800680349097808440149AF
:1013F00008607047180000202000002010B50D483C
:10140000006840F400700B4908600846006840F42A
:10141000806008600846006840F48070086003201F
:1014200000F0A6F80F2000F007F800F02BF80020DD
:1014300010BD0000003C024070B504460E48007824
:101440004FF47A71B1FBF0F00C490968B1FBF0F58B
:10145000284600F075FC08B1012070BD102C07D2A1
:1014600000222146501E00F045F80548046001E0C6
:101470000120F2E70020F0E72000002024000020F7
:101480001C00002008B500BF002000900E48006836
:1014900040F480400C4908600846006800F4804031
:1014A000009000BF00BF00BF00200090081F006830
:1014B00040F08050091F08600846006800F0805026
:1014C000009000BF00BF08BD4438024001460846F6
:1014D00000280DDB00BF00BF00F01F0301229A406F
:1014E00043099B0003F1E023C3F8002100BF00BFC4
:1014F00000BF70472DE9F05F80460D461646002775
:1015000002F046F8074639462A46334601F00700FE
:10151000C0F1070ABAF1040F02D94FF0040A01E042
:10152000C0F1070AD14600F1040ABAF1070F02D24E
:101530004FF0000A01E0A0F1030AD4464FF0010A7F
:101540000AFA09FAAAF1010A0AEA020A0AFA0CFAE4
:101550004FF0010B0BFA0CFBABF1010B0BEA030B89
:101560004AEA0B042146404601F0FEFFBDE8F09F29
:1015700000BF00F00702064B19684FF6FF03194041
:10158000044B0B4343EA0221014B196000BF704733
:101590000CED00E00000FA0538B5002400BF002083
:1015A00000901D48006840F080501B4908600846C4
:1015B000006800F08050009000BF00BF0120174974
:1015C0000864FFF709FF044607E0FFF705FF001B6B
:1015D000B0F57A7F01D9032038BD1148406800F486
:1015E0008030B0F5803FF0D101200C494864FFF70E
:1015F000F3FE044607E0FFF7EFFE001BB0F57A7F2D
:1016000001D90320E8E70648406800F40030B0F54F
:10161000003FF0D10020DFE74038024000000E42DA
:101620000070004070B504460D460CB9012070BD35
:101630005848006800F00F00A84209D255490D70C3
:101640000846006800F00F00A84201D00120EEE734
:10165000207800F0020002281DD1207800F004005C
:10166000042805D14C48006840F4E0504A4908601D
:10167000207800F00800082805D14748006840F4A9
:101680006040454908604448006820F0F000A168C7
:10169000084341490860207800F00100A8B3606861
:1016A000012807D13C4808380068C0F34040B8B969
:1016B0000120BCE76068022802D06068032807D1D7
:1016C000354808380068C0F3406048B90120AEE7EB
:1016D000314808380068C0F3400008B90120A6E787
:1016E0002D48006820F00300616808432A4908601B
:1016F000FFF772FE064609E0FFF76EFE801B41F21F
:101700008831884202D9032091E707E02248006827
:1017100000F00C006168B0EB810FEDD11D4800684E
:1017200000F00F00A84209D91A490D700846006858
:1017300000F00F00A84201D0012078E7207800F0E7
:101740000400042807D11448006820F4E050E16840
:10175000084311490860207800F00800082808D1E3
:101760000D48006820F46040216940EAC1000A4940
:10177000086000F03FF808490968C1F30311074AFF
:10178000515CC8400649086006480068FFF754FEEF
:1017900000204CE7003C024008380240DA360008DE
:1017A000240000201C000020014800687047000051
:1017B0002400002000B5FFF7F7FF04490968C1F3D2
:1017C0008221034A515CC84000BD00000838024035
:1017D000EA36000800B5FFF7E7FF04490968C1F3DE
:1017E0004231034A515CC84000BD00000838024045
:1017F000EA3600082DE9F047002400250026A1461E
:101800002548006800F00C0020B1042805D0082805
:101810003AD105E0DFF8849039E0DFF8849036E0D3
:101820001D48001F006800F03F041B48001F0068AF
:1018300000F4800078B11A481749091F0968C1F3FC
:101840008811A0FB01700146224600233846FEF7AE
:101850001FFD05460EE011480F49091F0968C1F335
:101860008811A0FB01700146224600233846FEF78E
:101870000FFD05460848001F0068C0F30140401CEA
:101880004600B5FBF6F902E0DFF8109000BF00BF9C
:101890004846BDE8F0870000083802400024F40004
:1018A000001BB700F8B504460CB90120F8BD20783C
:1018B00000F00100002874D0F948006800F00C0026
:1018C00004280DD0F648006800F00C00082813D159
:1018D000F348001F006800F48000B0F5800F0BD1C2
:1018E000EF4808380068C0F34040002859D06068CD
:1018F000002856D10120D9E700BF6068B0F5803FCD
:1019000008D1E7480838006840F48030E4490839D5
:1019100008601EE06068B0F5A02F0DD1E0480838DF
:10192000006840F48020DE490839086008460068F5
:1019300040F4803008600CE0D9480838006820F492
:101940008030D749083908600846006820F48020B4
:10195000086000BF606890B1FFF73EFD054606E0F5
:10196000FFF73AFD401B642801D903209EE7CC48CD
:1019700008380068C0F340400028F1D011E0FFF7BC
:101980002BFD054606E0FFF727FD401B642801D923
:1019900003208BE7C24808380068C0F340400028A5
:1019A000F1D1207800F0020002285FD1BC48006825
:1019B00000F00C0058B1BA48006800F00C0008288C
:1019C0001CD1B748001F006800F48000B0B9B448CB
:1019D00008380068C0F3400020B1E068012801D059
:1019E000012063E7AE480838006820F0F80021695C
:1019F00040EAC100AA490839086037E0E06800B34E
:101A00000120A8490860FFF7E7FC054606E0FFF75C
:101A1000E3FC401B022801D9032047E7A04808380F
:101A20000068C0F340000028F1D09D4808380068E5
:101A300020F0F800216940EAC1009949083908609E
:101A400014E0002097490860FFF7C6FC054606E051
:101A5000FFF7C2FC401B022801D9032026E790486B
:101A600008380068C0F340000028F1D1207800F069
:101A7000080008282CD16069A8B101208A490860B3
:101A8000FFF7AAFC054606E0FFF7A6FC401B02286C
:101A900001D903200AE782486C300068C0F3400097
:101AA0000028F1D014E000207F490860FFF794FC83
:101AB000054606E0FFF790FC401B022801D90320F1
:101AC000F4E677486C300068C0F340000028F1D19C
:101AD000207800F00400042870D1002770483830C6
:101AE000006800F0805090B900BF002000906C4862
:101AF0003830006840F08050694938310860084645
:101B0000006800F08050009000BF00BF01276748C8
:101B1000006800F48070B0B96448006840F48070D8
:101B200062490860FFF758FC054606E0FFF754FCE1
:101B3000401B022801D90320B8E65C48006800F485
:101B400080700028F2D000BFA068012808D1544856
:101B50006830006840F001005149683108601DE0BC
:101B6000A06805280DD14E486830006840F0040098
:101B70004B49683108600846006840F00100086081
:101B80000CE047486830006820F0010044496831A3
:101B900008600846006820F00400086000BFA068E4
:101BA000A8B1FFF719FC054609E0FFF715FC401B3B
:101BB00041F28831884202D9032077E626E038488E
:101BC00068300068C0F340000028EED013E0FFF753
:101BD00003FC054608E0FFF7FFFB401B41F288319C
:101BE000884201D9032061E62D4868300068C0F3BF
:101BF00040000028EFD1012F07D129483830006874
:101C000020F0805026493831086000BFA0690028C4
:101C100045D02348006800F00C0008285DD0A0697A
:101C2000022845D100201F490866FFF7D5FB05466D
:101C300006E0FFF7D1FB401B022801D9032035E65F
:101C4000174808380068C0F340600028F1D1D4E993
:101C500007010843616A40EA81110122A06AC2EBD0
:101C6000500041EA00412C20005D41EA00600C492F
:101C7000091F086001200B490866FFF7ADFB054608
:101C800006E0FFF7A9FB401B022801D903200DE65F
:101C9000034808380068C0F340600028F1D049E0EC
:101CA0000838024000004742800E47420070004062
:101CB000002021490866FFF78FFB054606E0FFF785
:101CC0008BFB401B022801D90320EFE51B4800686D
:101CD000C0F340600028F2D12CE0A069012800D1B7
:101CE000E4E51648001D0668A069012820D006F426
:101CF0008001E06981421BD106F03F01206A8142E8
:101D000016D147F6C0703040616AB0EB811F0FD129
:101D100006F440310122A06AC2EB5000B1EB004F43
:101D200006D106F070612C20005DB1EB006F01D090
:101D30000120BBE50020B9E5000047420038024021
:101D400070B504462546681EB0F1807F01D301209E
:101D50000FE0681E4FF0E02148610F214FF0FF3087
:101D600001F002FC00204FF0E021886107200861AB
:101D7000002070BDF8B504460D46164694F84200A2
:101D800020282DD105B10EB90120F8BD0120206316
:101D90000020606332462946204600F05BFC07467F
:101DA000206B012819D100BF002000902068006836
:101DB000009020684068009000BF00BF00BF00BFD7
:101DC00021680C3151E8001F41F0100021680C31EE
:101DD00041E80002002AF3D100E001273846D4E7A9
:101DE0000220D2E770B504460D465049206888426B
:101DF0000FD14F482946D0F8082200F5827090474D
:101E00004B48B0F8042200F582712046FFF7B2FF7C
:101E10008AE04849206888420FD147482946D0F8CF
:101E2000082200F5827090474348B0F8042200F57C
:101E300082712046FFF79EFF76E040492068884285
:101E40000FD13F482946D0F8082200F5827090470C
:101E50003B48B0F8042200F582712046FFF78AFF64
:101E600062E03849206888420FD137482946D0F8C7
:101E7000082200F5827090473348B0F8042200F53C
:101E800082712046FFF776FF4EE030492068884295
:101E90000FD12F482946D0F8082200F582709047CC
:101EA0002B48B0F8042200F582712046FFF762FF4C
:101EB0003AE02849206888420FD127482946D0F8BF
:101EC000082200F5827090472348B0F8042200F5FC
:101ED00082712046FFF74EFF26E0204920688842A5
:101EE0000FD11F482946D0F8082200F5827090478C
:101EF0001B48B0F8042200F582712046FFF73AFF34
:101F000012E01849206888420ED117482946D0F8B7
:101F1000082200F5827090471348B0F8042200F5BB
:101F200082712046FFF726FF70BD000000100140BF
:101F3000A001002000440040AC0300200048004005
:101F4000B8050020004C0040C407002000500040AD
:101F5000D009002000140140DC0B00200078004074
:101F6000E80D0020007C0040F40F002070470000C6
:101F70002DE9F84F0446206805682068C668206887
:101F800047694FF00009CA4605F00F09B9F1000F83
:101F90000AD105F0200038B106F0200020B120461B
:101FA00001F032F9BDE8F88FB9F1000F7CD007F0ED
:101FB000010018B906F49070002875D005F00100F2
:101FC00030B106F4807018B1606C40F001006064BC
:101FD00005F0040030B107F0010018B1606C40F06A
:101FE0000200606405F0020030B107F0010018B192
:101FF000606C40F00400606405F0080048B106F031
:10200000200010B907F0010018B1606C40F0080022
:102010006064606C002846D005F0200028B106F00E
:10202000200010B1204601F0EFF820684069C0F3AD
:10203000801A606C00F0080010B9BAF1000F2DD0C2
:10204000204601F0A8F92068406900F040004028CF
:1020500020D100BF00BF2168143151E8001F21F0DA
:1020600040002168143141E80002002AF3D100BF8A
:10207000E06B50B17F48E16B0865E06BFEF795FEC1
:1020800088B1E06B016D88470DE02046FFF76EFFD9
:1020900009E009E02046FFF769FF04E02046FFF76A
:1020A00065FF002060647DE7206B012878D105F092
:1020B0001000002874D006F010000028FAD000BFED
:1020C0000020009020680068009020684068009020
:1020D00000BF00BF2068406900F04000402870D178
:1020E000E06B006840681FFA80F8B8F1000F58D024
:1020F000A08D404555DDA4F82E80E06BC069B0F599
:10210000807F43D000BF00BF21680C3151E8001F21
:1021100021F4807021680C3141E80002002AF3D1DB
:1021200000BF00BF00BF2168143151E8001F21F03B
:1021300001002168143141E80002002AF3D100BFF8
:1021400000BF00BF2168143151E8001F21F040009A
:102150002168143141E80002002AF3D100BF202099
:1021600084F842000020206300BF00BF21680C31CA
:1021700051E8001F21F0100021680C3141E80002F5
:10218000002AF3D100BFE06BFEF7B9FD02206063C7
:10219000A08DE28D801A81B22046FFF723FE0EE06B
:1021A00052E0A08D40450AD1E06BC069B0F5807F58
:1021B00005D102206063A18D2046FFF713FEF1E6F2
:1021C000FFE7A08DE18D401A1FFA80F8E08DD0B3B3
:1021D000B8F1000F37D000BF00BF21680C3151E8C3
:1021E000001F21F4907021680C3141E80002002AA0
:1021F000F3D100BF00BF00BF2168143151E8001FB8
:1022000021F001002168143141E80002002AF3D1D5
:1022100000BF202084F842000020206300BF00BFE0
:1022200021680C3151E8001F21F0100021680C31A9
:1022300041E80002002AF3D100BF0220606341465A
:102240002046FFF7CFFDADE605F0800030B106F087
:10225000800018B1204601F055F8A3E605F04000D3
:1022600030B106F0400018B1204601F037F999E688
:1022700000BF97E6FD34000810B504460CB90120F4
:1022800010BDA06900B100E000BF94F8410028B97A
:10229000002084F84000204600F02AF8242084F82A
:1022A00041002068C06820F400502168C8602046C2
:1022B00000F094FE2068006920F4904021680861D5
:1022C0002068406920F02A00216848612068C068C1
:1022D00040F400502168C86000206064202084F829
:1022E000410084F842000020606300BFC8E700009E
:1022F00010B586B00446142101A8FEF740F83D4908
:102300002068884273D100BF002000903A480068DE
:1023100040F40030384908600846006800F4003096
:10232000009000BF00BF00BF00200090324810386E
:10233000006840F00800304910390860084600681D
:1023400000F00800009000BF00BF60200190022054
:10235000029000200390032004900720059001A91B
:102360002648FEF72BFF2648264908604FF00060FC
:102370004860002123488160C1604FF480610161A1
:10238000002141618161C16101624162FEF742FE4B
:1023900008B1FEF78EF800BF1A48E063846300BFFF
:1023A00017481830184908604FF000604860402115
:1023B000154881600021C1604FF4806101610021F6
:1023C00041618161C16101624162FEF723FE08B192
:1023D000FEF76FF800BF0C48A063846300BF0022C3
:1023E00011462620FFF786F82620FFF76FF806B083
:1023F00010BD00000044004040380240000C024084
:1024000088600240E00000204001002070477047D3
:10241000F7B50446154694F8410020283ED10198AE
:1024200000B10DB90120FEBD01982062A584E584AC
:1024300000206064212084F841001948A16BC86322
:102440001848A16B08641848A16BC8640020A16BF0
:10245000086501AE23681A1D31682B46A06BFEF794
:102460004FFE30B110206064202084F8410001202C
:10247000D9E76FF040002168086000BF00BF216805
:10248000143151E8001F41F080002168143141E807
:102490000002002AF3D100BF0020C4E70220C2E7F7
:1024A0000F350008893300088D2F000870477047EA
:1024B00000BFFEE710B50E480E49086009204860CD
:1024C00000210C488160C1604FF480310161090135
:1024D0004161002101760121417600218176C1769A
:1024E00001774177FEF76AFA08B1FDF7E2FF10BD08
:1024F000006400407000002008B500BF002000907C
:102500000E48006840F400100C4908600846006856
:1025100000F40010009000BF00BF00221146102000
:10252000FEF7E8FF1020FEF7D1FF00221146112030
:10253000FEF7E0FF1120FEF7C9FF08BD303802406A
:1025400000B587B0142102A8FDF719FF00BF0020D5
:1025500001902648006840F00200244908600846BF
:10256000006800F00200019000BF00BF00BF002023
:1025700001900846006840F00100086008460068C5
:1025800000F00100019000BF00BF00BF00200190DB
:102590000846006840F0080008600846006800F03F
:1025A0000800019000BF00BF00BF00200190084656
:1025B000006840F0800008600846006800F0800075
:1025C000019000BF00BF00223C210948FEF7FEFE3B
:1025D0003C2002900120039000200490059002A965
:1025E0000348FEF7EBFD07B000BD000030380240A5
:1025F000001C024010B50B480B4908604FF4E13055
:102600004860002108488160C16001610C2141617E
:1026100000218161C161FFF72FFE08B1FDF749FF7D
:1026200010BD0000004400409800002000BFFEE7FD
:1026300000BFFEE77047704710B5FEF7D3FE10BD30
:102640000348006840F470000149086070470000CA
:1026500088ED00E077B581B0044615460298A06287
:10266000A58500206064222084F842002C48E16B9C
:10267000C8632C48E16B08642B48E16BC8640020F8
:10268000E16B086502AE32682368191D2B46E06BCA
:10269000FEF736FD38B110206064202084F8420037
:1026A000012004B070BD00BF0020009020680068C9
:1026B000009020684068009000BF00BF206970B1A2
:1026C00000BF00BF21680C3151E8001F41F4807049
:1026D00021680C3141E80002002AF3D100BF00BF9D
:1026E00000BF2168143151E8001F41F0010021684A
:1026F000143141E80002002AF3D100BF00BF00BF3F
:102700002168143151E8001F41F040002168143164
:1027100041E80002002AF3D100BF0020C1E7000019
:1027200029340008653300088D2F000810B50248D1
:10273000FFF71EFC10BD00009800002000BFFEE760
:1027400010B50446224610210148FEF73FFE10BD99
:10275000001C024010B50446224620210148FEF725
:1027600035FE10BD001C024010B50446224604216F
:102770000148FEF72BFE10BD001C024010B50446B8
:10278000224608210148FEF721FE10BD001C024030
:1027900070B504460D461646324629462046FFF7D8
:1027A00037FE70BD00B593B0302107A8FDF7E7FDF7
:1027B000142102A8FDF7E3FD00BF00200190264888
:1027C000006840F08050244908600846006800F026
:1027D0008050019000BF00BF00BF002001901F4843
:1027E000006840F440401D4908600846006800F455
:1027F0004040019000BF00BF0120079000040890F6
:1028000002200D9041050E9106210F91B4211091E7
:10281000022111910421129107A8FFF743F808B192
:10282000FDF747FEFEF7B8FE08B1FDF742FE0F20A8
:10283000029002200390002004904FF4A0500590D5
:102840004FF480500690052102A8FEF7EBFE08B178
:10285000FDF72FFE13B000BD40380240007000406D
:10286000014601F11C000A68B2F5017F18D14278D7
:10287000037842EA032212B20A4B1A80C2788378A4
:1028800042EA032212B2084B1A804279037942EAE3
:10289000032212B2054B1A808279054B1A8000BFC1
:1028A00000BF70470000002002000020040000204C
:1028B00006000020F0B58BB007460C4615461E46B4
:1028C00004F0020080B1E8040190E80004F0030184
:1028D00040EA41000290F0040390F00004F003018C
:1028E00040EA4100049009E068010190A007400F10
:1028F000029070010390A007400F0490E010069032
:10290000C4F3800005900120099000200790012069
:1029100008900E200A9001A93846FDF7CDFD0BB0B6
:10292000F0BD000010B5312202490348FFF730FF27
:1029300010BD0000B00300209800002010B52DED60
:10294000028B0446B0EE408AF0EE608A04F001008B
:10295000FFF700FFC4F34000FFF7F2FEC4F380006E
:10296000FFF70CFFC4F3C000FFF7FEFE012121EAD0
:10297000141000F0D1F8012121EA541000F0C0F841
:10298000012121EA941000F069F8012121EAD41014
:1029900000F06EF8012121EA142000F073F8012103
:1029A00021EA542000F078F8012121EA942000F077
:1029B0007DF8012121EAD42000F082F8012121EAEA
:1029C000143000F087F8012121EA543000F08CF82F
:1029D000BDEC028B10BD000070B504460D462046CC
:1029E000FEF757F92068406940F00200216848610D
:1029F0002068406940F01000216848611349206850
:102A000088420FD112480460856200231A46194695
:102A10002046FFF74FFF00231A460C212046FFF700
:102A200049FF12E00B49206888420ED10A48046031
:102A3000856200231A4670212046FFF73BFF0023E2
:102A40001A467C212046FFF735FF70BD0064004028
:102A500000120020006800402C12002010B504462F
:102A6000224602210148FEF7B1FC10BD00180240C9
:102A700010B50446224604210148FEF7A7FC10BD0C
:102A80000018024010B50446224608210148FEF70E
:102A90009DFC10BD0018024010B5044622461021CE
:102AA0000148FEF793FC10BD0018024010B5044623
:102AB000224620210148FEF789FC10BD0018024083
:102AC00010B50446224640210148FEF77FFC10BDA8
:102AD0000018024010B50446224680210148FEF746
:102AE00075FC10BD0018024010B5044622464FF494
:102AF00080710248FEF76AFC10BD00000018024019
:102B000010B5044622464FF480410248FEF75EFCB1
:102B100010BD00000014024010B5044622464FF4D8
:102B200000610248FEF752FC10BD00000010024098
:102B300070B504460D4616464749206888420DD1B7
:102B400046480460C0F80852A0F80462B0F80422B5
:102B500000F582712046FFF70DF97CE040492068BE
:102B600088420DD13F480460C0F80852A0F80462C2
:102B7000B0F8042200F582712046FFF7FBF86AE006
:102B80003949206888420DD138480460C0F808529D
:102B9000A0F80462B0F8042200F582712046FFF725
:102BA000E9F858E03249206888420DD13148046084
:102BB000C0F80852A0F80462B0F8042200F582714F
:102BC0002046FFF7D7F846E02B49206888420DD110
:102BD0002A480460C0F80852A0F80462B0F8042241
:102BE00000F582712046FFF7C5F834E024492068DB
:102BF00088420DD123480460C0F80852A0F804624E
:102C0000B0F8042200F582712046FFF7B3F822E005
:102C10001D49206888420DD11C480460C0F8085244
:102C2000A0F80462B0F8042200F582712046FFF794
:102C3000A1F810E01649206888420CD115480460BC
:102C4000C0F80852A0F80462B0F8042200F58271BE
:102C50002046FFF78FF870BD00100140A001002052
:102C600000440040AC03002000480040B8050020AC
:102C7000004C0040C407002000500040D009002054
:102C800000140140DC0B002000780040E80D00201B
:102C9000007C0040F40F002010B50446204600F0F0
:102CA00063F810BDF0B5DDE905541F4F0E68BE4254
:102CB00002D11E4E06602FE01D4F0E68BE4202D1AB
:102CC0001C4E066028E01C4F0E68BE4202D11B4E0F
:102CD000066021E01A4F0E68BE4202D1194E06600E
:102CE0001AE0194F0E68BE4202D1184E066013E07A
:102CF000174F0E68BE4202D1164E06600CE0164F0A
:102D00000E68BE4202D1154E066005E0144F0E68F3
:102D1000BE4201D1134E0660027183600573447395
:102D200006683471F0BD000000100140A0010020D1
:102D300000440040AC03002000480040B8050020DB
:102D4000004C0040C407002000500040D009002083
:102D500000140140DC0B002000780040E80D00204A
:102D6000007C0040F40F002010B5002104E0002397
:102D70000268121D5354491CFF29F8DD417B02688B
:102D80001171017B11B1017B032910D1002109E0F0
:102D90000268121D531800F1100252F82120127817
:102DA0005A70491C90F840208A42F1DC4BE0017BCC
:102DB000012902D0017B042912D100210BE0026815
:102DC000121D02EB410300F1100252F8212012887B
:102DD000A3F80120491C90F840208A42EFDC32E041
:102DE000017B022905D0017B052902D0017B062940
:102DF00012D100210BE00268121D02EB810300F1E9
:102E0000100252F821201268C3F80120491C90F8E2
:102E100040208A42EFDC16E0017B072913D1002114
:102E20000DE00268121D02EBC10300F1100252F81E
:102E30002120146843F8014F52685A60491C90F8E9
:102E400040208A42EDDC10BD0FB408B504A9009102
:102E5000002109E0009A136800F1100242F82130C5
:102E6000009A121D0092491C9DF80C209142F1DB42
:102E7000002100919DF80C1080F8401001B05DF821
:102E800014FB30B50468246824F4802405682C60A1
:102E9000046863608468402C04D10468A2600468FC
:102EA000E16003E00468A1600468E26030BD0146AF
:102EB00000208A6A8B69CBB932B1012A0DD0022A6F
:102EC00003D0032A10D10EE000BFCB6A03F0807359
:102ED000B3F1807F00D1012007E0CB6AB3F1C07F5E
:102EE00000D1012001E000E000BF34E08B69B3F5C0
:102EF000005F1AD132B1012A07D0022A03D0032A77
:102F000011D10AE000BF01200EE0CB6A03F080730C
:102F1000B3F1807F00D1012006E0CB6AB3F1C07F1E
:102F200000D1012000E000BF15E032B1012A05D038
:102F3000022A04D0032A0CD103E000BF00BF012005
:102F400008E0CB6A03F08073B3F1807F00D10120E9
:102F500000E000BF00BF7047014608781038182312
:102F6000B0FBF3F20848805CC865032A05D90868FD
:102F70006FF30900001D886503E008686FF309001E
:102F80008865886D70470000D236000870B5064627
:102F90000025B46B20684069C0F3C01594F8410067
:102FA000212805D125B10020E084204600F029FA2F
:102FB00020684069C0F3801594F84200222805D1AA
:102FC00025B10020E085204600F0E5F9606C40F076
:102FD000100060642046FEF7C9FF70BD2DE9F84F70
:102FE00004462068006920F44050E16808432168E5
:102FF00008612169A068084361690843E1690843E1
:1030000000902068C06849F20C6188430099084329
:103010002168C8602068406920F44070A1690843B5
:103020002168486176492068884203D07549206844
:10303000884203D1FEF7CEFB814602E0FEF7BAFBE1
:103040008146E069B0F5004F6CD102206168A0FBB9
:10305000015003461920A9FB007001462A46384654
:10306000FDF716F96421B0FBF1F04FEA001A0220D7
:103070006168A0FB01510B461920A9FB00712A468B
:103080003846FDF705F9834602206168A0FB015030
:1030900003461920A9FB00712A463846FDF7F8F8C7
:1030A0006421B0FBF1F000EBC00101EB0010ABEBD1
:1030B0008000322101EBC0006421B0FBF1F000F090
:1030C000F8000AEB400A02206168A0FB01500346A9
:1030D0001920A9FB007001462A463846FDF7D8F8AA
:1030E000834602206168A0FB015003461920A9FB1A
:1030F00000712A463846FDF7CBF86421B0FBF1F0A9
:1031000000EBC00101EB0010ABEB8000322101EBC2
:10311000C0006421B0FBF1F000F0070050442168CA
:1031200088606AE004206168A0FB01500346192012
:10313000A9FB007001462A463846FDF7A9F88246E9
:1031400004206168A0FB015003461920A9FB007010
:1031500001462A463846FDF79BF86421B0FBF1F0A2
:1031600000EBC00101EB0010AAEB8000322101EB63
:1031700000106421B0FBF1F000F0F00A0420616857
:10318000A0FB017003461920A9FB00513A462846CE
:10319000FDF77EF86421B0FBF1F00AEB001A042081
:1031A0006168A0FB01510B461920A9FB00712A465A
:1031B0003846FDF76DF8834604206168A0FB015096
:1031C00003461920A9FB007001462A463846FDF740
:1031D0005FF86421B0FBF1F000EBC00101EB0010DF
:1031E000ABEB8000322101EB00106421B0FBF1F069
:1031F00000F00F00504421688860BDE8F88F00009F
:103200000010014000140140F8B5044600250026D6
:1032100094F84200222873D1A068B0F5805F0BD1EA
:10322000206948B9A66A20684068C0F30800308069
:10323000A06A801CA06214E0A56AA068B0F5805F57
:1032400003D0A06828B9206918B9206840682870A0
:1032500004E02068406800F07F002870A06A401CED
:10326000A062E08D401E80B2E085002846D1206833
:10327000C06820F020002168C8602068C06820F481
:1032800080702168C8602068406920F001002168D2
:103290004861202084F8420000206063206B0128F0
:1032A00026D10020206300BF00BF21680C3151E807
:1032B000001F21F0100021680C3141E80002002AB3
:1032C000F3D100BF2068006800F0100010280AD178
:1032D00000BF0020009020680068009020684068CF
:1032E000009000BF00BFA18D2046FEF77BFD02E0ED
:1032F0002046FFF78BF80020F8BD01E00020FBE737
:103300000220F9E7014691F84100212828D1886878
:10331000B0F5805F0BD1086948B90A6A1088C0F31C
:1033200008000B685860086A801C086205E00B6A98
:10333000581C086218780B685860C88C401E80B210
:10334000C88458B90868C06820F080000B68D8604D
:103350000868C06840F040000B68D86000207047E3
:103360000220FCE770B50546AC6B01206063206B62
:10337000012805D1A08D41082046FEF733FD02E06B
:103380002046FFF744F870BD70B50446A56B28468B
:10339000FFF78DF870BD00BF00BF02680C3252E825
:1033A000002F22F4907102680C3242E80013002BC7
:1033B000F3D100BF00BF00BF0268143252E8002FF3
:1033C00022F001010268143242E80013002BF3D10D
:1033D00000BF016B01290ED100BF00BF02680C3293
:1033E00052E8002F22F0100102680C3242E800136C
:1033F000002BF3D100BF202180F84210002101638F
:10340000704700BF00BF02680C3252E8002F22F064
:10341000C00102680C3242E80013002BF3D100BF58
:10342000202180F84110704770B50546AC6B2868C4
:10343000006800F48070002842D1E08500BF00BF22
:1034400021680C3151E8001F21F4807021680C3193
:1034500041E80002002AF3D100BF00BF00BF21688D
:10346000143151E8001F21F001002168143141E8B6
:103470000002002AF3D100BF00BF00BF2168143151
:1034800051E8001F21F040002168143141E800029A
:10349000002AF3D100BF202084F84200206B0128CD
:1034A0000ED100BF00BF21680C3151E8001F21F090
:1034B000100021680C3141E80002002AF3D100BF5E
:1034C00000206063206B012804D1A18D2046FEF707
:1034D00089FC02E02046FEF799FF70BD10B5044656
:1034E0002068C06820F040002168C860202084F86F
:1034F00041002046FEF7DAFF002010BD70B50446FB
:10350000A56B0020E8852846FEF730FD70BD70B53C
:103510000546AC6B2868006800F48070F8B900209C
:10352000E08400BF00BF2168143151E8001F21F082
:1035300080002168143141E80002002AF3D100BF65
:1035400000BF00BF21680C3151E8001F41F040006E
:1035500021680C3141E80002002AF3D102E0204644
:10356000FEF7A4FF70BD000010B5002804DB0A07B9
:10357000130E054A135406E00A07140E034A00F01E
:103580000F031B1FD45410BD00E400E018ED00E051
:1035900002480068C0F30220704700000CED00E014
:1035A0000548002180F8401080F841109FED030A83
:1035B00080ED110A70470000280000200000000084
:1035C0001CB5FDF71BFFFFF7EDF8FEF7B9FFFEF79F
:1035D00093FFFEF76FFFFFF70DF8DFED2E0A9FED6B
:1035E0002D0A0F20FFF7AAF92B492C48FFF7F4F911
:1035F000642200212A48FFF79BFA40F2FF734FF440
:1036000001726C212548FFF755F9AB2006210023F4
:103610001A46CDE9001022492248FFF743FB38E063
:103620002148B0F9000000EE100AB8EEC00A1F48A9
:1036300080ED000A1E48B0F9000000EE100AB8EE56
:10364000C00A1C4880ED000A1B48B0F9000000EEDB
:10365000100AB8EEC00A194880ED000A1848B0F9FF
:10366000000000EE100AB8EEC00A164880ED000A0D
:103670001249104B0D4ACDE9001004210948FFF70B
:10368000E3FB0848FFF708FBFFF74CF90020FDF7C4
:1036900081FDC5E7000000006128000870000020DF
:1036A00098000020280000200000002008000020D2
:1036B000020000200C000020040000201000002068
:1036C00006000020140000204FF04070E1EE100AC8
:1036D00070470006101600061016000000000000DB
:1036E00000000102030406070809000000000102AF
:1036F0000304000018370008000000202800000024
:10370000E801000840370008280000209018000059
:10371000040200088DFEFFFF000000000000000012
:103720000000000000000000000000000000000099
:103730000000000010000000010000000024F40060
:04000005080001AD41
:00000001FF
