:020000040800F2
:1000000078200020210200082F1800081F17000880
:100010002D1800086B0400085119000800000000AA
:10002000000000000000000000000000890100083E
:100030003505000800000000CD010008391800084F
:100040003B0200083B0200083B0200083B0200089C
:100050003B0200083B0200083B0200083B0200088C
:100060003B0200083B0200083B0200083B0200087C
:100070003B0200083B0200083B0200083B0200086C
:100080003B0200083B0200083B0200083919000847
:10009000451900086D0400083B0200083B020008F7
:1000A0003B0200083B0200083B0200083B0200083C
:1000B0003B0200083B020008B51800083B0200089C
:1000C0003B0200083B0200083B0200083B0200081C
:1000D0003B0200083B0200083B0200083B0200080C
:1000E0003B0200083B0200083B02000800F002F857
:1000F00000F03AF80AA090E8000C82448344AAF188
:100100000107DA4501D100F02FF8AFF2090EBAE885
:100110000F0013F0010F18BFFB1A43F0010318473B
:10012000E830000008310000103A24BF78C878C1D8
:10013000FAD8520724BF30C830C144BF04680C60ED
:10014000704700000023002400250026103A28BF35
:1001500078C1FBD8520728BF30C148BF0B60704739
:100160001FB51FBD10B510BD00F045F91146FFF7D2
:10017000F7FF01F051FC00F063F903B4FFF7F2FF61
:1001800003BC00F06BF90000224B19680868B0E866
:10019000F00F80F30988BFF36F8F4FF0000080F3FA
:1001A00011884EF00D0E70470000000006480068F0
:1001B000006880F3088862B661B6BFF34F8FBFF363
:1001C0006F8F00DF00BF00BF08ED00E0EFF3098094
:1001D000BFF36F8F0F4B1A6820E9F00F106008B55E
:1001E0004FF0500080F31188BFF34F8FBFF36F8F34
:1001F00002F0D4FA4FF0000080F31188BDE8084007
:1002000019680868B0E8F00F80F30988BFF36F8FB2
:10021000704700BF20000020EFF30580704700000A
:100220000948804709480047FEE7FEE7FEE7FEE78A
:10023000FEE7FEE7FEE7FEE7FEE7FEE704480549C6
:10024000054A064B70470000B1180008ED00000891
:10025000781A002078200020781C0020781C0020CC
:10026000032A40F2308010F0030C00F0158011F8E2
:10027000013BBCF1020F624498BF11F801CB00F8BA
:10028000013B38BF11F8013BA2F1040298BF00F80E
:1002900001CB38BF00F8013B11F0030300F0578099
:1002A000083AC0F0088051F8043B083A51F804CBF2
:1002B000A0E80810F5E7121D5CBF51F8043B40F8B8
:1002C000043BAFF30080D20724BF11F8013B11F8C3
:1002D00001CB48BF11F8012B24BF00F8013B00F807
:1002E00001CB48BF00F8012B704702F0FF0343EA3F
:1002F000032242EA024200F05EB84FF0000200B56D
:10030000134694469646203922BFA0E80C50A0E838
:100310000C50B1F12001BFF4F7AF090728BFA0E8E6
:100320000C5048BF0CC05DF804EB890028BF40F8B2
:10033000042B08BF704748BF20F8022B11F0804FF4
:1003400018BF00F8012B704770477047704710B511
:10035000203AC0F00B80B1E81850203AA0E81850BD
:10036000B1E81850A0E81850BFF4F5AF5FEA027C7E
:1003700024BFB1E81850A0E8185044BF18C918C0ED
:10038000BDE810405FEA827C24BF51F8043B40F88E
:10039000043B08BF7047D20728BF31F8023B48BF73
:1003A00011F8012B28BF20F8023B48BF00F8012BB1
:1003B00070474FF000020429C0F0128010F0030CC7
:1003C0003FF49DAFCCF1040CBCF1020F18BF00F854
:1003D000012BA8BF20F8022BA1EB0C01FFF78FBF68
:1003E0005FEAC17C24BF00F8012B00F8012B48BF55
:1003F00000F8012B7047754600F02CF8AE4605005A
:100400006946534620F00700854618B020B5FFF72F
:1004100015FFBDE820404FF000064FF000074FF0F9
:1004200000084FF0000B21F00701AC46ACE8C00912
:10043000ACE8C009ACE8C009ACE8C0098D4670471B
:1004400010B50446AFF300802046BDE81040FFF72A
:1004500094BE000000487047181A00200149182077
:10046000ABBEFEE7260002007047FEE7014800F041
:10047000E3B90000D400002000F006F800F028F8EE
:10048000322002F0D7F8F9E700B58BB000200590D4
:1004900001900490009002900390069001200E219C
:1004A000CDE9080107906946084800F0C1F803212A
:1004B000064800F042F8054800F0B8FB034800F099
:1004C000A9F90A2002F0B6F80BB000BDD400002054
:1004D0002DE9F04700F0D4FC002407464FF4FA69F8
:1004E0002646114D4FF0020800F0CAFCC01B4845DB
:1004F00003D2C0F5FA6002F09DF804F54070C5E93A
:100500000006AE60094BC5E90368A3F1080206497D
:10051000074800F024F800F0B3FC641C0746052CE3
:10052000E2DBBDE8F0870000A0000020080000200A
:10053000D4000020704772B6FEE790F82020012A10
:1005400007D0022A05D0416A41F48021416201208E
:100550007047006842690A43426100207047F0B565
:1005600090F820500468A468012D05D0022D03D016
:10057000416A41F4802157E014F0406F01D1E50059
:100580004FD5C4F301640125A5401D608D684FF46B
:10059000C0739DB1CE6835434E6845EAC60506680E
:1005A00003EB0417F5514FF4C275076805EB04150A
:1005B0000E697E51097D012905D009E00E88CD68BC
:1005C00045EA4655EBE701684E5946F480764E51B0
:1005D0001179D579567941EA056195792D0445EA75
:1005E000062529434FF4C676056806EB0416A95183
:1005F0001178D57841EA0561957852782D0445EA5D
:10060000022211434FF4C475026805EB04155151E1
:10061000006803EB0411425842F0010242500020EE
:10062000F0BD416A41F4001141620120F0BD0000BB
:1006300010B590F820300268012B07D0022B05D0AE
:10064000416A41F480214162012010BDD2F80002CC
:1006500040F00100C2F80002087D00F01F030120F5
:100660009840D2F81C328343C2F81C32CB69B3B92C
:10067000D2F80C328343C2F80C328C894B6864F395
:100680001F434C6902EBC404C4F840320C890B6868
:1006900064F31F434C6902EBC404C4F84432CB69D1
:1006A000012B16D1D2F80C320343C2F80C320C885D
:1006B0004B6864F31F434C6902EBC404C4F8403236
:1006C0000C89CB6864F31F434C6902EBC404C4F883
:1006D00044328B69002BD2F804320FD053EA000366
:1006E000C2F804320B69002BD2F8143208D003434D
:1006F000C2F81432096A012904D008E08343EFE705
:100700008343F5E7D2F81C120143C2F81C12D2F859
:10071000000220F00100C2F80002002010BD704766
:1007200070B590F82040012C05D0022C03D0416A0E
:1007300041F4802128E0046809B32469A40720D08B
:100740004FF4D874056804EB01142D5915F0040515
:10075000956005682D591AD0ED08556005682C592B
:1007600004F00204D4604FF4DA74056804EB011459
:100770002E5906F00F06082E0CD308250DE0E4686C
:10078000DCE7416A41F400114162012070BD6D0D4A
:100790001560E3E72D5905F00F05156105682D5922
:1007A000C5F30725956105682C59240C54614FF455
:1007B000DC72046802EB0112A4581C700468A4588F
:1007C000240A5C700468A458240C9C700468A25825
:1007D000120EDA704FF4DE72046802EB0112A458B4
:1007E0001C710468A458240A5C710468A458240C81
:1007F0009C710468A258120EDA71006829B101696F
:1008000041F020010161002070BDC16841F020016C
:10081000C160F8E7014690F82000012801D00228C5
:1008200004D109684A68920701D504207047096815
:100830008907FBD5032070472DE9F05F0546006866
:1008400000244669D0F804908768D0F80CB0D0F83E
:1008500010A0D0F81880F10748D0F90714D0012172
:100860008160B80703D5284600F00DFA0CE0780740
:1008700002D54FF4006407E0380702D54FF48054E6
:1008800002E0284600F0FEF9F80516D529684FF475
:1008900080708860B80503D5284600F0F6F90CE0B2
:1008A000780502D544F4005407E0380502D544F435
:1008B000804402E0284600F0E7F9F80316D52968DD
:1008C0004FF480308860B80303D5284600F0DFF984
:1008D0000CE0780302D544F4004407E0380302D565
:1008E00044F4803402E0284600F0D0F9300707D500
:1008F0005FEACB6004D52968102044F40074C86016
:1009000070074FF0080707D55FEA0B7004D5286819
:10091000C760284600F06AF9B00706D52868C068A5
:10092000800702D0284600F063F9700607D55FEA19
:10093000CA6004D52968102044F480640861B006B8
:1009400007D55FEA0A7004D528680761284600F0D9
:1009500069F9F00606D528680069800702D02846A4
:1009600000F061F9B00308D55FEAC96005D52968D0
:1009700010204860284600F057F9F00307D55FEAD9
:10098000097004D528684760284600F081F93004D2
:1009900046D55FEA497040D5F00504D55FEAC870D6
:1009A00001D044F00104B00504D55FEA887001D598
:1009B00044F00204700504D55FEA487001D544F0A4
:1009C0000404300529D518F0700F26D008F0700007
:1009D000402815D006DC102809D020280AD030285D
:1009E00016D10AE050280ED0602811D10EE044F054
:1009F00008040DE044F010040AE044F0200407E08D
:100A000044F0400404E044F0800401E044F48074C5
:100A10002868816921F0700181612968042048609B
:100A2000002C05D0686A204368622846FFF777FEED
:100A3000BDE8F09F70B5040003D094F8200010B119
:100A400004E0012070BD204600F082F820680168B3
:100A500041F00101016000F013FA0546052604E0AB
:100A600000F00EFA401B0A2811D820684068C00721
:100A7000F6D02068016821F00201016000F000FA60
:100A800005460BE000F0FCF9401B0A2806D9606A15
:100A900040F40030606284F82060D2E7206840684B
:100AA0008007EFD4207E0128206801683DD021F026
:100AB00080010160607E01282068016838D021F043
:100AC00040010160A07E01282068016833D021F038
:100AD00020010160E07E0128206801682ED041F0ED
:100AE00010010160207F01282068016829D021F0D1
:100AF00008010160607F01282068016824D021F08E
:100B000004010160D4E902010843D4E9041211434D
:100B100008436168491E08432168C861002060627B
:100B2000012084F82000002070BD41F08001C0E762
:100B300041F04001C5E741F02001CAE721F0100172
:100B4000CFE741F00801D4E741F00401D9E7000004
:100B500010B586B0002100910191029103910068C7
:100B60001F4988423AD11F48C16941F00071C161F3
:100B7000C16901F000710491816941F00401816152
:100B80008069194C00F0040004904FF4006000905C
:100B90006946204600F07EF8A014009002200190E3
:100BA000032003906946204600F074F800220521D6
:100BB000132000F003FA132000F0F2F900220521BF
:100BC000142000F0FBF9142000F0EAF900220521BE
:100BD000152000F0F3F9152000F0E2F906B010BD81
:100BE000006400400010024000080140704700000F
:100BF00010B50A4B0A4A0021FFF792FD5021EFF38E
:100C0000118081F31188BFF34F8FBFF36F8F034AB9
:100C10000121921E516080F3118810BD0200002056
:100C2000B8000020704770477047000070B5044658
:100C300090F82000012804D0606A40F4002060622F
:100C400018E0022084F820002068016821F00101EA
:100C5000016000F015F905460EE000BF00F010F944
:100C6000401B0A2808D9606A40F400306062052001
:100C700084F82000012070BD20684068C007EDD1D5
:100C8000606270BD7047704770477047704770472B
:100C9000704700002DE9F84FDFF8B8910024A9F162
:100CA000040B23460F2709F1040AABF1040EC9E037
:100CB0000125A5402A40AA427DD1674ED1F804C043
:100CC000ACEB0608B44532D014DCBCF1030F3AD0CB
:100CD00009DCBCF1000F2AD0BCF1010F1CD0BCF123
:100CE000020F31D11DE0BCF1110F17D0BCF1120F72
:100CF0002AD119E0B8F5881F19D006DCB8F5803F75
:100D000015D0B8F5801F1FD111E0B8F5001F0ED027
:100D1000B8F5041F18D10AE0CB6815E0CB681B1D9D
:100D200012E0CB6808330FE0CB680C330CE08B6823
:100D30002BB1012B4FF0080303D0456104E00423DD
:100D400002E0056100E00023FF2A01D8064601E029
:100D500000F104064FEA840501D9A5F12005D6F873
:100D6000008007FA05FC28EA0C0803FA05F548EAB2
:100D70000508C6F800804D68ED0062D5374DAE69B4
:100D800046F00106AE61AD6924F0030605F00105E9
:100D90000095334D06EB050CDCF80850A607360F1E
:100DA00007FA06F825EA0805DFF8B880404503D1C0
:100DB0004FF0000817E044E0DFF8AC80404502D176
:100DC0004FF001080FE0DFF8A480404502D14FF05A
:100DD000020808E0DFF89880404502D14FF0030890
:100DE00001E04FF0040808FA06F848EA0508CCF8D4
:100DF00008804D68D9F80060ED024D4601D51643D4
:100E000000E096432E604D68DAF80060AD0255466A
:100E100001D5164300E096432E604D68DBF8006074
:100E2000AD035D4601D5164300E096432E604D6844
:100E3000DEF80060ED03754601D5164300E09643E9
:100E40002E60641C0D682A46E5407FF431AFBDE892
:100E5000F88F00000804014000001110001002404B
:100E60000000014000080140000C0140001001405A
:100E7000001401400AB1016170470904FBE700005A
:100E80000148806870470000100000200248816817
:100E9000027811448160704710000020074810B5A7
:100EA000016841F010010160032000F0A7F80F2055
:100EB00000F006F800F050F8002010BD00200240BD
:100EC00030B505461F4887B0C16941F00401C161D2
:100ED000C06906A900F00400009001A800F036F9EE
:100EE0000498B0B100F052F940001749174AB0FB1E
:100EF000F1F11748491E0260416040F2E7320021DB
:100F0000C0E903218160816100F008FB040003D087
:100F100015E000F03BF9E8E70D4800F02DFB040078
:100F20000DD11E2000F03CF8102D07D200222946DA
:100F30001E2000F043F80748056000E0012407B0D8
:100F4000204630BD0010024040420F000008004023
:100F5000FC000020140000200F4808B5816941F012
:100F600001018161816901F001010091C16941F0D4
:100F70008051C161C069002200F0805000900F21B3
:100F8000901E00F01BF80548416821F0E06141F037
:100F90000071416008BD00000010024000000140E7
:100FA000002809DB00F01F02012191404009800068
:100FB00000F1E020C0F8001170470000F0B40E4BC3
:100FC0001B680C46C3F30223C3F10705042D00D9A7
:100FD0000425191D072901D2002300E0DB1E01268C
:100FE00006FA05F1491E214099409E40761E1640A2
:100FF0003143F0BC00F0ADBC0CED00E0064900F060
:10100000070208684FF6FF03184040EA0220034A2F
:1010100010430860704700000CED00E00000FA0586
:101020002DE9F0470F46050061D0434E306800F0CF
:101030000700B84209D2306820F00700384330601A
:10104000306800F00700B84251D128683B4C810756
:1010500012D5400703D5606840F4E06060602878EE
:10106000000703D5606840F4605060606068A9685C
:1010700020F0F000084360602878C00728D0686836
:10108000012810D02168022810D0890700292EDA03
:10109000616821F0030101436160FFF7F1FE8046C2
:1010A00041F288390DE021688903EFE78901EDE716
:1010B000FFF7E6FEA0EB0801494502D90320BDE891
:1010C000F0876068696800F00C00B0EB810FEFD129
:1010D000306800F00700B8420BD9306820F00700F4
:1010E00038433060306800F00700B84201D001207A
:1010F000E5E72878400705D56068E96820F4E060F6
:10110000084360602878000706D56068296920F4E4
:10111000605040EAC100606000F048F86168084A29
:10112000C1F30311515CC8400649086006480068D5
:10113000FFF7C6FE0020C2E7002002400010024078
:10114000E23100081C000020140000200F22026081
:101150000C4A536803F003034360536803F0F00341
:101160008360536803F4E063C36052684FF4E06344
:1011700003EAD20202610448006800F00700086038
:10118000704700000010024000200240044805495A
:1011900000684968044AC1F30221515CC8407047A5
:1011A0001C00002000100240F23100080E4A516875
:1011B0000E4801F00C03042B11D0082B0FD10C4862
:1011C000C1F38343C903C05C0AD55168084AC1F31F
:1011D0004041921E515C054A5043B0FBF1F070470C
:1011E00004494843704700000010024000127A0092
:1011F000D231000800093D002DE9F84F040070D0FD
:101200002078C04DC00749D06868C0F3810001282C
:1012100007D06868C0F38100022809D16868C0035C
:1012200006D52868800339D560680028E7D035E006
:101230006068B0F5803F0BD010B1B0F5A02F11D091
:10124000286820F480302860286820F4802002E09C
:10125000286840F480302860606890B1FFF710FE85
:1012600006460AE0286840F480202860F0E700BFC6
:10127000FFF706FE801B642873D828688003F7D523
:101280000CE0FFF7FDFD064605E000BFFFF7F8FDA7
:10129000801B6428F0D828688003F7D420789A4E01
:1012A00080074FF001094FF0000839D5686810F049
:1012B0000C0F07D06868C0F38100022809D1686864
:1012C000C00306D42868800714D52069012808D1F6
:1012D00010E02069B0B1C6F80090FFF7D1FD0746D5
:1012E00005E00AE1FFF7CCFDC01B0228C4D828683E
:1012F0008007F7D52868616920F0F80040EAC1004E
:1013000028600DE0C6F80080FFF7BAFD074604E04C
:10131000FFF7B6FDC01B022823D828688007F7D442
:10132000207800072CD57948A169D9B1C0F8009080
:10133000FFF7A6FD074604E0FFF7A2FDC01B022849
:101340000FD8686A8007F7D571484FF4FA510068E2
:10135000B0FBF1F0009000BF0098411E0091FAD25E
:101360000EE080E0C0F80080FFF78AFD074604E049
:10137000FFF786FDC01B022875D8686A8007F7D47E
:101380002078400760D5E8690027C00008D4E869E4
:1013900040F08050E861E869012700F0805000903B
:1013A0005C480168C90513D40168834641F4807123
:1013B0000160FFF765FD824606E000BFFFF760FDB4
:1013C000A0EB0A0064284ED8DBF80000C005F5D574
:1013D000E06801280AD008B1052813D0286A20F057
:1013E00001002862286A20F0040002E0286A40F028
:1013F00001002862E06841F2883B98B1FFF740FDA8
:1014000082460BE0286A40F004002862EEE700BF45
:10141000FFF736FDA0EB0A0159455AD8286A800724
:10142000F6D50CE0FFF72CFD824605E0FFF728FD1E
:10143000A0EB0A0159454CD8286A8007F6D41FB1A1
:10144000E86920F08050E861E06988B36968C1F319
:101450008101022944D00228C6F8608004D0FFF739
:101460000FFD044638E034E0FFF70AFD074604E0CC
:10147000FFF706FDC01B02282BD828688001F7D48F
:10148000206AB0F5803F05D16868A16820F400307B
:1014900008436860D4E908010843696821F47411BD
:1014A00008436860C6F86090FFF7EAFC044606E06F
:1014B00025E000BFFFF7E4FC001B022809D82868DC
:1014C0008001F7D51BE000BFFFF7DAFC001B022804
:1014D00002D90320BDE8F88F28688001F4D40EE01B
:1014E0000128F7D06868226A00F48031914204D163
:1014F000616A00F47010884201D00120EAE7002000
:10150000E8E700000010024000004242800442422E
:101510001C000020007000407047704710B50400A8
:1015200003D094F83D0010B107E0012010BD002069
:1015300084F83C00204600F01EF8022084F83D00AC
:10154000211D206800F0BCF9012084F8460084F8D1
:101550003E0084F83F0084F8400084F8410084F89D
:10156000420084F8430084F8440084F8450084F87D
:101570003D00002010BD704790F83D10012901D0BA
:1015800001207047022180F83D100168CA6842F0CE
:101590000102CA6000680B49884208D0B0F1804F50
:1015A00005D00949884202D00849884204D181689F
:1015B00001F00701062903D0016841F00101016033
:1015C00000207047002C014000040040000800404B
:1015D00070472DE9F04104460068C66805694FF080
:1015E0000007A90713D5B10711D5F91E0161012024
:1015F0002077206880698007204602D0FFF7E8FF47
:1016000004E000F07EF8204600F07CF827776807B9
:1016100016D5700714D521686FF004000861022008
:1016200020772068806910F4407F204602D0FFF7C1
:10163000CFFF04E000F065F8204600F063F827775C
:10164000280715D5300713D521686FF00800086109
:10165000042020772068C0698007204602D0FFF769
:10166000B7FF04E000F04DF8204600F04BF8277774
:10167000E80616D5F00614D521686FF01000086151
:10168000082020772068C06910F4407F204602D0EF
:10169000FFF79EFF04E000F034F8204600F032F837
:1016A0002777E80708D0F00706D021686FF001001F
:1016B0000861204600F028F8280608D5300606D52F
:1016C00021686FF0800008612046FFF725FF68065B
:1016D00008D5700606D521686FF0400008612046E5
:1016E00000F01CF8A8060AD5B00608D521686FF0EE
:1016F000200008612046BDE8F041FFF70EBFBDE8BD
:10170000F08170477047000000680349884201D1AA
:10171000FFF7BCBB70470000000800407047FEE7C1
:101720000F4810B50D49016004214160090781602F
:1017300000214FF44032C0E90312120142610176E8
:1017400041768176C17601774177FFF773F90028FA
:1017500003D0BDE81040FEF7EEBE10BD00640040AF
:10176000D40000207CB50E4A00210E4800F09EF9FE
:101770000D4900241825C860CDE900544FF4807647
:101780002346324609A10B4801F002FBCDE9005483
:101790000023324608A10C4801F0FAFA7CBD000093
:1017A000AC310008311800080000002043616E547D
:1017B00061736B0079040008646174614465616C55
:1017C0005461736B000000007519000830B585B0D6
:1017D000002000900190029003901248816941F02E
:1017E00020018161816901F020010491816941F04A
:1017F0000401816180690C4D00F004004FF4A06485
:101800000490002221462846FFF734FB01200221E4
:101810000094CDE90101039169462846FFF73AFAA1
:1018200005B030BD0010024000080140FEE7FEE7B1
:10183000012000F000F9FBE710B54FF0E02000694F
:1018400001F0FEFA012803D0BDE8104001F02CB8E9
:1018500010BD30B58FB028216846FEF74EFD14212B
:101860000AA8FEF74AFD01210804CDE90010002472
:10187000029402250491CDE907504FF4E01009903D
:101880006846FFF7B9FC08B172B6FEE70F20CDE954
:101890000A054FF48060CDE90C4002210AA80E949D
:1018A000FFF7BEFB002801D072B6FEE70FB030BDD7
:1018B000704700000148FFF78CBE0000FC000020CC
:1018C000F0B50268194B1A4C1A4D4FF080479842F8
:1018D00005D0B84203D0A04201D0A84203D122F0E3
:1018E00070064A683243984205D0B84203D0A042FD
:1018F00001D0A84203D122F44074CA6822434C6943
:1019000022F08002224302608A68C2620A68826210
:10191000984201D109690163012141610169C90747
:1019200003D0016921F001010161F0BD002C0140EB
:1019300000040040000800400148FEF77DBF0000A1
:10194000D40000200148FEF777BF0000D40000203B
:10195000FEE70907090E002804DB00F1E02080F80B
:101960000014704700F00F0000F1E02080F8141D13
:1019700070470000254E4FF440784FF480794FF4C3
:10198000806A234C4FF4A06B0027224D00F07AFDB3
:101990006868012828D100F095FD3068404506D0E0
:1019A000A0F5407001380ED002281AD122E00122A1
:1019B00049462046FFF75EFA4FF47A7000F03AFE8F
:1019C000002249460AE0012251462046FFF752FA1A
:1019D0004FF47A7000F02EFE002251462046FFF7A9
:1019E00049FA00F04FFD6F6000F06CFD322000F00E
:1019F00021FECBE7012259462046FFF73BFA4FF480
:101A00007A7000F017FE00225946E7E7B800002080
:101A10000008014000000020FFF740FAFFF719FF1F
:101A2000FFF7D4FEFFF77CFE00F012F8FFF79AFEF6
:101A300000F020F8FEE710B5EFF3058111B16FF06B
:101A4000050403E0002408B100F0F4FD204610BDB9
:101A5000EFF3058010B16FF005007047044801688E
:101A600011B14FF0FF307047012101600020704735
:101A70007000002010B5EFF3058010B16FF0050085
:101A800010BD08480168012902D04FF0FF3010BD99
:101A9000054A002182F8141D0221016000F032FE87
:101AA000002010BD700000200BE000E02DE9FF4198
:101AB0004FEA01034FF00005EFF30581039549BBA1
:101AC00040B38027182100244AB3166806B1344673
:101AD00096691EB13146761E382E02D21679F60767
:101AE00003D0002004B0BDE8F081566906B1B70804
:101AF000D2F808C0BCF1000F0DD0D5685C2D18D30A
:101B000012693AB136B18DE806103A46214601F025
:101B10006CF903900DE0D6685EB912694AB903AA60
:101B2000CDE90012BAB2214601F032F9012800D005
:101B300003950398D6E700002DE9F041134C0F46BA
:101B40000546E6682068001D00F040FC681C07D1CF
:101B500037B12168BDE8F0410D48091D00F086BC91
:101B600020683544B5424560216805D2A06BBDE8C8
:101B7000F041091D00F062BC606B091D00F05EFCC5
:101B8000A06A854200D2A562BDE8F0812000002055
:101B9000340600202DE9F041054600F073FC2D4C81
:101BA000A068401CA06020682B4F10B1606930B362
:101BB0002BE02560A068012827D1002606EB8600CF
:101BC00007EB800000F02CFC761C382EF6D323485F
:101BD00000F026FC2148143000F022FC1F48283079
:101BE00000F01EFC1D483C3000F01AFC1B48503031
:101BF00000F016FC194860631430A06305E020680B
:101C0000E96AC06A884200D82560606A401C606248
:101C10006864E86A2169884200D9206100EB80008D
:101C200007EB8000291D00F021FC00F04BFC6069EF
:101C300000280CD02068E96AC06A884207D20849A7
:101C40004FF080500860BFF34F8FBFF36F8FBDE838
:101C5000F08100002000002084010020E405002025
:101C600004ED00E038B500F00DFC104C2068C8B958
:101C70000F4800F0D5FB0E48143000F0D1FB0C48A3
:101C8000E060143020610A4B0020F03B009003F12B
:101C9000500210210A2000F01DFE206010B105A1A5
:101CA00000F092FCBDE8384000F00CBC5C00002065
:101CB00038070020546D72510000000030B4026CEF
:101CC0000B46002A0BD0C1681144C1608468A14250
:101CD00001D30168C16030BC1846FEF7C1BA30BC00
:101CE00070472DE9F041856B174604460026026CCB
:101CF00082B1C7B1E068FEF7B3FAE168206C091A57
:101D0000E1602268914202D2A168081AE060022FC5
:101D100016D017E02068A8B9A06801F009F90646B6
:101D20000020A0600EE06068FEF79AFA216C6068FF
:101D300008446060A168884204D32068606001E0C4
:101D400005B16D1E6D1CA5633046BDE8F08110B570
:101D5000044690F8590058B101280CD002280FD041
:101D6000502080F31188BFF34F8FBFF36F8FFEE7D2
:101D7000206B00F0BBFB2046BDE8104000F0B6BB76
:101D800010BD000010484FF44061420706D0C01D4E
:101D90000D4920F00700411AC1F540610B4A0023AC
:101DA0000144C2E900030839183A21F00701116023
:101DB0004B600B600B1AC0E9001393604FF00040BA
:101DC0005360506170470000180E00208C00002006
:101DD000144E154CA6F29C474FF08058DFF84C90FB
:101DE00012E000BF00F04EFBF068C568281D00F04F
:101DF000EDFAA068401EA0606068401E606000F0C0
:101E000061FB2846FFF7A3FF60680028EAD1386825
:101E10000128F9D9C9F80080BFF34F8FBFF36F8F46
:101E2000F2E70000200600202000002004ED00E082
:101E300070B51D46049C51B1C4F80020C4E90F01DF
:101E40000121204600F07AFD84F84C5070BD2460DA
:101E5000F4E700002DE9F05F8846DDE90B941546B4
:101E6000834691009A460A9EA522206BFEF73DFA12
:101E70006FF00301206B01EB8501084420F0070798
:101E8000780707D0502080F31188BFF34F8FBFF33E
:101E90006F8FFEE70025B8F1000F0FD05FF0000054
:101EA000221818F8001082F8341018F8001011B138
:101EB000401C1028F4D384F8435001E084F83450D7
:101EC000382E00D33726E662C4E91365201D00F0E2
:101ED000B2FA04F1180000F0AEFA2461C6F138003D
:101EE0006462A061656584F8585052465946384688
:101EF00000F05AFA2060B9F1000F01D0C9F8004093
:101F0000BDE8F09F30B5114900E011460A688242F1
:101F1000FBD34B685C18844203D140681844486086
:101F2000084643681C18944209D1084C183C2468A0
:101F3000A24209D052681A4442600A6812680260DC
:101F4000814200D0086030BD0460F9E78C000020B9
:101F500070B5002441600B4D0061914206D8D11A42
:101F60008269914206D2011D286907E09A4203D294
:101F7000994201D3012403E0011DE86800F05EFAF4
:101F8000204670BD5C00002010B5044600F07AFACF
:101F9000A06B28B15FF0000400F094FA204610BD59
:101FA0000124F9E730B589B03C4D6EE00498002873
:101FB00006DADDE90601059A90470498002864DBFB
:101FC000069C606910B1201D00F000FA03A800F023
:101FD000D7F8024604980A2857D2DFE800F0050532
:101FE000052D334A05052D3394F8280040F00100F3
:101FF00084F828000599A069059B01442046FFF755
:10200000A7FF68B3216A2046884794F82800400754
:102010003BD5002000900598A1690023421819467D
:10202000204601F08FF8D8B9502080F31188BFF313
:102030004F8FBFF36F8FFEE714F8280F20F00100D9
:10204000207022E094F8280040F0010084F8280075
:102050000598A06128B1811813462046FFF778FF44
:1020600013E0502080F31188BFF34F8FBFF36F8FC1
:10207000FEE794F82800810703D4204600F036FAE2
:1020800003E020F0010084F82800002204A9286859
:1020900000F0A8FD002889D109B030BD5C00002007
:1020A0002DE9FC410F46054600F070FB01A800F049
:1020B00067F80446019818B100F0B2FFBDE8FC8152
:1020C000254EAFB130690068D0B30027291B3A46CE
:1020D000306800F08DFA00F0A3FF0028EED11F4910
:1020E0004FF080500860BFF34F8FBFF36F8FE5E76D
:1020F000A542EBD800F094FFF0682746C068C4689A
:10210000201D00F063F994F82800410719D5A06953
:102110002B4641193A462046FFF71AFFA8B1002086
:102120000346014600902A46204601F00BF860B9AC
:10213000502080F31188BFF34F8FBFF36F8FFEE7FE
:1021400007E020F0010084F82800216A2046884733
:10215000B4E70127BAE700005C00002004ED00E0CE
:102160000648416B096829B1416BC968C96849686B
:10217000816270474FF0FF31FAE700002000002035
:1021800070B5054600F06AFE064E0446B06884420B
:1021900003D200F009F8012000E00020286020466A
:1021A000B46070BD5C000020F8B5194D20E0C06837
:1021B000C4680668201D00F009F9216A2046884796
:1021C00094F82800400713D5A0693044B04206D9DE
:1021D00024616060211DE86800F030F908E000200B
:1021E0000346014600903246204600F0ABFF38B16E
:1021F000E86801680029DAD12969C5E90310F8BD4A
:10220000502080F31188BFF34F8FBFF36F8FFEE72D
:102210005C00002008484068401C4FF0500080F3EC
:10222000118804D0BFF34F8FBFF36F8FFEE7BFF36A
:102230004F8FBFF36F8FFEE794000020074CE068DC
:10224000016841B1C0680021D0F80000FFF728FF05
:10225000FFF7A8FEF3E701210020F7E75C0000206C
:102260002DE9F041044600F00DF994F9455004F1D0
:10227000240609E0606A48B1304600F099FE08B1D2
:1022800000F006FA6D1E6DB2002DF3DC4FF0FF3644
:1022900084F8456000F016F900F0F4F894F9445021
:1022A00004F1100709E0206948B1384600F080FECB
:1022B00008B100F0EDF96D1E6DB2002DF3DC84F86D
:1022C0004460BDE8F04100F0FDB800002DE9F041A8
:1022D0000546002700F05AFA324E306808B9FFF779
:1022E00051FD706905424ED1C5B3083568070ED05F
:1022F00005F00700C0F108000544680707D050202A
:1023000080F31188BFF34F8FBFF36F8FFEE72DB3BC
:102310007068854237D82348183001460C6801E0C0
:1023200020460C466168A94202D221680029F7D1F3
:1023300031688C4227D007682168016060680837DF
:10234000411B10290FD96019420708D0502080F393
:102350001188BFF34F8FBFF36F8FFEE713E041602B
:102360006560FFF7CFFD61687068401A7060B26801
:10237000904200D2B060706901430020C4E90001BE
:10238000F068401CF06000F04BFE780707D050204A
:1023900080F31188BFF34F8FBFF36F8FFEE738468E
:1023A000BDE8F0817400002010B5031F4FF0807469
:1023B0001C601B1F21F001011960191F024B0B60EB
:1023C000143940380A6010BD15220008D0E90132E6
:1023D00001699A60D0E901235A604A68824201D1BA
:1023E00082684A60002202610868401E086008682E
:1023F00070470000034B036003F15C00086080201D
:102400001060704760070020044B036003F15C001C
:1024100008604FF48070106070470000BC09002015
:1024200000F108014FF0FF32C0E90112C160016103
:1024300000210160704700210161704730B50B68D1
:102440005A1C02D000F1080202E0026904E02246B0
:10245000546825689D42FAD953684B6099608A6038
:10246000516008610168491C016030BD42684A60E2
:1024700093688B6093685960916008610168491C9A
:1024800001607047502080F31188BFF34F8FBFF376
:102490006F8F0A494868401C486001280CD10848E1
:1024A000006810F0FF0F07D0502080F31188BFF3B1
:1024B0004F8FBFF36F8FFEE770470000940000203E
:1024C00004ED00E00849486828B1401E486001D189
:1024D00080F311887047502080F31188BFF34F8F2D
:1024E000BFF36F8FFEE700009400002070B5002856
:1024F0002AD0164DA0F1080460686969084207D126
:10250000502080F31188BFF34F8FBFF36F8FFEE72A
:1025100022683AB1502080F31188BFF34F8FBFF388
:102520006F8FFEE78843606000F030F9606869688B
:10253000084468602046FFF7E5FC2869401C2861D4
:10254000BDE8704000F06CBD70BD0000740000205C
:102550004FF0E02000210161816105494FF47A725A
:102560000968B1FBF2F1491E416107210161704721
:102570001C00002010B5FDF74FFE114910280ED3A6
:1025800000F1E02090F8F0030A78904207D2502042
:1025900080F31188BFF34F8FBFF36F8FFEE70948B9
:1025A0000068896800F4E060884207D9502080F311
:1025B0001188BFF34F8FBFF36F8FFEE710BD000090
:1025C000940000200CED00E010B5084B002200BF85
:1025D00053F832401CB1521C082AF9D310BD43F8FD
:1025E000321003EBC201486010BD0000440100201E
:1025F00070B515460E460446FFF744FF94F94410A3
:102600000020491C01D184F8440094F94510491C6C
:1026100001D184F84500FFF755FFA06B28B92A4681
:10262000314604F1240000F051F82046BDE8704026
:10263000FFF716BE10B5020014D00F48006B38B17A
:10264000502080F31188BFF34F8FBFF36F8FFEE7E9
:1026500000F09CF800211046FFF76EFA00F0E0FC55
:10266000002807D105494FF080500860BFF34F8F15
:10267000BFF36F8F10BD00002000002004ED00E0CC
:1026800002490A6A0260C968416070472000002060
:1026900001490120C86170472000002010B50C4698
:1026A00050B1094909681831FFF7C8FE2046BDE856
:1026B00010400121FFF740BA502080F31188BFF38A
:1026C0004F8FBFF36F8FFEE72000002070B51446D8
:1026D0000D4668B10A4909681831FFF7C7FE0CB109
:1026E0004FF0FF3521462846BDE87040FFF724BA79
:1026F000502080F31188BFF34F8FBFF36F8FFEE739
:102700002000002030B587B00024039405AA04A956
:1027100003A80494FFF76EFEDDE903010094CDE900
:102720000110002315A11748059A00F05EFB164D15
:102730000028E8621FD000F0D5FC012809D0401C19
:1027400019D1502080F31188BFF34F8FBFF36F8FE3
:10275000FEE7502080F31188BFF34F8FBFF36F8FD8
:102760004FF0FF30A86201206861EC6007B0BDE85F
:10277000304000F045B807B030BD000049444C453A
:1027800000000000D11D0008200000200248016B5D
:10279000491C01637047000020000020164810B556
:1027A000016B11B10121C16110BD0021C16101693D
:1027B000124A01E0B9B1491E01EB810352F82330FE
:1027C000002BF7D001EB810302EB830202F1080436
:1027D00053685B685360A34201D15B685360DA6859
:1027E0000260016110BD502080F31188BFF34F8F4C
:1027F000BFF36F8FFEE7000020000020840100205F
:102800001CB5264908780190FF20087008788DF8DB
:1028100000009DF800009DF8002000F0F0009042BC
:1028200007D0502080F31188BFF34F8FBFF36F8F15
:10283000FEE79DF800001A4C00F0500020700720C1
:10284000A06005E09DF8002052008DF80020401E99
:102850009DF800201206F5D4A060032807D0502070
:1028600080F31188BFF34F8FBFF36F8FFEE74FF4F4
:102870004070A060019808700A48016841F4700136
:102880000160016841F070410160FFF761FE0020C6
:102890006060FDF78BFC00201CBD000000E400E040
:1028A0009400002020ED00E010B5502080F3118846
:1028B000BFF34F8FBFF36F8F00F0D6FA18B1044902
:1028C0004FF080500860002080F3118810BD000098
:1028D00004ED00E038B5049D18B153B1CAB181B11F
:1028E00020E0502080F31188BFF34F8FBFF36F8F2C
:1028F000FEE7502080F31188BFF34F8FBFF36F8F37
:10290000FEE7502080F31188BFF34F8FBFF36F8F26
:10291000FEE739B1502080F31188BFF34F8FBFF32A
:102920006F8FFEE750241C46012384F846302B4667
:102930000094FFF77DFA204638BD000070B50D46C3
:10294000040025D0FFF79EFDD4E90F20216802FB8B
:102950000011A1600021A163216861600A46D4E9E9
:102960000F01401E00FB0121E16021464FF0FF30C6
:1029700001F8440F487004F110008DB1FFF750FDCD
:1029800004F12400FFF74CFDFFF79CFD012070BD12
:10299000502080F31188BFF34F8FBFF36F8FFEE796
:1029A00021690029F0D000F003FB0028ECD0044995
:1029B0004FF080500860BFF34F8FBFF36F8FE3E796
:1029C00004ED00E02DE9FF4782B01D468A464FF036
:1029D0000008040003D0BAF1000F08D011E0502025
:1029E00080F31188BFF34F8FBFF36F8FFEE7206C2A
:1029F00038B1502080F31188BFF34F8FBFF36F8F32
:102A0000FEE7022D0AD1E06B012807D0502080F3A9
:102A10001188BFF34F8FBFF36F8FFEE700F010FAFE
:102A20003F4F4FF000094FF0805648B9049838B135
:102A3000502080F31188BFF34F8FBFF36F8FFEE7F5
:102A4000FFF720FDA06BE16B884207D3022D05D074
:102A50000498D0B1B8F1000F1AD01EE02A465146B2
:102A60002046FFF73EF9616A19B104F1240000F035
:102A70009FFA20B13E60BFF34F8FBFF36F8FFFF718
:102A800021FD012006B0BDE8F087FFF71BFD22E025
:102A90006846FFF7F5FD4FF00108FFF713FDFFF75C
:102AA00075FEFFF7EFFC94F94400401C01D184F857
:102AB000449094F94500401C01D184F84590FFF7FB
:102AC00001FD04A9684600F029F930B12046FFF75E
:102AD000C7FB00F0A5FA0020D4E7FFF7D3FCA06BFA
:102AE000E16B884213D1FFF7EDFC04F1100004996B
:102AF000FFF7D4FD2046FFF7B3FB00F091FA002862
:102B00009ED13E60BFF34F8FBFF36F8F98E7FFF703
:102B1000D9FC2046FFF7A4FB00F082FA90E7000002
:102B200004ED00E02DE9F0471F4690468946040079
:102B300003D0B9F1000F08D011E0502080F31188C4
:102B4000BFF34F8FBFF36F8FFEE7206C38B150207B
:102B500080F31188BFF34F8FBFF36F8FFEE7022F13
:102B60000AD1E06B012807D0502080F31188BFF311
:102B70004F8FBFF36F8FFEE7FFF7FCFC5020EFF3A2
:102B8000118680F31188BFF34F8FBFF36F8FA06B57
:102B9000E16B884206D3022F04D0002086F311880F
:102BA000BDE8F08794F94550A06B3A464946204667
:102BB000FFF797F8681C04D06D1C84F8455001207D
:102BC000ECE7606A0028FAD004F1240000F0F0F984
:102BD0000028F4D0B8F1000FF1D00121C8F800109E
:102BE000EDE700002DE9F747002683B08A46040090
:102BF00003D0BAF1000F08D011E0502080F3118803
:102C0000BFF34F8FBFF36F8FFEE7206C38B15020BA
:102C100080F31188BFF34F8FBFF36F8FFEE700F093
:102C20000FF9DFF8F4804FF000094FF0805748B9F2
:102C3000059838B1502080F31188BFF34F8FBFF350
:102C40006F8FFEE7FFF71EFCA56BC5B1514620460E
:102C5000FFF734F86D1EA563206950B104F1100030
:102C600000F0A6F928B1C8F80070BFF34F8FBFF38A
:102C70006F8FFFF727FC012006B0BDE8F0870598AD
:102C800008B11EB106E0FFF71DFC27E06846FFF71C
:102C9000F7FC0126FFF716FCFFF778FDFFF7F2FBC4
:102CA00094F94400401C01D184F8449094F9450003
:102CB000401C01D184F84590FFF704FC05A9684643
:102CC00000F02CF8002820460AD0FFF7C9FA00F0DF
:102CD000A7F92046FFF758F90028B3D00020CBE72A
:102CE000FFF752F990B104F124000599FFF7D6FCE3
:102CF0002046FFF7B5FA00F093F90028A2D1C8F8F2
:102D00000070BFF34F8FBFF36F8F9BE72046FFF735
:102D1000A7FA00F085F995E704ED00E02DE9F04110
:102D20000C46050011D0C4B1FFF7ACFB174BDA68B5
:102D30006E682068911B471C17D02F681B6A9F4242
:102D400019D0964217D8012410E0502080F3118842
:102D5000BFF34F8FBFF36F8FFEE7502080F31188D2
:102D6000BFF34F8FBFF36F8FFEE70024FFF7AAFB7F
:102D70002046BDE8F081884205D9401A20602846E7
:102D8000FFF77EFCF1E700202060DCE72000002058
:102D90002DE9FF5F8346DDE90E87994616468A4690
:102DA0009000FFF793FA05001CD05C20FFF78EFA25
:102DB000040014D00020256384F85900CDE90240B6
:102DC000CDE900874B46324651465846FFF742F858
:102DD0002046FEF7DFFE012004B0BDE8F09F284644
:102DE000FFF784FB4FF0FF30F6E7F0B585B0DDE983
:102DF0000B640A9DA6B1DCB15C270097266302260E
:102E000084F85960002604AFCDE90246CDE90057A9
:102E1000FFF720F82046FEF7BDFE049805B0F0BD90
:102E2000502080F31188BFF34F8FBFF36F8FFEE701
:102E3000502080F31188BFF34F8FBFF36F8FFEE7F1
:102E40000548416919B1006B18B100207047012095
:102E50007047022070470000200000200148C06831
:102E600070470000200000202DE9F0412E4C002783
:102E7000206B28B1A069401CA0613846BDE8F081F4
:102E8000E668761CE66013D1606B006838B15020AC
:102E900080F31188BFF34F8FBFF36F8FFEE7606B36
:102EA000A16B6163A063206A401C2062FFF758F9A0
:102EB000A06ADFF87880864209D3606B0068A0B111
:102EC000606BC068C5686868864211D2A0622068DD
:102ED000C06A00EB800158F82100012800D90127C1
:102EE000E0690028C9D00127C7E74FF0FF30EDE7C0
:102EF000281DFFF76BFAA86A18B105F11800FFF753
:102F000065FAE86A2169884200D9206100EB8001F6
:102F100008EB8100291DFFF7A9FAE86A2168C96A50
:102F20008842CAD30127C8E720000020840100207E
:102F300070B504004FF0000133D01B4D2868844267
:102F400007D0502080F31188BFF34F8FBFF36F8FEE
:102F5000FEE7206D38B1401E2065E36CE26A9A42BC
:102F60001FD040B11DE0502080F31188BFF34F8F78
:102F7000BFF36F8FFEE7201DFFF728FAE06CE062D9
:102F8000C0F13800A061E06A2969884200D928614F
:102F9000064900EB800001EB8000211DFFF766FA77
:102FA0000121084670BD000020000020840100209F
:102FB00070B5C068C46854B104F118000646FFF744
:102FC00005FA144D286B50B13146134815E05020D6
:102FD00080F31188BFF34F8FBFF36F8FFEE7201D83
:102FE000FFF7F4F9E06A2969884200D928610B49A2
:102FF00000EB800001EB8000211DFFF737FAE06A4B
:103000002968C96A884202D90120E86170BD0020A0
:1030100070BD0000200000200C060020840100206C
:103020002DE9F0472C4D00242746286B38B1FFF7D7
:1030300029FA286B401E2863286B40B146E05020D7
:1030400080F31188BFF34F8FBFF36F8FFEE7A9683E
:10305000224E0120D1B3A6F5916980463068E0B1D7
:10306000F068C46804F11800FFF7B0F9201DFFF7FD
:10307000ADF9E06A2969884200D9286100EB800136
:1030800009EB8100211DFFF7F1F9E06A2968C96A9F
:103090008842E3D3C5F81C80E0E70CB1FFF760F885
:1030A000AC694CB14FEA0806FFF7DEFE00B1EE61F5
:1030B000641EF9D10020A861E86938B108490127E8
:1030C00038070860BFF34F8FBFF36F8FFFF7FAF930
:1030D0003846BDE8F0870000200000200C060020E4
:1030E00004ED00E010B586B0FEF7BCFD114C206881
:1030F000B8B100200390049005AA04A903A8FFF723
:1031000083F9DDE9032102208DE8070000230AA1ED
:103110000B48059AFFF769FE606010B106B0012008
:1031200010BD502080F31188BFF34F8FBFF36F8F16
:10313000FEE700005C000020546D722053766300AF
:103140003D2200082DE9FF411E46134602000A9D5C
:103150004FF0000016D0144C2768002F0FD0CDE997
:1031600000130292062917DAFFF76AFE02284FF0D1
:1031700000030FD0002269462068FFF723FC04B04B
:10318000BDE8F081502080F31188BFF34F8FBFF36B
:103190006F8FFEE72A46EEE700233246694638463F
:1031A000FFF7C0FCEBE700005C000020FC310008EA
:1031B000000000000000000000000000000000000F
:1031C00000020000180000000000000000000000E5
:1031D000010202030405060708090A0B0C0D0E0F75
:1031E00010100000000000000000010203040607A8
:1031F0000809000000000102030400006465666124
:10320000756C745461736B00283200080000002054
:10321000A000000028010008C8320008A00000201B
:10322000D81F00004401000800000000000000005A
:10323000000000000000000001000000100000007D
:103240000000000000127A000000000000000000F2
:10325000000000000000000000000000000000006E
:10326000000000000000000000000000000000005E
:10327000000000000000000000000000000000004E
:10328000000000000000000000000000000000003E
:10329000000000000000000000000000000000002E
:1032A000000000000000000000000000000000001E
:1032B000000000000000000000000000000000000E
:0832C000AAAAAAAA000000005E
:04000005080000ED02
:00000001FF
