:020000040800F2
:1000000018200020210200087D1500081B1300089D
:10001000791500086B040008C516000800000000F0
:10002000000000000000000000000000890100083E
:100030006F04000800000000CD010008B31500089F
:100040003B0200083B0200083B0200083B0200089C
:100050003B0200083B0200083B0200083B0200088C
:100060003B0200083B0200083B0200083B0200087C
:100070003B0200083B0200083B0200083B0200086C
:100080003B0200083B0200083B0200083B0200085C
:100090003B0200083B0200083B0200083B0200084C
:1000A0003B0200083B0200083B0200083B0200083C
:1000B0003B0200083B020008311600083B02000822
:1000C0003B0200083B0200083B0200083B0200081C
:1000D0003B0200083B0200083B0200083B0200080C
:1000E0003B0200083B0200083B02000800F002F857
:1000F00000F03AF80AA090E8000C82448344AAF188
:100100000107DA4501D100F02FF8AFF2090EBAE885
:100110000F0013F0010F18BFFB1A43F0010318473B
:100120002837000048370000103A24BF78C878C14B
:10013000FAD8520724BF30C830C144BF04680C60ED
:10014000704700000023002400250026103A28BF35
:1001500078C1FBD8520728BF30C148BF0B60704739
:100160001FB51FBD10B510BD00F045F91146FFF7D2
:10017000F7FF01F00BFB00F063F903B4FFF7F2FFA8
:1001800003BC00F06BF90000224B19680868B0E866
:10019000F00F80F30988BFF36F8F4FF0000080F3FA
:1001A00011884EF00D0E70470000000006480068F0
:1001B000006880F3088862B661B6BFF34F8FBFF363
:1001C0006F8F00DF00BF00BF08ED00E0EFF3098094
:1001D000BFF36F8F0F4B1A6820E9F00F106008B55E
:1001E0004FF0500080F31188BFF34F8FBFF36F8F34
:1001F00002F020FC4FF0000080F31188BDE80840B9
:1002000019680868B0E8F00F80F30988BFF36F8FB2
:10021000704700BF1C000020EFF30580704700000E
:100220000948804709480047FEE7FEE7FEE7FEE78A
:10023000FEE7FEE7FEE7FEE7FEE7FEE704480549C6
:10024000054A064B704700002F160008ED00000815
:10025000181A002018200020181C0020181C00204C
:10026000032A40F2308010F0030C00F0158011F8E2
:10027000013BBCF1020F624498BF11F801CB00F8BA
:10028000013B38BF11F8013BA2F1040298BF00F80E
:1002900001CB38BF00F8013B11F0030300F02580CB
:1002A000083AC0F0088051F8043B083A51F804CBF2
:1002B000A0E80810F5E7121D5CBF51F8043B40F8B8
:1002C000043BAFF30080D20724BF11F8013B11F8C3
:1002D00001CB48BF11F8012B24BF00F8013B00F807
:1002E00001CB48BF00F8012B704710B5203AC0F091
:1002F0000B80B1E81850203AA0E81850B1E8185027
:10030000A0E81850BFF4F5AF5FEA027C24BFB1E863
:100310001850A0E8185044BF18C918C0BDE81040D4
:100320005FEA827C24BF51F8043B40F8043B08BFDD
:100330007047D20728BF31F8023B48BF11F8012BA4
:1003400028BF20F8023B48BF00F8012B704702F09D
:10035000FF0343EA032242EA024200F02CB84FF0C6
:10036000000200B5134694469646203922BFA0E805
:100370000C50A0E80C50B1F12001BFF4F7AF090711
:1003800028BFA0E80C5048BF0CC05DF804EB890002
:1003900028BF40F8042B08BF704748BF20F8022B45
:1003A00011F0804F18BF00F8012B7047704770475D
:1003B00070474FF000020429C0F0128010F0030CC7
:1003C0003FF4CFAFCCF1040CBCF1020F18BF00F822
:1003D000012BA8BF20F8022BA1EB0C01FFF7C1BF36
:1003E0005FEAC17C24BF00F8012B00F8012B48BF55
:1003F00000F8012B7047754600F02CF8AE4605005A
:100400006946534620F00700854618B020B5FFF72F
:1004100015FFBDE820404FF000064FF000074FF0F9
:1004200000084FF0000B21F00701AC46ACE8C00912
:10043000ACE8C009ACE8C009ACE8C0098D4670471B
:1004400010B50446AFF300802046BDE81040FFF72A
:1004500094BE000000487047B819002001491820D8
:10046000ABBEFEE726000200704700BFFEE7704704
:1004700072B600BFFEE700002DE9F84703460022F0
:1004800094466EE14FF0010808FA02F4D1F80080BA
:1004900008EA0400A0427DD1DFF8DCA2D1F8048094
:1004A000A8EB0A09D0453AD014DCB8F1030F50D0BC
:1004B00009DCB8F1000F31D0B8F1010F1CD0B8F150
:1004C000020F49D120E0B8F1110F18D0B8F1120F86
:1004D00042D11EE0B9F5881F25D006DCB9F5803F72
:1004E00020D0B9F5801F37D11AE0B9F5001F18D018
:1004F000B9F5041F30D117E0D1F80CC02DE0D1F8C8
:100500000C8008F1040C28E0D1F80C8008F1080CEC
:1005100023E0D1F80C8008F10C0C1EE000BF00BFF6
:1005200000BF00BF00BF00BFD1F80880B8F1000FC6
:1005300002D14FF0040C0BE0D1F80880B8F1010FA4
:1005400003D14FF0080C1C6102E04FF0080C5C6115
:1005500003E04FF0000C00E000BF00BFFF2801D80F
:10056000984601E003F104084646FF2802D84FEA06
:10057000820803E0A2F108084FEA88084746D6F847
:1005800000804FF00F0909FA07F928EA09080CFA68
:1005900007F900E088E048EA0908C6F80080D1F8C9
:1005A000048008F08058B8F1805F7DD100BFDFF88B
:1005B000CC81D8F8188048F00108DFF8C091C9F85C
:1005C0001880C846D8F8188008F00108CDF80080D7
:1005D00000BF00BF4FEAB9384FEA920958F82950D6
:1005E0004FEA82784FEA18794FF00F0808FA09F8B5
:1005F00025EA0805DFF88881434502D14FF000085D
:1006000016E0DFF88081434502D14FF001080FE08A
:10061000DFF87481434502D14FF0020808E0DFF8AB
:100620006C81434502D14FF0030801E04FF004080C
:100630004FEA82794FEA197908FA09F848EA05057C
:10064000DFF84C814FEA920948F82950D1F804802C
:1006500008F48018B8F5801F0AD1DFF83881D8F87F
:10066000008048EA0008DFF82C91C9F8008009E012
:10067000DFF82081D8F8008028EA0008DFF814911C
:10068000C9F80080D1F8048008F40018B8F5001FFC
:1006900010D1DFF8008108F10408D8F8008048EA9A
:1006A0000008DFF8F09000E05AE009F10409C9F809
:1006B00000800DE0DFF8DC8008F10408D8F8008045
:1006C00028EA0008DFF8CC9009F10409C9F8008095
:1006D000D1F8048008F40038B8F5003F0ED1DFF8F7
:1006E000B480A8F10408D8F8008048EA0008DFF8D0
:1006F000A490A9F10409C9F800800DE0DFF8948006
:10070000A8F10408D8F8008028EA0008DFF88490EF
:10071000A9F10409C9F80080D1F8048008F48038F0
:10072000B8F5803F0ED1DFF86C80A8F10808D8F842
:10073000008048EA0008DFF85C90A9F10809C9F8D0
:1007400000800DE0DFF84C80A8F10808D8F80080A0
:1007500028EA0008DFF83C90A9F10809C9F80080F0
:10076000521CD1F8008028FA02F8B8F1000F7FF48B
:1007700089AEBDE8F88700000000111000100240AB
:1007800000080140000C014000100140001401402D
:100790000800014008040140024693680B400BB179
:1007A000012000E0002070470AB1016101E00B0464
:1007B0000361704701480068704700000C0000208A
:1007C00003480068034909780844014908607047F4
:1007D0000C0000201400002010B50848006840F00C
:1007E000100006490860032000F0E2F80F2000F036
:1007F00007F800F05FF8002010BD00000020024064
:100800002DE9F04188B004460027B846002600BF15
:100810002348C06940F004002149C8610846C06906
:1008200000F00400019000BF00BF02A903A800F07F
:1008300099F9069F1FB900F0BDF9054602E000F0E6
:10084000B9F945001748B5FBF0F0A0F101081648CA
:100850001649086040F2E7311448C160C0F80480CE
:10086000002101618160816100F020FC064696B99B
:100870000E4800F04FFC06466EB91E2000F04AF804
:10088000102C07D2002221461E2000F053F8084801
:10089000046000E00126304608B0BDE8F0810000A9
:1008A0000010024040420F00000800409C00002061
:1008B0001000002008B500BF1448806940F0010016
:1008C000124988610846806900F00100009000BF6D
:1008D00000BF00BF0846C06940F08050C8610846AC
:1008E000C06900F08050009000BF00BF00220F21BF
:1008F000901E00F01FF800BF0549486820F0E06036
:1009000040F00070486000BF08BD000000100240C9
:100910000000014001460846002809DB00F01F03E3
:1009200001229A4043099B0003F1E023C3F8002110
:1009300000BF70472DE9F05F80460D461646002740
:1009400000F0C2FE074639462A46334601F007004A
:10095000C0F1070ABAF1040F02D94FF0040A01E00E
:10096000C0F1070AD14600F1040ABAF1070F02D21A
:100970004FF0000A01E0A0F1030AD4464FF0010A4B
:100980000AFA09FAAAF1010A0AEA020A0AFA0CFAB0
:100990004FF0010B0BFA0CFBABF1010B0BEA030B55
:1009A0004AEA0B042146404600F096FEBDE8F09F5F
:1009B00000BF00F00702064B19684FF6FF0319400D
:1009C000044B0B4343EA0221014B196000BF7047FF
:1009D0000CED00E00000FA0570B504460D460CB9B8
:1009E000012070BD5A48006800F00700A8420ED2EE
:1009F0005748006820F0070028435549086008461A
:100A0000006800F00700A84201D00120E9E7207843
:100A100000F0020002281DD1207800F00400042814
:100A200005D14C48406840F4E0604A49486020786D
:100A300000F00800082805D14648406840F460509E
:100A4000444948604348406820F0F000A1680843EA
:100A500040494860207800F0010078B360680128C0
:100A600006D13C48006800F4003090B90120B8E796
:100A70006068022806D13748006800F0007040B96D
:100A80000120AEE73348006800F0020008B90120F9
:100A9000A7E73048406820F00300616808432D490B
:100AA0004860FFF787FE064609E0FFF783FE801BDC
:100AB00041F28831884202D9032092E707E02548B5
:100AC000406800F00C006168B0EB810FEDD1204868
:100AD000006800F00700A8420ED91D48006820F009
:100AE000070028431A4908600846006800F007001C
:100AF000A84201D0012074E7207800F00400042807
:100B000007D11448406820F4E060E16808431149C7
:100B10004860207800F00800082808D10D48406897
:100B200020F46050216940EAC1000A49486000F0A1
:100B300051F808494968C1F30311074A515CC8409C
:100B40000649086006480068FFF75AFE002048E79B
:100B50000020024000100240223800081800002047
:100B6000100000200F2202600D4A526802F00302BA
:100B700042600B4A526802F0F0028260084A5268F2
:100B800002F4E062C260064A526802F46052D2087F
:100B90000261044A126802F007020A60704700000E
:100BA0000010024000200240014800687047000029
:100BB0001800002000B5FFF7F7FF04494968C1F3AA
:100BC0000221034A515CC84000BD000000100240F1
:100BD0003238000870B500210022002400230020D4
:100BE000134D696801F00C05F5B1042D02D0082DF4
:100BF00019D101E00F4819E00F4DC1F38346AB5DF9
:100C000001F4803555B10A4D6D68C5F340450B4E72
:100C1000725D084D5D43B5FBF2F402E0084D03FB45
:100C200005F4204602E000BF024800BF00BF70BDCF
:100C30000010024000127A00103800082038000826
:100C400000093D00F8B504460CB90120F8BD207834
:100C500000F00100002878D0F848406800F00C004F
:100C600004280CD0F548406800F00C00082811D189
:100C7000F248406800F48030B0F5803F0AD1EF4878
:100C8000006800F4003000285FD0606800285CD164
:100C90000120DBE700BF6068B0F5803F06D1E74880
:100CA000006840F48030E549086028E0606858B981
:100CB000E248006820F48030E04908600846006897
:100CC00020F4802008601AE06068B0F5A02F0BD1F6
:100CD000DA48006840F48020D84908600846006877
:100CE00040F4803008600AE0D448006820F4803086
:100CF000D24908600846006820F48020086000BFE0
:100D0000606888B1FFF756FD054606E0FFF752FD23
:100D1000401B642801D9032098E7C848006800F404
:100D200000300028F2D010E0FFF744FD054606E051
:100D3000FFF740FD401B642801D9032086E7BF4828
:100D4000006800F400300028F2D1207800F00200A2
:100D5000022857D1B948406800F00C0050B1B7489C
:100D6000406800F00C00082818D1B448406800F42E
:100D7000803098B9B148006800F0020020B12069C5
:100D8000012801D0012061E7AC48006820F0F8009C
:100D9000616940EAC100A949086033E02069E8B10F
:100DA0000120A7490860FFF705FD054606E0FFF7AB
:100DB00001FD401B022801D9032047E79F48006836
:100DC00000F002000028F2D09C48006820F0F800F3
:100DD000616940EAC1009949086013E00020984920
:100DE0000860FFF7E7FC054606E0FFF7E3FC401B61
:100DF000022801D9032029E79048006800F002008A
:100E00000028F2D1207800F0080008282DD1A06930
:100E1000B8B101208B490860FFF7CCFC054606E01D
:100E2000FFF7C8FC401B022801D903200EE78348C6
:100E3000406A00F002000028F2D0012000F0A0FB80
:100E400013E000207F490860FFF7B4FC054606E088
:100E5000FFF7B0FC401B022801D90320F6E67748D3
:100E6000406A00F002000028F2D1207800F004006F
:100E7000042873D100277148C06900F0805070B910
:100E800000BF6E48C06940F080506C49C861084698
:100E9000C06900F08050009000BF00BF01276A4881
:100EA000006800F48070B0B96748006840F4807052
:100EB00065490860FFF77EFC054606E0FFF77AFC0F
:100EC000401B642801D90320C0E65F48006800F495
:100ED00080700028F2D000BFE068012806D1574892
:100EE000006A40F001005549086227E0E06858B9FF
:100EF0005248006A20F00100504908620846006A22
:100F000020F00400086219E0E06805280BD14B4886
:100F1000006A40F00400494908620846006A40F04F
:100F2000010008620AE04548006A20F001004349D8
:100F300008620846006A20F00400086200BFE0680A
:100F4000A0B1FFF737FC054609E0FFF733FC401B73
:100F500041F28831884202D9032077E622E03748FF
:100F6000006A00F002000028EFD012E0FFF722FC38
:100F7000054608E0FFF71EFC401B41F2883188421D
:100F800001D9032062E62D48006A00F00200002823
:100F9000F0D1012F05D12948C06920F080502749A0
:100FA000C86100BFE069C8B32448406800F00C0085
:100FB000082860D0E069022848D10020204908664E
:100FC000FFF7F8FB054606E0FFF7F4FB401B02289D
:100FD00001D903203AE61948006800F000700028A3
:100FE000F2D1206AB0F5803F07D11448406820F460
:100FF0000030A168084311494860D4E9080108435A
:101000000E49496821F4741108430C4948600120D5
:101010000B490866FFF7CEFB054607E03DE0FFF70A
:10102000C9FB401B022801D903200FE603480068D2
:1010300000F000700028F2D02FE000000010024005
:1010400000004242800442420070004000201449E7
:101050000866FFF7AFFB054606E0FFF7ABFB401B5A
:10106000022801D90320F1E50E48006800F0007065
:101070000028F2D111E0E069012800D1E6E5094835
:10108000466806F48031206A814204D106F470116A
:10109000606A814201D00120D8E50020D6E5000039
:1010A00000004242001002407047704710B50446ED
:1010B0000CB9012010BD94F83D0028B9002084F837
:1010C0003C00204600F025F8022084F83D00211D58
:1010D000206800F0B5FA012084F8460000BF84F8CB
:1010E0003E0001213F20015540200155412001557E
:1010F00000BF00BF012084F8420043200155442076
:1011000001554520015500BF012084F83D00002015
:10111000D0E77047014691F83D00012801D0012039
:101120007047022081F83D000868C06840F0010067
:101130000B68D860124B086898420BD00868B0F171
:10114000804F07D00F4B0868984203D00E4B0868B9
:1011500098420CD10868806800F00702062A0CD07B
:101160000868006840F001000B68186005E0086836
:10117000006840F001000B6818600020D0E7000014
:10118000002C01400004004000080040704770B58A
:1011900004462068C5682068066906F00200022837
:1011A00019D105F00200022815D1401F21680861FD
:1011B000012020772068806900F0030018B12046E4
:1011C000FFF7E4FF05E0204600F097F8204600F026
:1011D00095F80020207706F00400042819D105F0C6
:1011E0000400042815D1C04321680861022020773B
:1011F0002068806900F4407018B12046FFF7C6FFF0
:1012000005E0204600F079F8204600F077F800204D
:10121000207706F00800082819D105F008000828F2
:1012200015D1C04321680861042020772068C06977
:1012300000F0030018B12046FFF7A8FF05E02046A4
:1012400000F05BF8204600F059F80020207706F007
:101250001000102819D105F01000102815D1C04336
:1012600021680861082020772068C06900F4407078
:1012700018B12046FFF78AFF05E0204600F03DF850
:10128000204600F03BF80020207706F0010048B12E
:1012900005F0010030B16FF00100216808612046BF
:1012A00000F02EF806F08000802809D105F08000BB
:1012B000802805D1C043216808612046FFF7F4FE6D
:1012C00006F04000402809D105F04000402805D133
:1012D000C04321680861204600F01EF806F0200097
:1012E000202809D105F02000202805D1C04321681D
:1012F00008612046FFF7D9FE70BD704770470000B7
:1013000010B5044603492068884201D1FFF758FA16
:1013100010BD000000080040704700BFFEE700005D
:10132000002400BF00BF01F07FF94C48047801F0B1
:10133000A5F904214A48FFF72FFA00287DD114208F
:1013400001F098FA04214648FFF726FA0028F5D163
:1013500007E04FF0805043490860BFF34F8FBFF361
:101360006F8F04213E48FFF717FA0028F1D00B2CAD
:101370006ED2DFE804F06D0D0C0B0A090807062693
:10138000470000BF00BF00BF00BF00BF00BF00BFDD
:10139000002513E0012211023148FFF705FA4FF44E
:1013A0007A7001F067FA00224FF480712C48FFF741
:1013B000FBF94FF47A7001F05DFA6D1CA542E9DB90
:1013C00047E01BE001F030F92448047801F056F9B9
:1013D000092C00D014E0012291022148FFF7E4F922
:1013E0004FF47A7001F046FA00224FF480611C48F5
:1013F000FFF7DAF94FF47A7001F03CFA092CE1D0EA
:1014000000BF26E0002520E0012211021448FFF76A
:10141000CBF9012291021248FFF7C6F94FF47A7016
:1014200001F028FA00224FF480710D48FFF7BCF953
:1014300000224FF480610A4800E00BE0FFF7B4F9A6
:101440004FF47A7001F016FA6D1C032DDCDB00BF3F
:1014500000BF00BF322001F00DFA64E70400002055
:101460000008014004ED00E01CB5134A00211348B8
:1014700000F0F0F91249086000201821034680228C
:10148000CDE900100FA1124801F0BAFE002018218A
:1014900003468022CDE900100EA1114801F0B0FEF4
:1014A0000020182103468022CDE900100DA10F482D
:1014B00001F0A6FE1CBD0000CC370008A9150008ED
:1014C00008000020627574746F6E5461736B0000C5
:1014D0000917000873746174655461736B00000030
:1014E000A12400084C45445461736B00211300088B
:1014F00000B585B00020019002900390049000BFD9
:101500001B48806940F020001949886108468069BD
:1015100000F02000009000BF00BF00BF08468069B7
:1015200040F0040088610846806900F004000090E3
:1015300000BF00BF00224FF4A0610E48FFF734F94E
:1015400014200190002002900120039001A9094875
:10155000FEF792FF4FF4A06001900120029002205C
:101560000390049001A90348FEF786FF05B000BD73
:10157000001002400008014000BFFEE700BFFEE788
:1015800008B508490968C9084FF47A72B1FBF2F14D
:101590004143009100BF00BF00994A1E00920029FC
:1015A000F9D108BD1800002000BF012000F0FCF8B0
:1015B000FBE710B54FF0E020006901F0B1FE012813
:1015C00001D001F0FBFA10BD00B58FB0282105A8AD
:1015D000FEF7C5FE14216846FEF7C1FE0120059006
:1015E00000040690002007900120099002200C9032
:1015F000C1030D914FF4E0110E9105A8FFF722FBF6
:1016000008B1FEF735FF0F20009002200190002066
:1016100002904FF4806003900020049002216846FD
:10162000FFF7DAF908B1FEF723FF0FB000BD7047EE
:1016300010B50248FFF7ABFD10BD00009C00002074
:1016400010B502681C4B984208D0B0F1804F05D00D
:101650001A4B984202D01A4B984203D122F07002E2
:101660004B681A43144B984208D0B0F1804F05D014
:10167000124B984202D0124B984203D122F440728E
:10168000CB681A4322F080034C6943EA04020260EB
:101690008B68C3620B688362074B984201D10B6968
:1016A000036301234361036903F001031BB1036971
:1016B00023F00103036110BD002C01400004004031
:1016C0000008004000BFFEE702480068C0F30220A7
:1016D000704700000CED00E010B5002804DB0A079D
:1016E000130E054A135406E00A07140E034A00F0CD
:1016F0000F031B1FD45410BD00E400E018ED00E000
:10170000EFF305807047000000250026002400BF8D
:1017100010211B48FFF740F8F8B9142001F0AAF88F
:1017200010211748FFF738F898B907E04FF08050BC
:1017300014490860BFF34F8FBFF36F8F102110481B
:10174000FFF72AF80028F1D0FFF734F80646641CAA
:1017500011E0322001F08EF80DE0FFF72BF805467E
:10176000A81BB0F57A7F06D900F05EFF064804603A
:1017700000F084FF0024322001F07CF8C8E700006C
:101780000008014004ED00E000000020FFF724F80D
:10179000FFF71AFFFFF7ACFE00F016F8FFF764FE44
:1017A00000F028F800BFFEE770B50546FFF7A8FF78
:1017B00010B16FF0050404E0002415B1284601F0D3
:1017C00059F8204670BD000010B5FFF799FF10B121
:1017D0006FF0050409E00648006820B901200449BB
:1017E0000860002401E04FF0FF34204610BD0000E7
:1017F0006C00002070B5FFF783FF10B16FF0050497
:101800001FE011480068012819D100BF801F002186
:10181000002804DB0A07130E0C4A135406E00A07DB
:10182000150E0B4A00F00F031B1FD55400BF00BF5D
:1018300002200549086001F099F8002401E04FF00A
:10184000FF34204670BD00006C00002000E400E082
:1018500018ED00E02DE9FF47804689461446002038
:101860000390FFF74DFF00284ED1B8F1000F4BD089
:10187000802618258246471E44B3206808B1D4F854
:1018800000A0A06900B1A5692DB1382D03D8207939
:1018900000F0010018B1002004B0BDE8F0876069D5
:1018A00008B160698608A06840B1E0685C2805D38B
:1018B000206918B1606908B1012708E0A06830B953
:1018C000E06820B9206910B9002700E00027012F47
:1018D0000CD12169A0684B463246CDE900510290F7
:1018E0005146404601F0BEFC03900DE067B903A8E5
:1018F000B2B24B465146CDE90050404601F080FC63
:10190000012801D0002003900398C5E72DE9F0419C
:1019100005460E461648076816480068001D00F088
:1019200021FE681C38B936B112480168091D1248F9
:1019300000F06EFE1AE07C190E4800684460BC425C
:1019400007D20C480168091D0C48006800F046FEEB
:101950000CE008480168091D0948006800F03EFED7
:1019600008480068844201D206480460BDE8F0815E
:10197000300000201C000020D4050020240000209E
:10198000200000204C00002010B5044600F04CFE62
:1019900024480068401C234908602348006840B977
:1019A000214804600846006801280DD100F0FCF9C8
:1019B0000AE01E48006838B91B480068C06AE16A3E
:1019C000884201D81848046019480068401C18492A
:1019D00008600846006860641649E06A0968884241
:1019E00002D91449E06A0860E16A01EB8101124AF8
:1019F00002EB8100211D00F00BFE00F03FFE0B48C2
:101A0000006868B108480068C06AE16A884207D285
:101A10004FF0805009490860BFF34F8FBFF36F8FBD
:101A200010BD00002C0000201C0000203800002009
:101A300048000020340000202401002004ED00E0D4
:101A400008B500F0F1FD12480068E8B9114800F04F
:101A5000B5FD114800F0B2FD0E48104908600E486F
:101A60000F49086000200F4B0F4A102100900A20F8
:101A700001F0BEF8064908600846006820B10BA1D5
:101A80000348006800F0BAFE00F0F8FD08BD000051
:101A900060000020E8050020FC0500205800002020
:101AA0005C0000201006002060060020546D72517A
:101AB0000000000010B516E000F0B6FD0C48C0684C
:101AC000C468201D00F04EFD0A480068401E094908
:101AD000086009480068401E0749086000F0CEFD14
:101AE000204600F05FF8044800680028E4D110BDEB
:101AF000C00500202C0000202800002070B50446FE
:101B00000D46206C70B1216CE0680144E160D4E9BD
:101B10000210884201D32168E1602846226CE16806
:101B2000FEF79EFB70BD2DE9F04104460F461546B9
:101B30004FF00008A66B206C48B9206800282CD113
:101B4000A06801F0A5FC80460020A06025E07DB9DA
:101B50003946226C6068FEF783FB216C606808449C
:101B60006060D4E90101884217D32068606014E006
:101B70003946226CE068FEF773FB216CE068411A7D
:101B8000E1602168E068884203D2216CA068411AB4
:101B9000E160022D01D106B1761E701CA0634046A3
:101BA000BDE8F08110B5044694F8590030B9206BB7
:101BB00000F082FD204600F07FFD1AE094F8590005
:101BC000012803D1204600F077FD12E094F8590077
:101BD000022801D1012000E0002050B900BF5020B0
:101BE00080F31188BFF34F8FBFF36F8F00BF00BF2B
:101BF000FEE710BD0146084A126812680AB90122C0
:101C000000E000220A600A6822B9034A1268D2681A
:101C1000106800E0002070475800002030B54FF4F5
:101C20004063174800F007042CB1C01D20F00700E6
:101C3000134C041B1B1B0246124C22600024114D46
:101C40006C60D018083820F007000F4C206000248A
:101C50000D4D2D686C600C4D2D682C601146441A9A
:101C60004C60094C24680C60084D4C682C60084D91
:101C70004C682C604FF00044064D2C6030BD0000D5
:101C8000B80D0020700000207800002080000020A7
:101C90007C0000208C00002000BFFFF70BFF0648EF
:101CA00000680128F9D94FF0805004490860BFF35B
:101CB0004F8FBFF36F8FF0E72401002004ED00E0A9
:101CC0002DE9F04106460D4617469846069C0DB98B
:101CD000246000E02760E66325640121204600F0CF
:101CE000F7FF84F84C80BDE8F0812DE9F05F824673
:101CF0000E4690469B460A9F0C9C4FEA8801A522FF
:101D0000206BFEF724FBA8F10100216B01EB800999
:101D100029F0070909F0070008B9012000E00020B8
:101D200050B900BF502080F31188BFF34F8FBFF32D
:101D30006F8F00BF00BFFEE786B1002507E0715D31
:101D400004F134004155705D00B902E06D1C102DA6
:101D5000F5D300BF00214320015502E0002084F8A4
:101D60003400382F00D33727E762E764002020656E
:101D7000201D00F030FC04F1180000F02CFC246160
:101D8000C7F13800A06164620020606584F85800E3
:101D90005A465146484600F071FB20600B9808B146
:101DA0000B980460BDE8F09F10B5002407E004EB39
:101DB00084010F4A02EB810000F000FC641C382C07
:101DC000F5D30C4800F0FAFB0B4800F0F7FB0B488A
:101DD00000F0F4FB0A4800F0F1FB0A4800F0EEFBCB
:101DE00004480949086004480849086010BD00001B
:101DF000240100208405002098050020AC05002067
:101E0000C0050020D4050020200000202400002070
:101E100010B50146164800E0006803688B42FBD30A
:101E20000246436813448B4204D143684C68234400
:101E3000436001460A464B6813440468A34211D12B
:101E40000C4C03682468A34208D04B68046864689B
:101E500023444B6003681B680B6005E0054B1B685F
:101E60000B6001E003680B60884200D0016010BD88
:101E700070000020780000202DE9F04104460D4656
:101E800016461F464FF0000865602461B5420CD825
:101E9000F01BA169884202D34FF0010811E0211D17
:101EA0000948006800F09AFB0BE0BE4204D2BD4234
:101EB00002D34FF0010804E0211D0448006800F03F
:101EC0008DFB4046BDE8F0815C00002058000020FA
:101ED00070B5054600F0A8FBA86B08B9012400E026
:101EE000002400F0CBFB204670BD70B5054600F025
:101EF0009BFBA86BE96B884201D1012400E0002420
:101F000000F0BCFB204670BDF8B505460F461A48E8
:101F10000068C068C468201D00F024FB94F8280005
:101F200000F00400E8B1A06941192B463A4620466A
:101F3000FFF7A2FFD8B1002003462A4601460090D1
:101F4000204601F001FC064656B900BF502080F340
:101F50001188BFF34F8FBFF36F8F00BF00BFFEE745
:101F600005E094F8280020F0010084F828002046BD
:101F7000216A8847F8BD000058000020F0B587B0FE
:101F8000A0E00398002811DA04AE56B900BF502033
:101F900080F31188BFF34F8FBFF36F8F00BF00BF77
:101FA000FEE7D6E90020B168904700BF03980028FB
:101FB000E6DB059C606908B9012000E0002010B94B
:101FC000201D00F0CFFA02A800F0DEF805460398C5
:101FD0000A2875D2DFE800F00905073941630608D1
:101FE0003A4200BF00BF00BF00BF94F8280040F095
:101FF000010084F828000498A269811803462A4643
:102000002046FFF739FFF8B12046216A884794F847
:10201000280000F00400B8B1002000900498A169E5
:10202000421800231946204601F08EFB074657B997
:1020300000BF502080F31188BFF34F8FBFF36F8F25
:1020400000BF00BFFEE700BF3BE000BF94F82800E0
:1020500020F0010084F8280033E000BF94F8280045
:1020600040F0010084F828000498A061A06908B13C
:10207000012000E0002050B900BF502080F31188FB
:10208000BFF34F8FBFF36F8F00BF00BFFEE7A069A4
:1020900041192B462A462046FFF7EEFE11E094F840
:1020A000280000F0020018B9204600F005FB05E00A
:1020B00094F8280020F0010084F8280001E0FFE7F0
:1020C00000BF00BF002203A90448006800F09EFF83
:1020D00000287FF456AF07B0F0BD0000600000207C
:1020E000F8B505460C4600F09DFC684600F04CF83B
:1020F0000646009820BB44B9B54206D801F066FAFE
:1021000031462846FFF700FF1CE03CB10E4800684E
:10211000006808B9012000E000200446A91B2246FF
:102120000A48006800F080FB01F050FA50B94FF007
:10213000805007490860BFF34F8FBFF36F8F01E0F6
:1021400001F044FAF8BD00005C00002060000020AF
:1021500004ED00E00A490968096809B9012100E0B5
:10216000002121B14FF0FF31064A116006E0044919
:102170000968C968C868034A41681160704700006F
:10218000200000204C00002070B5044601F0D8F873
:10219000054607480068854204D200F00BF801208C
:1021A000206001E00020206001480560284670BDE5
:1021B000680000202DE9F84334E025480068C06835
:1021C000056823480068C068C468201D00F0CAF98B
:1021D0002046216A884794F8280000F0040008B3DC
:1021E000A0694619AE4207D966602461211D1848CE
:1021F000006800F0F3F915E0002003462A46014686
:102200000090204601F0A0FA074657B900BF5020C1
:1022100080F31188BFF34F8FBFF36F8F00BF00BFF4
:10222000FEE700BF0A480068006808B9012000E026
:1022300000200028C1D00648D0F80080054800687A
:10224000034908600348C0F80080BDE8F883000037
:10225000580000205C0000200E480068401C08B9AF
:10226000012000E0002050B900BF502080F3118809
:10227000BFF34F8FBFF36F8F00BF00BFFEE700BFFC
:10228000502080F31188BFF34F8FBFF36F8F00BFD3
:1022900000BFFEE79000002008B500BF6846FFF7CA
:1022A000A9FC044620460099FFF71AFFFFF766FED7
:1022B000F4E770B5044600F0B7F994F9455010E022
:1022C000606A08B9012000E0002038B904F1240058
:1022D00001F030F918B100F007FB00E003E0681EE0
:1022E00045B2002DECDC00BFFF2084F8450000F073
:1022F000C5F900F099F994F9445010E0206908B943
:10230000012000E0002048B904F1100001F012F9AA
:1023100008B100F0E9FA681E45B200E001E0002DC6
:10232000ECDC00BFFF2084F8440000F0A7F970BD8A
:102330002DE9F04104464FF0000800F073FB4948D6
:10234000006808B9FFF76AFC474800682040002889
:1023500070D1D4B1083404F00700B0B104F0070024
:10236000C0F10800044404F0070008B9012000E0AF
:10237000002050B900BF502080F31188BFF34F8F69
:10238000BFF36F8F00BF00BFFEE7002C52D037486D
:10239000006884424ED8364E3046056801E02E462D
:1023A0002D686868A04202D228680028F7D12D481D
:1023B000006885423ED0306800F108082868306027
:1023C0006868001B102819D92F1907F0070008B9F1
:1023D000012000E0002050B900BF502080F3118898
:1023E000BFF34F8FBFF36F8F00BF00BFFEE768687A
:1023F000001B78606C603846FFF70AFD1B4968686F
:102400000968081A194908600846006819490968E6
:10241000884203D215480068164908601249686866
:102420000968084368600020286013480068401C61
:102430001149086001F0CAF808F0070008B9012046
:1024400000E0002050B900BF502080F31188BFF396
:102450004F8FBFF36F8F00BF00BFFEE74046BDE860
:10246000F0810000780000208C0000207C0000201B
:10247000700000208000002084000020001F4FF02A
:1024800080730360001F21F001030360001F034BF2
:102490000360143802602038704700005922000899
:1024A00088B0002520222C496846FDF71EFF00BF9A
:1024B00000F0BAF82948046800F0E0F8082D08DBBD
:1024C000002500F0B1F80A202549087000F0D6F880
:1024D0003DE0002C3BD05DF82500A0422FD100F05C
:1024E000A3F8092C26D2DFE804F02505090D111503
:1024F000191D210001201A4908701BE0022018490B
:10250000087017E003201649087013E004201449EE
:1025100008700FE00520124908700BE006201049F2
:10252000087007E007200E49087003E008200C49F6
:10253000087000BF00BF00F0A1F86D1C07E000F0BC
:1025400073F809200649087000F098F80025322039
:1025500000F090F9ACE70000F03700080000002020
:102560000400002001460A69D1E901309860D1E9F0
:10257000010358605068884201D18868506000208B
:1025800008611068401E106010687047034B0360BC
:10259000034B0B608023136070470000000700208E
:1025A0005C070020034B0360034B0B604FF4807308
:1025B000136070475C090020B809002000F1080191
:1025C00041604FF0FF31816000F10801C16001619D
:1025D00000210160704700210161704710B502467B
:1025E0000B685C1C0CB9106907E002F1080000E000
:1025F0004068446824689C42FAD944684C604C683E
:10260000A160886041600A611468641C146010BD98
:1026100042684A6093688B60936859609160086172
:1026200003685B1C0360704700BF502080F3118873
:10263000BFF34F8FBFF36F8F00BF0E480068401C81
:102640000C49086008460068012812D10A48006851
:10265000C0B208B9012000E0002050B900BF5020EE
:1026600080F31188BFF34F8FBFF36F8F00BF00BFA0
:10267000FEE770479000002004ED00E00D48006880
:1026800050B900BF502080F31188BFF34F8FBFF3C4
:102690006F8F00BF00BFFEE706480068401E054977
:1026A00008600846006820B9002080F3118800BF48
:1026B00000BF70479000002070B506463546002EDA
:1026C00044D0083D2C46224960680968084008B19A
:1026D000012000E0002050B900BF502080F3118895
:1026E000BFF34F8FBFF36F8F00BF00BFFEE72068BF
:1026F00008B9012000E0002050B900BF502080F34D
:102700001188BFF34F8FBFF36F8F00BF00BFFEE78D
:102710000F49606809680840C0B12068B0B90C4929
:10272000606809688843606000F07CF90949606866
:1027300009680844074908602046FFF769FB064816
:102740000068401C0449086000F040FF70BD0000B4
:102750008C0000207C0000208800002000204FF02A
:10276000E02108618861064800684FF47A71B0FB87
:10277000F1F0401E4FF0E0214861072008617047EA
:102780001800002070B5FDF747FD0446102C16D345
:1027900004F1E02090F8F05315480078854201DB01
:1027A000012000E0002050B900BF502080F31188C4
:1027B000BFF34F8FBFF36F8F00BF00BFFEE70D4821
:1027C000006800F4E0600C490968884201D80120E3
:1027D00000E0002050B900BF502080F31188BFF303
:1027E0004F8FBFF36F8F00BF00BFFEE770BD0000CB
:1027F000940000200CED00E098000020024600202C
:102800000BE0084B53F8303033B9064B43F8301027
:1028100003EBC0035A6002E0401C0828F1D300BF5C
:1028200070470000E40000202DE9F04105460E4607
:1028300017462C46FFF7F8FE94F94400401C10B9E7
:10284000002084F8440094F94500401C10B9002091
:1028500084F84500FFF712FFA06B28B93A463146CD
:1028600004F1240000F062F82046FFF722FDBDE8E5
:10287000F081000070B504460025D4B1124800680C
:1028800008B9012000E0002050B900BF502080F3BB
:102890001188BFF34F8FBFF36F8F00BF00BFFEE7FC
:1028A00000F0C0F800212046FFF730F800F08EFE5F
:1028B00005463DB94FF0805004490860BFF34F8F83
:1028C000BFF36F8F70BD00005400002004ED00E0E6
:1028D00003490968016003490968416070470000C5
:1028E00044000020300000200120014908607047AA
:1028F0004000002070B504460D4654B900BF50207A
:1029000080F31188BFF34F8FBFF36F8F00BF00BFFD
:10291000FEE70548016818312046FFF75FFE0121F8
:102920002846FEF7F3FF70BD1C00002070B5054679
:102930000E46144655B900BF502080F31188BFF3EE
:102940004F8FBFF36F8F00BF00BFFEE706480168DF
:1029500018312846FFF75CFE0CB14FF0FF362146D8
:102960003046FEF7D3FF70BD1C00002010B586B0C6
:1029700000200590049003AA04A905A8FFF706FE0D
:102980000022DDE904101346CDE9002102901EA1CA
:102990001F48039A00F066FC1E490860084600685C
:1029A00008B1012400E00024012C02D100F090FEC7
:1029B0000446012C15D100BF502080F31188BFF3CD
:1029C0004F8FBFF36F8F00BF4FF0FF301249086089
:1029D00001201249086000201149086000F072F8D7
:1029E00010E0601C08B1012000E0002050B900BFD9
:1029F000502080F31188BFF34F8FBFF36F8F00BF5C
:102A000000BFFEE706B010BD49444C450000000081
:102A1000991C0008500000204C00002038000020C5
:102A20003000002002480068401C014908607047DF
:102A3000540000201E48006818B101201D4908609C
:102A400034E000201B4908601B4801680CE051B9C4
:102A500000BF502080F31188BFF34F8FBFF36F8FFB
:102A600000BF00BFFEE7491E01EB8100134A52F888
:102A7000200008B9012000E000200028E7D101EB88
:102A800081020E4B03EB820042685268426000F103
:102A900008024368934202D1426852684260426829
:102AA000D268074B1A600448016000BF70470000FD
:102AB00054000020400000203400002024010020A9
:102AC0001C0000201CB53849084600780190FF2002
:102AD0000A4610700846007800909DF8000000F04B
:102AE000F0009DF80020904201D1012000E000207C
:102AF00050B900BF502080F31188BFF34F8FBFF350
:102B00006F8F00BF00BFFEE79DF8000000F050008F
:102B1000264A10700720264A106009E02448006801
:102B2000401E234A10609DF800004006000E0090F1
:102B30009DF8000000F080008028EFD01C4800685D
:102B4000C0F10700042801D1012000E0002050B9A5
:102B500000BF502080F31188BFF34F8FBFF36F8FFA
:102B600000BF00BFFEE7124800680002104A106074
:102B70001046008800F4E06010600B4A0198107065
:102B80000C48006840F470000A4908600846006874
:102B900040F070400860FFF7E1FD00200649086042
:102BA000FDF704FB00201CBD00E400E094000020C1
:102BB0009800002020ED00E09000002010B500BF3C
:102BC000502080F31188BFF34F8FBFF36F8F00BF8A
:102BD00000F0BCFB18B14FF080500449086000BF02
:102BE000002080F3118800BF10BD000004ED00E05C
:102BF0002DE9F84380460E4617461D46DDF8209025
:102C0000B8F1000F01D0012000E0002050B900BF52
:102C1000502080F31188BFF34F8FBFF36F8F00BF39
:102C200000BFFEE70DB1012000E0002050B900BF59
:102C3000502080F31188BFF34F8FBFF36F8F00BF19
:102C400000BFFEE707B10EB1012000E0002050B93F
:102C500000BF502080F31188BFF34F8FBFF36F8FF9
:102C600000BF00BFFEE707B90EB9012000E0002059
:102C700050B900BF502080F31188BFF34F8FBFF3CE
:102C80006F8F00BF00BFFEE75020009000985028D3
:102C900001D1012000E0002050B900BF502080F396
:102CA0001188BFF34F8FBFF36F8F00BF00BFFEE7E8
:102CB00000BF2C464CB1012084F846004B463A46F2
:102CC000314640460094FEF7FBFF2046BDE8F883FE
:102CD00070B505460E462C4654B900BF502080F30F
:102CE0001188BFF34F8FBFF36F8F00BF00BFFEE7A8
:102CF000FFF79AFCD4E90F12206801FB0200A060E4
:102D00000020A06320686060E06B401E226C216898
:102D100000FB0211E160FF2084F8440084F84500C4
:102D20009EB9206908B9012000E00020A8B904F18B
:102D3000100000F0FFFB80B14FF08050094908609F
:102D4000BFF34F8FBFF36F8F07E004F11000FFF761
:102D500035FC04F12400FFF731FCFFF78FFC012064
:102D600070BD000004ED00E02DE9FF4383B006468E
:102D700088461D464FF00009344654B900BF502024
:102D800080F31188BFF34F8FBFF36F8F00BF00BF79
:102D9000FEE7B8F1000F01D1206C08B9012000E076
:102DA000002050B900BF502080F31188BFF34F8F2F
:102DB000BFF36F8F00BF00BFFEE7022D02D1E06BB3
:102DC000012801D1012000E0002050B900BF5020AF
:102DD00080F31188BFF34F8FBFF36F8F00BF00BF29
:102DE000FEE700F09DFA08B9059808B9012000E057
:102DF000002050B900BF502080F31188BFF34F8FDF
:102E0000BFF36F8F00BF00BFFEE700BFFFF70CFCF2
:102E1000A06BE16B884201D3022D28D12A4641469E
:102E20002046FEF780FE0746606A08B9012000E0F0
:102E3000002068B904F1240000F07CFB88B14FF059
:102E4000805032490860BFF34F8FBFF36F8F08E0A7
:102E50003FB14FF080502D490860BFF34F8FBFF353
:102E60006F8FFFF70BFC012007B0BDE8F0830598DA
:102E700018B9FFF703FC0020F6E7B9F1000F04D101
:102E800001A8FFF725FD4FF00109FFF7F7FBFFF75A
:102E9000C9FDFFF7C9FB94F94400401C10B900209C
:102EA00084F8440094F94500401C10B9002084F8CF
:102EB0004500FFF7E3FB05A901A800F05BF9F0B9B5
:102EC0002046FFF712F8A0B104F110000599FFF7B2
:102ED00011FD2046FFF7EDF900F078FB002895D1B1
:102EE0004FF0805009490860BFF34F8FBFF36F8FD9
:102EF0008CE72046FFF7DDF900F068FB86E7204607
:102F0000FFF7D7F900F062FB0020ADE704ED00E029
:102F10002DE9F84F07468A4690461E463C4654B96E
:102F200000BF502080F31188BFF34F8FBFF36F8F26
:102F300000BF00BFFEE7BAF1000F01D1206C08B955
:102F4000012000E0002050B900BF502080F311881C
:102F5000BFF34F8FBFF36F8F00BF00BFFEE7022E9E
:102F600002D1E06B012801D1012000E0002050B91E
:102F700000BF502080F31188BFF34F8FBFF36F8FD6
:102F800000BF00BFFEE7FFF7FDFB00BF5021EFF3DE
:102F9000118081F31188BFF34F8FBFF36F8F00BF94
:102FA0000546A06BE16B884201D3022E25D194F92E
:102FB00045B0A06B0090324651462046FEF7B3FD67
:102FC0000BF1010088B9606A08B9012000E0002017
:102FD00050B904F1240000F0ADFA28B1B8F1000FA7
:102FE00002D00120C8F8000004E00BF1010040B25B
:102FF00084F845004FF0010901E04FF0000900BFDF
:1030000085F3118800BF4846BDE8F88F2DE9F741E8
:1030100083B005460E464FF000082C4654B900BF59
:10302000502080F31188BFF34F8FBFF36F8F00BF25
:1030300000BFFEE70EB9206C08B9012000E00020B7
:1030400050B900BF502080F31188BFF34F8FBFF3FA
:103050006F8F00BF00BFFEE700F062F908B9059866
:1030600008B9012000E0002050B900BF502080F3D3
:103070001188BFF34F8FBFF36F8F00BF00BFFEE714
:1030800000BFFFF7D1FAA76BF7B131462046FEF734
:1030900035FD781EA063206908B9012000E00020FA
:1030A00060B904F1100000F045FA38B14FF08050DB
:1030B0002F490860BFF34F8FBFF36F8FFFF7DEFA22
:1030C000012006B0BDE8F081059818B9FFF7D6FADF
:1030D0000020F6E7B8F1000F04D101A8FFF7F8FBD4
:1030E0004FF00108FFF7CAFAFFF79CFCFFF79CFAC4
:1030F00094F94400401C10B9002084F8440094F96D
:103100004500401C10B9002084F84500FFF7B6FACE
:1031100005A901A800F02EF8F0B92046FEF7D8FE68
:10312000A0B104F124000599FFF7E4FB2046FFF766
:10313000C0F800F04BFA0028A3D14FF080500C49A2
:103140000860BFF34F8FBFF36F8F9AE72046FFF7FA
:10315000B0F800F03BFA94E72046FFF7AAF800F039
:1031600035FA2046FEF7B4FE00288AD00020A8E7F2
:1031700004ED00E070B505460C4655B900BF50207F
:1031800080F31188BFF34F8FBFF36F8F00BF00BF75
:10319000FEE754B900BF502080F31188BFF34F8F72
:1031A000BFF36F8F00BF00BFFEE7FFF73DFA124885
:1031B00002686868131A2068401C08B9002617E0E6
:1031C0000E4928680968884204D06868904201D88E
:1031D00001260DE02068984207D92068C01A2060B7
:1031E0002846FFF775FB002602E00020206001263C
:1031F000FFF744FA304670BD300000204400002044
:103200002DE9FF4F85B0804689461746DDE912ABB0
:10321000B800FFF78DF8064656B15C20FFF788F836
:1032200004460CB1266304E03046FFF745FA00E09F
:1032300000248CB1002084F85900CDE900ABCDE921
:1032400002403A4649464046089BFEF74EFD20465E
:10325000FEF79AFB012501E04FF0FF35284609B043
:10326000BDE8F08F2DE9F04F85B0074688469146BE
:103270009A46DDE90EB6109C0EB1012000E0002058
:1032800050B900BF502080F31188BFF34F8FBFF3B8
:103290006F8F00BF00BFFEE70CB1012000E00020EF
:1032A00050B900BF502080F31188BFF34F8FBFF398
:1032B0006F8F00BF00BFFEE75C20039003985C287F
:1032C00001D1012000E0002050B900BF502080F360
:1032D0001188BFF34F8FBFF36F8F00BF00BFFEE7B2
:1032E00000BFB4B1AEB125462C462E63022085F84E
:1032F0005900002004A953464A46CDE900B1CDE962
:10330000025041463846FEF7F0FC2846FEF73CFBEB
:1033100001E000200490049805B0BDE8F08F0000A3
:103320000549096809B9012005E00449096809B996
:10333000022000E0002070473800002054000020E8
:103340000149086870470000300000202DE9F04175
:103350004FF000084348006800287BD142480068CD
:10336000451C4148056015BB40480068006808B925
:10337000012000E0002050B900BF502080F31188E8
:10338000BFF34F8FBFF36F8F00BF00BFFEE737481B
:103390000768374800683549086035480760354890
:1033A0000068401C33490860FEF7D4FE00BF324875
:1033B000006885423BD300BF2C480068006808B90C
:1033C000012000E0002020B14FF0FF302A490860C2
:1033D0002CE026480068C068C4686668B54202D21E
:1033E0002548066022E0201DFFF7BCF8A06A18B14E
:1033F00004F11800FFF7B6F82049E06A096888422E
:1034000002D91E49E06A0860E16A01EB81011C4AA9
:1034100002EB8100211DFFF7FBF81A49E06A0968F9
:10342000C96A8842C8D34FF00108C5E700BF1548F4
:103430000068C06A00EB8000114951F820000128A3
:1034400001D94FF001081048006808B14FF0010899
:1034500005E0FFE70D480068401C0C490860404645
:10346000BDE8F08154000020300000202000002042
:1034700024000020440000204C00002034000020E4
:10348000240100201C000020400000203C000020FF
:1034900070B505462C460026002D43D02248006812
:1034A000844201D1012000E0002050B900BF50202B
:1034B00080F31188BFF34F8FBFF36F8F00BF00BF42
:1034C000FEE7206D50B900BF502080F31188BFF394
:1034D0004F8FBFF36F8F00BF00BFFEE7206D401E10
:1034E0002065E16CE06A88421CD0206DD0B9201DB7
:1034F000FFF738F8E06CE062E06AC0F13800A061E4
:103500000A49E06A0968884202D90849E06A086005
:10351000E16A01EB8101064A02EB8100211DFFF700
:1035200077F80126304670BD1C00002034000020D2
:103530002401002070B50646F068C46854B900BF85
:10354000502080F31188BFF34F8FBFF36F8F00BF00
:1035500000BFFEE704F11800FFF704F81548006803
:10356000A0B9201DFEF7FEFF1349E06A09688842F2
:1035700002D91149E06A0860E16A01EB81010F4A52
:1035800002EB8100211DFFF743F804E004F118016C
:103590000B48FFF73DF80B49E06A0968C96A8842A1
:1035A00004D9012501200849086000E000252846CB
:1035B00070BD0000540000203400002024010020D1
:1035C000AC0500201C0000204000002070B5002445
:1035D00000263648006850B900BF502080F311889B
:1035E000BFF34F8FBFF36F8F00BF00BFFEE7FFF742
:1035F0001BF82E480068401E2C49086008460068E9
:1036000000284ED12A48006800284AD023E02948E3
:10361000C068C46804F11800FEF7A4FF201DFEF77F
:10362000A1FF2549E06A0968884202D92249E06A77
:103630000860E16A01EB8101204A02EB8100211D53
:10364000FEF7E6FF1E49E06A0968C96A884202D3AC
:1036500001201C4908601748006808B9012000E0F3
:1036600000200028D3D00CB1FEF774FD1648056881
:1036700065B100BFFFF76AFE10B101201149086073
:103680006D1E002DF6D100200F4908600D4800681E
:1036900038B1012630070D490860BFF34F8FBFF3E3
:1036A0006F8FFEF7EBFF304670BD00005400002026
:1036B0002C000020AC050020340000202401002054
:1036C0001C000020400000203C00002004ED00E031
:1036D00010B586B00024FEF7B3F916480068D0B1E3
:1036E00000200590049003AA04A905A8FEF75AFF3C
:1036F0000222DDE904100023CDE9002102900EA191
:103700000F48039AFFF7AEFD0E49086008460068AF
:1037100000B1012400BF54B900BF502080F31188CC
:10372000BFF34F8FBFF36F8F00BF00BFFEE7204690
:1037300006B010BD60000020546D72205376630007
:1037400099220008640000202DE9FF4704460D4639
:1037500016461F46DDF830804FF0000954B900BF0F
:10376000502080F31188BFF34F8FBFF36F8F00BFDE
:1037700000BFFEE71448006810B30095019602945C
:10378000062D15DAFFF7CCFD022808D100234246AA
:1037900069460D480068FFF7E7FA814610E000230C
:1037A0001A46694608480068FFF7DEFA814607E0D6
:1037B00000233A46694604480068FFF7A9FB8146A2
:1037C000484604B0BDE8F087600000203C3800089F
:1037D00000000000000000000000000000000000E9
:1037E00000020000180000000000000000000000BF
:1037F00004000000060000000800000001000000B6
:1038000005000000030000000200000007000000A7
:1038100002030405060708090A0B0C0D0E0F101011
:10382000010200000000000000000102030406077E
:1038300008090000000001020304000064656661DD
:10384000756C745461736B006838000800000020C8
:103850009C00000028010008043900089C0000209A
:103860007C1F000044010008000000000000000070
:103870000000000000000000100000000100000037
:1038800000127A00000000000000000000000000AC
:103890000000000000000000000000000000000028
:1038A0000000000000000000000000000000000018
:1038B0000000000000000000000000000000000008
:1038C00000000000000000000000000000000000F8
:1038D00000000000000000000000000000000000E8
:1038E00000000000000000000000000000000000D8
:1038F0000000000000000000AAAAAAAA0000000020
:0439000000000000C3
:04000005080000ED02
:00000001FF
