:020000040800F2
:100000003007002089010008111B0008431A00086E
:100010000D1B00088F020008C91D00080000000029
:10002000000000000000000000000000411B00086C
:100030003D03000800000000151B0008431B0008DA
:10004000A3010008A3010008A3010008A301000800
:10005000A3010008A3010008A3010008A3010008F0
:10006000A3010008A3010008A3010008A3010008E0
:10007000A3010008A3010008A3010008A3010008D0
:10008000A3010008A3010008A3010008A91D00089E
:10009000B91D000895020008A3010008A30100088B
:1000A000A3010008A3010008A3010008A3010008A0
:1000B000A3010008A3010008A3010008A301000890
:1000C000A3010008A3010008A3010008A301000880
:1000D000A3010008A3010008A3010008A301000870
:1000E000A3010008A3010008A301000800F002F822
:1000F00000F03AF80AA090E8000C82448344AAF188
:100100000107DA4501D100F02FF8AFF2090EBAE885
:100110000F0013F0010F18BFFB1A43F0010318473B
:10012000381D0000581D0000103A24BF78C878C15F
:10013000FAD8520724BF30C830C144BF04680C60ED
:10014000704700000023002400250026103A28BF35
:1001500078C1FBD8520728BF30C148BF0B60704739
:100160001FB51FBD10B510BD00F058F81146FFF7C0
:10017000F7FF01F047FE00F076F803B4FFF7F2FF57
:1001800003BC00F07DF8000009488047094800479B
:10019000FEE7FEE7FEE7FEE7FEE7FEE7FEE7FEE737
:1001A000FEE7FEE704480549054A064B7047000094
:1001B000B11B0008ED0000083001002030070020CE
:1001C00030030020300300204FF0000200B513463A
:1001D00094469646203922BFA0E80C50A0E80C5067
:1001E000B1F12001BFF4F7AF090728BFA0E80C5018
:1001F00048BF0CC05DF804EB890028BF40F8042B11
:1002000008BF704748BF20F8022B11F0804F18BF7D
:1002100000F8012B7047704770477047754600F033
:100220002BF8AE4605006946534620F00700854688
:1002300018B020B5FFF7B6FFBDE820404FF000062C
:100240004FF000074FF000084FF0000B21F00701BE
:10025000AC46ACE8C009ACE8C009ACE8C009ACE801
:10026000C0098D46704710B50446AFF300802046A4
:10027000BDE81040FFF781BF00487047CC00002068
:1002800001491820ABBEFEE726000200704700BF00
:10029000FEE7000010B5024800F073FA10BD000040
:1002A0005C00002010B58AB000200590049042F256
:1002B00060000090002001904FF6FF700290002037
:1002C00003900690012007900E20099001200890CD
:1002D0006946094800F0F0F803242146064800F07A
:1002E00031F8054800F09DFC034800F035FA0A207B
:1002F00000F0DEFC0AB010BD5C00002010B540F23A
:1003000003100A49086002200861002048608860E4
:10031000C86003200649087000204870054B0A4653
:100320000249054800F023F810BD00002800002015
:1003300000000020100000205C000020704772B612
:1003400000BFFEE710B5024692F82030012B01D025
:10035000022B06D1106840690843146860610020D0
:1003600010BD506A40F4802050620120F8E7F0B5DB
:1003700004460D461E4694F8207020688368A868DD
:1003800000B900E000BF012F01D0022F7DD103F0A2
:10039000806030B903F0006018B903F08050002885
:1003A0007ED0C3F30161012088403060A86860B945
:1003B000B5F800C0E86840EA4C5C206800F5C07001
:1003C00000EB0110C0F800C00FE0D5E901C040EA21
:1003D000CC00D5F80CC040EA0C00D4F800C00CF5F5
:1003E000C07C0CEB011CCCF80000D5F810C02068D4
:1003F00000F5C07000EB0110C0F804C0287D012892
:100400000ED1206800F5C07000EB0110406840F488
:10041000807C206800F5C07000EB0110C0F804C0BB
:10042000D079000692F806C040EA0C4092F805C068
:1004300040EA0C2092F804C040EA0C00D4F800C056
:100440000CF5C07C0CEB011CCCF80C00D07800063D
:1004500092F802C040EA0C4092F801C040EA0C2039
:1004600092F800C040EA0C00D4F800C00CF5C07C43
:100470000CEB011CCCF80800206800F5C07000EB04
:100480000110006840F0010C01E00FE008E0206876
:1004900000F5C07000EB0110C0F800C00020F0BDF6
:1004A000606A40F4001060620120F8E7606A40F47E
:1004B000802060620120F2E7F0B504460A46216818
:1004C00094F82050012D01D0022D74D1D1F80002F2
:1004D00040F00100C1F80002107D00F01F0601206D
:1004E00000FA06F3D1F81C029843C1F81C02D06947
:1004F000C8B9D1F80C029843C1F80C02908880B2B8
:10050000968940EA064601F51070576940F8376051
:10051000108880B2168940EA064601F510705769C6
:1005200000EBC7004660D069012819D1D1F80C0250
:100530001843C1F80C02908880B2168840EA06463B
:1005400001F51070576940F83760908980B21689BC
:1005500040EA064601F51070576900EBC700466097
:10056000906928B9D1F804029843C1F8040204E064
:10057000D1F804021843C1F80402106928B9D1F86F
:1005800014029843C1F8140204E0D1F8140218438D
:10059000C1F81402106A012804D1D1F81C021843D2
:1005A000C1F81C02D1F8000220F00100C1F80002DD
:1005B0000020F0BDFFE7606A40F480206062012007
:1005C000F7E7704770B5044694F82050012D01D02C
:1005D000022D7DD151B92068C06800F0030080B9B8
:1005E000606A40F400106062012070BD20680069FC
:1005F00000F0030028B9606A40F400106062012036
:10060000F3E7206800F5D87000EB0110006800F0F7
:1006100004009060906840B9206800F5D87000EB45
:1006200001100068400D106007E0206800F5D870E8
:1006300000EB01100068C0085060206800F5D87019
:1006400000EB0110006800F00200D060206800F5A7
:10065000D87000EB0110406800F00F00082802D3AA
:100660000820106108E0206800F5D87000EB011048
:10067000406800F00F001061206800F5D87000EBB2
:100680000110406800F47F40000A9061206800F586
:10069000D87000EB01104068000C5061206800F534
:1006A000D87000EB011080681870206800F5D870D1
:1006B00000EB0110806800F47F40000A5870206849
:1006C00000F5D87000EB0110806800F47F0000E0B6
:1006D0003CE0000C9870206800F5D87000EB011029
:1006E0008068000ED870206800F5D87000EB01100B
:1006F000C0681871206800F5D87000EB0110C06860
:1007000000F47F40000A5871206800F5D87000EBB3
:100710000110C06800F47F00000C9871206800F59B
:10072000D87000EB0110C068000ED87131B9206894
:10073000C06840F020002668F06005E0206800698D
:1007400040F020002668306100204EE7606A40F4E7
:1007500080206062012048E7014691F820000128CE
:1007600001D002280CD10A68526802F002020AB1D4
:10077000042005E00A68126802F0020202B10320B8
:1007800070472DE9F05F044600252068466920681F
:10079000D0F80490206887682068D0F80CA0206802
:1007A000D0F810B02068D0F8188006F001000028BA
:1007B00055D007F00100C0B101202168886007F022
:1007C000020018B1204600F05DFA0EE007F00400C8
:1007D00010B145F4006508E007F0080010B145F4D9
:1007E000805502E0204600F04BFA07F48070C8B153
:1007F0004FF480702168886007F4007018B12046BB
:1008000000F051FA0EE007F4806010B145F4005595
:1008100008E007F4006010B145F4804502E020468E
:1008200000F040FA07F48030C8B14FF480302168FE
:10083000886007F4003018B1204600F036FA0EE068
:1008400007F4802010B145F4004508E007F40020CB
:1008500010B145F4803502E0204600F025FA06F09C
:10086000080038B10AF0100020B145F400751020DE
:100870002168C86006F0040040B10AF0080028B101
:1008800008202168C860204600F0B8F906F0020090
:1008900038B12068C06800F0030010B1204600F0B5
:1008A000AFF906F0400038B10BF0100020B145F46C
:1008B000806510202168086106F0200040B10BF02F
:1008C000080028B1082021680861204600F0A6F938
:1008D00006F0100038B12068006900F0030010B184
:1008E000204600F09CF906F4003040B109F01000F9
:1008F00028B1102021684860204600F091F906F4E4
:10090000803040B109F0080028B108202168486013
:10091000204600F0CBF906F4004088B309F004004B
:1009200078B306F4807020B108F0010008B145F0FA
:10093000010506F4007020B108F0020008B145F08E
:10094000020506F4806020B108F0040008B145F00B
:10095000040506F40060A0B108F0700088B108F04A
:100960007000402817D006DC10280BD020280CD0AF
:10097000302819D10CE0502810D0602814D110E094
:100980001DE019E045F008050FE045F010050CE00A
:1009900045F0200509E045F0400506E045F08005FA
:1009A00003E045F4807500E000BF00BF2068806967
:1009B00020F07000216888610420216848602DB112
:1009C000606A284360622046FFF7FBFDBDE8F09FA8
:1009D00070B504460CB9012070BD94F8200010B920
:1009E000204600F0AFF82068006840F00100216860
:1009F000086000F001FB05460DE000F0FDFA401B29
:100A00000A2808D9606A40F400306062052084F842
:100A100020000120E0E72068406800F00100002885
:100A2000EBD02068006820F002002168086000F028
:100A3000E3FA05460DE000F0DFFA401B0A2808D96A
:100A4000606A40F400306062052084F820000120D4
:100A5000C2E72068406800F002000028EBD1207E49
:100A6000012806D12068006840F0800021680860F5
:100A700005E02068006820F0800021680860607E42
:100A8000012806D12068006840F040002168086015
:100A900005E02068006820F0400021680860A07E22
:100AA000012806D12068006840F020002168086015
:100AB00005E02068006820F0200021680860E07EE2
:100AC000012806D12068006820F010002168086025
:100AD00005E02068006840F0100021680860207F71
:100AE000012806D12068006840F0080021680860ED
:100AF00005E02068006820F0080021680860607F39
:100B0000012806D12068006840F0040021680860D0
:100B100005E02068006820F0040021680860D4E93E
:100B20000201084321690843616908436168491E5D
:100B300008432168C86100206062012084F8200019
:100B4000002049E710B586B00446002002900390CB
:100B50000490059026492068884246D100BF254868
:100B6000C06940F000702349C8610846C06900F0C0
:100B70000070019000BF00BF00BF0846806940F0D0
:100B8000040088610846806900F00400019000BFFD
:100B900000BFC814029000200390049002A91648D8
:100BA00000F09AF84FF48050029002200390032046
:100BB000059002A9104800F08FF80022114613207A
:100BC00000F0A0FA132000F08DFA00221146142044
:100BD00000F098FA142000F085FA00221146152042
:100BE00000F090FA152000F07DFA06B010BD00006C
:100BF00000640040001002400008014070470000FF
:100C000010B50446034B044A00212046FFF7DAFCE6
:100C100010BD000008000020400000207047704711
:100C2000704770B5044694F82000012822D10220B4
:100C300084F820002068006820F001002168086026
:100C400000F0DAF905460DE000F0D6F9401B0A285D
:100C500008D9606A40F400306062052084F8200002
:100C6000012070BD2068406800F001000028EBD131
:100C70006062F6E7606A40F4002060620120F0E7FD
:100C80007047000010B50446012004490870642331
:100C90000122034800F076FE10BD00001400002081
:100CA000840000207047704770477047704700000D
:100CB00070B5044600F0A0F906462546681C10B140
:100CC00004480078054400BF00F096F9801BA84254
:100CD000FAD370BD200000202DE9F847034600221A
:100CE00094466EE14FF0010808FA02F4D1F8008052
:100CF00008EA0400A0427DD1DFF8DCA2D1F804802C
:100D0000A8EB0A09D0453AD014DCB8F1030F50D053
:100D100009DCB8F1000F31D0B8F1010F1CD0B8F1E7
:100D2000020F49D120E0B8F1110F18D0B8F1120F1D
:100D300042D11EE0B9F5881F25D006DCB9F5803F09
:100D400020D0B9F5801F37D11AE0B9F5001F18D0AF
:100D5000B9F5041F30D117E0D1F80CC02DE0D1F85F
:100D60000C8008F1040C28E0D1F80C8008F1080C84
:100D700023E0D1F80C8008F10C0C1EE000BF00BF8E
:100D800000BF00BF00BF00BFD1F80880B8F1000F5E
:100D900002D14FF0040C0BE0D1F80880B8F1010F3C
:100DA00003D14FF0080C1C6102E04FF0080C5C61AD
:100DB00003E04FF0000C00E000BF00BFFF2801D8A7
:100DC000984601E003F104084646FF2802D84FEA9E
:100DD000820803E0A2F108084FEA88084746D6F8DF
:100DE00000804FF00F0909FA07F928EA09080CFA00
:100DF00007F900E088E048EA0908C6F80080D1F861
:100E0000048008F08058B8F1805F7DD100BFDFF822
:100E1000CC81D8F8188048F00108DFF8C091C9F8F3
:100E20001880C846D8F8188008F00108CDF800806E
:100E300000BF00BF4FEAB9384FEA920958F829506D
:100E40004FEA82784FEA18794FF00F0808FA09F84C
:100E500025EA0805DFF88881434502D14FF00008F4
:100E600016E0DFF88081434502D14FF001080FE022
:100E7000DFF87481434502D14FF0020808E0DFF843
:100E80006C81434502D14FF0030801E04FF00408A4
:100E90004FEA82794FEA197908FA09F848EA050514
:100EA000DFF84C814FEA920948F82950D1F80480C4
:100EB00008F48018B8F5801F0AD1DFF83881D8F817
:100EC000008048EA0008DFF82C91C9F8008009E0AA
:100ED000DFF82081D8F8008028EA0008DFF81491B4
:100EE000C9F80080D1F8048008F40018B8F5001F94
:100EF00010D1DFF8008108F10408D8F8008048EA32
:100F00000008DFF8F09000E05AE009F10409C9F8A0
:100F100000800DE0DFF8DC8008F10408D8F80080DC
:100F200028EA0008DFF8CC9009F10409C9F800802C
:100F3000D1F8048008F40038B8F5003F0ED1DFF88E
:100F4000B480A8F10408D8F8008048EA0008DFF867
:100F5000A490A9F10409C9F800800DE0DFF894809D
:100F6000A8F10408D8F8008028EA0008DFF8849087
:100F7000A9F10409C9F80080D1F8048008F4803888
:100F8000B8F5803F0ED1DFF86C80A8F10808D8F8DA
:100F9000008048EA0008DFF85C90A9F10809C9F868
:100FA00000800DE0DFF84C80A8F10808D8F8008038
:100FB00028EA0008DFF83C90A9F10809C9F8008088
:100FC000521CD1F8008028FA02F8B8F1000F7FF423
:100FD00089AEBDE8F8870000000011100010024043
:100FE00000080140000C01400010014000140140C5
:100FF00008000140080401400148006870470000F3
:101000001800002003480068034909780844014992
:1010100008607047180000202000002010B5084824
:10102000006840F0100006490860032000F0A8F8AE
:101030000F2000F007F800F02BF8002010BD000092
:101040000020024070B504460E4800784FF47A71D3
:10105000B1FBF0F00C490968B1FBF0F5284600F04F
:10106000F9FB08B1012070BD102C07D200222146E7
:10107000501E00F047F80548046001E00120F2E747
:101080000020F0E720000020240000201C000020A9
:1010900008B500BF1148806940F001000F49886120
:1010A0000846806900F00100009000BF00BF00BF4B
:1010B0000846C06940F08050C8610846C06900F029
:1010C0008050009000BF00BF00BF0549486820F075
:1010D000E06040F00070486000BF08BD00100240B2
:1010E0000000014001460846002809DB00F01F030C
:1010F00001229A4043099B0003F1E023C3F8002139
:1011000000BF70472DE9F05F80460D461646002768
:1011100000F05CFE074639462A46334601F00700D8
:10112000C0F1070ABAF1040F02D94FF0040A01E036
:10113000C0F1070AD14600F1040ABAF1070F02D242
:101140004FF0000A01E0A0F1030AD4464FF0010A73
:101150000AFA09FAAAF1010A0AEA020A0AFA0CFAD8
:101160004FF0010B0BFA0CFBABF1010B0BEA030B7D
:101170004AEA0B042146404600F030FEBDE8F09FED
:1011800000BF00F00702064B19684FF6FF03194035
:10119000044B0B4343EA0221014B196000BF704727
:1011A0000CED00E00000FA0570B504460D460CB9E0
:1011B000012070BD5A48006800F00700A8420ED216
:1011C0005748006820F00700284355490860084642
:1011D000006800F00700A84201D00120E9E720786C
:1011E00000F0020002281DD1207800F0040004283D
:1011F00005D14C48406840F4E0604A494860207896
:1012000000F00800082805D14648406840F46050C6
:10121000444948604348406820F0F000A168084312
:1012200040494860207800F0010078B360680128E8
:1012300006D13C48006800F4003090B90120B8E7BE
:101240006068022806D13748006800F0007040B995
:101250000120AEE73348006800F0020008B9012021
:10126000A7E73048406820F00300616808432D4933
:101270004860FFF7C1FE064609E0FFF7BDFE801B90
:1012800041F28831884202D9032092E707E02548DD
:10129000406800F00C006168B0EB810FEDD1204890
:1012A000006800F00700A8420ED91D48006820F031
:1012B000070028431A4908600846006800F0070044
:1012C000A84201D0012074E7207800F0040004282F
:1012D00007D11448406820F4E060E16808431149F0
:1012E0004860207800F00800082808D10D484068C0
:1012F00020F46050216940EAC1000A49486000F0CA
:101300003FF808494968C1F30311074A515CC840D6
:101310000649086006480068FFF794FE002048E789
:1013200000200240001002403E1E00082400002061
:101330001C000020014800687047000024000020C5
:1013400000B5FFF7F7FF04494968C1F30221034ADA
:10135000515CC84000BD0000001002404E1E000855
:1013600000B5FFF7E7FF04494968C1F3C221034A0A
:10137000515CC84000BD0000001002404E1E000835
:1013800070B500210022002400230020134D69685D
:1013900001F00C05F5B1042D02D0082D19D101E0A2
:1013A0000F4819E00F4DC1F38346AB5D01F4803562
:1013B00055B10A4D6D68C5F340450B4E725D084D41
:1013C0005D43B5FBF2F402E0084D03FB05F4204653
:1013D00002E000BF024800BF00BF70BD0010024025
:1013E00000127A002C1E00083C1E000800093D0077
:1013F000F8B504460CB90120F8BD207800F00100D2
:10140000002878D0F848406800F00C0004280CD080
:10141000F548406800F00C00082811D1F2484068F7
:1014200000F48030B0F5803F0AD1EF48006800F446
:10143000003000285FD0606800285CD10120DBE725
:1014400000BF6068B0F5803F06D1E748006840F40F
:101450008030E549086028E0606858B9E2480068D3
:1014600020F48030E04908600846006820F48020BD
:1014700008601AE06068B0F5A02F0BD1DA48006868
:1014800040F48020D84908600846006840F4803065
:1014900008600AE0D448006820F48030D24908602F
:1014A0000846006820F48020086000BF606888B1AA
:1014B000FFF7A2FD054606E0FFF79EFD401B6428EE
:1014C00001D9032098E7C848006800F400300028DC
:1014D000F2D010E0FFF790FD054606E0FFF78CFD27
:1014E000401B642801D9032086E7BF48006800F448
:1014F00000300028F2D1207800F00200022857D1F5
:10150000B948406800F00C0050B1B748406800F09E
:101510000C00082818D1B448406800F4803098B90D
:10152000B148006800F0020020B12069012801D014
:10153000012061E7AC48006820F0F800616940EAEA
:10154000C100A949086033E02069E8B10120A7493A
:101550000860FFF751FD054606E0FFF74DFD401B13
:10156000022801D9032047E79F48006800F00200E5
:101570000028F2D09C48006820F0F800616940EA39
:10158000C1009949086013E0002098490860FFF7FE
:1015900033FD054606E0FFF72FFD401B022801D969
:1015A000032029E79048006800F002000028F2D1EB
:1015B000207800F0080008282DD1A069B8B10120DA
:1015C0008B490860FFF718FD054606E0FFF714FD9C
:1015D000401B022801D903200EE78348406A00F02F
:1015E00002000028F2D0012000F096FA13E000205B
:1015F0007F490860FFF700FD054606E0FFF7FCFCA9
:10160000401B022801D90320F6E67748406A00F023
:1016100002000028F2D1207800F00400042873D1E1
:1016200000277148C06900F0805070B900BF6E4853
:10163000C06940F080506C49C8610846C06900F03C
:101640008050009000BF00BF01276A48006800F486
:101650008070B0B96748006840F4807065490860E0
:10166000FFF7CAFC054606E0FFF7C6FC401B6428EE
:1016700001D90320C0E65F48006800F480700028AC
:10168000F2D000BFE068012806D15748006A40F058
:1016900001005549086227E0E06858B95248006ADD
:1016A00020F00100504908620846006A20F004005A
:1016B000086219E0E06805280BD14B48006A40F049
:1016C0000400494908620846006A40F001000862C7
:1016D0000AE04548006A20F00100434908620846D4
:1016E000006A20F00400086200BFE068A0B1FFF7C4
:1016F00083FC054609E0FFF77FFC401B41F288317F
:10170000884202D9032077E622E03748006A00F0D9
:1017100002000028EFD012E0FFF76EFC054608E05B
:10172000FFF76AFC401B41F28831884201D903204F
:1017300062E62D48006A00F002000028F0D1012F77
:1017400005D12948C06920F080502749C86100BFF1
:10175000E069C8B32448406800F00C00082860D055
:10176000E069022848D1002020490866FFF744FCC0
:10177000054606E0FFF740FC401B022801D9032084
:101780003AE61948006800F000700028F2D1206A9B
:10179000B0F5803F07D11448406820F40030A168BC
:1017A000084311494860D4E9080108430E494968D3
:1017B00021F4741108430C49486001200B49086664
:1017C000FFF71AFC054607E03DE0FFF715FC401B5C
:1017D000022801D903200FE60348006800F00070DA
:1017E0000028F2D02FE0000000100240000042422A
:1017F0008004424200700040002014490866FFF750
:10180000FBFB054606E0FFF7F7FB401B022801D96A
:101810000320F1E50E48006800F000700028F2D1C6
:1018200011E0E069012800D1E6E50948466806F4C0
:101830008031206A814204D106F47011606A8142CD
:1018400001D00120D8E50020D6E50000000042428A
:101850000010024070B504462546681EB0F1807F36
:1018600001D301200FE0681E4FF0E02148610F21F5
:101870004FF0FF3000F0B2FA00204FF0E021886115
:1018800007200861002070BD10B504460CB9012086
:1018900010BDA06900B100E000BF94F8410028B974
:1018A000002084F84000204600F02AF8242084F824
:1018B00041002068C06820F400502168C8602046BC
:1018C00000F0AEF92068006920F4904021680861BA
:1018D0002068406920F02A00216848612068C068BB
:1018E00040F400502168C86000206064202084F823
:1018F000410084F842000020606300BFC8E7000098
:1019000010B586B004460020029003900490059024
:101910001949206888422DD100BF1848C06940F499
:1019200000301649C8610846C06900F400300190D3
:1019300000BF00BF00BF0846806940F00400886116
:101940000846806900F00400019000BF00BF042039
:101950000290022003900320059002A90848FFF797
:10196000BBF90820029000200390049002A90448CB
:10197000FFF7B2F906B010BD00440040001002406D
:10198000000801402DE9F84F04460E4617469946D7
:101990004FF0000A94F84100202850D106B117B941
:1019A0000120BDE8F88F00206064212084F8410008
:1019B000FFF722FB8246A784E784A068B0F5805F2A
:1019C00004D1206910B90025B04602E035464FF039
:1019D00000081EE05346002280212046CDF80090EA
:1019E00000F09CF920B1202084F841000320D8E7C2
:1019F00045B9B8F80000C0F308002168486008F154
:101A0000020803E02878216848606D1CE08C401EC5
:101A1000E084E08C0028DDD153460022402120469E
:101A2000CDF8009000F07AF920B1202084F8410030
:101A30000320B6E7202084F841000020B1E702200F
:101A4000AFE700BFFEE7000010B51048104908607E
:101A5000032048604FF080410D4881600021C16043
:101A60004FF4E02101614FF4001141610021017642
:101A7000417681760121C176002101774177FEF719
:101A8000A7FF08B1FEF75BFC10BD0000006400403A
:101A90005C00002008B500BF0D48806940F02000C0
:101AA0000B4988610846806900F02000009000BF63
:101AB00000BF00BF0846806940F004008861084606
:101AC000806900F00400009000BF00BF08BD000066
:101AD0000010024010B50B480B4908604FF4E1308C
:101AE0004860002108488160C16001610C214161AA
:101AF00000218161C161FFF7C7FE08B1FEF71FFC3D
:101B000010BD0000004400408400002000BFFEE73C
:101B100000BFFEE77047000008B508490968C9081A
:101B20004FF47A72B1FBF2F14143009100BF00BF64
:101B300000994A1E00920029F9D108BD2400002016
:101B4000704710B5FFF75EFA10BD00B58FB02821C1
:101B500005A8FEF739FB14216846FEF735FB012086
:101B600005900004069000200790012009900220B3
:101B70000C90C1030D914FF4E0110E9105A8FFF7F1
:101B800037FC08B1FEF7DBFB0F200090022001902C
:101B9000002002904FF48060039000200490022106
:101BA0006846FFF701FB08B1FEF7C9FB0FB000BDA7
:101BB000704700BF00BF02680C3252E8002F22F4C9
:101BC000907102680C3242E80013002BF3D100BF81
:101BD00000BF00BF0268143252E8002F22F001015A
:101BE0000268143242E80013002BF3D100BF016BEE
:101BF00001290ED100BF00BF02680C3252E8002F4D
:101C000022F0100102680C3242E80013002BF3D1DD
:101C100000BF202180F842100021016370470000BE
:101C200070B504462168096921F44051E268114306
:101C3000226811612269A1681143626941EA0205C3
:101C40002168C96841F20C62914329432268D1603E
:101C50002168496921F44071A269114322685161E8
:101C60002D4A2168914202D1FFF77AFB01E0FFF78C
:101C700067FB00EBC00101EB001162689200B1FB51
:101C8000F2F100EBC00202EB001263689B00B2FBB2
:101C9000F3F26423B2FBF3F202EBC20303EB021292
:101CA000A1EB8201322202EB01116422B1FBF2F1BD
:101CB00001F0F00100EBC00202EB001263689B0030
:101CC000B2FBF3F26423B2FBF3F201EB021200EB7E
:101CD000C00101EB001163689B00B1FBF3F100EB65
:101CE000C00303EB00136668B600B3FBF6F364268B
:101CF000B3FBF6F303EBC30606EB0313A1EB83017F
:101D0000322303EB01116423B1FBF3F101F00F0166
:101D100011442268916070BD003801402DE9F843FC
:101D200004460D4617469846089E31E0701C70B375
:101D3000FFF762F9A0EB0800B04200D816B9032003
:101D4000BDE8F8832068C06800F00400F8B1802D79
:101D50001ED0402D1CD020680068C0F3C000B0B178
:101D600000BF002000902068006800902068406854
:101D7000009000BF00BF2046FFF71BFF08206064F3
:101D800000BF002084F8400000BF0120D8E7FFE733
:101D9000206800682840A84201D1012000E000200E
:101DA000B842C3D00020CBE710B50248FEF7E9FCEB
:101DB00010BD00005C00002010B50248FEF7E1FCF9
:101DC00010BD00005C00002000BFFEE70248006874
:101DD000C0F30220704700000CED00E010B50028B1
:101DE00004DB0A07130E054A135406E00A07140E13
:101DF000034A00F00F031B1FD45410BD00E400E0A1
:101E000018ED00E0FFF70AF9FFF79FFEFFF742FE2B
:101E1000FFF71AFEFFF75EFEFEF744FA05E0FEF755
:101E20006DFA4FF47A70FEF743FFF8E702030405FA
:101E3000060708090A0B0C0D0E0F10100102000016
:101E4000000000000000010203040607080900006A
:101E50000000010203040000781E000800000020BA
:101E60002800000028010008A01E0008280000200B
:101E70000807000044010008000000000000000006
:101E80000000000000000000000000000000000052
:101E900000000000100000000100000000127A00A5
:04000005080000ED02
:00000001FF
