:020000040800F2
:100000007021002021020008812000087F1E0008C6
:100010007D200008A7040008C12800080000000097
:10002000000000000000000000000000890100083E
:10003000F904000800000000CD010008B321000809
:100040003B0200083B0200083B0200083B0200089C
:100050003B0200083B0200083B0200083B0200088C
:100060003B0200083B0200083B0200083B0200087C
:100070003B0200083B0200083B0200083B0200086C
:10008000AD040008BD0400083B0200083B02000864
:100090003B0200083B0200083B0200083B0200084C
:1000A0003B0200083B0200083B0200083B0200083C
:1000B0003B0200083B020008312200083B02000816
:1000C0003B0200083B0200083B0200083B0200081C
:1000D0003B0200083B020008B12800083B02000870
:1000E0003B0200083B0200083B02000800F002F857
:1000F00000F03AF80AA090E8000C82448344AAF188
:100100000107DA4501D100F02FF8AFF2090EBAE885
:100110000F0013F0010F18BFFB1A43F0010318473B
:100120007C4B00009C4B0000103A24BF78C878C17B
:10013000FAD8520724BF30C830C144BF04680C60ED
:10014000704700000023002400250026103A28BF35
:1001500078C1FBD8520728BF30C148BF0B60704739
:100160001FB51FBD10B510BD00F064F91146FFF7B3
:10017000F7FF02F079FD00F082F903B4FFF7F2FF18
:1001800003BC00F089F90000224B19680868B0E848
:10019000F00F80F30988BFF36F8F4FF0000080F3FA
:1001A00011884EF00D0E70470000000006480068F0
:1001B000006880F3088862B661B6BFF34F8FBFF363
:1001C0006F8F00DF00BF00BF08ED00E0EFF3098094
:1001D000BFF36F8F0F4B1A6820E9F00F106008B55E
:1001E0004FF0500080F31188BFF34F8FBFF36F8F34
:1001F00003F05AFE4FF0000080F31188BDE808407C
:1002000019680868B0E8F00F80F30988BFF36F8FB2
:10021000704700BF5C000020EFF3058070470000CE
:100220000948804709480047FEE7FEE7FEE7FEE78A
:10023000FEE7FEE7FEE7FEE7FEE7FEE704480549C6
:10024000054A064B704700002F220008ED00000809
:10025000701B002070210020701D0020701D0020E8
:1002600010B5431C02E010F8011B71B18107FAD1EF
:100270004FF0013202C88C1A8C4314EAC211F9D033
:10028000C01A0A0603D0C01E10BDC01A10BD0A0451
:1002900001D0801E10BD0902FCD0401E10BD032AF3
:1002A00040F2308010F0030C00F0158011F8013B93
:1002B000BCF1020F624498BF11F801CB00F8013B7A
:1002C00038BF11F8013BA2F1040298BF00F801CB3E
:1002D00038BF00F8013B11F0030300F05780083AE3
:1002E000C0F0088051F8043B083A51F804CBA0E86C
:1002F0000810F5E7121D5CBF51F8043B40F8043BC1
:10030000AFF30080D20724BF11F8013B11F801CBF5
:1003100048BF11F8012B24BF00F8013B00F801CBC6
:1003200048BF00F8012B704702F0FF0343EA0322A5
:1003300042EA024200F05EB84FF0000200B51346F8
:1003400094469646203922BFA0E80C50A0E80C50F5
:10035000B1F12001BFF4F7AF090728BFA0E80C50A6
:1003600048BF0CC05DF804EB890028BF40F8042B9F
:1003700008BF704748BF20F8022B11F0804F18BF0C
:1003800000F8012B704770477047704710B5203A4E
:10039000C0F00B80B1E81850203AA0E81850B1E83E
:1003A0001850A0E81850BFF4F5AF5FEA027C24BFF4
:1003B000B1E81850A0E8185044BF18C918C0BDE8EB
:1003C00010405FEA827C24BF51F8043B40F8043BB4
:1003D00008BF7047D20728BF31F8023B48BF11F869
:1003E000012B28BF20F8023B48BF00F8012B7047C3
:1003F0004FF000020429C0F0128010F0030C3FF40B
:100400009DAFCCF1040CBCF1020F18BF00F8012B1A
:10041000A8BF20F8022BA1EB0C01FFF78FBF5FEA0A
:10042000C17C24BF00F8012B00F8012B48BF00F865
:10043000012B7047754600F02BF8AE460500694663
:10044000534620F00700854618B020B5FFF7F6FEAA
:10045000BDE820404FF000064FF000074FF00008C5
:100460004FF0000B21F00701AC46ACE8C009ACE846
:10047000C009ACE8C009ACE8C0098D46704710B5AA
:100480000446AFF300802046BDE81040FFF775BE7C
:1004900000487047101B002001491820ABBEFEE742
:1004A00026000200704700BFFEE7000010B50248BA
:1004B00000F0AAF810BD00006C01002010B5024841
:1004C00000F0A2F810BD0000B001002030B590F897
:1004D00040500124AC40C56B6C60046863604468A4
:1004E000102C04D10468A2600468E16003E0046891
:1004F000A1600468E26030BD704772B600BFFEE7DD
:100500000146002291F82100022808D004208863C7
:1005100000BF002081F8200000BF0120704708685C
:10052000006820F00E000B6818600868006820F072
:1005300001000B68186091F8403001209840CB6BA7
:100540005860012081F8210000BF002081F82000C0
:1005500000BF1046E2E7000070B50446002594F89D
:100560002100022803D00420A063012548E0206870
:10057000006820F00E00216808602068006820F004
:100580000100216808601F492068884201D10120CC
:1005900026E01C4914312068884201D110201FE058
:1005A000184928312068884201D1801518E0154982
:1005B0003C312068884201D1801411E0114950314A
:1005C0002068884202D14FF4803009E00D4964313F
:1005D0002068884202D14FF4801001E04FF0807013
:1005E000084908394860012084F8210000BF002034
:1005F00084F8200000BF606B10B12046616B884713
:10060000284670BD0800024070B50446E06B0568DE
:100610002068066894F8401004208840284000288C
:1006200046D006F00400002842D02068006800F0A0
:10063000200028B92068006820F0040021680860C4
:1006400057492068884201D1042027E054491431D9
:100650002068884201D1402020E05149283120689B
:10066000884201D1001519E04D493C31206888428B
:1006700002D14FF4804011E049495031206888424E
:1006800002D14FF4802009E0454964312068884256
:1006900002D14FF4800001E04FF0806040490839FA
:1006A0004860E06A00287AD02046E16A884776E010
:1006B00094F84010022088402840A0B306F00200C1
:1006C00088B32068006800F0200040B92068006806
:1006D00020F00A0021680860012084F821003049D8
:1006E0002068884201D1022028E02D491431206879
:1006F000884201D1202021E0294928312068884200
:1007000001D140151AE026493C312068884202D1C7
:100710004FF4005012E0224950312068884203D142
:100720004FF400300AE017E01D4964312068884228
:1007300002D14FF4001001E04FF000701849083961
:10074000486000BF002084F8200000BFA06A30B3DA
:100750002046A16A884722E094F84010082088408B
:100760002840E0B106F00800C8B12068006820F019
:100770000E002168086094F8401001208840E16B69
:1007800048600120A06384F8210000BF002084F8A5
:10079000200000BF206B10B12046216B884770BD40
:1007A000080002400146002209B901207047164B9B
:1007B0000868C01A1423B0FBF3F0800008641248E4
:1007C0000838C863022081F821000868026843F6EF
:1007D000F0708243D1E901031843CB6818430B69D9
:1007E00018434B6918438B691843CB69184302437C
:1007F0000868026000208863012081F82100002041
:1008000081F8200000BFD1E7080002402DE9F04147
:1008100004460D4616461F464FF0000800BF94F8E8
:100820002000012802D10220BDE8F081012084F8D7
:10083000200000BF94F8210001282CD1022084F868
:1008400021000020A0632068006820F001002168DA
:1008500008603B46324629462046FFF737FEE06AED
:1008600030B12068006840F00E00216808600BE09D
:100870002068006820F00400216808602068006893
:1008800040F00A00216808602068006840F001001C
:100890002168086006E000BF002084F8200000BF47
:1008A0004FF002084046BFE72DE9F8470346002213
:1008B00094466EE14FF0010808FA02F4D1F8008086
:1008C00008EA0400A0427DD1DFF8DCA2D1F8048060
:1008D000A8EB0A09D0453AD014DCB8F1030F50D088
:1008E00009DCB8F1000F31D0B8F1010F1CD0B8F11C
:1008F000020F49D120E0B8F1110F18D0B8F1120F52
:1009000042D11EE0B9F5881F25D006DCB9F5803F3D
:1009100020D0B9F5801F37D11AE0B9F5001F18D0E3
:10092000B9F5041F30D117E0D1F80CC02DE0D1F893
:100930000C8008F1040C28E0D1F80C8008F1080CB8
:1009400023E0D1F80C8008F10C0C1EE000BF00BFC2
:1009500000BF00BF00BF00BFD1F80880B8F1000F92
:1009600002D14FF0040C0BE0D1F80880B8F1010F70
:1009700003D14FF0080C1C6102E04FF0080C5C61E1
:1009800003E04FF0000C00E000BF00BFFF2801D8DB
:10099000984601E003F104084646FF2802D84FEAD2
:1009A000820803E0A2F108084FEA88084746D6F813
:1009B00000804FF00F0909FA07F928EA09080CFA34
:1009C00007F900E088E048EA0908C6F80080D1F895
:1009D000048008F08058B8F1805F7DD100BFDFF857
:1009E000CC81D8F8188048F00108DFF8C091C9F828
:1009F0001880C846D8F8188008F00108CDF80080A3
:100A000000BF00BF4FEAB9384FEA920958F82950A1
:100A10004FEA82784FEA18794FF00F0808FA09F880
:100A200025EA0805DFF88881434502D14FF0000828
:100A300016E0DFF88081434502D14FF001080FE056
:100A4000DFF87481434502D14FF0020808E0DFF877
:100A50006C81434502D14FF0030801E04FF00408D8
:100A60004FEA82794FEA197908FA09F848EA050548
:100A7000DFF84C814FEA920948F82950D1F80480F8
:100A800008F48018B8F5801F0AD1DFF83881D8F84B
:100A9000008048EA0008DFF82C91C9F8008009E0DE
:100AA000DFF82081D8F8008028EA0008DFF81491E8
:100AB000C9F80080D1F8048008F40018B8F5001FC8
:100AC00010D1DFF8008108F10408D8F8008048EA66
:100AD0000008DFF8F09000E05AE009F10409C9F8D5
:100AE00000800DE0DFF8DC8008F10408D8F8008011
:100AF00028EA0008DFF8CC9009F10409C9F8008061
:100B0000D1F8048008F40038B8F5003F0ED1DFF8C2
:100B1000B480A8F10408D8F8008048EA0008DFF89B
:100B2000A490A9F10409C9F800800DE0DFF89480D1
:100B3000A8F10408D8F8008028EA0008DFF88490BB
:100B4000A9F10409C9F80080D1F8048008F48038BC
:100B5000B8F5803F0ED1DFF86C80A8F10808D8F80E
:100B6000008048EA0008DFF85C90A9F10809C9F89C
:100B700000800DE0DFF84C80A8F10808D8F800806C
:100B800028EA0008DFF83C90A9F10809C9F80080BC
:100B9000521CD1F8008028FA02F8B8F1000F7FF457
:100BA00089AEBDE8F8870000000011100010024077
:100BB00000080140000C01400010014000140140F9
:100BC0000800014008040140024693680B400BB145
:100BD000012000E0002070470AB1016101E00B0430
:100BE0000361704701480068704700004C00002016
:100BF00003480068034909780844014908607047C0
:100C00004C0000205400002010B50848006840F057
:100C1000100006490860032000F0E2F80F2000F001
:100C200007F800F05FF8002010BD0000002002402F
:100C30002DE9F04188B004460027B846002600BFE1
:100C40002348C06940F004002149C8610846C069D2
:100C500000F00400019000BF00BF02A903A800F04B
:100C600099F9069F1FB900F0BDF9054602E000F0B2
:100C7000B9F945001748B5FBF0F0A0F10108164896
:100C80001649086040F2E7311448C160C0F804809A
:100C9000002101618160816100F072FC064696B915
:100CA0000E4800F0B7FC06466EB91E2000F04AF868
:100CB000102C07D2002221461E2000F053F80848CD
:100CC000046000E00126304608B0BDE8F081000075
:100CD0000010024040420F0000080040F4010020D4
:100CE0005000002008B500BF1448806940F00100A2
:100CF000124988610846806900F00100009000BF39
:100D000000BF00BF0846C06940F08050C861084677
:100D1000C06900F08050009000BF00BF00220F218A
:100D2000901E00F01FF800BF0549486820F0E06001
:100D300040F00070486000BF08BD00000010024095
:100D40000000014001460846002809DB00F01F03AF
:100D500001229A4043099B0003F1E023C3F80021DC
:100D600000BF70472DE9F05F80460D46164600270C
:100D700001F0A8FD074639462A46334601F0070030
:100D8000C0F1070ABAF1040F02D94FF0040A01E0DA
:100D9000C0F1070AD14600F1040ABAF1070F02D2E6
:100DA0004FF0000A01E0A0F1030AD4464FF0010A17
:100DB0000AFA09FAAAF1010A0AEA020A0AFA0CFA7C
:100DC0004FF0010B0BFA0CFBABF1010B0BEA030B21
:100DD0004AEA0B042146404601F07CFDBDE8F09F45
:100DE00000BF00F00702064B19684FF6FF031940D9
:100DF000044B0B4343EA0221014B196000BF7047CB
:100E00000CED00E00000FA0570B504460D460CB983
:100E1000012070BD5A48006800F00700A8420ED2B9
:100E20005748006820F007002843554908600846E5
:100E3000006800F00700A84201D00120E9E720780F
:100E400000F0020002281DD1207800F004000428E0
:100E500005D14C48406840F4E0604A494860207839
:100E600000F00800082805D14648406840F460506A
:100E7000444948604348406820F0F000A1680843B6
:100E800040494860207800F0010078B3606801288C
:100E900006D13C48006800F4003090B90120B8E762
:100EA0006068022806D13748006800F0007040B939
:100EB0000120AEE73348006800F0020008B90120C5
:100EC000A7E73048406820F00300616808432D49D7
:100ED0004860FFF787FE064609E0FFF783FE801BA8
:100EE00041F28831884202D9032092E707E0254881
:100EF000406800F00C006168B0EB810FEDD1204834
:100F0000006800F00700A8420ED91D48006820F0D4
:100F1000070028431A4908600846006800F00700E7
:100F2000A84201D0012074E7207800F004000428D2
:100F300007D11448406820F4E060E1680843114993
:100F40004860207800F00800082808D10D48406863
:100F500020F46050216940EAC1000A49486000F06D
:100F600061F808494968C1F30311074A515CC84058
:100F70000649086006480068FFF75AFE002048E767
:100F80000020024000100240764C0008580000206B
:100F9000500000200F2202600D4A526802F0030246
:100FA00042600B4A526802F0F0028260084A5268BE
:100FB00002F4E062C260064A526802F46052D2084B
:100FC0000261044A126802F007020A6070470000DA
:100FD00000100240002002400148006870470000F5
:100FE0005800002000B5FFF7F7FF04494968C1F336
:100FF0000221034A515CC84000BD000000100240BD
:10100000864C000800B5FFF7E7FF04494968C1F3C3
:10101000C221034A515CC84000BD000000100240DC
:10102000864C000870B50021002200240023002017
:10103000134D696801F00C05F5B1042D02D0082D9F
:1010400019D101E00F4819E00F4DC1F38346AB5DA4
:1010500001F4803555B10A4D6D68C5F340450B4E1E
:10106000725D084D5D43B5FBF2F402E0084D03FBF1
:1010700005F4204602E000BF024800BF00BF70BD7B
:101080000010024000127A00644C0008744C000802
:1010900000093D00F8B504460CB90120F8BD2078E0
:1010A00000F00100002878D0F848406800F00C00FB
:1010B00004280CD0F548406800F00C00082811D135
:1010C000F248406800F48030B0F5803F0AD1EF4824
:1010D000006800F4003000285FD0606800285CD110
:1010E0000120DBE700BF6068B0F5803F06D1E7482C
:1010F000006840F48030E549086028E0606858B92D
:10110000E248006820F48030E04908600846006842
:1011100020F4802008601AE06068B0F5A02F0BD1A1
:10112000DA48006840F48020D84908600846006822
:1011300040F4803008600AE0D448006820F4803031
:10114000D24908600846006820F48020086000BF8B
:10115000606888B1FFF746FD054606E0FFF742FDEF
:10116000401B642801D9032098E7C848006800F4B0
:1011700000300028F2D010E0FFF734FD054606E00D
:10118000FFF730FD401B642801D9032086E7BF48E4
:10119000006800F400300028F2D1207800F002004E
:1011A000022857D1B948406800F00C0050B1B74848
:1011B000406800F00C00082818D1B448406800F4DA
:1011C000803098B9B148006800F0020020B1206971
:1011D000012801D0012061E7AC48006820F0F80048
:1011E000616940EAC100A949086033E02069E8B1BB
:1011F0000120A7490860FFF7F5FC054606E0FFF768
:10120000F1FC401B022801D9032047E79F480068F2
:1012100000F002000028F2D09C48006820F0F8009E
:10122000616940EAC1009949086013E000209849CB
:101230000860FFF7D7FC054606E0FFF7D3FC401B2C
:10124000022801D9032029E79048006800F0020035
:101250000028F2D1207800F0080008282DD1A069DC
:10126000B8B101208B490860FFF7BCFC054606E0D9
:10127000FFF7B8FC401B022801D903200EE7834882
:10128000406A00F002000028F2D0012000F0FAFECF
:1012900013E000207F490860FFF7A4FC054606E044
:1012A000FFF7A0FC401B022801D90320F6E677488F
:1012B000406A00F002000028F2D1207800F004001B
:1012C000042873D100277148C06900F0805070B9BC
:1012D00000BF6E48C06940F080506C49C861084644
:1012E000C06900F08050009000BF00BF01276A482D
:1012F000006800F48070B0B96748006840F48070FE
:1013000065490860FFF76EFC054606E0FFF76AFCDA
:10131000401B642801D90320C0E65F48006800F440
:1013200080700028F2D000BFE068012806D157483D
:10133000006A40F001005549086227E0E06858B9AA
:101340005248006A20F00100504908620846006ACD
:1013500020F00400086219E0E06805280BD14B4832
:10136000006A40F00400494908620846006A40F0FB
:10137000010008620AE04548006A20F00100434984
:1013800008620846006A20F00400086200BFE068B6
:10139000A0B1FFF727FC054609E0FFF723FC401B3F
:1013A00041F28831884202D9032077E622E03748AB
:1013B000006A00F002000028EFD012E0FFF712FCF4
:1013C000054608E0FFF70EFC401B41F288318842D9
:1013D00001D9032062E62D48006A00F002000028CF
:1013E000F0D1012F05D12948C06920F0805027494C
:1013F000C86100BFE069C8B32448406800F00C0031
:10140000082860D0E069022848D1002020490866F9
:10141000FFF7E8FB054606E0FFF7E4FB401B022868
:1014200001D903203AE61948006800F0007000284E
:10143000F2D1206AB0F5803F07D11448406820F40B
:101440000030A168084311494860D4E90801084305
:101450000E49496821F4741108430C494860012081
:101460000B490866FFF7BEFB054607E03DE0FFF7C6
:10147000B9FB401B022801D903200FE6034800688E
:1014800000F000700028F2D02FE0000000100240B1
:101490000000424280044242007000400020144993
:1014A0000866FFF79FFB054606E0FFF79BFB401B26
:1014B000022801D90320F1E50E48006800F0007011
:1014C0000028F2D111E0E069012800D1E6E50948E1
:1014D000466806F48031206A814204D106F4701116
:1014E000606A814201D00120D8E50020D6E50000E5
:1014F00000004242001002407047704730B502467B
:101500000B4600BF92F83C00012801D1022030BDFB
:10151000012082F83C0000BF022082F83D001068E4
:1015200044681068816824F07004186804431068E7
:101530004460104D1068A8420BD01068B0F1804F85
:1015400007D00D4D1068A84203D00C4D1068A8427A
:1015500005D121F0800158680143106881600120A5
:1015600082F83D0000BF002082F83C0000BF00BFB1
:10157000CDE70000002C01400004004000080040BE
:1015800010B504460CB9012010BD94F83D0028B9EF
:10159000002084F83C00204600F026F8022084F861
:1015A0003D00211D206800F04BFE012084F846001C
:1015B00000BF84F83E0001213F2001554020015525
:1015C0004120015500BF00BF012084F842004320A4
:1015D0000155442001554520015500BF012084F8E4
:1015E0003D000020D0E7000008B50168B1F1804F50
:1015F0000DD100BF0649C96941F00101044AD1611A
:101600001146C96901F00101009100BF00BF08BD8A
:1016100000100240014691F83D00012801D0012050
:101620007047022081F83D000868C06840F0010062
:101630000B68D860124B086898420BD00868B0F16C
:10164000804F07D00F4B0868984203D00E4B0868B4
:1016500098420CD10868806800F00702062A0CD076
:101660000868006840F001000B68186005E0086831
:10167000006840F001000B6818600020D0E700000F
:10168000002C014000040040000800402DE9F0411A
:1016900004460D46002700BF94F83C00012802D103
:1016A0000220BDE8F081012084F83C0000BF022048
:1016B00084F83D002068866826F0770626F47F4689
:1016C000206886602868502833D00CDC202850D051
:1016D00004DC00284BD0102851D149E0302849D0F3
:1016E00040284CD139E060282DD0702807D0B0F5C3
:1016F000805F03D0B0F5005F41D10DE041E0D5E956
:1017000002136A68206800F0DDFD2068866846F0F4
:1017100077062068866034E0D5E902136A6820689D
:1017200000F0D0FD2068806840F480402168886027
:1017300027E0EA686968206800F0D8FD5021206839
:1017400000F0CBFD1DE0EA686968206800F0E1FD6B
:101750006021206800F0C1FD13E0EA686968206834
:1017600000F0C4FD4021206800F0B7FD09E000BF93
:1017700000BF00BF2968206800F0AFFD01E001272D
:1017800000BF00BF012084F83D0000BF002084F8A6
:101790003C0000BF384684E7704770B504462068B7
:1017A000C5682068066906F00200022819D105F014
:1017B0000200022815D1401F21680861012020770E
:1017C0002068806900F0030018B12046FFF7E4FFAD
:1017D00005E0204600F097F8204600F095F800203C
:1017E000207706F00400042819D105F0040004282D
:1017F00015D1C043216808610220207720688069E4
:1018000000F4407018B12046FFF7C6FF05E02046FF
:1018100000F079F8204600F077F80020207706F0F5
:101820000800082819D105F00800082815D1C04380
:1018300021680861042020772068C06900F0030057
:1018400018B12046FFF7A8FF05E0204600F05BF83E
:10185000204600F059F80020207706F010001028EC
:1018600019D105F01000102815D1C0432168086176
:10187000082020772068C06900F4407018B1204625
:10188000FFF78AFF05E0204600F03DF8204600F013
:101890003BF80020207706F0010048B105F0010078
:1018A00030B16FF0010021680861204600F02EF889
:1018B00006F08000802809D105F08000802805D13D
:1018C000C043216808612046FFF716FE06F040007D
:1018D000402809D105F04000402805D1C0432168C7
:1018E0000861204600F01EF806F02000202809D1EB
:1018F00005F02000202805D1C0432168086120465A
:10190000FFF7FBFD70BD70477047000010B504463F
:1019100003492068884201D1FFF76AF910BD000031
:101920000008004070477047704700002DE9F84FED
:101930000446206805682068C668206847694FF03B
:101940000009CA4605F00F09B9F1000F0AD105F0E8
:10195000200038B106F0200020B1204600F017FE2C
:10196000BDE8F88FB9F1000F7BD007F0010018B97E
:1019700006F49070002874D005F0010030B106F430
:10198000807018B1606C40F00100606405F00400E4
:1019900030B107F0010018B1606C40F002006064E3
:1019A00005F0020030B107F0010018B1606C40F0A2
:1019B0000400606405F0080048B106F0200010B98A
:1019C00007F0010018B1606C40F008006064606CC2
:1019D000002845D005F0200028B106F0200010B105
:1019E000204600F0D4FD20684069C0F3801A606C86
:1019F00000F0080010B9BAF1000F2CD0204600F01A
:101A00006DFD2068406900F0400000B300BF00BFDA
:101A10002168143151E8001F21F040002168143181
:101A200041E80002002AF3D100BFE06B50B17748D3
:101A3000E16B4863E06BFEF78FFD88B1E06B416BB3
:101A400088470DE02046FFF76FFF09E009E02046D8
:101A5000FFF76AFF04E02046FFF766FF002060649E
:101A60007EE7206B012877D105F01000002873D0A5
:101A700006F010000028FAD000BF00200090206877
:101A80000068009020684068009000BF00BF206898
:101A9000406900F0400000285FD0E06B00684068BB
:101AA0001FFA80F8B8F1000F55D0A08D404552DDE7
:101AB000A4F82E80E06B8069202843D000BF00BFCF
:101AC00021680C3151E8001F21F4807021680C312D
:101AD00041E80002002AF3D100BF00BF00BF216827
:101AE000143151E8001F21F001002168143141E850
:101AF0000002002AF3D100BF00BF00BF21681431EB
:101B000051E8001F21F040002168143141E8000233
:101B1000002AF3D100BF202084F842000020206377
:101B200000BF00BF21680C3151E8001F21F01000F8
:101B300021680C3141E80002002AF3D100BFE06BBC
:101B4000FEF7DEFC02206063A08DE28D801A81B278
:101B50002046FFF7E8FE03E742E0A08DE18D401A42
:101B60001FFA80F8E08DD0B3B8F1000F37D000BF76
:101B700000BF21680C3151E8001F21F490702168EA
:101B80000C3141E80002002AF3D100BF00BF00BFC2
:101B90002168143151E8001F21F00100216814313F
:101BA00041E80002002AF3D100BF202084F842005F
:101BB0000020206300BF00BF21680C3151E8001FE6
:101BC00021F0100021680C3141E80002002AF3D115
:101BD00000BF0220606341462046FFF7A4FEBFE637
:101BE00005F0800030B106F0800018B1204600F00A
:101BF0002FFEB5E605F0400030B106F0400018B108
:101C0000204600F0A1FCABE600BFA9E63B2300089C
:101C100010B504460CB9012010BDA06900B100E068
:101C200000BF94F8410028B9002084F84000204605
:101C300000F02AF8242084F841002068C06820F4CD
:101C400000502168C860204600F020FD206800692F
:101C500020F49040216808612068406920F02A0043
:101C6000216848612068C06840F400502168C8605D
:101C700000206064202084F8410084F842000020A5
:101C8000606300BFC8E7000010B586B004460020BE
:101C9000029003900490059037492068884268D1EB
:101CA00000BF3648C06940F400303449C861084676
:101CB000C06900F40030019000BF00BF00BF0846BB
:101CC000806940F0040088610846806900F00400E3
:101CD000019000BF00BF0420029002200390032067
:101CE000059002A92648FEF7DFFD0820029000209B
:101CF0000390049002A92248FEF7D6FD214822490C
:101D000008600020486000211F4881608021C16078
:101D10000021016141618161C161FEF743FD08B1AC
:101D2000FEF7EBFB00BF1848E063446200BF1548B4
:101D30001430164908601020486000211348816063
:101D40008021C1600021016141618161C161FEF7B3
:101D500029FD08B1FEF7D1FB00BF0C48A063446227
:101D600000BF002205212620FEF7FCFF2620FEF7FB
:101D7000E9FF06B010BD0000004400400010024022
:101D8000000801406C0002406C010020B0010020FE
:101D900070B504460D46164694F8420020280BD133
:101DA00005B10EB9012070BD0020206332462946DE
:101DB000204600F0E9FCF6E70220F4E703498842F8
:101DC00002D10121024A1160704700002401002065
:101DD0000800002070470000F7B50446154694F847
:101DE0004100202836D1019800B10DB90120FEBD77
:101DF00001982062A584E58400206064212084F895
:101E000041001548A16B88621448A16BC862144850
:101E1000A16B08630020A16B486301AE23681A1D03
:101E200031682B46A06BFEF7F1FC6FF04000216893
:101E3000086000BF00BF2168143151E8001F41F065
:101E400080002168143141E80002002AF3D100BF6C
:101E50000020CCE70220CAE777240008CF2400083E
:101E60004F2300080349884202D10121024A116030
:101E7000704700002401002004000020704700BFCC
:101E8000FEE7000008B500BF0E48406940F00100C1
:101E90000C4948610846406900F00100009000BF0D
:101EA00000BF002205211020FEF75CFF1020FEF786
:101EB00049FF002205211120FEF754FF1120FEF7F3
:101EC00041FF08BD001002401CB5134A0021134811
:101ED00000F034FF124908600020182103468022D8
:101EE000CDE900100FA1124802F0C4FB0020192117
:101EF00003468022CDE900100EA1114802F0BAFB82
:101F00000020182103468022CDE900100DA10F48C2
:101F100002F0B0FB1CBD0000404C0008A9210008E5
:101F20004800002073746174655461736B00000095
:101F300089390008627574746F6E5461736B0000A8
:101F40000529000852785461736B0000AD20000829
:101F500000B585B00020019002900390049000BF6E
:101F60001B48806940F02000194988610846806953
:101F700000F02000009000BF00BF00BF084680694D
:101F800040F0040088610846806900F00400009079
:101F900000BF00BF00224FF470610E48FEF71CFE28
:101FA00051200190002002900120039001A90948CE
:101FB000FEF77AFC4FF4706001900120029002203D
:101FC0000390049001A90348FEF76EFC05B000BD24
:101FD000001002400008014000B587B000200390C7
:101FE000049005900690019002904FF080401449B3
:101FF00008604720486000211148816040F2E731C5
:10200000C160002101618161FFF7BAFA08B1FEF7F2
:1020100074FA4FF48050039003A90948FFF736FB88
:1020200008B1FEF76AFA00200190029001A9044865
:10203000FFF764FA08B1FEF760FA07B000BD0000D0
:10204000DC00002010B50B480B4908604FF4E1306C
:102050004860002108488160C16001610C21416134
:1020600000218161C161FFF7D3FD08B1FEF745FA98
:1020700010BD0000004400402401002000BFFEE726
:1020800000BFFEE708B508490968C9084FF47A722D
:10209000B1FBF2F14143009100BF00BF00994A1E1D
:1020A00000920029F9D108BD5800002008B500BFF2
:1020B00035480068012863D1042269463348FFF798
:1020C00067FE00285CD132480078022837D19DF89D
:1020D0000100442813D102202E4908702E480068C0
:1020E00001284DD100202C4908602C48FEF7B8F893
:1020F00084B2224629492548FFF76EFE40E09DF84C
:102100000100532813D10320224908702248006897
:10211000012835D10020204908602148FEF7A0F8A9
:1021200084B222461E491948FFF756FE28E09DF862
:102130000100552824D101201649087020E09DF89F
:102140000100462815D102201149087001201149CB
:1021500008701148006801280BD100200E49086062
:102160001048FEF77DF884B222460E490748FFF773
:1021700033FE9DF80100432802D103200449087072
:10218000322001F0B1FD93E7080000202401002077
:102190000000002001000020040000201A000020A0
:1021A000260000203200002000BF012000F070FD5A
:1021B000FBE710B54FF0E020006902F0EBFA0128D0
:1021C00001D001F035FF10BD00B58FB0282105A862
:1021D000FEF7B2F814216846FEF7AEF8012005902C
:1021E00000040690002007900120099002200C9026
:1021F000C1030D914FF4E0110E9105A8FEF74AFFBF
:1022000008B1FEF77AF90F2000900220019000201B
:1022100002904FF4806003900020049002216846F1
:10222000FEF7F2FD08B1FEF768F90FB000BD704788
:1022300010B50248FFF7B1FA10BD0000F40100200C
:1022400010B502681C4B984208D0B0F1804F05D001
:102250001A4B984202D01A4B984203D122F07002D6
:102260004B681A43144B984208D0B0F1804F05D008
:10227000124B984202D0124B984203D122F4407282
:10228000CB681A4322F080034C6943EA04020260DF
:102290008B68C3620B688362074B984201D10B695C
:1022A000036301234361036903F001031BB1036965
:1022B00023F00103036110BD002C01400004004025
:1022C0000008004030B50C46816821F47F4142EAA5
:1022D000032525432943816030BD0A46816821F0EA
:1022E000700142F0070319438160704730B50B4617
:1022F0001446026A056A25F001050562816921F02C
:10230000F00141EA041122F00A021A4381610262DB
:1023100030BD30B50B461446026A056A25F010053B
:102320000562816921F4704141EA043122F0A00282
:1023300042EA03128161026230BD70B505466C6AE3
:102340000020E085E0842046FFF7EEFA70BD70B50E
:1023500006460025746A20684069C0F3C01594F8E9
:102360004100212805D125B10020E084204600F05D
:10237000FBF820684069C0F3801594F842002228D9
:1023800005D125B10020E085204600F0A7F8606C5B
:1023900040F0100060642046FFF7C6FA70BD70B5CB
:1023A00005466C6A2868006800F02000002842D1C9
:1023B000E08500BF00BF21680C3151E8001F21F407
:1023C000807021680C3141E80002002AF3D100BF7F
:1023D00000BF00BF2168143151E8001F21F0010047
:1023E0002168143141E80002002AF3D100BF00BF88
:1023F00000BF2168143151E8001F21F0400021681E
:10240000143141E80002002AF3D100BF202084F8F3
:102410004200206B01280ED100BF00BF21680C31A3
:1024200051E8001F21F0100021680C3141E8000242
:10243000002AF3D100BF00206063206B012804D183
:10244000A18D2046FFF76FFA02E02046FFF7B6FCA9
:1024500070BD70B505466C6A01206063206B012871
:1024600005D1A08D41082046FFF75DFA02E0204625
:10247000FFF7B0FC70BD70B505466C6A286800684F
:1024800000F02000F8B90020E08400BF00BF216800
:10249000143151E8001F21F080002168143141E817
:1024A0000002002AF3D100BF00BF00BF21680C3139
:1024B00051E8001F41F0400021680C3141E8000262
:1024C000002AF3D102E02046FFF7CCFC70BD70B5C6
:1024D0000446656A2846FFF7D1FC70BD00BF00BF07
:1024E00002680C3252E8002F22F4907102680C321C
:1024F00042E80013002BF3D100BF00BF00BF026809
:10250000143252E8002F22F001010268143242E82E
:102510000013002BF3D100BF016B01290ED100BFC6
:1025200000BF02680C3252E8002F22F0100102684E
:102530000C3242E80013002BF3D100BF202180F8B9
:10254000421000210163704710B504462068C0683E
:1025500020F040002168C860202084F84100204617
:10256000FFF780FC002010BD00BF00BF02680C32E6
:1025700052E8002F22F0C00102680C3242E800133A
:10258000002BF3D100BF202180F841107047F8B52F
:10259000044694F84200222875D1A068B0F5805F07
:1025A0000CD1206950B90025A66A20684068C0F3A4
:1025B00008003080A06A801CA06215E0A56A002691
:1025C000A068B0F5805F03D0A06828B9206918B969
:1025D00020684068287004E02068406800F07F00B0
:1025E0002870A06A401CA062E08D401E80B2E08589
:1025F000002846D12068C06820F020002168C8600B
:102600002068C06820F480702168C8602068406934
:1026100020F0010021684861202084F84200002059
:102620006063206B012826D10020206300BF00BF1B
:1026300021680C3151E8001F21F0100021680C3195
:1026400041E80002002AF3D100BF2068006800F0D2
:10265000100010280AD100BF0020009020680068F8
:10266000009020684068009000BF00BFA18D204608
:10267000FFF759F902E02046FFF7A0FB0020F8BD64
:1026800001E00020FBE70220F9E7000070B50446F6
:102690002168096921F44051E268114322681161FF
:1026A0002269A1681143626941EA02052168C9688B
:1026B00041F20C62914329432268D1602168496943
:1026C00021F44071A2691143226851612D4A2168A9
:1026D000914202D1FEF796FC01E0FEF783FC00EB8D
:1026E000C00101EB001162689200B1FBF2F100EB56
:1026F000C00202EB001263689B00B2FBF3F264239A
:10270000B2FBF3F202EBC20303EB0212A1EB820174
:10271000322202EB01116422B1FBF2F101F0F0016F
:1027200000EBC00202EB001263689B00B2FBF3F205
:102730006423B2FBF3F201EB021200EBC00101EBE8
:10274000001163689B00B1FBF3F100EBC00303EBE6
:1027500000136668B600B3FBF6F36426B3FBF6F32A
:1027600003EBC30606EB0313A1EB8301322303EB58
:1027700001116423B1FBF3F101F00F011144226850
:10278000916070BD0038014077B581B004461546B0
:102790000298A062A58500206064222084F842008F
:1027A0002848E16B88622848E16BC8622748E16BE2
:1027B00008630020E16B486302AE32682368191D8C
:1027C0002B46E06BFEF722F800BF00200090206847
:1027D0000068009020684068009000BF00BF20693A
:1027E00070B100BF00BF21680C3151E8001F41F4F7
:1027F000807021680C3141E80002002AF3D100BF4B
:1028000000BF00BF2168143151E8001F41F00100F2
:102810002168143141E80002002AF3D100BF00BF53
:1028200000BF2168143151E8001F41F040002168C9
:10283000143141E80002002AF3D100BF002004B0A7
:1028400070BD00009F230008532400084F23000898
:10285000014691F84100212828D18868B0F5805FB1
:102860000BD1086948B90A6A1088C0F308000B68E0
:102870005860086A801C086205E00B6A581C0862F0
:1028800018780B685860C88C401E80B2C88458B94C
:102890000868C06820F080000B68D8600868C068CD
:1028A00040F040000B68D860002070470220FCE731
:1028B00010B50248FFF73AF810BD000024010020CF
:1028C00000BFFEE702480068C0F302207047000026
:1028D0000CED00E010B5002804DB0A07130E054AD2
:1028E000135406E00A07140E034A00F00F031B1FDF
:1028F000D45410BD00E400E018ED00E0EFF30580D3
:102900007047000000BF00BF00BF4D480478DCB92D
:1029100001214C48FEF758F918B9012048490870C0
:1029200089E010214748FEF74FF918B902204449C1
:10293000087080E040214348FEF746F900287AD12C
:1029400003203F49087076E0022C74D101213D48F4
:10295000FEF73AF948BB142001F0C6F901213948C5
:10296000FEF732F9002866D100BF01213548FEF795
:102970002BF90028F9D03448006850B901203249B9
:102980000860324800783249087004202F490870E6
:1029900051E02D48006801284DD100202A490860E7
:1029A0002B4800782949087045E010212548FEF79A
:1029B0000BF958BB142001F097F910212148FEF7BC
:1029C00003F918BB00BF10211E48FEF7FDF80028D0
:1029D000F9D01E480078012801D1022000E0012032
:1029E0001A49087008460078012810D11948006873
:1029F000012820D10020174908601748FDF730FC56
:102A000085B22A4614491548FFF7E6F913E00F4846
:102A1000007802280FD10F48006801280BD1002050
:102A20000C4908600E48FDF71BFC85B22A460C498C
:102A30000A48FFF7D1F9322001F056F965E70000A6
:102A400000000020000801400C00002001000020D0
:102A500010000020040000203E000020240100207F
:102A60001A00002010B5012211024448FEF7B4F804
:102A7000C82001F039F9012251024048FEF7ACF8B4
:102A8000C82001F031F9012291023C48FEF7A4F878
:102A9000C82001F029F90122D1023848FEF79CF83C
:102AA000C82001F021F900224FF480713348FEF76D
:102AB00093F8C82001F018F900224FF400712F4854
:102AC000FEF78AF8C82001F00FF900224FF4806168
:102AD0002A48FEF781F8C82001F006F900224FF4D9
:102AE00000612648FEF778F8C82001F0FDF80024C0
:102AF00014E001224FF470612048FEF76DF84FF4A6
:102B0000FA7001F0F1F800224FF470611B48FEF7F3
:102B100063F84FF4FA7001F0E7F8641C032CE8DB6B
:102B200001224FF470611548FEF756F8144800680A
:102B300001280CD10020124908601248FDF790FBD3
:102B400084B222460F491048FFF746F915E007E026
:102B50004FF080500D490860BFF34F8FBFF36F8F68
:102B6000074800680028F3D00648FDF779FB84B2D7
:102B7000224604490448FFF72FF910BD0008014020
:102B800004000020110000202401002004ED00E0DA
:102B900064E033480478052C5CD2DFE804F05A0383
:102BA0002A51580000224FF470612E48FEF714F8A5
:102BB000012211022B48FEF70FF87D2001F094F856
:102BC000012251022748FEF707F87D2001F08CF81A
:102BD000012291022348FDF7FFFF7D2001F084F8D8
:102BE0000122D1021F48FDF7F7FF7D2001F07CF89C
:102BF00030E000224FF470611A48FDF7EDFF01222A
:102C0000D1021848FDF7E8FF7D2001F06DF80122A0
:102C100091021448FDF7E0FF7D2001F065F80122E4
:102C200051021048FDF7D8FF7D2001F05DF8012228
:102C300011020C48FDF7D0FF7D2001F055F809E0A6
:102C400000224FF470610748FDF7C6FF02E0002440
:102C500000E000BF00BF322001F046F899E7000015
:102C60000100002000080140FDF7CEFFFFF7ACFA9D
:102C7000FFF76EF9FFF706F9FFF7E4F9FFF7ACF994
:102C800000F016F8FFF720F900F028F800BFFEE783
:102C900070B50546FFF732FE10B16FF0050404E091
:102CA000002415B1284601F01FF8204670BD000031
:102CB00010B5FFF723FE10B16FF0050409E00648D8
:102CC000006820B9012004490860002401E04FF0A9
:102CD000FF34204610BD0000AC00002070B5FFF7A7
:102CE0000DFE10B16FF005041FE0114800680128C7
:102CF00019D100BF801F0021002804DB0A07130E32
:102D00000C4A135406E00A07150E0B4A00F00F0395
:102D10001B1FD55400BF00BF02200549086001F009
:102D20005FF8002401E04FF0FF34204670BD000042
:102D3000AC00002000E400E018ED00E02DE9FF47C2
:102D400080468946144600200390FFF7D7FD0028EF
:102D50004ED1B8F1000F4BD0802618258246471E71
:102D600044B3206808B1D4F800A0A06900B1A569F7
:102D70002DB1382D03D8207900F0010018B10020C2
:102D800004B0BDE8F087606908B160698608A06892
:102D900040B1E0685C2805D3206918B1606908B1CA
:102DA000012708E0A06830B9E06820B9206910B9AF
:102DB000002700E00027012F0CD12169A0684B46B5
:102DC0003246CDE9005102905146404601F084FC64
:102DD00003900DE067B903A8B2B24B465146CDE966
:102DE0000050404601F046FC012801D0002003902D
:102DF0000398C5E72DE9F04105460E4616480768D9
:102E000016480068001D00F0E7FD681C38B936B1AF
:102E100012480168091D124800F034FE1AE07C19BE
:102E20000E4800684460BC4207D20C480168091D86
:102E30000C48006800F00CFE0CE008480168091D11
:102E40000948006800F004FE08480068844201D286
:102E500006480460BDE8F081700000205C0000209E
:102E60002C07002064000020600000208C0000205F
:102E700010B5044600F012FE24480068401C2349A7
:102E800008602348006840B921480460084600688B
:102E900001280DD100F0FCF90AE01E48006838B99D
:102EA0001B480068C06AE16A884201D8184804607B
:102EB00019480068401C18490860084600686064AA
:102EC0001649E06A0968884202D91449E06A086034
:102ED000E16A01EB8101124A02EB8100211D00F041
:102EE000D1FD00F005FE0B48006868B10848006895
:102EF000C06AE16A884207D24FF0805009490860F1
:102F0000BFF34F8FBFF36F8F10BD00006C00002028
:102F10005C00002078000020880000207400002061
:102F20007C02002004ED00E008B500F0B7FD124877
:102F30000068E8B9114800F07BFD114800F078FD09
:102F40000E48104908600E480F49086000200F4BDA
:102F50000F4A102100900A2001F084F80649086009
:102F60000846006820B10BA10348006800F080FE0D
:102F700000F0BEFD08BD0000A000002040070020BA
:102F800054070020980000209C00002068070020C3
:102F9000B8070020546D72510000000010B516E013
:102FA00000F07CFD0C48C068C468201D00F014FDD2
:102FB0000A480068401E0949086009480068401E28
:102FC0000749086000F094FD204600F05FF80448CF
:102FD00000680028E4D110BD180700206C00002014
:102FE0006800002070B504460D46206C70B1216C5D
:102FF000E0680144E160D4E90210884201D321680D
:10300000E1602846226CE168FDF749F970BD2DE9C1
:10301000F04104460F4615464FF00008A66B206CA1
:1030200048B9206800282CD1A06801F06BFC8046CC
:103030000020A06025E07DB93946226C6068FDF76C
:103040002EF9216C606808446060D4E9010188426F
:1030500017D32068606014E03946226CE068FDF701
:103060001EF9216CE068411AE1602168E06888423D
:1030700003D2216CA068411AE160022D01D106B192
:10308000761E701CA0634046BDE8F08110B5044672
:1030900094F8590030B9206B00F048FD204600F04C
:1030A00045FD1AE094F85900012803D1204600F0AC
:1030B0003DFD12E094F85900022801D1012000E002
:1030C000002050B900BF502080F31188BFF34F8F0C
:1030D000BFF36F8F00BF00BFFEE710BD0146084A77
:1030E000126812680AB9012200E000220A600A6828
:1030F00022B9034A1268D268106800E000207047C5
:103100009800002030B54FF44063174800F00704E2
:103110002CB1C01D20F00700134C041B1B1B0246E2
:10312000124C22600024114D6C60D018083820F039
:1031300007000F4C206000240D4D2D686C600C4D75
:103140002D682C601146441A4C60094C24680C60B0
:10315000084D4C682C60084D4C682C604FF00044C2
:10316000064D2C6030BD0000100F0020B000002084
:10317000B8000020C0000020BC000020CC000020CF
:1031800000BFFFF70BFF064800680128F9D94FF090
:10319000805004490860BFF34F8FBFF36F8FF0E793
:1031A0007C02002004ED00E02DE9F04106460D46CA
:1031B00017469846069C0DB9246000E02760E66338
:1031C00025640121204600F0BDFF84F84C80BDE855
:1031D000F0812DE9F05F82460E4690469B460A9F9D
:1031E0000C9C4FEA8801A522206BFDF79DF8A8F101
:1031F0000100216B01EB800929F0070909F00700A4
:1032000008B9012000E0002050B900BF502080F331
:103210001188BFF34F8FBFF36F8F00BF00BFFEE772
:1032200086B1002507E0715D04F134004155705D01
:1032300000B902E06D1C102DF5D300BF0021432022
:10324000015502E0002084F83400382F00D33727DE
:10325000E762E76400202065201D00F0F6FB04F122
:10326000180000F0F2FB2461C7F13800A06164622D
:103270000020606584F858005A465146484600F0E0
:1032800071FB20600B9808B10B980460BDE8F09FBB
:1032900010B5002407E004EB84010F4A02EB810023
:1032A00000F0C6FB641C382CF5D30C4800F0C0FBC2
:1032B0000B4800F0BDFB0B4800F0BAFB0A4800F0D9
:1032C000B7FB0A4800F0B4FB044809490860044809
:1032D0000849086010BD00007C020020DC060020C8
:1032E000F006002004070020180700202C0700200B
:1032F000600000206400002010B50146164800E080
:10330000006803688B42FBD30246436813448B4238
:1033100004D143684C682344436001460A464B6825
:1033200013440468A34211D10C4C03682468A342DF
:1033300008D04B680468646823444B6003681B68CA
:103340000B6005E0054B1B680B6001E003680B6038
:10335000884200D0016010BDB0000020B8000020FD
:103360002DE9F04104460D4616461F464FF0000871
:1033700065602461B5420CD8F01BA169884202D374
:103380004FF0010811E0211D0948006800F060FBC2
:103390000BE0BE4204D2BD4202D34FF0010804E06C
:1033A000211D0448006800F053FB4046BDE8F08151
:1033B0009C0000209800002070B5054600F06EFBD0
:1033C000A86B08B9012400E0002400F091FB20461E
:1033D00070BD70B5054600F061FBA86BE96B8842D3
:1033E00001D1012400E0002400F082FB204670BDE2
:1033F000F8B505460F461A480068C068C468201D25
:1034000000F0EAFA94F8280000F00400E8B1A0699E
:1034100041192B463A462046FFF7A2FFD8B10020BB
:1034200003462A4601460090204601F0C7FB0646A7
:1034300056B900BF502080F31188BFF34F8FBFF300
:103440006F8F00BF00BFFEE705E094F8280020F072
:10345000010084F828002046216A8847F8BD000052
:1034600098000020F0B587B0A0E00398002811DA9A
:1034700004AE56B900BF502080F31188BFF34F8FC0
:10348000BFF36F8F00BF00BFFEE7D6E90020B16831
:10349000904700BF03980028E6DB059C606908B9E7
:1034A000012000E0002010B9201D00F095FA02A8CC
:1034B00000F0DEF8054603980A2875D2DFE800F030
:1034C00009050739416306083A4200BF00BF00BF43
:1034D00000BF94F8280040F0010084F82800049808
:1034E000A269811803462A462046FFF739FFF8B142
:1034F0002046216A884794F8280000F00400B8B1FB
:10350000002000900498A169421800231946204623
:1035100001F054FB074657B900BF502080F31188D3
:10352000BFF34F8FBFF36F8F00BF00BFFEE700BF39
:103530003BE000BF94F8280020F0010084F8280048
:1035400033E000BF94F8280040F0010084F8280020
:103550000498A061A06908B1012000E0002050B9E2
:1035600000BF502080F31188BFF34F8FBFF36F8FE0
:1035700000BF00BFFEE7A06941192B462A4620463E
:10358000FFF7EEFE11E094F8280000F0020018B9F1
:10359000204600F0CBFA05E094F8280020F0010066
:1035A00084F8280001E0FFE700BF00BF002203A964
:1035B0000448006800F064FF00287FF456AF07B0AD
:1035C000F0BD0000A0000020F8B505460C4600F054
:1035D00063FC684600F04CF80646009820BB44B9EE
:1035E000B54206D801F02CFA31462846FFF700FF15
:1035F0001CE03CB10E480068006808B9012000E0FA
:1036000000200446A91B22460A48006800F046FB39
:1036100001F016FA50B94FF0805007490860BFF327
:103620004F8FBFF36F8F01E001F00AFAF8BD000081
:103630009C000020A000002004ED00E00A49096879
:10364000096809B9012100E0002121B14FF0FF31E3
:10365000064A116006E004490968C968C868034A57
:103660004168116070470000600000208C0000205D
:1036700070B5044601F09EF805460748006885428B
:1036800004D200F00BF80120206001E0002020604F
:1036900001480560284670BDA80000202DE9F843C8
:1036A00034E025480068C068056823480068C068A1
:1036B000C468201D00F090F92046216A884794F8DC
:1036C000280000F0040008B3A0694619AE4207D9EB
:1036D00066602461211D1848006800F0B9F915E002
:1036E000002003462A4601460090204601F066FA73
:1036F000074657B900BF502080F31188BFF34F8FA2
:10370000BFF36F8F00BF00BFFEE700BF0A4800682D
:10371000006808B9012000E000200028C1D0064858
:10372000D0F8008005480068034908600348C0F8E5
:103730000080BDE8F8830000980000209C00002075
:103740000E480068401C08B9012000E0002050B974
:1037500000BF502080F31188BFF34F8FBFF36F8FEE
:1037600000BF00BFFEE700BF502080F31188BFF309
:103770004F8FBFF36F8F00BF00BFFEE7D000002068
:1037800008B500BF6846FFF7A9FC0446204600992B
:10379000FFF71AFFFFF766FEF4E770B5044600F086
:1037A0007DF994F9455010E0606A08B9012000E005
:1037B000002038B904F1240001F0F6F818B100F047
:1037C000CDFA00E003E0681E45B2002DECDC00BF3E
:1037D000FF2084F8450000F08BF900F05FF994F9C0
:1037E000445010E0206908B9012000E0002048B9E9
:1037F00004F1100001F0D8F808B100F0AFFA681E2B
:1038000045B200E001E0002DECDC00BFFF2084F8B1
:10381000440000F06DF970BD2DE9F04104464FF011
:10382000000800F039FB4948006808B9FFF76AFC56
:10383000474800682040002870D1D4B1083404F013
:103840000700B0B104F00700C0F10800044404F020
:10385000070008B9012000E0002050B900BF502047
:1038600080F31188BFF34F8FBFF36F8F00BF00BF8E
:10387000FEE7002C52D03748006884424ED8364EBE
:103880003046056801E02E462D686868A04202D2E5
:1038900028680028F7D12D48006885423ED030685E
:1038A00000F10808286830606868001B102819D9E2
:1038B0002F1907F0070008B9012000E0002050B9D7
:1038C00000BF502080F31188BFF34F8FBFF36F8F7D
:1038D00000BF00BFFEE76868001B78606C60384678
:1038E000FFF70AFD1B4968680968081A194908604A
:1038F0000846006819490968884203D215480068DB
:103900001649086012496868096808436860002021
:10391000286013480068401C1149086001F090F8C5
:1039200008F0070008B9012000E0002050B900BFEE
:10393000502080F31188BFF34F8FBFF36F8F00BF0C
:1039400000BFFEE74046BDE8F0810000B80000205F
:10395000CC000020BC000020B0000020C0000020EF
:10396000C4000020001F4FF080730360001F21F08F
:1039700001030360001F034B03601438026020380A
:103980007047000041370008002400BF00F086F8AF
:1039900010480078A04205D100F0AAF8322000F0CB
:1039A000A3F9F3E70B48047800F0A2F864B1012C06
:1039B00004D0022C05D0032C07D104E0FFF752F805
:1039C00003E0FFF7E5F800E000BF00BF322000F0A1
:1039D0008BF9DBE70000002001460A69D1E90130DC
:1039E0009860D1E9010358605068884201D1886825
:1039F0005060002008611068401E10601068704719
:103A0000034B0360034B0B6080231360704700007F
:103A100058080020B4080020034B0360034B0B60E0
:103A20004FF4807313607047B40A0020100B00201D
:103A300000F1080141604FF0FF31816000F10801A1
:103A4000C160016100210160704700210161704780
:103A500010B502460B685C1C0CB9106907E002F156
:103A6000080000E04068446824689C42FAD9446831
:103A70004C604C68A160886041600A611468641CF5
:103A8000146010BD42684A6093688B609368596007
:103A90009160086103685B1C0360704700BF5020A1
:103AA00080F31188BFF34F8FBFF36F8F00BF0E48B5
:103AB0000068401C0C49086008460068012812D1C3
:103AC0000A480068C0B208B9012000E0002050B9DF
:103AD00000BF502080F31188BFF34F8FBFF36F8F6B
:103AE00000BF00BFFEE77047D000002004ED00E0FB
:103AF0000D48006850B900BF502080F31188BFF313
:103B00004F8FBFF36F8F00BF00BFFEE7064800680E
:103B1000401E054908600846006820B9002080F36F
:103B2000118800BF00BF7047D000002070B5064666
:103B30003546002E44D0083D2C462249606809686D
:103B4000084008B1012000E0002050B900BF50201B
:103B500080F31188BFF34F8FBFF36F8F00BF00BF9B
:103B6000FEE7206808B9012000E0002050B900BF3E
:103B7000502080F31188BFF34F8FBFF36F8F00BFCA
:103B800000BFFEE70F49606809680840C0B12068BF
:103B9000B0B90C49606809688843606000F07CF93E
:103BA0000949606809680844074908602046FFF72A
:103BB000A3FB06480068401C0449086000F040FF71
:103BC00070BD0000CC000020BC000020C800002018
:103BD00000204FF0E02108618861064800684FF43A
:103BE0007A71B0FBF1F0401E4FF0E02148610720F0
:103BF000086170475800002070B5FCF70DFB0446C3
:103C0000102C16D304F1E02090F8F05315480078FA
:103C1000854201DB012000E0002050B900BF5020A8
:103C200080F31188BFF34F8FBFF36F8F00BF00BFCA
:103C3000FEE70D48006800F4E0600C49096888421E
:103C400001D8012000E0002050B900BF502080F3CF
:103C50001188BFF34F8FBFF36F8F00BF00BFFEE728
:103C600070BD0000D40000200CED00E0D800002062
:103C7000024600200BE0084B53F8303033B9064BB6
:103C800043F8301003EBC0035A6002E0401C0828E0
:103C9000F1D300BF704700003C0200202DE9F04145
:103CA00005460E4617462C46FFF7F8FE94F94400E9
:103CB000401C10B9002084F8440094F94500401CD1
:103CC00010B9002084F84500FFF712FFA06B28B957
:103CD0003A46314604F1240000F062F82046FFF72E
:103CE0005CFDBDE8F081000070B504460025D4B14C
:103CF0001248006808B9012000E0002050B900BF58
:103D0000502080F31188BFF34F8FBFF36F8F00BF38
:103D100000BFFEE700F0C0F800212046FFF76AF878
:103D200000F08EFE05463DB94FF080500449086012
:103D3000BFF34F8FBFF36F8F70BD00009400002062
:103D400004ED00E003490968016003490968416026
:103D5000704700008400002070000020012001490D
:103D6000086070478000002070B504460D4654B9C5
:103D700000BF502080F31188BFF34F8FBFF36F8FC8
:103D800000BF00BFFEE70548016818312046FFF775
:103D90005FFE01212846FFF72DF870BD5C00002072
:103DA00070B505460E46144655B900BF502080F345
:103DB0001188BFF34F8FBFF36F8F00BF00BFFEE7C7
:103DC0000648016818312846FFF75CFE0CB14FF039
:103DD000FF3621463046FFF70DF870BD5C0000202D
:103DE00010B586B000200590049003AA04A905A888
:103DF000FFF706FE0022DDE904101346CDE900219D
:103E000002901EA11F48039A00F066FC1E4908603C
:103E10000846006808B1012400E00024012C02D10A
:103E200000F090FE0446012C15D100BF502080F315
:103E30001188BFF34F8FBFF36F8F00BF4FF0FF307C
:103E400012490860012012490860002011490860E9
:103E500000F072F810E0601C08B1012000E00020C2
:103E600050B900BF502080F31188BFF34F8FBFF3CC
:103E70006F8F00BF00BFFEE706B010BD49444C4540
:103E80000000000081310008900000208C0000201C
:103E9000780000207000002002480068401C0149A2
:103EA00008607047940000201E48006818B1012087
:103EB0001D49086034E000201B4908601B48016868
:103EC0000CE051B900BF502080F31188BFF34F8F31
:103ED000BFF36F8F00BF00BFFEE7491E01EB8100FB
:103EE000134A52F8200008B9012000E00020002801
:103EF000E7D101EB81020E4B03EB8200426852686E
:103F0000426000F108024368934202D1426852685D
:103F100042604268D268074B1A600448016000BFE3
:103F200070470000940000208000002074000020F2
:103F30007C0200205C0000201CB53849084600784F
:103F40000190FF200A4610700846007800909DF806
:103F5000000000F0F0009DF80020904201D1012007
:103F600000E0002050B900BF502080F31188BFF35B
:103F70004F8FBFF36F8F00BF00BFFEE79DF80000BB
:103F800000F05000264A10700720264A106009E011
:103F900024480068401E234A10609DF80000400637
:103FA000000E00909DF8000000F080008028EFD007
:103FB0001C480068C0F10700042801D1012000E07E
:103FC000002050B900BF502080F31188BFF34F8FFD
:103FD000BFF36F8F00BF00BFFEE71248006800020A
:103FE000104A10601046008800F4E06010600B4A30
:103FF000019810700C48006840F470000A4908608D
:104000000846006840F070400860FFF7E1FD0020BE
:1040100006490860FCF7CAF800201CBD00E400E077
:10402000D4000020D800002020ED00E0D0000020C7
:1040300010B500BF502080F31188BFF34F8FBFF33E
:104040006F8F00BF00F0BCFB18B14FF080500449E7
:10405000086000BF002080F3118800BF10BD000081
:1040600004ED00E02DE9F84380460E4617461D4654
:10407000DDF82090B8F1000F01D0012000E0002011
:1040800050B900BF502080F31188BFF34F8FBFF3AA
:104090006F8F00BF00BFFEE70DB1012000E00020E0
:1040A00050B900BF502080F31188BFF34F8FBFF38A
:1040B0006F8F00BF00BFFEE707B10EB1012000E027
:1040C000002050B900BF502080F31188BFF34F8FFC
:1040D000BFF36F8F00BF00BFFEE707B90EB9012025
:1040E00000E0002050B900BF502080F31188BFF3DA
:1040F0004F8FBFF36F8F00BF00BFFEE750200090CF
:104100000098502801D1012000E0002050B900BFE4
:10411000502080F31188BFF34F8FBFF36F8F00BF24
:1041200000BFFEE700BF2C464CB1012084F84600DA
:104130004B463A46314640460094FFF735F8204654
:10414000BDE8F88370B505460E462C4654B900BF4D
:10415000502080F31188BFF34F8FBFF36F8F00BFE4
:1041600000BFFEE7FFF79AFCD4E90F12206801FBBD
:104170000200A0600020A06320686060E06B401E29
:10418000226C216800FB0211E160FF2084F84400EA
:1041900084F845009EB9206908B9012000E000209C
:1041A000A8B904F1100000F0FFFB80B14FF080507F
:1041B00009490860BFF34F8FBFF36F8F07E004F129
:1041C0001000FFF735FC04F12400FFF731FCFFF786
:1041D0008FFC012070BD000004ED00E02DE9FF43DD
:1041E00083B0064688461D464FF00009344654B950
:1041F00000BF502080F31188BFF34F8FBFF36F8F44
:1042000000BF00BFFEE7B8F1000F01D1206C08B974
:10421000012000E0002050B900BF502080F3118839
:10422000BFF34F8FBFF36F8F00BF00BFFEE7022DBC
:1042300002D1E06B012801D1012000E0002050B93B
:1042400000BF502080F31188BFF34F8FBFF36F8FF3
:1042500000BF00BFFEE700F09DFA08B9059808B955
:10426000012000E0002050B900BF502080F31188E9
:10427000BFF34F8FBFF36F8F00BF00BFFEE700BFDC
:10428000FFF70CFCA06BE16B884201D3022D28D113
:104290002A4641462046FEF7BAFE0746606A08B93C
:1042A000012000E0002068B904F1240000F07CFB4C
:1042B00088B14FF0805032490860BFF34F8FBFF391
:1042C0006F8F08E03FB14FF080502D490860BFF379
:1042D0004F8FBFF36F8FFFF70BFC012007B0BDE8D6
:1042E000F083059818B9FFF703FC0020F6E7B9F151
:1042F000000F04D101A8FFF725FD4FF00109FFF7DA
:10430000F7FBFFF7C9FDFFF7C9FB94F94400401C18
:1043100010B9002084F8440094F94500401C10B9FD
:10432000002084F84500FFF7E3FB05A901A800F091
:104330005BF9F0B92046FFF74CF8A0B104F110008A
:104340000599FFF711FD2046FFF727FA00F078FBEB
:10435000002895D14FF0805009490860BFF34F8F76
:10436000BFF36F8F8CE72046FFF717FA00F068FB6A
:1043700086E72046FFF711FA00F062FB0020ADE768
:1043800004ED00E02DE9F84F07468A4690461E46A8
:104390003C4654B900BF502080F31188BFF34F8FC3
:1043A000BFF36F8F00BF00BFFEE7BAF1000F01D16E
:1043B000206C08B9012000E0002050B900BF502057
:1043C00080F31188BFF34F8FBFF36F8F00BF00BF23
:1043D000FEE7022E02D1E06B012801D1012000E0AE
:1043E000002050B900BF502080F31188BFF34F8FD9
:1043F000BFF36F8F00BF00BFFEE7FFF7FDFB00BFFD
:104400005021EFF3118081F31188BFF34F8FBFF379
:104410006F8F00BF0546A06BE16B884201D3022E6F
:1044200025D194F945B0A06B009032465146204604
:10443000FEF7EDFD0BF1010088B9606A08B90120B3
:1044400000E0002050B904F1240000F0ADFA28B1DA
:10445000B8F1000F02D00120C8F8000004E00BF111
:10446000010040B284F845004FF0010901E04FF02F
:10447000000900BF85F3118800BF4846BDE8F88FEA
:104480002DE9F74183B005460E464FF000082C4653
:1044900054B900BF502080F31188BFF34F8FBFF392
:1044A0006F8F00BF00BFFEE70EB9206C08B9012076
:1044B00000E0002050B900BF502080F31188BFF306
:1044C0004F8FBFF36F8F00BF00BFFEE700F062F9B0
:1044D00008B9059808B9012000E0002050B900BFD4
:1044E000502080F31188BFF34F8FBFF36F8F00BF51
:1044F00000BFFEE700BFFFF7D1FAA76BF7B1314667
:104500002046FEF76FFD781EA063206908B90120E0
:1045100000E0002060B904F1100000F045FA38B165
:104520004FF080502F490860BFF34F8FBFF36F8F5C
:10453000FFF7DEFA012006B0BDE8F081059818B952
:10454000FFF7D6FA0020F6E7B8F1000F04D101A872
:10455000FFF7F8FB4FF00108FFF7CAFAFFF79CFCE2
:10456000FFF79CFA94F94400401C10B9002084F82D
:10457000440094F94500401C10B9002084F845001F
:10458000FFF7B6FA05A901A800F02EF8F0B9204609
:10459000FEF712FFA0B104F124000599FFF7E4FB38
:1045A0002046FFF7FAF800F04BFA0028A3D14FF0AD
:1045B00080500C490860BFF34F8FBFF36F8F9AE7AD
:1045C0002046FFF7EAF800F03BFA94E72046FFF7B1
:1045D000E4F800F035FA2046FEF7EEFE00288AD017
:1045E0000020A8E704ED00E070B505460C4655B97B
:1045F00000BF502080F31188BFF34F8FBFF36F8F40
:1046000000BF00BFFEE754B900BF502080F31188FF
:10461000BFF34F8FBFF36F8F00BF00BFFEE7FFF701
:104620003DFA124802686868131A2068401C08B9ED
:10463000002617E00E4928680968884204D0686897
:10464000904201D801260DE02068984207D92068E1
:10465000C01A20602846FFF775FB002602E0002004
:1046600020600126FFF744FA304670BD700000203C
:10467000840000202DE9FF4F85B08046894617460B
:10468000DDE912ABB800FFF7C7F8064656B15C206B
:10469000FFF7C2F804460CB1266304E03046FFF78A
:1046A00045FA00E000248CB1002084F85900CDE9DF
:1046B00000ABCDE902403A4649464046089BFEF72A
:1046C00088FD2046FEF7D4FB012501E04FF0FF35C1
:1046D000284609B0BDE8F08F2DE9F04F85B00746B8
:1046E000884691469A46DDE90EB6109C0EB101202F
:1046F00000E0002050B900BF502080F31188BFF3C4
:104700004F8FBFF36F8F00BF00BFFEE70CB10120DA
:1047100000E0002050B900BF502080F31188BFF3A3
:104720004F8FBFF36F8F00BF00BFFEE75C20039089
:1047300003985C2801D1012000E0002050B900BF9F
:10474000502080F31188BFF34F8FBFF36F8F00BFEE
:1047500000BFFEE700BFB4B1AEB125462C462E63C4
:10476000022085F85900002004A953464A46CDE9A5
:1047700000B1CDE9025041463846FEF72AFD2846F1
:10478000FEF776FB01E000200490049805B0BDE838
:10479000F08F00000549096809B9012005E00449C6
:1047A000096809B9022000E0002070477800002065
:1047B0009400002001490868704700007000002044
:1047C0002DE9F0414FF000084348006800287BD1F4
:1047D00042480068451C4148056015BB40480068D8
:1047E000006808B9012000E0002050B900BF502047
:1047F00080F31188BFF34F8FBFF36F8F00BF00BFEF
:10480000FEE737480768374800683549086035488B
:10481000076035480068401C33490860FEF70EFF0A
:1048200000BF3248006885423BD300BF2C48006877
:10483000006808B9012000E0002020B14FF0FF30EF
:104840002A4908602CE026480068C068C468666889
:10485000B54202D22548066022E0201DFFF7BCF8D1
:10486000A06A18B104F11800FFF7B6F82049E06A11
:104870000968884202D91E49E06A0860E16A01EBD2
:1048800081011C4A02EB8100211DFFF7FBF81A4948
:10489000E06A0968C96A8842C8D34FF00108C5E7D1
:1048A00000BF15480068C06A00EB8000114951F84C
:1048B0002000012801D94FF001081048006808B114
:1048C0004FF0010805E0FFE70D480068401C0C4967
:1048D00008604046BDE8F081940000207000002090
:1048E0006000002064000020840000208C00002074
:1048F000740000207C0200205C000020800000206A
:104900007C00002070B505462C460026002D43D0C3
:1049100022480068844201D1012000E0002050B903
:1049200000BF502080F31188BFF34F8FBFF36F8F0C
:1049300000BF00BFFEE7206D50B900BF502080F3DC
:104940001188BFF34F8FBFF36F8F00BF00BFFEE72B
:10495000206D401E2065E16CE06A88421CD0206D0D
:10496000D0B9201DFFF738F8E06CE062E06AC0F1D2
:104970003800A0610A49E06A0968884202D90849FA
:10498000E06A0860E16A01EB8101064A02EB8100FE
:10499000211DFFF777F80126304670BD5C0000202E
:1049A000740000207C02002070B50646F068C468E0
:1049B00054B900BF502080F31188BFF34F8FBFF36D
:1049C0006F8F00BF00BFFEE704F11800FFF704F887
:1049D00015480068A0B9201DFEF7FEFF1349E06AE4
:1049E0000968884202D91149E06A0860E16A01EB6E
:1049F00081010F4A02EB8100211DFFF743F804E01B
:104A000004F118010B48FFF73DF80B49E06A09680B
:104A1000C96A884204D9012501200849086000E0DC
:104A20000025284670BD000094000020740000207E
:104A30007C020020040700205C0000208000002091
:104A400070B5002400263648006850B900BF5020D9
:104A500080F31188BFF34F8FBFF36F8F00BF00BF8C
:104A6000FEE7FFF71BF82E480068401E2C4908603F
:104A70000846006800284ED12A48006800284AD01D
:104A800023E02948C068C46804F11800FEF7A4FFB9
:104A9000201DFEF7A1FF2549E06A0968884202D976
:104AA0002249E06A0860E16A01EB8101204A02EBD9
:104AB0008100211DFEF7E6FF1E49E06A0968C96A08
:104AC000884202D301201C4908601748006808B9D1
:104AD000012000E000200028D3D00CB1FEF7AEFD8D
:104AE0001648056865B100BFFFF76AFE10B10120E6
:104AF000114908606D1E002DF6D100200F49086095
:104B00000D48006838B1012630070D490860BFF331
:104B10004F8FBFF36F8FFEF7EBFF304670BD000085
:104B2000940000206C000020040700207400002086
:104B30007C0200205C000020800000207C0000201F
:104B400004ED00E010B586B00024FEF7EDF916483C
:104B50000068D0B100200590049003AA04A905A81C
:104B6000FEF75AFF0222DDE904100023CDE90021FF
:104B700002900EA10F48039AFFF7AEFD0E490860A0
:104B80000846006800B1012400BF54B900BF50209E
:104B900080F31188BFF34F8FBFF36F8F00BF00BF4B
:104BA000FEE7204606B010BDA0000020546D722024
:104BB0005376630081370008A40000202DE9FF47E9
:104BC00004460D4616461F46DDF830804FF00009BA
:104BD00054B900BF502080F31188BFF34F8FBFF34B
:104BE0006F8F00BF00BFFEE71448006810B3009548
:104BF00001960294062D15DAFFF7CCFD022808D1A4
:104C00000023424669460D480068FFF7E7FA8146EF
:104C100010E000231A46694608480068FFF7DEFAEC
:104C2000814607E000233A46694604480068FFF7DA
:104C3000A9FB8146484604B0BDE8F087A0000020EB
:104C4000904C000800000000000000000000000080
:104C5000000000000002000018000000000000003A
:104C60000000000002030405060708090A0B0C0DEA
:104C70000E0F1010010200000000000000000102F1
:104C800003040607080900000000010203040000F5
:104C900064656661756C745461736B00BC4C00088C
:104CA00000000020DC00000028010008984D0008EA
:104CB000DC000020942000004401000800030000F4
:104CC00001000000010000000000000000494E4902
:104CD000545F4F4B0A00444F574E5F41435449566F
:104CE000450053544F505F41435449564500464C8C
:104CF0004F575F4143544956450055505F41435417
:104D000049564500000000000000000010000000AF
:104D10000100000000127A00000000000000000006
:104D20000000000000000000000000000000000083
:104D30000000000000000000000000000000000073
:104D40000000000000000000000000000000000063
:104D50000000000000000000000000000000000053
:104D60000000000000000000000000000000000043
:104D70000000000000000000000000000000000033
:104D8000000000000000000000000000AAAAAAAA7B
:084D900000000000000000001B
:04000005080000ED02
:00000001FF
